{
  "contractName": "Cashier",
  "abi": [
    {
      "inputs": [
        {
          "internalType": "address",
          "name": "_voucherKernel",
          "type": "address"
        }
      ],
      "stateMutability": "nonpayable",
      "type": "constructor"
    },
    {
      "anonymous": false,
      "inputs": [
        {
          "indexed": true,
          "internalType": "uint256",
          "name": "_tokenIdVoucher",
          "type": "uint256"
        },
        {
          "indexed": false,
          "internalType": "address",
          "name": "_to",
          "type": "address"
        },
        {
          "indexed": false,
          "internalType": "uint256",
          "name": "_payment",
          "type": "uint256"
        },
        {
          "indexed": false,
          "internalType": "enum Cashier.PaymentType",
          "name": "_type",
          "type": "uint8"
        }
      ],
      "name": "LogAmountDistribution",
      "type": "event"
    },
    {
      "anonymous": false,
      "inputs": [
        {
          "indexed": true,
          "internalType": "uint256",
          "name": "_tokenIdSupply",
          "type": "uint256"
        },
        {
          "indexed": false,
          "internalType": "address",
          "name": "_seller",
          "type": "address"
        },
        {
          "indexed": false,
          "internalType": "uint256",
          "name": "_quantity",
          "type": "uint256"
        }
      ],
      "name": "LogOrderCreated",
      "type": "event"
    },
    {
      "anonymous": false,
      "inputs": [
        {
          "indexed": false,
          "internalType": "address",
          "name": "_caller",
          "type": "address"
        },
        {
          "indexed": false,
          "internalType": "address",
          "name": "_payee",
          "type": "address"
        },
        {
          "indexed": false,
          "internalType": "uint256",
          "name": "_payment",
          "type": "uint256"
        }
      ],
      "name": "LogWithdrawal",
      "type": "event"
    },
    {
      "anonymous": false,
      "inputs": [
        {
          "indexed": true,
          "internalType": "address",
          "name": "previousOwner",
          "type": "address"
        },
        {
          "indexed": true,
          "internalType": "address",
          "name": "newOwner",
          "type": "address"
        }
      ],
      "name": "OwnershipTransferred",
      "type": "event"
    },
    {
      "inputs": [
        {
          "internalType": "address",
          "name": "",
          "type": "address"
        }
      ],
      "name": "escrow",
      "outputs": [
        {
          "internalType": "uint256",
          "name": "",
          "type": "uint256"
        }
      ],
      "stateMutability": "view",
      "type": "function"
    },
    {
      "inputs": [],
      "name": "owner",
      "outputs": [
        {
          "internalType": "address",
          "name": "",
          "type": "address"
        }
      ],
      "stateMutability": "view",
      "type": "function"
    },
    {
      "inputs": [],
      "name": "renounceOwnership",
      "outputs": [],
      "stateMutability": "nonpayable",
      "type": "function"
    },
    {
      "inputs": [
        {
          "internalType": "address",
          "name": "newOwner",
          "type": "address"
        }
      ],
      "name": "transferOwnership",
      "outputs": [],
      "stateMutability": "nonpayable",
      "type": "function"
    },
    {
      "inputs": [
        {
          "internalType": "uint256[]",
          "name": "metadata",
          "type": "uint256[]"
        }
      ],
      "name": "requestCreateOrder_ETH_ETH",
      "outputs": [],
      "stateMutability": "payable",
      "type": "function"
    },
    {
      "inputs": [
        {
          "internalType": "address",
          "name": "_tokenPriceAddress",
          "type": "address"
        },
        {
          "internalType": "address",
          "name": "_tokenDepositAddress",
          "type": "address"
        },
        {
          "internalType": "uint256",
          "name": "_tokensSent",
          "type": "uint256"
        },
        {
          "internalType": "uint256",
          "name": "deadline",
          "type": "uint256"
        },
        {
          "internalType": "uint8",
          "name": "v",
          "type": "uint8"
        },
        {
          "internalType": "bytes32",
          "name": "r",
          "type": "bytes32"
        },
        {
          "internalType": "bytes32",
          "name": "s",
          "type": "bytes32"
        },
        {
          "internalType": "uint256[]",
          "name": "metadata",
          "type": "uint256[]"
        }
      ],
      "name": "requestCreateOrder_TKN_TKN_WithPermit",
      "outputs": [],
      "stateMutability": "payable",
      "type": "function"
    },
    {
      "inputs": [
        {
          "internalType": "address",
          "name": "_tokenDepositAddress",
          "type": "address"
        },
        {
          "internalType": "uint256",
          "name": "_tokensSent",
          "type": "uint256"
        },
        {
          "internalType": "uint256",
          "name": "deadline",
          "type": "uint256"
        },
        {
          "internalType": "uint8",
          "name": "v",
          "type": "uint8"
        },
        {
          "internalType": "bytes32",
          "name": "r",
          "type": "bytes32"
        },
        {
          "internalType": "bytes32",
          "name": "s",
          "type": "bytes32"
        },
        {
          "internalType": "uint256[]",
          "name": "metadata",
          "type": "uint256[]"
        }
      ],
      "name": "requestCreateOrder_ETH_TKN_WithPermit",
      "outputs": [],
      "stateMutability": "payable",
      "type": "function"
    },
    {
      "inputs": [
        {
          "internalType": "address",
          "name": "_tokenPriceAddress",
          "type": "address"
        },
        {
          "internalType": "uint256[]",
          "name": "metadata",
          "type": "uint256[]"
        }
      ],
      "name": "requestCreateOrder_TKN_ETH_WithPermit",
      "outputs": [],
      "stateMutability": "payable",
      "type": "function"
    },
    {
      "inputs": [
        {
          "internalType": "uint256",
          "name": "_tokenIdSupply",
          "type": "uint256"
        },
        {
          "internalType": "address",
          "name": "_issuer",
          "type": "address"
        }
      ],
      "name": "requestVoucher_ETH_ETH",
      "outputs": [],
      "stateMutability": "payable",
      "type": "function"
    },
    {
      "inputs": [
        {
          "internalType": "uint256",
          "name": "_tokenIdSupply",
          "type": "uint256"
        },
        {
          "internalType": "address",
          "name": "_issuer",
          "type": "address"
        },
        {
          "internalType": "uint256",
          "name": "_tokensSent",
          "type": "uint256"
        },
        {
          "internalType": "uint256",
          "name": "deadline",
          "type": "uint256"
        },
        {
          "internalType": "uint8",
          "name": "vPrice",
          "type": "uint8"
        },
        {
          "internalType": "bytes32",
          "name": "rPrice",
          "type": "bytes32"
        },
        {
          "internalType": "bytes32",
          "name": "sPrice",
          "type": "bytes32"
        },
        {
          "internalType": "uint8",
          "name": "vDeposit",
          "type": "uint8"
        },
        {
          "internalType": "bytes32",
          "name": "rDeposit",
          "type": "bytes32"
        },
        {
          "internalType": "bytes32",
          "name": "sDeposit",
          "type": "bytes32"
        }
      ],
      "name": "requestVoucher_TKN_TKN_WithPermit",
      "outputs": [],
      "stateMutability": "payable",
      "type": "function"
    },
    {
      "inputs": [
        {
          "internalType": "uint256",
          "name": "_tokenIdSupply",
          "type": "uint256"
        },
        {
          "internalType": "address",
          "name": "_issuer",
          "type": "address"
        },
        {
          "internalType": "uint256",
          "name": "_tokensDeposit",
          "type": "uint256"
        },
        {
          "internalType": "uint256",
          "name": "deadline",
          "type": "uint256"
        },
        {
          "internalType": "uint8",
          "name": "v",
          "type": "uint8"
        },
        {
          "internalType": "bytes32",
          "name": "r",
          "type": "bytes32"
        },
        {
          "internalType": "bytes32",
          "name": "s",
          "type": "bytes32"
        }
      ],
      "name": "requestVoucher_ETH_TKN_WithPermit",
      "outputs": [],
      "stateMutability": "payable",
      "type": "function"
    },
    {
      "inputs": [
        {
          "internalType": "uint256",
          "name": "_tokenIdSupply",
          "type": "uint256"
        },
        {
          "internalType": "address",
          "name": "_issuer",
          "type": "address"
        },
        {
          "internalType": "uint256",
          "name": "_tokensPrice",
          "type": "uint256"
        },
        {
          "internalType": "uint256",
          "name": "deadline",
          "type": "uint256"
        },
        {
          "internalType": "uint8",
          "name": "v",
          "type": "uint8"
        },
        {
          "internalType": "bytes32",
          "name": "r",
          "type": "bytes32"
        },
        {
          "internalType": "bytes32",
          "name": "s",
          "type": "bytes32"
        }
      ],
      "name": "requestVoucher_TKN_ETH_WithPermit",
      "outputs": [],
      "stateMutability": "payable",
      "type": "function"
    },
    {
      "inputs": [
        {
          "internalType": "uint256",
          "name": "_tokenIdVoucher",
          "type": "uint256"
        }
      ],
      "name": "withdraw",
      "outputs": [],
      "stateMutability": "nonpayable",
      "type": "function"
    },
    {
      "inputs": [],
      "name": "withdrawPool",
      "outputs": [],
      "stateMutability": "nonpayable",
      "type": "function"
    },
    {
      "inputs": [
        {
          "internalType": "address",
          "name": "_account",
          "type": "address"
        }
      ],
      "name": "getEscrowAmount",
      "outputs": [
        {
          "internalType": "uint256",
          "name": "",
          "type": "uint256"
        }
      ],
      "stateMutability": "view",
      "type": "function"
    }
  ],
  "bytecode": "0x60806040523480156200001157600080fd5b506040516200446838038062004468833981810160405260208110156200003757600080fd5b505160016000908155620000536001600160e01b03620000c716565b600180546001600160a01b0319166001600160a01b038316908117909155604051919250906000907f8be0079c531659141344cd1fd0a4f28419497f9722a3daafe3b4186f6b6457e0908290a350600280546001600160a01b0319166001600160a01b0392909216919091179055620000cb565b3390565b61438d80620000db6000396000f3fe6080604052600436106100e85760003560e01c8063715018a61161008a578063cd3fc70611610059578063cd3fc706146104a1578063d1358365146104cd578063e32c7c5914610500578063f2fde38b1461054d576100e8565b8063715018a61461034a57806381a487651461035f5780638da5cb5b146103c5578063c944b723146103f6576100e8565b806353ab658e116100c657806353ab658e146101e457806357d3c7c3146102525780635c42c733146102975780636c545348146102ac576100e8565b80630da06b62146100ed5780631a0c85711461013c5780632e1a7d4d146101ba575b600080fd5b61013a600480360360e081101561010357600080fd5b508035906001600160a01b036020820135169060408101359060608101359060ff6080820135169060a08101359060c00135610580565b005b61013a6004803603604081101561015257600080fd5b6001600160a01b038235169190810190604081016020820135600160201b81111561017c57600080fd5b82018360208201111561018e57600080fd5b803590602001918460208302840111600160201b831117156101af57600080fd5b5090925090506108f3565b3480156101c657600080fd5b5061013a600480360360208110156101dd57600080fd5b5035610bcd565b61013a600480360360208110156101fa57600080fd5b810190602081018135600160201b81111561021457600080fd5b82018360208201111561022657600080fd5b803590602001918460208302840111600160201b8311171561024757600080fd5b5090925090506110c9565b34801561025e57600080fd5b506102856004803603602081101561027557600080fd5b50356001600160a01b0316611337565b60408051918252519081900360200190f35b3480156102a357600080fd5b5061013a611349565b61013a600480360360e08110156102c257600080fd5b6001600160a01b038235169160208101359160408201359160ff6060820135169160808201359160a08101359181019060e0810160c0820135600160201b81111561030c57600080fd5b82018360208201111561031e57600080fd5b803590602001918460208302840111600160201b8311171561033f57600080fd5b509092509050611470565b34801561035657600080fd5b5061013a61181e565b61013a600480360361014081101561037657600080fd5b508035906001600160a01b036020820135169060408101359060608101359060ff608082013581169160a08101359160c08201359160e0810135909116906101008101359061012001356118d2565b3480156103d157600080fd5b506103da611dd8565b604080516001600160a01b039092168252519081900360200190f35b61013a600480360361010081101561040d57600080fd5b6001600160a01b03823581169260208101359091169160408201359160608101359160ff6080830135169160a08101359160c08201359190810190610100810160e0820135600160201b81111561046357600080fd5b82018360208201111561047557600080fd5b803590602001918460208302840111600160201b8311171561049657600080fd5b509092509050611de7565b61013a600480360360408110156104b757600080fd5b50803590602001356001600160a01b0316612249565b3480156104d957600080fd5b50610285600480360360208110156104f057600080fd5b50356001600160a01b0316612413565b61013a600480360360e081101561051657600080fd5b508035906001600160a01b036020820135169060408101359060608101359060ff6080820135169060a08101359060c0013561242e565b34801561055957600080fd5b5061013a6004803603602081101561057057600080fd5b50356001600160a01b0316612750565b600260005414156105c6576040805162461bcd60e51b815260206004820152601f6024820152600080516020614277833981519152604482015290519081900360640190fd5b60026000818155905460408051633eb53ba560e21b8152600481018b9052815184936001600160a01b03169263fad4ee949260248082019391829003018186803b15801561061357600080fd5b505afa158015610627573d6000803e3d6000fd5b505050506040513d604081101561063d57600080fd5b5080516020909101519092509050348214610691576040805162461bcd60e51b815260206004820152600f60248201526e494e434f52524543545f505249434560881b604482015290519081900360640190fd5b8681146106d4576040805162461bcd60e51b815260206004820152600c60248201526b494e434f52524543545f444560a01b604482015290519081900360640190fd5b60025460408051639a751bbd60e01b8152600481018c905290516000926001600160a01b031691639a751bbd916024808301926020929190829003018186803b15801561072057600080fd5b505afa158015610734573d6000803e3d6000fd5b505050506040513d602081101561074a57600080fd5b50516040805163d505accf60e01b8152336004820152306024820152604481018b9052606481018a905260ff8916608482015260a4810188905260c4810187905290519192506001600160a01b0383169163d505accf9160e48082019260009290919082900301818387803b1580156107c257600080fd5b505af11580156107d6573d6000803e3d6000fd5b505060025460408051635723037f60e11b8152600481018f90526001600160a01b038e81166024830152336044830152915191909216935063ae4606fe9250606480830192600092919082900301818387803b15801561083557600080fd5b505af1158015610849573d6000803e3d6000fd5b5050604080516323b872dd60e01b8152336004820152306024820152604481018c905290516001600160a01b03851693506323b872dd925060648083019260209291908290030181600087803b1580156108a257600080fd5b505af11580156108b6573d6000803e3d6000fd5b505050506040513d60208110156108cc57600080fd5b50503360009081526003602052604081208054340190556001905550505050505050505050565b826001600160a01b038116610947576040805162461bcd60e51b8152602060048201526015602482015274494e56414c49445f544f4b454e5f4144445245535360581b604482015290519081900360640190fd5b346109818484600581811061095857fe5b905060200201358585600381811061096c57fe5b9050602002013561285b90919063ffffffff16565b146109c5576040805162461bcd60e51b815260206004820152600f60248201526e494e434f52524543545f46554e445360881b604482015290519081900360640190fd5b6002546000906001600160a01b031663797f2a2633868685816109e457fe5b90506020020135878760018181106109f857fe5b9050602002013588886002818110610a0c57fe5b9050602002013589896003818110610a2057fe5b905060200201358a8a6004818110610a3457fe5b905060200201358b8b6005818110610a4857fe5b905060200201356040518863ffffffff1660e01b815260040180886001600160a01b03166001600160a01b03168152602001878152602001868152602001858152602001848152602001838152602001828152602001975050505050505050602060405180830381600087803b158015610ac157600080fd5b505af1158015610ad5573d6000803e3d6000fd5b505050506040513d6020811015610aeb57600080fd5b5051600254604080516319eb920160e31b815260048101849052600360248201526001600160a01b03898116604483015260006064830181905292519495509092169263cf5c900892608480820193929182900301818387803b158015610b5157600080fd5b505af1158015610b65573d6000803e3d6000fd5b5050336000818152600360205260409020805434019055839250600080516020614318833981519152915086866005818110610b9d57fe5b604080516001600160a01b0390951685526020918202939093013590840152508051918290030190a25050505050565b60026000541415610c13576040805162461bcd60e51b815260206004820152601f6024820152600080516020614277833981519152604482015290519081900360640190fd5b6002600055610c206141cd565b81610c63576040805162461bcd60e51b815260206004820152600e60248201526d155394d41150d25192515117d25160921b604482015290519081900360640190fd5b60208082018390526002546040805163035e54d560e31b81526004810186905290516001600160a01b0390921692631af2a6a892602480840193829003018186803b158015610cb157600080fd5b505afa158015610cc5573d6000803e3d6000fd5b505050506040513d6020811015610cdb57600080fd5b505180825260025460408051631cf7955d60e01b81526004810193909352516001600160a01b0390911691631cf7955d916024808301926020929190829003018186803b158015610d2b57600080fd5b505afa158015610d3f573d6000803e3d6000fd5b505050506040513d6020811015610d5557600080fd5b505160ff16610140820181905215801590610d795750600481610140015160ff1611155b610dc3576040805162461bcd60e51b8152602060048201526016602482015275125395905312510814105653515395081351551213d160521b604482015290519081900360640190fd5b600254602082015160408051630c969ea160e21b81526004810192909252516001600160a01b039092169163325a7a8491602480820192606092909190829003018186803b158015610e1457600080fd5b505afa158015610e28573d6000803e3d6000fd5b505050506040513d6060811015610e3e57600080fd5b508051602080830151604093840151610160860151901515818601529015159181019190915260ff90911690526002548251825163d887b4e760e01b8152600481019190915291516001600160a01b039091169163d887b4e7916024808301926060929190829003018186803b158015610eb757600080fd5b505afa158015610ecb573d6000803e3d6000fd5b505050506040513d6060811015610ee157600080fd5b50805160208083015160409384015160c086015260a085015260808401919091526002548382015183516346d07cb560e01b8152600481019190915292516001600160a01b03909116926346d07cb5926024808301939192829003018186803b158015610f4d57600080fd5b505afa158015610f61573d6000803e3d6000fd5b505050506040513d6020811015610f7757600080fd5b50516001600160a01b039081166040808401919091526002546020848101518351637baca8e760e11b815260048101919091529251919093169263f75951ce9260248082019391829003018186803b158015610fd257600080fd5b505afa158015610fe6573d6000803e3d6000fd5b505050506040513d6020811015610ffc57600080fd5b50516001600160a01b031660608201526101608101516020015161102357611023816128bd565b80610160015160400151158015611047575061016081015151611047906001612950565b156110555761105581612961565b60e08101511561107b576000611069611dd8565b9050611079818360e00151612a62565b505b61010081015115611099576110998160400151826101000151612a62565b610120810151156110b7576110b78160600151826101200151612a62565b6110bf6141cd565b5050600160005550565b346110ee838360058181106110da57fe5b905060200201358484600381811061096c57fe5b14611132576040805162461bcd60e51b815260206004820152600f60248201526e494e434f52524543545f46554e445360881b604482015290519081900360640190fd5b6002546000906001600160a01b031663797f2a26338585858161115157fe5b905060200201358686600181811061116557fe5b905060200201358787600281811061117957fe5b905060200201358888600381811061118d57fe5b90506020020135898960048181106111a157fe5b905060200201358a8a60058181106111b557fe5b905060200201356040518863ffffffff1660e01b815260040180886001600160a01b03166001600160a01b03168152602001878152602001868152602001858152602001848152602001838152602001828152602001975050505050505050602060405180830381600087803b15801561122e57600080fd5b505af1158015611242573d6000803e3d6000fd5b505050506040513d602081101561125857600080fd5b5051600254604080516319eb920160e31b815260048101849052600160248201526000604482018190526064820181905291519394506001600160a01b039092169263cf5c900892608480820193929182900301818387803b1580156112bd57600080fd5b505af11580156112d1573d6000803e3d6000fd5b505033600081815260036020526040902080543401905583925060008051602061431883398151915291508585600581811061130957fe5b604080516001600160a01b0390951685526020918202939093013590840152508051918290030190a2505050565b60036020526000908152604090205481565b611351612b47565b6001546001600160a01b039081169116146113b3576040805162461bcd60e51b815260206004820181905260248201527f4f776e61626c653a2063616c6c6572206973206e6f7420746865206f776e6572604482015290519081900360640190fd5b600260005414156113f9576040805162461bcd60e51b815260206004820152601f6024820152600080516020614277833981519152604482015290519081900360640190fd5b6002600090815560038161140b611dd8565b6001600160a01b03166001600160a01b0316815260200190815260200160002054111561146957600061143c611dd8565b6001600160a01b038116600090815260036020526040812080549190559091506114668282612a62565b50505b6001600055565b876001600160a01b0381166114c4576040805162461bcd60e51b8152602060048201526015602482015274494e56414c49445f544f4b454e5f4144445245535360581b604482015290519081900360640190fd5b876114d58484600581811061095857fe5b14611519576040805162461bcd60e51b815260206004820152600f60248201526e494e434f52524543545f46554e445360881b604482015290519081900360640190fd5b6040805163d505accf60e01b8152336004820152306024820152604481018a90526064810189905260ff8816608482015260a4810187905260c4810186905290516001600160a01b038b169163d505accf9160e480830192600092919082900301818387803b15801561158b57600080fd5b505af115801561159f573d6000803e3d6000fd5b5050600254600092506001600160a01b0316905063797f2a2633868685816115c357fe5b90506020020135878760018181106115d757fe5b90506020020135888860028181106115eb57fe5b90506020020135898960038181106115ff57fe5b905060200201358a8a600481811061161357fe5b905060200201358b8b600581811061162757fe5b905060200201356040518863ffffffff1660e01b815260040180886001600160a01b03166001600160a01b03168152602001878152602001868152602001858152602001848152602001838152602001828152602001975050505050505050602060405180830381600087803b1580156116a057600080fd5b505af11580156116b4573d6000803e3d6000fd5b505050506040513d60208110156116ca57600080fd5b505160028054604080516319eb920160e31b81526004810185905260248101939093526000604484018190526001600160a01b038f81166064860152915194955091169263cf5c900892608480820193929182900301818387803b15801561173157600080fd5b505af1158015611745573d6000803e3d6000fd5b5050604080516323b872dd60e01b8152336004820152306024820152604481018d905290516001600160a01b038e1693506323b872dd925060648083019260209291908290030181600087803b15801561179e57600080fd5b505af11580156117b2573d6000803e3d6000fd5b505050506040513d60208110156117c857600080fd5b5081905060008051602061431883398151915233868660058181106117e957fe5b604080516001600160a01b0390951685526020918202939093013590840152508051918290030190a250505050505050505050565b611826612b47565b6001546001600160a01b03908116911614611888576040805162461bcd60e51b815260206004820181905260248201527f4f776e61626c653a2063616c6c6572206973206e6f7420746865206f776e6572604482015290519081900360640190fd5b6001546040516000916001600160a01b0316907f8be0079c531659141344cd1fd0a4f28419497f9722a3daafe3b4186f6b6457e0908390a3600180546001600160a01b0319169055565b60026000541415611918576040805162461bcd60e51b815260206004820152601f6024820152600080516020614277833981519152604482015290519081900360640190fd5b60026000818155905460408051633eb53ba560e21b8152600481018e9052815184936001600160a01b03169263fad4ee949260248082019391829003018186803b15801561196557600080fd5b505afa158015611979573d6000803e3d6000fd5b505050506040513d604081101561198f57600080fd5b5080516020909101519092509050816119ae8b8363ffffffff612b4b16565b146119f2576040805162461bcd60e51b815260206004820152600f60248201526e494e434f52524543545f46554e445360881b604482015290519081900360640190fd5b6002546040805163e875a61360e01b8152600481018f905290516000926001600160a01b03169163e875a613916024808301926020929190829003018186803b158015611a3e57600080fd5b505afa158015611a52573d6000803e3d6000fd5b505050506040513d6020811015611a6857600080fd5b810190808051906020019092919050505090506000600260009054906101000a90046001600160a01b03166001600160a01b0316639a751bbd8f6040518263ffffffff1660e01b81526004018082815260200191505060206040518083038186803b158015611ad657600080fd5b505afa158015611aea573d6000803e3d6000fd5b505050506040513d6020811015611b0057600080fd5b50516040805163d505accf60e01b815233600482015230602482015260448101879052606481018e905260ff8d16608482015260a481018c905260c481018b905290519192506001600160a01b0384169163d505accf9160e48082019260009290919082900301818387803b158015611b7857600080fd5b505af1158015611b8c573d6000803e3d6000fd5b50506040805163d505accf60e01b815233600482015230602482015260448101879052606481018f905260ff8b16608482015260a481018a905260c4810189905290516001600160a01b038516935063d505accf925060e480830192600092919082900301818387803b158015611c0257600080fd5b505af1158015611c16573d6000803e3d6000fd5b50505050600260009054906101000a90046001600160a01b03166001600160a01b031663ae4606fe8f8f336040518463ffffffff1660e01b815260040180848152602001836001600160a01b03166001600160a01b03168152602001826001600160a01b03166001600160a01b031681526020019350505050600060405180830381600087803b158015611ca957600080fd5b505af1158015611cbd573d6000803e3d6000fd5b5050604080516323b872dd60e01b81523360048201523060248201526044810188905290516001600160a01b03861693506323b872dd925060648083019260209291908290030181600087803b158015611d1657600080fd5b505af1158015611d2a573d6000803e3d6000fd5b505050506040513d6020811015611d4057600080fd5b5050604080516323b872dd60e01b81523360048201523060248201526044810185905290516001600160a01b038316916323b872dd9160648083019260209291908290030181600087803b158015611d9757600080fd5b505af1158015611dab573d6000803e3d6000fd5b505050506040513d6020811015611dc157600080fd5b505060016000555050505050505050505050505050565b6001546001600160a01b031690565b886001600160a01b038116611e3b576040805162461bcd60e51b8152602060048201526015602482015274494e56414c49445f544f4b454e5f4144445245535360581b604482015290519081900360640190fd5b886001600160a01b038116611e8f576040805162461bcd60e51b8152602060048201526015602482015274494e56414c49445f544f4b454e5f4144445245535360581b604482015290519081900360640190fd5b88611eb485856005818110611ea057fe5b905060200201358686600381811061096c57fe5b14611ef8576040805162461bcd60e51b815260206004820152600f60248201526e494e434f52524543545f46554e445360881b604482015290519081900360640190fd5b6040805163d505accf60e01b8152336004820152306024820152604481018b9052606481018a905260ff8916608482015260a4810188905260c4810187905290516001600160a01b038c169163d505accf9160e480830192600092919082900301818387803b158015611f6a57600080fd5b505af1158015611f7e573d6000803e3d6000fd5b5050600254600092506001600160a01b0316905063797f2a263387878581611fa257fe5b9050602002013588886001818110611fb657fe5b9050602002013589896002818110611fca57fe5b905060200201358a8a6003818110611fde57fe5b905060200201358b8b6004818110611ff257fe5b905060200201358c8c600581811061200657fe5b905060200201356040518863ffffffff1660e01b815260040180886001600160a01b03166001600160a01b03168152602001878152602001868152602001858152602001848152602001838152602001828152602001975050505050505050602060405180830381600087803b15801561207f57600080fd5b505af1158015612093573d6000803e3d6000fd5b505050506040513d60208110156120a957600080fd5b81019080805190602001909291905050509050600260009054906101000a90046001600160a01b03166001600160a01b031663cf5c90088260048f8f6040518563ffffffff1660e01b8152600401808581526020018460ff1660ff168152602001836001600160a01b03166001600160a01b03168152602001826001600160a01b03166001600160a01b03168152602001945050505050600060405180830381600087803b15801561215a57600080fd5b505af115801561216e573d6000803e3d6000fd5b5050604080516323b872dd60e01b8152336004820152306024820152604481018e905290516001600160a01b038f1693506323b872dd925060648083019260209291908290030181600087803b1580156121c757600080fd5b505af11580156121db573d6000803e3d6000fd5b505050506040513d60208110156121f157600080fd5b50819050600080516020614318833981519152338787600581811061221257fe5b604080516001600160a01b0390951685526020918202939093013590840152508051918290030190a2505050505050505050505050565b6002600054141561228f576040805162461bcd60e51b815260206004820152601f6024820152600080516020614277833981519152604482015290519081900360640190fd5b6002600081815590546040805163d887b4e760e01b8152600481018690529051349392839283926001600160a01b039092169163d887b4e791602480820192606092909190829003018186803b1580156122e857600080fd5b505afa1580156122fc573d6000803e3d6000fd5b505050506040513d606081101561231257600080fd5b5080516020820151604090920151909450909250905083612339848363ffffffff612b8d16565b1461237d576040805162461bcd60e51b815260206004820152600f60248201526e494e434f52524543545f46554e445360881b604482015290519081900360640190fd5b60025460408051635723037f60e11b8152600481018990526001600160a01b0388811660248301523360448301529151919092169163ae4606fe91606480830192600092919082900301818387803b1580156123d857600080fd5b505af11580156123ec573d6000803e3d6000fd5b50503360009081526003602052604081208054909701909655505060019093555050505050565b6001600160a01b031660009081526003602052604090205490565b60026000541415612474576040805162461bcd60e51b815260206004820152601f6024820152600080516020614277833981519152604482015290519081900360640190fd5b60026000818155905460408051633eb53ba560e21b8152600481018b9052815184936001600160a01b03169263fad4ee949260248082019391829003018186803b1580156124c157600080fd5b505afa1580156124d5573d6000803e3d6000fd5b505050506040513d60408110156124eb57600080fd5b508051602090910151909250905086821461253f576040805162461bcd60e51b815260206004820152600f60248201526e494e434f52524543545f505249434560881b604482015290519081900360640190fd5b348114612582576040805162461bcd60e51b815260206004820152600c60248201526b494e434f52524543545f444560a01b604482015290519081900360640190fd5b6002546040805163e875a61360e01b8152600481018c905290516000926001600160a01b03169163e875a613916024808301926020929190829003018186803b1580156125ce57600080fd5b505afa1580156125e2573d6000803e3d6000fd5b505050506040513d60208110156125f857600080fd5b50516040805163d505accf60e01b815233600482015230602482015260448101869052606481018a905260ff8916608482015260a4810188905260c4810187905290519192506001600160a01b0383169163d505accf9160e48082019260009290919082900301818387803b15801561267057600080fd5b505af1158015612684573d6000803e3d6000fd5b505060025460408051635723037f60e11b8152600481018f90526001600160a01b038e81166024830152336044830152915191909216935063ae4606fe9250606480830192600092919082900301818387803b1580156126e357600080fd5b505af11580156126f7573d6000803e3d6000fd5b5050604080516323b872dd60e01b81523360048201523060248201526044810187905290516001600160a01b03851693506323b872dd925060648083019260209291908290030181600087803b1580156108a257600080fd5b612758612b47565b6001546001600160a01b039081169116146127ba576040805162461bcd60e51b815260206004820181905260248201527f4f776e61626c653a2063616c6c6572206973206e6f7420746865206f776e6572604482015290519081900360640190fd5b6001600160a01b0381166127ff5760405162461bcd60e51b81526004018080602001828103825260268152602001806142976026913960400191505060405180910390fd5b6001546040516001600160a01b038084169216907f8be0079c531659141344cd1fd0a4f28419497f9722a3daafe3b4186f6b6457e090600090a3600180546001600160a01b0319166001600160a01b0392909216919091179055565b60008261286a575060006128b7565b8282028284828161287757fe5b04146128b45760405162461bcd60e51b81526004018080602001828103825260218152602001806142f76021913960400191505060405180910390fd5b90505b92915050565b610160810151516128cf906006612950565b156128e2576128dd81612be7565b61294d565b610160810151516128f4906005612950565b8061290c57506101608101515161290c906004612950565b8061293f575061016081015151612924906002612950565b801561293f57506101608101515161293d906006612950565b155b1561294d5761294d81612e3e565b50565b60ff91821691161c60019081161490565b61016081015151612973906003612950565b15612986576129818161307e565b6129af565b61016081015151612998906002612950565b156129a657612981816136d9565b6129af81613a2a565b610160810151516129c1906006612950565b806129d95750610160810151516129d9906002612950565b156129ec576129e781613bfd565b6129f5565b6129f581613dd3565b60025460208201516040805163ebba1b2960e01b81526004810192909252516001600160a01b039092169163ebba1b299160248082019260009290919082900301818387803b158015612a4757600080fd5b505af1158015612a5b573d6000803e3d6000fd5b5050505050565b6001600160a01b038216612ab3576040805162461bcd60e51b8152602060048201526013602482015272554e5350454349464945445f4144445245535360681b604482015290519081900360640190fd5b60008111612ae2576040805162461bcd60e51b8152602060048201526000602482015290519081900360640190fd5b612afb6001600160a01b0383168263ffffffff613faa16565b604080513381526001600160a01b038416602082015280820183905290517f0ec497a8ae5b1ba29c60470ef651def995fac3deebbdcc56c47a4e5f51a4c2bd9181900360600190a15050565b3390565b60006128b483836040518060400160405280601e81526020017f536166654d6174683a207375627472616374696f6e206f766572666c6f770000815250614094565b6000828201838110156128b4576040805162461bcd60e51b815260206004820152601b60248201527f536166654d6174683a206164646974696f6e206f766572666c6f770000000000604482015290519081900360640190fd5b61014081015160ff1660011480612c06575061014081015160ff166002145b15612c435760808101805160608301516001600160a01b031660009081526003602052604090208054919091039055516101008201805190910190525b61014081015160ff1660031480612c62575061014081015160ff166004145b15612d6e5760025481516040805163e875a61360e01b81526004810192909252516000926001600160a01b03169163e875a613916024808301926020929190829003018186803b158015612cb557600080fd5b505afa158015612cc9573d6000803e3d6000fd5b505050506040513d6020811015612cdf57600080fd5b50516040808401516080850151825163a9059cbb60e01b81526001600160a01b0392831660048201526024810191909152915192935083169163a9059cbb916044808201926020929091908290030181600087803b158015612d4057600080fd5b505af1158015612d54573d6000803e3d6000fd5b505050506040513d6020811015612d6a57600080fd5b5050505b600254602082015160408051633aaa4a8b60e11b81526004810192909252516001600160a01b039092169163755495169160248082019260009290919082900301818387803b158015612dc057600080fd5b505af1158015612dd4573d6000803e3d6000fd5b50505050806020015160008051602061433883398151915282604001518360800151600060405180846001600160a01b03166001600160a01b03168152602001838152602001826002811115612e2657fe5b60ff168152602001935050505060405180910390a250565b61014081015160ff1660011480612e5d575061014081015160ff166002145b15612e9a5760808101805160608301516001600160a01b031660009081526003602052604090208054919091039055516101208201805190910190525b61014081015160ff1660031480612eb9575061014081015160ff166004145b15612fc65760025481516040805163e875a61360e01b81526004810192909252516000926001600160a01b03169163e875a613916024808301926020929190829003018186803b158015612f0c57600080fd5b505afa158015612f20573d6000803e3d6000fd5b505050506040513d6020811015612f3657600080fd5b5051606083015160808401516040805163a9059cbb60e01b81526001600160a01b0393841660048201526024810192909252519293509083169163a9059cbb916044808201926020929091908290030181600087803b158015612f9857600080fd5b505af1158015612fac573d6000803e3d6000fd5b505050506040513d6020811015612fc257600080fd5b5050505b600254602082015160408051633aaa4a8b60e11b81526004810192909252516001600160a01b039092169163755495169160248082019260009290919082900301818387803b15801561301857600080fd5b505af115801561302c573d6000803e3d6000fd5b50505050806020015160008051602061433883398151915282606001518360800151600060405180846001600160a01b03166001600160a01b03168152602001838152602001826002811115612e2657fe5b6000613094826101600151600001516002612950565b156135175761014082015160ff16600114806130b8575061014082015160ff166003145b156131495760a0820180516040808501516001600160a01b031660009081526003602052208054919091039055516130f790600263ffffffff61412b16565b6101208301805182019052905061311581600263ffffffff61412b16565b61010083018051909101905261313281600263ffffffff61412b16565b60a083015160e08401805191849003929092030190525b61014082015160ff1660021480613168575061014082015160ff166004145b156133e157600254825160408051639a751bbd60e01b81526004810192909252516000926001600160a01b031691639a751bbd916024808301926020929190829003018186803b1580156131bb57600080fd5b505afa1580156131cf573d6000803e3d6000fd5b505050506040513d60208110156131e557600080fd5b505160a084015190915061320090600263ffffffff61412b16565b9150806001600160a01b031663a9059cbb8460600151846040518363ffffffff1660e01b815260040180836001600160a01b03166001600160a01b0316815260200182815260200192505050602060405180830381600087803b15801561326657600080fd5b505af115801561327a573d6000803e3d6000fd5b505050506040513d602081101561329057600080fd5b505060408301516001600160a01b0382169063a9059cbb906132b985600263ffffffff61412b16565b6040518363ffffffff1660e01b815260040180836001600160a01b03166001600160a01b0316815260200182815260200192505050602060405180830381600087803b15801561330857600080fd5b505af115801561331c573d6000803e3d6000fd5b505050506040513d602081101561333257600080fd5b50506001600160a01b03811663a9059cbb61334b611dd8565b61335c85600263ffffffff61412b16565b858760a0015103036040518363ffffffff1660e01b815260040180836001600160a01b03166001600160a01b0316815260200182815260200192505050602060405180830381600087803b1580156133b357600080fd5b505af11580156133c7573d6000803e3d6000fd5b505050506040513d60208110156133dd57600080fd5b5050505b8160200151600080516020614338833981519152836060015183600160405180846001600160a01b03166001600160a01b0316815260200183815260200182600281111561342b57fe5b60ff168152602001935050505060405180910390a2602082015160408301516000805160206143388339815191529061346b84600263ffffffff61412b16565b604080516001600160a01b039390931683526020830191909152600182820152519081900360600190a281602001516000805160206143388339815191526134b1611dd8565b6134c284600263ffffffff61412b16565b848660a001510303600160405180846001600160a01b03166001600160a01b031681526020018381526020018260028111156134fa57fe5b60ff168152602001935050505060405180910390a25060006136d5565b61014082015160ff1660011480613536575061014082015160ff166003145b156135745760a0820180516040808501516001600160a01b0316600090815260036020522080549190910390555160e0830180519091019052613689565b600254825160408051639a751bbd60e01b81526004810192909252516000926001600160a01b031691639a751bbd916024808301926020929190829003018186803b1580156135c257600080fd5b505afa1580156135d6573d6000803e3d6000fd5b505050506040513d60208110156135ec57600080fd5b505190506001600160a01b03811663a9059cbb613607611dd8565b8560a001516040518363ffffffff1660e01b815260040180836001600160a01b03166001600160a01b0316815260200182815260200192505050602060405180830381600087803b15801561365b57600080fd5b505af115801561366f573d6000803e3d6000fd5b505050506040513d602081101561368557600080fd5b5050505b81602001516000805160206143388339815191526136a5611dd8565b60a0850151604080516001600160a01b039390931683526020830191909152600182820152519081900360600190a25b5050565b61014081015160ff16600114806136f8575061014081015160ff166003145b156137705760a0810180516040808401516001600160a01b0316600090815260036020522080549190910390555161373790600263ffffffff61412b16565b61010082018051909101905260a081015161375990600263ffffffff61412b16565b8160a0015103816101200181815101915081815250505b61014081015160ff166002148061378f575061014081015160ff166004145b1561396857600254815160408051639a751bbd60e01b81526004810192909252516000926001600160a01b031691639a751bbd916024808301926020929190829003018186803b1580156137e257600080fd5b505afa1580156137f6573d6000803e3d6000fd5b505050506040513d602081101561380c57600080fd5b5051604083015160a08401519192506001600160a01b0383169163a9059cbb919061383e90600263ffffffff61412b16565b6040518363ffffffff1660e01b815260040180836001600160a01b03166001600160a01b0316815260200182815260200192505050602060405180830381600087803b15801561388d57600080fd5b505af11580156138a1573d6000803e3d6000fd5b505050506040513d60208110156138b757600080fd5b5050606082015160a08301516001600160a01b0383169163a9059cbb916138e590600263ffffffff61412b16565b8560a00151036040518363ffffffff1660e01b815260040180836001600160a01b03166001600160a01b0316815260200182815260200192505050602060405180830381600087803b15801561393a57600080fd5b505af115801561394e573d6000803e3d6000fd5b505050506040513d602081101561396457600080fd5b5050505b8060200151600080516020614338833981519152826040015161399960028560a0015161412b90919063ffffffff16565b604080516001600160a01b039390931683526020830191909152600182820152519081900360600190a2806020015160008051602061433883398151915282606001516139f460028560a0015161412b90919063ffffffff16565b8460a0015103600160405180846001600160a01b03166001600160a01b03168152602001838152602001826002811115612e2657fe5b61014081015160ff1660011480613a49575061014081015160ff166003145b15613a845760a0810180516040808401516001600160a01b031660009081526003602052208054919091039055516101008201805190910190525b61014081015160ff1660021480613aa3575061014081015160ff166004145b15613baf57600254815160408051639a751bbd60e01b81526004810192909252516000926001600160a01b031691639a751bbd916024808301926020929190829003018186803b158015613af657600080fd5b505afa158015613b0a573d6000803e3d6000fd5b505050506040513d6020811015613b2057600080fd5b505160408084015160a0850151825163a9059cbb60e01b81526001600160a01b0392831660048201526024810191909152915192935083169163a9059cbb916044808201926020929091908290030181600087803b158015613b8157600080fd5b505af1158015613b95573d6000803e3d6000fd5b505050506040513d6020811015613bab57600080fd5b5050505b806020015160008051602061433883398151915282604001518360a00151600160405180846001600160a01b03166001600160a01b03168152602001838152602001826002811115612e2657fe5b61014081015160ff1660011480613c1c575061014081015160ff166003145b15613c595760c08101805160608301516001600160a01b031660009081526003602052604090208054919091039055516101208201805190910190525b61014081015160ff1660021480613c78575061014081015160ff166004145b15613d8557600254815160408051639a751bbd60e01b81526004810192909252516000926001600160a01b031691639a751bbd916024808301926020929190829003018186803b158015613ccb57600080fd5b505afa158015613cdf573d6000803e3d6000fd5b505050506040513d6020811015613cf557600080fd5b5051606083015160c08401516040805163a9059cbb60e01b81526001600160a01b0393841660048201526024810192909252519293509083169163a9059cbb916044808201926020929091908290030181600087803b158015613d5757600080fd5b505af1158015613d6b573d6000803e3d6000fd5b505050506040513d6020811015613d8157600080fd5b5050505b806020015160008051602061433883398151915282606001518360c00151600260405180846001600160a01b03166001600160a01b03168152602001838152602001826002811115612e2657fe5b61014081015160ff1660011480613df2575061014081015160ff166003145b15613e2e5760c08101805160608301516001600160a01b0316600090815260036020526040902080549190910390555160e08201805190910190525b61014081015160ff1660021480613e4d575061014081015160ff166004145b15613f6757600254815160408051639a751bbd60e01b81526004810192909252516000926001600160a01b031691639a751bbd916024808301926020929190829003018186803b158015613ea057600080fd5b505afa158015613eb4573d6000803e3d6000fd5b505050506040513d6020811015613eca57600080fd5b505190506001600160a01b03811663a9059cbb613ee5611dd8565b8460c001516040518363ffffffff1660e01b815260040180836001600160a01b03166001600160a01b0316815260200182815260200192505050602060405180830381600087803b158015613f3957600080fd5b505af1158015613f4d573d6000803e3d6000fd5b505050506040513d6020811015613f6357600080fd5b5050505b8060200151600080516020614338833981519152613f83611dd8565b60c0840151604080516001600160a01b038416815260208101839052600291810182612e26565b80471015613fff576040805162461bcd60e51b815260206004820152601d60248201527f416464726573733a20696e73756666696369656e742062616c616e6365000000604482015290519081900360640190fd5b6040516000906001600160a01b0384169083908381818185875af1925050503d806000811461404a576040519150601f19603f3d011682016040523d82523d6000602084013e61404f565b606091505b505090508061408f5760405162461bcd60e51b815260040180806020018281038252603a8152602001806142bd603a913960400191505060405180910390fd5b505050565b600081848411156141235760405162461bcd60e51b81526004018080602001828103825283818151815260200191508051906020019080838360005b838110156140e85781810151838201526020016140d0565b50505050905090810190601f1680156141155780820380516001836020036101000a031916815260200191505b509250505060405180910390fd5b505050900390565b60006128b483836040518060400160405280601a81526020017f536166654d6174683a206469766973696f6e206279207a65726f000000000000815250600081836141b75760405162461bcd60e51b81526020600482018181528351602484015283519092839260449091019190850190808383600083156140e85781810151838201526020016140d0565b5060008385816141c357fe5b0495945050505050565b604051806101800160405280600081526020016000815260200160006001600160a01b0316815260200160006001600160a01b03168152602001600081526020016000815260200160008152602001600081526020016000815260200160008152602001600060ff168152602001614243614248565b905290565b6040805160a0810182526000808252602082018190529181018290526060810182905260808101919091529056fe5265656e7472616e637947756172643a207265656e7472616e742063616c6c004f776e61626c653a206e6577206f776e657220697320746865207a65726f2061646472657373416464726573733a20756e61626c6520746f2073656e642076616c75652c20726563697069656e74206d61792068617665207265766572746564536166654d6174683a206d756c7469706c69636174696f6e206f766572666c6f773c7d1bcea7d560a676b684d1aa9c806d1323768e5ec16ac3f689054242dcf22ae6e743e535fe193128a1e1839b7c1f313bb203d9cbb58e4c955d5e9a8a8f0fc2a2646970667358221220c6729c67539634622d9902a261f1fc87b56d69c57efad916e666bd8e7c8e3cb364736f6c63430006060033",
  "immutableReferences": {},
  "source": "// SPDX-License-Identifier: LGPL-3.0-or-later\npragma solidity >=0.6.6 <0.7.0;\n\nimport \"@openzeppelin/contracts/utils/ReentrancyGuard.sol\";\nimport \"@openzeppelin/contracts/math/SafeMath.sol\";\nimport \"@openzeppelin/contracts/Access/Ownable.sol\";\nimport \"./VoucherKernel.sol\";\nimport \"./usingHelpers.sol\";\nimport \"./IERC20WithPermit.sol\";\n\n/**\n * @title Contract for managing funds\n * @dev Warning: the contract hasn't been audited yet!\n *  Roughly following OpenZeppelin's Escrow at https://github.com/OpenZeppelin/openzeppelin-solidity/contracts/payment/\n */\ncontract Cashier is usingHelpers, ReentrancyGuard, Ownable {\n    using Address for address payable;\n    using SafeMath for uint;\n    \n    VoucherKernel voucherKernel;\n\n    enum PaymentType { PAYMENT, DEPOSIT_SELLER, DEPOSIT_BUYER }\n        \n    mapping(address => uint256) public escrow;  //both types of deposits AND payments >> can be released token-by-token if checks pass\n    //slashedDepositPool can be obtained through getEscrowAmount(poolAddress)\n    \n    uint256 internal constant CANCELFAULT_SPLIT = 2; //for POC purposes, this is hardcoded; e.g. each party gets depositSe / 2\n    \n    struct VoucherDetails {\n        uint256 tokenIdSupply;\n        uint256 tokenIdVoucher;\n        address payable issuer;\n        address payable holder;\n        uint256 price;\n        uint256 depositSe;\n        uint256 depositBu;\n        uint256 amount2pool;\n        uint256 amount2issuer;\n        uint256 amount2holder;\n        uint8   paymentMethod;\n        VoucherStatus currStatus;\n    }\n\n    event LogOrderCreated(\n        uint256 indexed _tokenIdSupply,\n        address _seller,\n        uint256 _quantity\n    );\n    \n    event LogWithdrawal(\n        address _caller,\n        address _payee, \n        uint256 _payment\n    );\n\n    event LogAmountDistribution (\n        uint256 indexed _tokenIdVoucher,\n        address _to, \n        uint256 _payment,\n        PaymentType _type\n    );\n\n    modifier notZeroAddress(address tokenAddress) {\n        require(tokenAddress != address(0), \"INVALID_TOKEN_ADDRESS\");\n        _;\n    }\n\n    constructor(\n        address _voucherKernel\n    ) \n        public \n    {\n        voucherKernel = VoucherKernel(_voucherKernel);\n    }\n    \n    \n    /**\n     * @notice Issuer/Seller offers promises as supply tokens and needs to escrow the deposit\n        @param metadata metadata which is required for creation of a voucher\n        Metadata array is used as in some scenarios we need several more params, as we need to recover \n        onwer address in order to permit the contract to transfer funds in his behalf. \n        Since the params get too many, we end up in situation that the stack is too deep.\n        \n        uint256 _validFrom = metadata[0];\n        uint256 _validTo = metadata[1];\n        uint256 _price = metadata[2];\n        uint256 _depositSe = metadata[3];\n        uint256 _depositBu = metadata[4];\n        uint256 _quantity = metadata[5];\n     */\n    function requestCreateOrder_ETH_ETH(uint256[] calldata metadata)\n        external\n        payable\n    {\n        require(metadata[3].mul(metadata[5])  == msg.value, \"INCORRECT_FUNDS\");   //hex\"54\" FISSION.code(FISSION.Category.Finance, FISSION.Status.InsufficientFunds)\n\n        uint256 tokenIdSupply = voucherKernel.createTokenSupplyID(msg.sender, metadata[0], metadata[1], metadata[2], metadata[3], metadata[4], metadata[5]);\n        \n        voucherKernel.createPaymentMethod(tokenIdSupply, ETH_ETH, address(0), address(0));\n\n        //checks\n        //(i) this is for separate promise allocation, not in prototype\n        //uint256 depositSe = voucherKernel.getPromiseDepositSe(promiseId);\n        //require(depositSe * _quantity == weiReceived, \"INCORRECT_FUNDS\");   //hex\"54\" FISSION.code(FISSION.Category.Finance, FISSION.Status.InsufficientFunds)\n        //(ii) prototype check\n        \n        \n        //record funds in escrow ...\n        escrow[msg.sender] += msg.value;\n        \n        emit LogOrderCreated(tokenIdSupply, msg.sender, metadata[5]);\n    }\n\n    function requestCreateOrder_TKN_TKN_WithPermit(\n        address _tokenPriceAddress,\n        address _tokenDepositAddress,\n        uint256 _tokensSent,\n        uint256 deadline,\n        uint8 v,\n        bytes32 r,\n        bytes32 s,\n        uint256[] calldata metadata\n        )\n        notZeroAddress(_tokenPriceAddress)\n        notZeroAddress(_tokenDepositAddress)\n        external\n        payable\n    {\n        require(metadata[3].mul(metadata[5]) == _tokensSent, \"INCORRECT_FUNDS\");   //hex\"54\" FISSION.code(FISSION.Category.Finance, FISSION.Status.InsufficientFunds)\n        \n        IERC20WithPermit(_tokenDepositAddress).permit(msg.sender, address(this), _tokensSent, deadline, v, r, s);\n        \n        uint256 tokenIdSupply = voucherKernel.createTokenSupplyID(msg.sender, metadata[0], metadata[1], metadata[2], metadata[3], metadata[4], metadata[5]);\n        \n        voucherKernel.createPaymentMethod(tokenIdSupply, TKN_TKN, _tokenPriceAddress, _tokenDepositAddress);\n\n        IERC20WithPermit(_tokenDepositAddress).transferFrom(msg.sender, address(this), _tokensSent);\n        \n        emit LogOrderCreated(tokenIdSupply, msg.sender, metadata[5]);\n    }\n\n    function requestCreateOrder_ETH_TKN_WithPermit(\n        address _tokenDepositAddress,\n        uint256 _tokensSent,\n        uint256 deadline,\n        uint8 v,\n        bytes32 r,\n        bytes32 s,\n        uint256[] calldata metadata\n        )\n        notZeroAddress(_tokenDepositAddress)\n        external\n        payable\n    {\n        require(metadata[3].mul(metadata[5]) == _tokensSent, \"INCORRECT_FUNDS\");   //hex\"54\" FISSION.code(FISSION.Category.Finance, FISSION.Status.InsufficientFunds)\n        \n        IERC20WithPermit(_tokenDepositAddress).permit(msg.sender, address(this), _tokensSent, deadline, v, r, s);\n        \n        uint256 tokenIdSupply = voucherKernel.createTokenSupplyID(msg.sender, metadata[0], metadata[1], metadata[2], metadata[3], metadata[4], metadata[5]);\n        \n        voucherKernel.createPaymentMethod(tokenIdSupply, ETH_TKN, address(0), _tokenDepositAddress);\n\n        IERC20WithPermit(_tokenDepositAddress).transferFrom(msg.sender, address(this), _tokensSent);\n        \n        emit LogOrderCreated(tokenIdSupply, msg.sender, metadata[5]);\n    }\n\n    function requestCreateOrder_TKN_ETH_WithPermit(\n        address _tokenPriceAddress,\n        uint256[] calldata metadata\n        )\n        notZeroAddress(_tokenPriceAddress)\n        external\n        payable\n    {\n        require(metadata[3].mul(metadata[5]) == msg.value, \"INCORRECT_FUNDS\");   //hex\"54\" FISSION.code(FISSION.Category.Finance, FISSION.Status.InsufficientFunds)\n        \n        uint256 tokenIdSupply = voucherKernel.createTokenSupplyID(msg.sender, metadata[0], metadata[1], metadata[2], metadata[3], metadata[4], metadata[5]);\n        voucherKernel.createPaymentMethod(tokenIdSupply, TKN_ETH, _tokenPriceAddress, address(0));\n\n        escrow[msg.sender] += msg.value;\n\n        emit LogOrderCreated(tokenIdSupply, msg.sender, metadata[5]);\n    }\n    \n    /**\n     * @notice Consumer requests/buys a voucher by filling an order and receiving a Voucher Token in return\n     * @param _tokenIdSupply    ID of the supply token\n     * @param _issuer           Address of the issuer of the supply token\n     */\n    function requestVoucher_ETH_ETH(uint256 _tokenIdSupply, address _issuer)\n        external\n        payable\n        nonReentrant\n    {\n        uint256 weiReceived = msg.value;\n\n        //checks\n        (uint256 price, uint256 depositSe, uint256 depositBu) = voucherKernel.getOrderCosts(_tokenIdSupply);\n        require(price.add(depositBu) == weiReceived, \"INCORRECT_FUNDS\");   //hex\"54\" FISSION.code(FISSION.Category.Finance, FISSION.Status.InsufficientFunds)\n\n        voucherKernel.fillOrder(_tokenIdSupply, _issuer, msg.sender);\n\n        //record funds in escrow ...\n        escrow[msg.sender] += weiReceived;\n    }\n    \n    function requestVoucher_TKN_TKN_WithPermit(\n        uint256 _tokenIdSupply, \n        address _issuer,\n        uint256 _tokensSent,\n        uint256 deadline,\n        uint8 vPrice, bytes32 rPrice, bytes32 sPrice, // tokenPrice\n        uint8 vDeposit, bytes32 rDeposit, bytes32 sDeposit  // tokenDeposits\n        )\n        external\n        payable\n        nonReentrant\n    {\n\n        //checks\n        (uint256 price, uint256 depositBu) = voucherKernel.getBuyerOrderCosts(_tokenIdSupply);\n        require(_tokensSent.sub(depositBu) == price, \"INCORRECT_FUNDS\");\n\n        address tokenPriceAddress = voucherKernel.getVoucherPriceToken(_tokenIdSupply);\n        address tokenDepositAddress = voucherKernel.getVoucherDepositToken(_tokenIdSupply);\n\n        IERC20WithPermit(tokenPriceAddress).permit(msg.sender, address(this), price, deadline, vPrice, rPrice, sPrice);\n        IERC20WithPermit(tokenDepositAddress).permit(msg.sender, address(this), depositBu, deadline, vDeposit, rDeposit, sDeposit);\n\n        voucherKernel.fillOrder(_tokenIdSupply, _issuer, msg.sender);\n\n        IERC20WithPermit(tokenPriceAddress).transferFrom(msg.sender, address(this), price);\n        IERC20WithPermit(tokenDepositAddress).transferFrom(msg.sender, address(this), depositBu);\n    }\n\n    function requestVoucher_ETH_TKN_WithPermit(\n        uint256 _tokenIdSupply, \n        address _issuer,\n        uint256 _tokensDeposit,\n        uint256 deadline,\n        uint8 v, bytes32 r, bytes32 s\n        )\n        external\n        payable\n        nonReentrant\n    {\n\n        //checks\n        (uint256 price, uint256 depositBu) = voucherKernel.getBuyerOrderCosts(_tokenIdSupply);\n        require(price == msg.value, \"INCORRECT_PRICE\");   //hex\"54\" FISSION.code(FISSION.Category.Finance, FISSION.Status.InsufficientFunds)\n        require(depositBu == _tokensDeposit, \"INCORRECT_DE\");   //hex\"54\" FISSION.code(FISSION.Category.Finance, FISSION.Status.InsufficientFunds)\n\n        address tokenDepositAddress = voucherKernel.getVoucherDepositToken(_tokenIdSupply);\n        IERC20WithPermit(tokenDepositAddress).permit(msg.sender, address(this), _tokensDeposit, deadline, v, r, s);\n\n        voucherKernel.fillOrder(_tokenIdSupply, _issuer, msg.sender);\n\n        IERC20WithPermit(tokenDepositAddress).transferFrom(msg.sender, address(this), _tokensDeposit);\n\n         //record funds in escrow ...\n        escrow[msg.sender] += msg.value;\n    }\n\n    function requestVoucher_TKN_ETH_WithPermit(\n        uint256 _tokenIdSupply, \n        address _issuer,\n        uint256 _tokensPrice,\n        uint256 deadline,\n        uint8 v, bytes32 r, bytes32 s\n        )\n        external\n        payable\n        nonReentrant\n    {\n\n        //checks\n        (uint256 price, uint256 depositBu) = voucherKernel.getBuyerOrderCosts(_tokenIdSupply);\n        require(price == _tokensPrice, \"INCORRECT_PRICE\");   //hex\"54\" FISSION.code(FISSION.Category.Finance, FISSION.Status.InsufficientFunds)\n        require(depositBu == msg.value, \"INCORRECT_DE\");   //hex\"54\" FISSION.code(FISSION.Category.Finance, FISSION.Status.InsufficientFunds)\n\n        address tokenPriceAddress = voucherKernel.getVoucherPriceToken(_tokenIdSupply);\n        IERC20WithPermit(tokenPriceAddress).permit(msg.sender, address(this), price, deadline, v, r, s);\n\n        voucherKernel.fillOrder(_tokenIdSupply, _issuer, msg.sender);\n\n        IERC20WithPermit(tokenPriceAddress).transferFrom(msg.sender, address(this), price);\n\n         //record funds in escrow ...\n        escrow[msg.sender] += msg.value;\n    }\n\n\n    /**\n     * @notice Trigger withdrawals of what funds are releasable\n     * The caller of this function triggers transfers to all involved entities (pool, issuer, token holder), also paying for gas.\n     * @dev This function would be optimized a lot, here verbose for readability.\n     * @param _tokenIdVoucher  ID of a voucher token (ERC-721) to try withdraw funds from\n     */\n    function withdraw(uint256 _tokenIdVoucher)\n        external\n        nonReentrant\n    {\n        //TODO: more checks\n        //TODO: check to pass 2 diff holders and how the amounts will be distributed\n\n        VoucherDetails memory voucherDetails;\n        \n        //in the future might want to (i) check the gasleft() (but UNGAS proposal might make it impossible), and/or (ii) set upper loop limit to sth like .length < 2**15\n        require(_tokenIdVoucher != 0, \"UNSPECIFIED_ID\");    //hex\"20\" FISSION.code(FISSION.Category.Find, FISSION.Status.NotFound_Unequal_OutOfRange)\n        \n        voucherDetails.tokenIdVoucher = _tokenIdVoucher;\n        voucherDetails.tokenIdSupply = voucherKernel.getIdSupplyFromVoucher(voucherDetails.tokenIdVoucher);\n        voucherDetails.paymentMethod = voucherKernel.getVoucherPaymentMethod(voucherDetails.tokenIdSupply);\n\n        require(voucherDetails.paymentMethod > 0 && voucherDetails.paymentMethod <= 4, \"INVALID PAYMENT METHOD\");\n\n        (voucherDetails.currStatus.status,\n            voucherDetails.currStatus.isPaymentReleased,\n            voucherDetails.currStatus.isDepositsReleased\n        ) = voucherKernel.getVoucherStatus(voucherDetails.tokenIdVoucher);\n        \n        (voucherDetails.price, \n            voucherDetails.depositSe, \n            voucherDetails.depositBu\n        ) = voucherKernel.getOrderCosts(voucherDetails.tokenIdSupply);\n        \n        voucherDetails.issuer = address(uint160( voucherKernel.getVoucherIssuer(voucherDetails.tokenIdVoucher) ));\n        voucherDetails.holder = address(uint160( voucherKernel.getVoucherHolder(voucherDetails.tokenIdVoucher) ));\n        \n        \n        //process the RELEASE OF PAYMENTS - only depends on the redeemed/not-redeemed, a voucher need not be in the final status\n        if (!voucherDetails.currStatus.isPaymentReleased) \n        {\n            releasePayments(voucherDetails);\n        }\n\n        //process the RELEASE OF DEPOSITS - only when vouchers are in the FINAL status \n        if (!voucherDetails.currStatus.isDepositsReleased && \n            isStatus(voucherDetails.currStatus.status, idxFinal)) \n        {\n            releaseDeposits(voucherDetails);\n        }\n        \n        if (voucherDetails.amount2pool > 0) {\n            address payable poolAddress = address(uint160(owner()));\n            _withdraw(poolAddress, voucherDetails.amount2pool);\n        }\n        \n        if (voucherDetails.amount2issuer > 0) {\n            _withdraw(voucherDetails.issuer, voucherDetails.amount2issuer);\n        }\n\n        if (voucherDetails.amount2holder > 0) {\n            _withdraw(voucherDetails.holder, voucherDetails.amount2holder);\n        }\n\n        delete voucherDetails;\n        \n    }\n\n    function releasePayments(VoucherDetails memory voucherDetails) internal {\n\n        if (isStatus(voucherDetails.currStatus.status, idxRedeem)) {\n            releasePaymentToSeller(voucherDetails);\n        } else if (isStatus(voucherDetails.currStatus.status, idxRefund) \n                || isStatus(voucherDetails.currStatus.status, idxExpire) \n                || (isStatus(voucherDetails.currStatus.status, idxCancelFault) \n                && !isStatus(voucherDetails.currStatus.status, idxRedeem))) \n        {\n           releasePaymentToBuyer(voucherDetails);\n        }\n    }\n\n    function releasePaymentToSeller(VoucherDetails memory voucherDetails) internal {\n\n        if(voucherDetails.paymentMethod == ETH_ETH || voucherDetails.paymentMethod == ETH_TKN) {\n            escrow[voucherDetails.holder] -= voucherDetails.price;\n            voucherDetails.amount2issuer += voucherDetails.price;\n        }\n\n        // TODO Chris - Can we have the same approach as above, first collect all amounts in one variable and do the payout at the end? So we save gas from multiple transfers\n        if(voucherDetails.paymentMethod == TKN_ETH || voucherDetails.paymentMethod == TKN_TKN) {\n            address addressTokenPrice = voucherKernel.getVoucherPriceToken(voucherDetails.tokenIdSupply);\n            IERC20WithPermit(addressTokenPrice).transfer(voucherDetails.issuer, voucherDetails.price);\n        }\n\n        voucherKernel.setPaymentReleased(voucherDetails.tokenIdVoucher);\n\n        LogAmountDistribution(\n            voucherDetails.tokenIdVoucher, \n            voucherDetails.issuer, \n            voucherDetails.price, \n            PaymentType.PAYMENT\n        );\n    }\n\n    function releasePaymentToBuyer(VoucherDetails memory voucherDetails) internal {\n\n        if(voucherDetails.paymentMethod == ETH_ETH || voucherDetails.paymentMethod == ETH_TKN) {\n            escrow[voucherDetails.holder] -= voucherDetails.price;\n            voucherDetails.amount2holder += voucherDetails.price;\n        }\n\n        if(voucherDetails.paymentMethod == TKN_ETH || voucherDetails.paymentMethod == TKN_TKN) {\n            address addressTokenPrice = voucherKernel.getVoucherPriceToken(voucherDetails.tokenIdSupply);\n            IERC20WithPermit(addressTokenPrice).transfer(voucherDetails.holder, voucherDetails.price);\n            \n        }\n\n        voucherKernel.setPaymentReleased(voucherDetails.tokenIdVoucher);\n\n        LogAmountDistribution(\n            voucherDetails.tokenIdVoucher, \n            voucherDetails.holder, \n            voucherDetails.price, \n            PaymentType.PAYMENT\n        );\n    }\n\n    function releaseDeposits(VoucherDetails memory voucherDetails) internal {\n\n        //first, depositSe\n        if (isStatus(voucherDetails.currStatus.status, idxComplain)) {\n            //slash depositSe\n            distributeIssuerDepositOnHolderComplain(voucherDetails);\n        } else {\n            if (isStatus(voucherDetails.currStatus.status, idxCancelFault)) {\n                //slash depositSe\n                distributeIssuerDepositOnIssuerCancel(voucherDetails);\n            } else {\n                //release depositSe\n                distributeFullIssuerDeposit(voucherDetails);                  \n            }\n        }\n        \n        //second, depositBu    \n        if (isStatus(voucherDetails.currStatus.status, idxRedeem) || \n            isStatus(voucherDetails.currStatus.status, idxCancelFault)\n            ) {\n            //release depositBu\n            distributeFullHolderDeposit(voucherDetails);\n        } else {\n            //slash depositBu\n            distributeHolderDepositOnNotRedeemedNotCancelled(voucherDetails);\n                  \n        }\n\n        voucherKernel.setDepositsReleased(voucherDetails.tokenIdVoucher);\n    }\n\n    function distributeIssuerDepositOnHolderComplain(VoucherDetails memory voucherDetails) internal {\n        \n        uint256 tFraction;\n\n        if (isStatus(voucherDetails.currStatus.status, idxCancelFault)) {\n            //appease the conflict three-ways\n            if(voucherDetails.paymentMethod == ETH_ETH || voucherDetails.paymentMethod == TKN_ETH) {\n                escrow[voucherDetails.issuer] -= voucherDetails.depositSe;\n                tFraction = voucherDetails.depositSe.div(CANCELFAULT_SPLIT);\n                voucherDetails.amount2holder += tFraction; //Bu gets, say, a half\n                voucherDetails.amount2issuer += tFraction.div(CANCELFAULT_SPLIT);   //Se gets, say, a quarter\n                voucherDetails.amount2pool += voucherDetails.depositSe - tFraction - tFraction.div(CANCELFAULT_SPLIT);    //slashing the rest\n            }\n\n            if(voucherDetails.paymentMethod == ETH_TKN || voucherDetails.paymentMethod == TKN_TKN) {\n                address addressTokenDeposits = voucherKernel.getVoucherDepositToken(voucherDetails.tokenIdSupply);\n                \n                tFraction = voucherDetails.depositSe.div(CANCELFAULT_SPLIT);\n\n                IERC20WithPermit(addressTokenDeposits).transfer(voucherDetails.holder, tFraction);\n                IERC20WithPermit(addressTokenDeposits).transfer(voucherDetails.issuer, tFraction.div(CANCELFAULT_SPLIT));\n                IERC20WithPermit(addressTokenDeposits).transfer(owner(), voucherDetails.depositSe - tFraction - tFraction.div(CANCELFAULT_SPLIT));\n            }\n\n            LogAmountDistribution(voucherDetails.tokenIdVoucher, voucherDetails.holder, tFraction, PaymentType.DEPOSIT_SELLER);\n            LogAmountDistribution(voucherDetails.tokenIdVoucher, voucherDetails.issuer, tFraction.div(CANCELFAULT_SPLIT), PaymentType.DEPOSIT_SELLER);\n            LogAmountDistribution(voucherDetails.tokenIdVoucher, owner(), voucherDetails.depositSe - tFraction - tFraction.div(CANCELFAULT_SPLIT), PaymentType.DEPOSIT_SELLER);\n            \n            tFraction = 0;\n\n        } else {\n            //slash depositSe\n            if(voucherDetails.paymentMethod == ETH_ETH || voucherDetails.paymentMethod == TKN_ETH) {\n                escrow[voucherDetails.issuer] -= voucherDetails.depositSe;\n                voucherDetails.amount2pool += voucherDetails.depositSe;\n            } else {\n                address addressTokenDeposits = voucherKernel.getVoucherDepositToken(voucherDetails.tokenIdSupply);\n                IERC20WithPermit(addressTokenDeposits).transfer(owner(), voucherDetails.depositSe);\n            }\n\n            LogAmountDistribution(voucherDetails.tokenIdVoucher, owner(), voucherDetails.depositSe, PaymentType.DEPOSIT_SELLER);\n        }\n    }\n\n    function distributeIssuerDepositOnIssuerCancel(VoucherDetails memory voucherDetails) internal {\n        \n        if(voucherDetails.paymentMethod == ETH_ETH || voucherDetails.paymentMethod == TKN_ETH) {\n            escrow[voucherDetails.issuer] -= voucherDetails.depositSe;\n            voucherDetails.amount2issuer += voucherDetails.depositSe.div(CANCELFAULT_SPLIT);\n            voucherDetails.amount2holder += voucherDetails.depositSe - voucherDetails.depositSe.div(CANCELFAULT_SPLIT);\n        }\n\n        if (voucherDetails.paymentMethod == ETH_TKN || voucherDetails.paymentMethod == TKN_TKN) {\n            address addressTokenDeposits = voucherKernel.getVoucherDepositToken(voucherDetails.tokenIdSupply);\n\n            IERC20WithPermit(addressTokenDeposits).transfer(voucherDetails.issuer, voucherDetails.depositSe.div(CANCELFAULT_SPLIT));\n            IERC20WithPermit(addressTokenDeposits).transfer(voucherDetails.holder, voucherDetails.depositSe - voucherDetails.depositSe.div(CANCELFAULT_SPLIT));\n        }\n\n        LogAmountDistribution(\n            voucherDetails.tokenIdVoucher, \n            voucherDetails.issuer, \n            voucherDetails.depositSe.div(CANCELFAULT_SPLIT), \n            PaymentType.DEPOSIT_SELLER\n        );\n\n        LogAmountDistribution(\n            voucherDetails.tokenIdVoucher, \n            voucherDetails.holder, \n            voucherDetails.depositSe - voucherDetails.depositSe.div(CANCELFAULT_SPLIT), \n            PaymentType.DEPOSIT_SELLER\n        );\n    }\n\n    function distributeFullIssuerDeposit(VoucherDetails memory voucherDetails) internal {\n\n        if(voucherDetails.paymentMethod == ETH_ETH || voucherDetails.paymentMethod == TKN_ETH) {\n            escrow[voucherDetails.issuer] -= voucherDetails.depositSe;\n            voucherDetails.amount2issuer += voucherDetails.depositSe;\n        }\n\n        if(voucherDetails.paymentMethod == ETH_TKN || voucherDetails.paymentMethod == TKN_TKN) {\n            address addressTokenDeposits = voucherKernel.getVoucherDepositToken(voucherDetails.tokenIdSupply);\n            IERC20WithPermit(addressTokenDeposits).transfer(voucherDetails.issuer, voucherDetails.depositSe);\n        }\n\n        LogAmountDistribution(\n            voucherDetails.tokenIdVoucher, \n            voucherDetails.issuer, \n            voucherDetails.depositSe, \n            PaymentType.DEPOSIT_SELLER\n        );   \n    }\n\n    function distributeFullHolderDeposit(VoucherDetails memory voucherDetails) internal {\n\n        if(voucherDetails.paymentMethod == ETH_ETH || voucherDetails.paymentMethod == TKN_ETH) {\n            escrow[voucherDetails.holder] -= voucherDetails.depositBu;\n            voucherDetails.amount2holder += voucherDetails.depositBu;\n        }\n\n        if(voucherDetails.paymentMethod == ETH_TKN || voucherDetails.paymentMethod == TKN_TKN) {\n            address addressTokenDeposits = voucherKernel.getVoucherDepositToken(voucherDetails.tokenIdSupply);\n            IERC20WithPermit(addressTokenDeposits).transfer(voucherDetails.holder, voucherDetails.depositBu);\n        }\n\n        LogAmountDistribution(\n            voucherDetails.tokenIdVoucher, \n            voucherDetails.holder, \n            voucherDetails.depositBu, \n            PaymentType.DEPOSIT_BUYER\n        ); \n    }\n\n    function distributeHolderDepositOnNotRedeemedNotCancelled(VoucherDetails memory voucherDetails) internal {\n\n        if(voucherDetails.paymentMethod == ETH_ETH || voucherDetails.paymentMethod == TKN_ETH) {\n            escrow[voucherDetails.holder] -= voucherDetails.depositBu;\n            voucherDetails.amount2pool += voucherDetails.depositBu; \n        }\n\n        if(voucherDetails.paymentMethod == ETH_TKN || voucherDetails.paymentMethod == TKN_TKN) {\n            address addressTokenDeposits = voucherKernel.getVoucherDepositToken(voucherDetails.tokenIdSupply);\n            IERC20WithPermit(addressTokenDeposits).transfer(owner(), voucherDetails.depositBu);\n        }\n\n        LogAmountDistribution(\n            voucherDetails.tokenIdVoucher, \n            owner(), \n            voucherDetails.depositBu, \n            PaymentType.DEPOSIT_BUYER\n        ); \n    }\n\n    /**\n     * @notice Trigger withdrawals of pooled funds\n     */    \n    function withdrawPool()\n        external \n        onlyOwner\n        nonReentrant\n    {\n        //TODO: more requires needed?\n        \n        if (escrow[owner()] > 0) {\n            address payable poolAddress = address(uint160(owner()));\n            uint256 amount = escrow[poolAddress];\n            escrow[poolAddress] = 0;\n            _withdraw(poolAddress,amount);\n        }\n    }    \n    \n    /**\n     * @notice Internal function for withdrawing.\n     * As unbelievable as it is, neither .send() nor .transfer() are now secure to use due to EIP-1884\n     *  So now transfering funds via the last remaining option: .call()\n     *  See https://diligence.consensys.net/posts/2019/09/stop-using-soliditys-transfer-now/ \n     * @param _recipient    address of the account receiving funds from the escrow\n     * @param _amount       amount to be released from escrow\n     */\n    function _withdraw(address payable _recipient, uint256 _amount)\n        internal\n    {\n        require(_recipient != address(0), \"UNSPECIFIED_ADDRESS\");   //hex\"20\" FISSION.code(FISSION.Category.Find, FISSION.Status.NotFound_Unequal_OutOfRange)\n        require(_amount > 0, \"\");\n        \n        _recipient.sendValue(_amount);\n\n        emit LogWithdrawal(msg.sender, _recipient, _amount);\n    }\n        \n        \n    // // // // // // // //\n    // GETTERS \n    // // // // // // // //  \n    \n    /**\n     * @notice Get the amount in escrow of an address\n     * @param _account  The address of an account to query\n     * @return          The balance in escrow\n     */\n    function getEscrowAmount(address _account) \n        public view\n        returns (uint256)\n    {\n        return escrow[_account];\n    }\n    \n}\n",
  "sourcePath": "/Users/hristiyangeorgiev/Documents/Projects/Redemeum/ERC20/bsn-core-prototype/contracts/Cashier.sol",
  "compiler": {
    "name": "solc",
    "version": "0.6.6+commit.6c089d02.Emscripten.clang"
  },
  "schemaVersion": "3.3.2",
  "updatedAt": "2020-12-02T09:38:29.404Z",
  "devdoc": {
    "details": "Warning: the contract hasn't been audited yet! Roughly following OpenZeppelin's Escrow at https://github.com/OpenZeppelin/openzeppelin-solidity/contracts/payment/",
    "methods": {
      "getEscrowAmount(address)": {
        "params": {
          "_account": "The address of an account to query"
        },
        "returns": {
          "_0": "The balance in escrow"
        }
      },
      "owner()": {
        "details": "Returns the address of the current owner."
      },
      "renounceOwnership()": {
        "details": "Leaves the contract without owner. It will not be possible to call `onlyOwner` functions anymore. Can only be called by the current owner.     * NOTE: Renouncing ownership will leave the contract without an owner, thereby removing any functionality that is only available to the owner."
      },
      "requestCreateOrder_ETH_ETH(uint256[])": {
        "params": {
          "metadata": "metadata which is required for creation of a voucher Metadata array is used as in some scenarios we need several more params, as we need to recover  onwer address in order to permit the contract to transfer funds in his behalf.  Since the params get too many, we end up in situation that the stack is too deep. uint256 _validFrom = metadata[0]; uint256 _validTo = metadata[1]; uint256 _price = metadata[2]; uint256 _depositSe = metadata[3]; uint256 _depositBu = metadata[4]; uint256 _quantity = metadata[5];"
        }
      },
      "requestVoucher_ETH_ETH(uint256,address)": {
        "params": {
          "_issuer": "Address of the issuer of the supply token",
          "_tokenIdSupply": "ID of the supply token"
        }
      },
      "transferOwnership(address)": {
        "details": "Transfers ownership of the contract to a new account (`newOwner`). Can only be called by the current owner."
      },
      "withdraw(uint256)": {
        "details": "This function would be optimized a lot, here verbose for readability.",
        "params": {
          "_tokenIdVoucher": "ID of a voucher token (ERC-721) to try withdraw funds from"
        }
      }
    },
    "title": "Contract for managing funds"
  },
  "userdoc": {
    "methods": {
      "getEscrowAmount(address)": {
        "notice": "Get the amount in escrow of an address"
      },
      "requestCreateOrder_ETH_ETH(uint256[])": {
        "notice": "Issuer/Seller offers promises as supply tokens and needs to escrow the deposit"
      },
      "requestVoucher_ETH_ETH(uint256,address)": {
        "notice": "Consumer requests/buys a voucher by filling an order and receiving a Voucher Token in return"
      },
      "withdraw(uint256)": {
        "notice": "Trigger withdrawals of what funds are releasable The caller of this function triggers transfers to all involved entities (pool, issuer, token holder), also paying for gas."
      },
      "withdrawPool()": {
        "notice": "Trigger withdrawals of pooled funds"
      }
    }
  }
}