{
  "contractName": "ERC1155ERC721",
  "abi": [
    {
      "inputs": [],
      "stateMutability": "nonpayable",
      "type": "constructor"
    },
    {
      "anonymous": false,
      "inputs": [
        {
          "indexed": true,
          "internalType": "address",
          "name": "_owner",
          "type": "address"
        },
        {
          "indexed": true,
          "internalType": "address",
          "name": "_approved",
          "type": "address"
        },
        {
          "indexed": true,
          "internalType": "uint256",
          "name": "_tokenId",
          "type": "uint256"
        }
      ],
      "name": "Approval",
      "type": "event"
    },
    {
      "anonymous": false,
      "inputs": [
        {
          "indexed": true,
          "internalType": "address",
          "name": "_owner",
          "type": "address"
        },
        {
          "indexed": true,
          "internalType": "address",
          "name": "_operator",
          "type": "address"
        },
        {
          "indexed": false,
          "internalType": "bool",
          "name": "_approved",
          "type": "bool"
        }
      ],
      "name": "ApprovalForAll",
      "type": "event"
    },
    {
      "anonymous": false,
      "inputs": [
        {
          "indexed": false,
          "internalType": "address",
          "name": "_newVoucherKernel",
          "type": "address"
        },
        {
          "indexed": false,
          "internalType": "address",
          "name": "_triggeredBy",
          "type": "address"
        }
      ],
      "name": "LogVoucherKernelSet",
      "type": "event"
    },
    {
      "anonymous": false,
      "inputs": [
        {
          "indexed": true,
          "internalType": "address",
          "name": "_from",
          "type": "address"
        },
        {
          "indexed": true,
          "internalType": "address",
          "name": "_to",
          "type": "address"
        },
        {
          "indexed": true,
          "internalType": "uint256",
          "name": "_tokenId",
          "type": "uint256"
        }
      ],
      "name": "Transfer",
      "type": "event"
    },
    {
      "anonymous": false,
      "inputs": [
        {
          "indexed": true,
          "internalType": "address",
          "name": "_operator",
          "type": "address"
        },
        {
          "indexed": true,
          "internalType": "address",
          "name": "_from",
          "type": "address"
        },
        {
          "indexed": true,
          "internalType": "address",
          "name": "_to",
          "type": "address"
        },
        {
          "indexed": false,
          "internalType": "uint256[]",
          "name": "_ids",
          "type": "uint256[]"
        },
        {
          "indexed": false,
          "internalType": "uint256[]",
          "name": "_values",
          "type": "uint256[]"
        }
      ],
      "name": "TransferBatch",
      "type": "event"
    },
    {
      "anonymous": false,
      "inputs": [
        {
          "indexed": true,
          "internalType": "address",
          "name": "_operator",
          "type": "address"
        },
        {
          "indexed": true,
          "internalType": "address",
          "name": "_from",
          "type": "address"
        },
        {
          "indexed": true,
          "internalType": "address",
          "name": "_to",
          "type": "address"
        },
        {
          "indexed": false,
          "internalType": "uint256",
          "name": "_id",
          "type": "uint256"
        },
        {
          "indexed": false,
          "internalType": "uint256",
          "name": "_value",
          "type": "uint256"
        }
      ],
      "name": "TransferSingle",
      "type": "event"
    },
    {
      "anonymous": false,
      "inputs": [
        {
          "indexed": false,
          "internalType": "string",
          "name": "_value",
          "type": "string"
        },
        {
          "indexed": true,
          "internalType": "uint256",
          "name": "_id",
          "type": "uint256"
        }
      ],
      "name": "URI",
      "type": "event"
    },
    {
      "inputs": [],
      "name": "owner",
      "outputs": [
        {
          "internalType": "address",
          "name": "",
          "type": "address"
        }
      ],
      "stateMutability": "view",
      "type": "function"
    },
    {
      "inputs": [],
      "name": "voucherKernelAddress",
      "outputs": [
        {
          "internalType": "address",
          "name": "",
          "type": "address"
        }
      ],
      "stateMutability": "view",
      "type": "function"
    },
    {
      "inputs": [
        {
          "internalType": "address",
          "name": "_from",
          "type": "address"
        },
        {
          "internalType": "address",
          "name": "_to",
          "type": "address"
        },
        {
          "internalType": "uint256",
          "name": "_tokenId",
          "type": "uint256"
        },
        {
          "internalType": "bytes",
          "name": "_data",
          "type": "bytes"
        }
      ],
      "name": "safeTransferFrom",
      "outputs": [],
      "stateMutability": "nonpayable",
      "type": "function"
    },
    {
      "inputs": [
        {
          "internalType": "address",
          "name": "_from",
          "type": "address"
        },
        {
          "internalType": "address",
          "name": "_to",
          "type": "address"
        },
        {
          "internalType": "uint256",
          "name": "_tokenId",
          "type": "uint256"
        },
        {
          "internalType": "uint256",
          "name": "_value",
          "type": "uint256"
        },
        {
          "internalType": "bytes",
          "name": "_data",
          "type": "bytes"
        }
      ],
      "name": "safeTransferFrom",
      "outputs": [],
      "stateMutability": "nonpayable",
      "type": "function"
    },
    {
      "inputs": [
        {
          "internalType": "address",
          "name": "_from",
          "type": "address"
        },
        {
          "internalType": "address",
          "name": "_to",
          "type": "address"
        },
        {
          "internalType": "uint256",
          "name": "_tokenId",
          "type": "uint256"
        }
      ],
      "name": "safeTransferFrom",
      "outputs": [],
      "stateMutability": "nonpayable",
      "type": "function"
    },
    {
      "inputs": [
        {
          "internalType": "address",
          "name": "_from",
          "type": "address"
        },
        {
          "internalType": "address",
          "name": "_to",
          "type": "address"
        },
        {
          "internalType": "uint256",
          "name": "_tokenId",
          "type": "uint256"
        }
      ],
      "name": "transferFrom",
      "outputs": [],
      "stateMutability": "nonpayable",
      "type": "function"
    },
    {
      "inputs": [
        {
          "internalType": "address",
          "name": "_to",
          "type": "address"
        },
        {
          "internalType": "uint256",
          "name": "_tokenId",
          "type": "uint256"
        }
      ],
      "name": "approve",
      "outputs": [],
      "stateMutability": "nonpayable",
      "type": "function"
    },
    {
      "inputs": [
        {
          "internalType": "uint256",
          "name": "_tokenId",
          "type": "uint256"
        }
      ],
      "name": "getApproved",
      "outputs": [
        {
          "internalType": "address",
          "name": "",
          "type": "address"
        }
      ],
      "stateMutability": "view",
      "type": "function"
    },
    {
      "inputs": [
        {
          "internalType": "address",
          "name": "_from",
          "type": "address"
        },
        {
          "internalType": "address",
          "name": "_to",
          "type": "address"
        },
        {
          "internalType": "uint256[]",
          "name": "_tokenIds",
          "type": "uint256[]"
        },
        {
          "internalType": "uint256[]",
          "name": "_values",
          "type": "uint256[]"
        },
        {
          "internalType": "bytes",
          "name": "_data",
          "type": "bytes"
        }
      ],
      "name": "safeBatchTransferFrom",
      "outputs": [],
      "stateMutability": "nonpayable",
      "type": "function"
    },
    {
      "inputs": [
        {
          "internalType": "address",
          "name": "_account",
          "type": "address"
        },
        {
          "internalType": "uint256",
          "name": "_tokenId",
          "type": "uint256"
        }
      ],
      "name": "balanceOf",
      "outputs": [
        {
          "internalType": "uint256",
          "name": "",
          "type": "uint256"
        }
      ],
      "stateMutability": "view",
      "type": "function"
    },
    {
      "inputs": [
        {
          "internalType": "address",
          "name": "_owner",
          "type": "address"
        }
      ],
      "name": "balanceOf",
      "outputs": [
        {
          "internalType": "uint256",
          "name": "",
          "type": "uint256"
        }
      ],
      "stateMutability": "view",
      "type": "function"
    },
    {
      "inputs": [
        {
          "internalType": "uint256",
          "name": "_tokenId",
          "type": "uint256"
        }
      ],
      "name": "ownerOf",
      "outputs": [
        {
          "internalType": "address",
          "name": "",
          "type": "address"
        }
      ],
      "stateMutability": "view",
      "type": "function"
    },
    {
      "inputs": [
        {
          "internalType": "address[]",
          "name": "_accounts",
          "type": "address[]"
        },
        {
          "internalType": "uint256[]",
          "name": "_tokenIds",
          "type": "uint256[]"
        }
      ],
      "name": "balanceOfBatch",
      "outputs": [
        {
          "internalType": "uint256[]",
          "name": "",
          "type": "uint256[]"
        }
      ],
      "stateMutability": "view",
      "type": "function"
    },
    {
      "inputs": [
        {
          "internalType": "address",
          "name": "_operator",
          "type": "address"
        },
        {
          "internalType": "bool",
          "name": "_approve",
          "type": "bool"
        }
      ],
      "name": "setApprovalForAll",
      "outputs": [],
      "stateMutability": "nonpayable",
      "type": "function"
    },
    {
      "inputs": [
        {
          "internalType": "address",
          "name": "_account",
          "type": "address"
        },
        {
          "internalType": "address",
          "name": "_operator",
          "type": "address"
        }
      ],
      "name": "isApprovedForAll",
      "outputs": [
        {
          "internalType": "bool",
          "name": "",
          "type": "bool"
        }
      ],
      "stateMutability": "view",
      "type": "function"
    },
    {
      "inputs": [
        {
          "internalType": "bytes4",
          "name": "_interfaceId",
          "type": "bytes4"
        }
      ],
      "name": "supportsInterface",
      "outputs": [
        {
          "internalType": "bool",
          "name": "",
          "type": "bool"
        }
      ],
      "stateMutability": "view",
      "type": "function"
    },
    {
      "inputs": [
        {
          "internalType": "address",
          "name": "to",
          "type": "address"
        },
        {
          "internalType": "uint256",
          "name": "tokenId",
          "type": "uint256"
        }
      ],
      "name": "mint",
      "outputs": [
        {
          "internalType": "bool",
          "name": "",
          "type": "bool"
        }
      ],
      "stateMutability": "nonpayable",
      "type": "function"
    },
    {
      "inputs": [
        {
          "internalType": "address",
          "name": "_to",
          "type": "address"
        },
        {
          "internalType": "uint256",
          "name": "_tokenId",
          "type": "uint256"
        },
        {
          "internalType": "uint256",
          "name": "_value",
          "type": "uint256"
        },
        {
          "internalType": "bytes",
          "name": "_data",
          "type": "bytes"
        }
      ],
      "name": "mint",
      "outputs": [],
      "stateMutability": "nonpayable",
      "type": "function"
    },
    {
      "inputs": [
        {
          "internalType": "address",
          "name": "_to",
          "type": "address"
        },
        {
          "internalType": "uint256[]",
          "name": "_tokenIds",
          "type": "uint256[]"
        },
        {
          "internalType": "uint256[]",
          "name": "_values",
          "type": "uint256[]"
        },
        {
          "internalType": "bytes",
          "name": "_data",
          "type": "bytes"
        }
      ],
      "name": "mintBatch",
      "outputs": [],
      "stateMutability": "nonpayable",
      "type": "function"
    },
    {
      "inputs": [
        {
          "internalType": "address",
          "name": "_account",
          "type": "address"
        },
        {
          "internalType": "uint256",
          "name": "_tokenId",
          "type": "uint256"
        },
        {
          "internalType": "uint256",
          "name": "_value",
          "type": "uint256"
        }
      ],
      "name": "burn",
      "outputs": [],
      "stateMutability": "nonpayable",
      "type": "function"
    },
    {
      "inputs": [
        {
          "internalType": "address",
          "name": "_account",
          "type": "address"
        },
        {
          "internalType": "uint256[]",
          "name": "_tokenIds",
          "type": "uint256[]"
        },
        {
          "internalType": "uint256[]",
          "name": "_values",
          "type": "uint256[]"
        }
      ],
      "name": "burnBatch",
      "outputs": [],
      "stateMutability": "nonpayable",
      "type": "function"
    },
    {
      "inputs": [
        {
          "internalType": "string",
          "name": "_newBase",
          "type": "string"
        }
      ],
      "name": "_setMetadataBase",
      "outputs": [],
      "stateMutability": "nonpayable",
      "type": "function"
    },
    {
      "inputs": [
        {
          "internalType": "uint256",
          "name": "_tokenId",
          "type": "uint256"
        }
      ],
      "name": "uri",
      "outputs": [
        {
          "internalType": "string",
          "name": "",
          "type": "string"
        }
      ],
      "stateMutability": "view",
      "type": "function"
    },
    {
      "inputs": [],
      "name": "name",
      "outputs": [
        {
          "internalType": "string",
          "name": "_name",
          "type": "string"
        }
      ],
      "stateMutability": "pure",
      "type": "function"
    },
    {
      "inputs": [],
      "name": "symbol",
      "outputs": [
        {
          "internalType": "string",
          "name": "_symbol",
          "type": "string"
        }
      ],
      "stateMutability": "pure",
      "type": "function"
    },
    {
      "inputs": [
        {
          "internalType": "uint256",
          "name": "_tokenId",
          "type": "uint256"
        }
      ],
      "name": "tokenURI",
      "outputs": [
        {
          "internalType": "string",
          "name": "",
          "type": "string"
        }
      ],
      "stateMutability": "view",
      "type": "function"
    },
    {
      "inputs": [
        {
          "internalType": "address",
          "name": "_voucherKernelAddress",
          "type": "address"
        }
      ],
      "name": "setVoucherKernelAddress",
      "outputs": [],
      "stateMutability": "nonpayable",
      "type": "function"
    }
  ],
  "bytecode": "0x608060405234801561001057600080fd5b50600080546001600160a01b03191633179055612f2d806100326000396000f3fe608060405234801561001057600080fd5b50600436106101a85760003560e01c80634e1273f4116100f9578063a22cb46511610097578063d95be43a11610071578063d95be43a14610bad578063e985e9c514610bd3578063f242432a14610c01578063f5298aca14610c94576101a8565b8063a22cb46514610a9e578063b88d4fde14610acc578063c87b56dd14610b90576101a8565b806370a08231116100d357806370a08231146109a8578063731133e9146109ce5780638da5cb5b14610a8e57806395d89b4114610a96576101a8565b80634e1273f41461074a5780636352211e146108585780636b20c45414610875576101a8565b80631f7fdffa1161016657806335649a831161014057806335649a831461063c57806338b6db2e1461064457806340c10f19146106e857806342842e0e14610714576101a8565b80631f7fdffa1461032757806323b872dd146104df5780632eb2c2d614610515576101a8565b8062fdd58e146101ad57806301ffc9a7146101eb57806306fdde0314610226578063081812fc146102a3578063095ea7b3146102dc5780630e89341c1461030a575b600080fd5b6101d9600480360360408110156101c357600080fd5b506001600160a01b038135169060200135610cc6565b60408051918252519081900360200190f35b6102126004803603602081101561020157600080fd5b50356001600160e01b031916610ced565b604080519115158252519081900360200190f35b61022e610d77565b6040805160208082528351818301528351919283929083019185019080838360005b83811015610268578181015183820152602001610250565b50505050905090810190601f1680156102955780820380516001836020036101000a031916815260200191505b509250505060405180910390f35b6102c0600480360360208110156102b957600080fd5b5035610da5565b604080516001600160a01b039092168252519081900360200190f35b610308600480360360408110156102f257600080fd5b506001600160a01b038135169060200135610e14565b005b61022e6004803603602081101561032057600080fd5b5035610f51565b6103086004803603608081101561033d57600080fd5b6001600160a01b038235169190810190604081016020820135600160201b81111561036757600080fd5b82018360208201111561037957600080fd5b803590602001918460208302840111600160201b8311171561039a57600080fd5b9190808060200260200160405190810160405280939291908181526020018383602002808284376000920191909152509295949360208101935035915050600160201b8111156103e957600080fd5b8201836020820111156103fb57600080fd5b803590602001918460208302840111600160201b8311171561041c57600080fd5b9190808060200260200160405190810160405280939291908181526020018383602002808284376000920191909152509295949360208101935035915050600160201b81111561046b57600080fd5b82018360208201111561047d57600080fd5b803590602001918460018302840111600160201b8311171561049e57600080fd5b91908080601f016020809104026020016040519081016040528093929190818152602001838380828437600092019190915250929550611032945050505050565b610308600480360360608110156104f557600080fd5b506001600160a01b038135811691602081013590911690604001356110e0565b610308600480360360a081101561052b57600080fd5b6001600160a01b038235811692602081013590911691810190606081016040820135600160201b81111561055e57600080fd5b82018360208201111561057057600080fd5b803590602001918460208302840111600160201b8311171561059157600080fd5b919390929091602081019035600160201b8111156105ae57600080fd5b8201836020820111156105c057600080fd5b803590602001918460208302840111600160201b831117156105e157600080fd5b919390929091602081019035600160201b8111156105fe57600080fd5b82018360208201111561061057600080fd5b803590602001918460018302840111600160201b8311171561063157600080fd5b50909250905061116f565b6102c061151d565b6103086004803603602081101561065a57600080fd5b810190602081018135600160201b81111561067457600080fd5b82018360208201111561068657600080fd5b803590602001918460018302840111600160201b831117156106a757600080fd5b91908080601f01602080910402602001604051908101604052809392919081815260200183838082843760009201919091525092955061152c945050505050565b610212600480360360408110156106fe57600080fd5b506001600160a01b038135169060200135611593565b6103086004803603606081101561072a57600080fd5b506001600160a01b03813581169160208101359091169060400135611645565b6108086004803603604081101561076057600080fd5b810190602081018135600160201b81111561077a57600080fd5b82018360208201111561078c57600080fd5b803590602001918460208302840111600160201b831117156107ad57600080fd5b919390929091602081019035600160201b8111156107ca57600080fd5b8201836020820111156107dc57600080fd5b803590602001918460208302840111600160201b831117156107fd57600080fd5b509092509050611660565b60408051602080825283518183015283519192839290830191858101910280838360005b8381101561084457818101518382015260200161082c565b505050509050019250505060405180910390f35b6102c06004803603602081101561086e57600080fd5b503561178e565b6103086004803603606081101561088b57600080fd5b6001600160a01b038235169190810190604081016020820135600160201b8111156108b557600080fd5b8201836020820111156108c757600080fd5b803590602001918460208302840111600160201b831117156108e857600080fd5b9190808060200260200160405190810160405280939291908181526020018383602002808284376000920191909152509295949360208101935035915050600160201b81111561093757600080fd5b82018360208201111561094957600080fd5b803590602001918460208302840111600160201b8311171561096a57600080fd5b9190808060200260200160405190810160405280939291908181526020018383602002808284376000920191909152509295506117ea945050505050565b6101d9600480360360208110156109be57600080fd5b50356001600160a01b0316611891565b610308600480360360808110156109e457600080fd5b6001600160a01b038235169160208101359160408201359190810190608081016060820135600160201b811115610a1a57600080fd5b820183602082011115610a2c57600080fd5b803590602001918460018302840111600160201b83111715610a4d57600080fd5b91908080601f0160208091040260200160405190810160405280939291908181526020018383808284376000920191909152509295506118f8945050505050565b6102c06119a0565b61022e6119af565b61030860048036036040811015610ab457600080fd5b506001600160a01b03813516906020013515156119cc565b61030860048036036080811015610ae257600080fd5b6001600160a01b03823581169260208101359091169160408201359190810190608081016060820135600160201b811115610b1c57600080fd5b820183602082011115610b2e57600080fd5b803590602001918460018302840111600160201b83111715610b4f57600080fd5b91908080601f016020809104026020016040519081016040528093929190818152602001838380828437600092019190915250929550611a89945050505050565b61022e60048036036020811015610ba657600080fd5b5035611bff565b61030860048036036020811015610bc357600080fd5b50356001600160a01b0316611c63565b61021260048036036040811015610be957600080fd5b506001600160a01b0381358116916020013516611d56565b610308600480360360a0811015610c1757600080fd5b6001600160a01b03823581169260208101359091169160408201359160608101359181019060a081016080820135600160201b811115610c5657600080fd5b820183602082011115610c6857600080fd5b803590602001918460018302840111600160201b83111715610c8957600080fd5b509092509050611d84565b61030860048036036060811015610caa57600080fd5b506001600160a01b038135169060208101359060400135611f6c565b60009081526002602090815260408083206001600160a01b03949094168352929052205490565b60006301ffc9a760e01b6001600160e01b031983161480610d1e5750636cdb3d1360e11b6001600160e01b03198316145b80610d3957506380ac58cd60e01b6001600160e01b03198316145b80610d545750635b5e139f60e01b6001600160e01b03198316145b80610d6f57506303a24d0760e21b6001600160e01b03198316145b90505b919050565b6040805180820190915260138152722137b9b7b71029b6b0b93a102b37bab1b432b960691b60208201525b90565b6000818152600460205260408120546001600160a01b0316610df85760405162461bcd60e51b815260040180806020018281038252602c815260200180612ecc602c913960400191505060405180910390fd5b506000908152600560205260409020546001600160a01b031690565b6000610e1f8261178e565b9050806001600160a01b0316836001600160a01b03161415610e79576040805162461bcd60e51b815260206004820152600e60248201526d14915115539110539517d0d0531360921b604482015290519081900360640190fd5b336001600160a01b0382161480610eb357506001600160a01b038116600090815260066020908152604080832033845290915290205460ff165b610ef5576040805162461bcd60e51b815260206004820152600e60248201526d554e415554484f52495a45445f4160901b604482015290519081900360640190fd5b60008281526005602052604080822080546001600160a01b0319166001600160a01b0387811691821790925591518593918516917f8c5be1e5ebec7d5bd14f71427d1e84f3dd0314c0f7b2291e5b200ac8c7c3b92591a4505050565b60606007610f5e83612013565b6040516020018083805460018160011615610100020316600290048015610fbc5780601f10610f9a576101008083540402835291820191610fbc565b820191906000526020600020905b815481529060010190602001808311610fa8575b5050825160208401908083835b60208310610fe85780518252601f199092019160209182019101610fc9565b5181516020939093036101000a600019018019909116921691909117905264173539b7b760d91b92019182525060408051808303601a190181526005909201905295945050505050565b6001546001600160a01b031661107d576040805162461bcd60e51b81526020600482015260196024820152600080516020612eac833981519152604482015290519081900360640190fd5b6001546001600160a01b031633146110ce576040805162461bcd60e51b815260206004820152600f60248201526e554e415554484f52495a45445f564b60881b604482015290519081900360640190fd5b6110da848484846120eb565b50505050565b6000818152600560205260409020546001600160a01b031633148061111557503361110a8261178e565b6001600160a01b0316145b61115f576040805162461bcd60e51b81526020600482015260166024820152751393d517d3d5d3915497d393d497d054141493d5915160521b604482015290519081900360640190fd5b61116a838383612332565b505050565b6001600160a01b0387166111b8576040805162461bcd60e51b81526020600482015260136024820152600080516020612e8c833981519152604482015290519081900360640190fd5b848314611206576040805162461bcd60e51b81526020600482015260176024820152764d49534d4154434845445f41525241595f4c454e47545360481b604482015290519081900360640190fd5b6001600160a01b03881633148061124557506001600160a01b038816600090815260066020908152604080832033845290915290205460ff1615156001145b611288576040805162461bcd60e51b815260206004820152600f60248201526e2aa720aaaa2427a924ad22a22fa9a160891b604482015290519081900360640190fd5b60005b858110156113bd5760008787838181106112a157fe5b90506020020135905060008686848181106112b857fe5b90506020020135905061130a816002600085815260200190815260200160002060008e6001600160a01b03166001600160a01b031681526020019081526020016000205461246a90919063ffffffff16565b6002600084815260200190815260200160002060008d6001600160a01b03166001600160a01b031681526020019081526020016000208190555061138d6002600084815260200190815260200160002060008c6001600160a01b03166001600160a01b0316815260200190815260200160002054826124b390919063ffffffff16565b60009283526002602090815260408085206001600160a01b038e168652909152909220919091555060010161128b565b50866001600160a01b0316886001600160a01b0316336001600160a01b03167f4a39dc06d4c0dbc64b70af90fd698a233a518aa5d07e595d983b8c0526c8f7fb898989896040518080602001806020018381038352878782818152602001925060200280828437600083820152601f01601f19169091018481038352858152602090810191508690860280828437600083820152604051601f909101601f19169092018290039850909650505050505050a461151333898989898080602002602001604051908101604052809392919081815260200183836020028082843760009201919091525050604080516020808d0282810182019093528c82529093508c92508b91829185019084908082843760009201919091525050604080516020601f8c018190048102820181019092528a815292508a915089908190840183828082843760009201919091525061250d92505050565b5050505050505050565b6001546001600160a01b031681565b6000546001600160a01b0316331461157c576040805162461bcd60e51b815260206004820152600e60248201526d554e415554484f52495a45445f4f60901b604482015290519081900360640190fd5b805161158f906007906020840190612df3565b5050565b6001546000906001600160a01b03166115e1576040805162461bcd60e51b81526020600482015260196024820152600080516020612eac833981519152604482015290519081900360640190fd5b6001546001600160a01b03163314611632576040805162461bcd60e51b815260206004820152600f60248201526e554e415554484f52495a45445f564b60881b604482015290519081900360640190fd5b61163c8383612716565b50600192915050565b61116a83838360405180602001604052806000815250611a89565b60608382146116b0576040805162461bcd60e51b81526020600482015260176024820152764d49534d4154434845445f41525241595f4c454e47545360481b604482015290519081900360640190fd5b60608467ffffffffffffffff811180156116c957600080fd5b506040519080825280602002602001820160405280156116f3578160200160208202803683370190505b50905060005b85811015611784576002600086868481811061171157fe5b905060200201358152602001908152602001600020600088888481811061173457fe5b905060200201356001600160a01b03166001600160a01b03166001600160a01b031681526020019081526020016000205482828151811061177157fe5b60209081029190910101526001016116f9565b5095945050505050565b6000818152600460205260408120546001600160a01b031680610d6f576040805162461bcd60e51b815260206004820152600f60248201526e2aa72222a324a722a22fa7aba722a960891b604482015290519081900360640190fd5b6001546001600160a01b0316611835576040805162461bcd60e51b81526020600482015260196024820152600080516020612eac833981519152604482015290519081900360640190fd5b6001546001600160a01b03163314611886576040805162461bcd60e51b815260206004820152600f60248201526e554e415554484f52495a45445f564b60881b604482015290519081900360640190fd5b61116a838383612835565b60006001600160a01b0382166118dc576040805162461bcd60e51b81526020600482015260136024820152600080516020612e8c833981519152604482015290519081900360640190fd5b506001600160a01b031660009081526003602052604090205490565b6001546001600160a01b0316611943576040805162461bcd60e51b81526020600482015260196024820152600080516020612eac833981519152604482015290519081900360640190fd5b6001546001600160a01b03163314611994576040805162461bcd60e51b815260206004820152600f60248201526e554e415554484f52495a45445f564b60881b604482015290519081900360640190fd5b6110da84848484612a72565b6000546001600160a01b031681565b6040805180820190915260038152622129ab60e91b602082015290565b336001600160a01b0383161415611a1b576040805162461bcd60e51b815260206004820152600e60248201526d14915115539110539517d0d0531360921b604482015290519081900360640190fd5b3360008181526006602090815260408083206001600160a01b03871680855290835292819020805460ff1916861515908117909155815190815290519293927f17307eab39ab6107e8899845ad3d59bd9653f200f220920489ca2b5937696c31929181900390910190a35050565b611a948484846110e0565b611aa6836001600160a01b0316612b5d565b156110da57604051630a85bd0160e11b8082526001600160a01b038681166004840190815290861660248401819052604484018690526080606485019081528551608486015285519394919363150b7a02938a938a938a938a939260a40190602085019080838360005b83811015611b28578181015183820152602001611b10565b50505050905090810190601f168015611b555780820380516001836020036101000a031916815260200191505b5095505050505050602060405180830381600087803b158015611b7757600080fd5b505af1158015611b8b573d6000803e3d6000fd5b505050506040513d6020811015611ba157600080fd5b50516001600160e01b031916146110da576040805162461bcd60e51b815260206004820152601b60248201527f554e535550504f525445445f4552433732315f52454345495645440000000000604482015290519081900360640190fd5b6000818152600460205260409020546060906001600160a01b0316611c58576040805162461bcd60e51b815260206004820152600a6024820152691253959053125117d25160b21b604482015290519081900360640190fd5b6007610f5e83612013565b6000546001600160a01b03163314611cb3576040805162461bcd60e51b815260206004820152600e60248201526d554e415554484f52495a45445f4f60901b604482015290519081900360640190fd5b6001600160a01b038116611cfc576040805162461bcd60e51b81526020600482015260136024820152600080516020612e8c833981519152604482015290519081900360640190fd5b600180546001600160a01b0319166001600160a01b0383169081179091556040805191825233602083015280517f94d4208cb05337821fef5da6205084b70818af988524d8a2609a53a1ac1033d19281900390910190a150565b6001600160a01b03918216600090815260066020908152604080832093909416825291909152205460ff1690565b6001600160a01b038516611dcd576040805162461bcd60e51b81526020600482015260136024820152600080516020612e8c833981519152604482015290519081900360640190fd5b6001600160a01b038616331480611e0c57506001600160a01b038616600090815260066020908152604080832033845290915290205460ff1615156001145b611e4f576040805162461bcd60e51b815260206004820152600f60248201526e15539055551213d49256915117d4d5608a1b604482015290519081900360640190fd5b60008481526002602090815260408083206001600160a01b038a168452909152902054611e82908463ffffffff61246a16565b60008581526002602090815260408083206001600160a01b038b81168552925280832093909355871681522054611eba9084906124b3565b60008581526002602090815260408083206001600160a01b03808b16808652918452938290209490945580518881529182018790528051928a169233927fc3d58168c5ae7397731d063d5bbf3d657854427343f4c083240f7aacaa2d0f6292908290030190a4611f64338787878787878080601f016020809104026020016040519081016040528093929190818152602001838380828437600092019190915250612b6392505050565b505050505050565b6001546001600160a01b0316611fb7576040805162461bcd60e51b81526020600482015260196024820152600080516020612eac833981519152604482015290519081900360640190fd5b6001546001600160a01b03163314612008576040805162461bcd60e51b815260206004820152600f60248201526e554e415554484f52495a45445f564b60881b604482015290519081900360640190fd5b61116a838383612c78565b60608161203857506040805180820190915260018152600360fc1b6020820152610d72565b8160005b811561205057600101600a8204915061203c565b60608167ffffffffffffffff8111801561206957600080fd5b506040519080825280601f01601f191660200182016040528015612094576020820181803683370190505b50905060001982015b85156120e257600a860660300160f81b828280600190039350815181106120c057fe5b60200101906001600160f81b031916908160001a905350600a8604955061209d565b50949350505050565b6001600160a01b038416612134576040805162461bcd60e51b81526020600482015260136024820152600080516020612e8c833981519152604482015290519081900360640190fd5b8151835114612184576040805162461bcd60e51b81526020600482015260176024820152764d49534d4154434845445f41525241595f4c454e47545360481b604482015290519081900360640190fd5b60005b8351811015612248576121ff600260008684815181106121a357fe5b602002602001015181526020019081526020016000206000876001600160a01b03166001600160a01b03168152602001908152602001600020548483815181106121e957fe5b60200260200101516124b390919063ffffffff16565b6002600086848151811061220f57fe5b602090810291909101810151825281810192909252604090810160009081206001600160a01b038a168252909252902055600101612187565b50836001600160a01b031660006001600160a01b0316336001600160a01b03167f4a39dc06d4c0dbc64b70af90fd698a233a518aa5d07e595d983b8c0526c8f7fb8686604051808060200180602001838103835285818151815260200191508051906020019060200280838360005b838110156122cf5781810151838201526020016122b7565b50505050905001838103825284818151815260200191508051906020019060200280838360005b8381101561230e5781810151838201526020016122f6565b5050505090500194505050505060405180910390a46110da3360008686868661250d565b826001600160a01b03166123458261178e565b6001600160a01b031614612391576040805162461bcd60e51b815260206004820152600e60248201526d15539055551213d49256915117d560921b604482015290519081900360640190fd5b6001600160a01b0382166123da576040805162461bcd60e51b81526020600482015260136024820152600080516020612e8c833981519152604482015290519081900360640190fd5b600081815260056020908152604080832080546001600160a01b03199081169091556001600160a01b0387811680865260038552838620805460001901905590871680865283862080546001019055868652600490945282852080549092168417909155905184937fddf252ad1be2c89b69c2b068fc378daa952ba7f163c4a11628f55a4df523b3ef91a4505050565b60006124ac83836040518060400160405280601e81526020017f536166654d6174683a207375627472616374696f6e206f766572666c6f770000815250612d5c565b9392505050565b6000828201838110156124ac576040805162461bcd60e51b815260206004820152601b60248201527f536166654d6174683a206164646974696f6e206f766572666c6f770000000000604482015290519081900360640190fd5b61251f846001600160a01b0316612b5d565b15611f645763bc197c8160e01b6001600160e01b031916846001600160a01b031663bc197c8188888787876040518663ffffffff1660e01b815260040180866001600160a01b03166001600160a01b03168152602001856001600160a01b03166001600160a01b03168152602001806020018060200180602001848103845287818151815260200191508051906020019060200280838360005b838110156125d15781810151838201526020016125b9565b50505050905001848103835286818151815260200191508051906020019060200280838360005b838110156126105781810151838201526020016125f8565b50505050905001848103825285818151815260200191508051906020019080838360005b8381101561264c578181015183820152602001612634565b50505050905090810190601f1680156126795780820380516001836020036101000a031916815260200191505b5098505050505050505050602060405180830381600087803b15801561269e57600080fd5b505af11580156126b2573d6000803e3d6000fd5b505050506040513d60208110156126c857600080fd5b50516001600160e01b03191614611f64576040805162461bcd60e51b815260206004820152600d60248201526c1393d517d4d5541413d4951151609a1b604482015290519081900360640190fd5b6001600160a01b03821661275f576040805162461bcd60e51b81526020600482015260136024820152600080516020612e8c833981519152604482015290519081900360640190fd5b6000818152600460205260409020546001600160a01b0316156127c9576040805162461bcd60e51b815260206004820152601c60248201527f4552433732313a20746f6b656e20616c7265616479206d696e74656400000000604482015290519081900360640190fd5b600081815260046020908152604080832080546001600160a01b0319166001600160a01b038716908117909155808452600390925280832080546001019055518392907fddf252ad1be2c89b69c2b068fc378daa952ba7f163c4a11628f55a4df523b3ef908290a45050565b6001600160a01b03831661287e576040805162461bcd60e51b81526020600482015260136024820152600080516020612e8c833981519152604482015290519081900360640190fd5b80518251146128ce576040805162461bcd60e51b81526020600482015260176024820152764d49534d4154434845445f41525241595f4c454e47545360481b604482015290519081900360640190fd5b60005b8251811015612992576129498282815181106128e957fe5b60200260200101516002600086858151811061290157fe5b602002602001015181526020019081526020016000206000876001600160a01b03166001600160a01b031681526020019081526020016000205461246a90919063ffffffff16565b6002600085848151811061295957fe5b602090810291909101810151825281810192909252604090810160009081206001600160a01b03891682529092529020556001016128d1565b5060006001600160a01b0316836001600160a01b0316336001600160a01b03167f4a39dc06d4c0dbc64b70af90fd698a233a518aa5d07e595d983b8c0526c8f7fb8585604051808060200180602001838103835285818151815260200191508051906020019060200280838360005b83811015612a19578181015183820152602001612a01565b50505050905001838103825284818151815260200191508051906020019060200280838360005b83811015612a58578181015183820152602001612a40565b5050505090500194505050505060405180910390a4505050565b6001600160a01b038416612abb576040805162461bcd60e51b81526020600482015260136024820152600080516020612e8c833981519152604482015290519081900360640190fd5b60008381526002602090815260408083206001600160a01b0388168452909152902054612aee908363ffffffff6124b316565b60008481526002602090815260408083206001600160a01b038916808552908352818420949094558051878152918201869052805133927fc3d58168c5ae7397731d063d5bbf3d657854427343f4c083240f7aacaa2d0f6292908290030190a46110da33600086868686612b63565b3b151590565b612b75846001600160a01b0316612b5d565b15611f645763f23a6e6160e01b6001600160e01b031916846001600160a01b031663f23a6e6188888787876040518663ffffffff1660e01b815260040180866001600160a01b03166001600160a01b03168152602001856001600160a01b03166001600160a01b0316815260200184815260200183815260200180602001828103825283818151815260200191508051906020019080838360005b83811015612c28578181015183820152602001612c10565b50505050905090810190601f168015612c555780820380516001836020036101000a031916815260200191505b509650505050505050602060405180830381600087803b15801561269e57600080fd5b6001600160a01b038316612cc1576040805162461bcd60e51b81526020600482015260136024820152600080516020612e8c833981519152604482015290519081900360640190fd5b60008281526002602090815260408083206001600160a01b0387168452909152902054612cf4908263ffffffff61246a16565b60008381526002602090815260408083206001600160a01b038816808552908352818420949094558051868152918201859052805192939233927fc3d58168c5ae7397731d063d5bbf3d657854427343f4c083240f7aacaa2d0f6292908290030190a4505050565b60008184841115612deb5760405162461bcd60e51b81526004018080602001828103825283818151815260200191508051906020019080838360005b83811015612db0578181015183820152602001612d98565b50505050905090810190601f168015612ddd5780820380516001836020036101000a031916815260200191505b509250505060405180910390fd5b505050900390565b828054600181600116156101000203166002900490600052602060002090601f016020900481019282601f10612e3457805160ff1916838001178555612e61565b82800160010185558215612e61579182015b82811115612e61578251825591602001919060010190612e46565b50612e6d929150612e71565b5090565b610da291905b80821115612e6d5760008155600101612e7756fe554e5350454349464945445f4144445245535300000000000000000000000000554e5350454349464945445f564f55434845524b45524e454c000000000000004552433732313a20617070726f76656420717565727920666f72206e6f6e6578697374656e7420746f6b656ea2646970667358221220c131997f952d2c305e633359e5e36017176c15adb666c6f2df76bcb90d8cba3b64736f6c63430006060033",
  "immutableReferences": {},
  "source": "// SPDX-License-Identifier: LGPL-3.0-or-later\n\npragma solidity >=0.6.6 <0.7.0;\n\nimport \"@openzeppelin/contracts/math/SafeMath.sol\";\nimport \"@openzeppelin/contracts/utils/Address.sol\";\n\nimport \"./IERC1155.sol\";\nimport \"./IERC1155TokenReceiver.sol\";\nimport \"./IERC721.sol\";\nimport \"./IERC721TokenReceiver.sol\";\n\n//preparing for ERC-1066, ERC-1444, EIP-838\n\n/**\n * @title Multi-token contract, implementing ERC-1155 and ERC-721 hybrid \n *  Inspired by: https://github.com/pixowl/sandbox-smart-contracts\n */\ncontract ERC1155ERC721 is IERC1155, IERC721 {    \n    using SafeMath for uint256;\n    using Address for address;\n    \n    //min security\n    address public owner;           //contract owner\n    address public voucherKernelAddress;  //address of the VoucherKernel contract\n    \n    //standard reqs\n    //ERC-1155\n    mapping (uint256 => mapping(address => uint256)) private balances; //balance of token ids of an account\n    \n    //ERC-721\n    mapping(address => uint256) private balance721;\n    mapping(uint256 => address) private owners721;\n    mapping(uint256 => address) private operator721;\n    \n    //shared storage: ERC-1155 & ERC-721\n    mapping (address => mapping(address => bool)) private operatorApprovals; //approval of accounts of an operator\n    //metadata is shared, too (but ERC-1155 and ERC-721 have different metadata extension reqs)\n    string internal metadataBase;\n    \n    //ERC-1155 metadata event: URIs are defined in RFC 3986. The URI MUST point to a JSON file that conforms to the ERC-1155 Metadata URI JSON Schema.\n    //not used ATM\n    //event URI(string _value, uint256 indexed _id);\n\n    event LogVoucherKernelSet(\n        address _newVoucherKernel,\n        address _triggeredBy\n    );\n    \n    modifier onlyOwner() {\n        require(msg.sender == owner, \"UNAUTHORIZED_O\");   //hex\"10\" FISSION.code(FISSION.Category.Permission, FISSION.Status.Disallowed_Stop)\n        _;\n    }\n    \n    modifier onlyFromVoucherKernel() {\n        require(voucherKernelAddress != address(0), \"UNSPECIFIED_VOUCHERKERNEL\");  //hex\"20\" FISSION.code(FISSION.Category.Find, FISSION.Status.NotFound_Unequal_OutOfRange)\n        require(msg.sender == voucherKernelAddress, \"UNAUTHORIZED_VK\");   //hex\"10\" FISSION.code(FISSION.Category.Permission, FISSION.Status.Disallowed_Stop)\n        _;\n    }    \n\n    constructor()\n        public \n    {\n        owner = msg.sender;\n    }\n    \n\n    /**\n     * @notice Transfers amount of _tokenId from-to addresses with safety call.\n     * If _to is a smart contract, will call onERC1155Received\n     * @dev ERC-1155\n     * @param _from    Source address\n     * @param _to      Destination address\n     * @param _tokenId ID of the token\n     * @param _value   Transfer amount\n     * @param _data    Additional data forwarded to onERC1155Received if _to is a contract\n    */\n    function safeTransferFrom(\n        address _from,\n        address _to,\n        uint256 _tokenId,\n        uint256 _value,\n        bytes calldata _data\n    )\n        external\n        override\n    {\n        require(_to != address(0), \"UNSPECIFIED_ADDRESS\"); //hex\"20\" FISSION.code(FISSION.Category.Find, FISSION.Status.NotFound_Unequal_OutOfRange)\n        require(_from == msg.sender || operatorApprovals[_from][msg.sender] == true, \"UNAUTHORIZED_ST\");   //hex\"10\"FISSION.code(FISSION.Category.Permission, FISSION.Status.Disallowed_Stop)\n\n        // SafeMath throws with insuficient funds or if _id is not valid (balance will be 0)\n        balances[_tokenId][_from] = balances[_tokenId][_from].sub(_value);\n        balances[_tokenId][_to] = _value.add(balances[_tokenId][_to]);\n\n        emit TransferSingle(msg.sender, _from, _to, _tokenId, _value);\n\n        //make sure the tx was accepted - in case of a revert below, the event above is reverted, too\n        _doSafeTransferAcceptanceCheck(msg.sender, _from, _to, _tokenId, _value, _data);\n    }   \n    \n    \n    /**\n     * @notice Safely transfers the ownership of a given token ID to another address\n     * If the target address is a contract, it must implement `onERC721Received`,\n     * which is called upon a safe transfer, and return the magic value\n     * `bytes4(keccak256(\"onERC721Received(address,address,uint256,bytes)\"))`; otherwise,\n     * the transfer is reverted.\n     * Requires the msg.sender to be the owner, approved, or operator\n     * @dev ERC-721\n     * @param _from current owner of the token\n     * @param _to address to receive the ownership of the given token ID\n     * @param _tokenId uint256 ID of the token to be transferred\n     */\n    function safeTransferFrom(address _from, address _to, uint256 _tokenId) \n        public \n        override\n    {\n        safeTransferFrom(_from, _to, _tokenId, \"\");\n    }\n\n    /**\n     * @notice Safely transfers the ownership of a given token ID to another address\n     * If the target address is a contract, it must implement `onERC721Received`\n     * Requires the msg.sender to be the owner, approved, or operator\n     * @dev ERC-721\n     * @param _from current owner of the token\n     * @param _to address to receive the ownership of the given token ID\n     * @param _tokenId uint256 ID of the token to be transferred\n     * @param _data bytes data to send along with a safe transfer check\n     */\n    function safeTransferFrom(address _from, address _to, uint256 _tokenId, bytes memory _data) \n        public\n        override\n    {\n        transferFrom(_from, _to, _tokenId);\n        \n        if (_to.isContract()) {\n            require(ERC721TokenReceiver(_to).onERC721Received(_from, _to, _tokenId, _data) == ERC721TokenReceiver(_to).onERC721Received.selector, \"UNSUPPORTED_ERC721_RECEIVED\");  //hex\"10\" FISSION.code(FISSION.Category.Permission, FISSION.Status.Disallowed_Stop)\n        }        \n    }    \n    \n    \n    /**\n     * @notice Transfers the ownership of a given token ID to another address.\n     * Usage of this method is discouraged, use `safeTransferFrom` whenever possible.\n     * Requires the msg.sender to be the owner, approved, or operator.\n     * @dev ERC-721\n     * @param _from current owner of the token\n     * @param _to address to receive the ownership of the given token ID\n     * @param _tokenId uint256 ID of the token to be transferred\n     */\n    function transferFrom(address _from, address _to, uint256 _tokenId) \n        public\n        override\n    {\n        require(operator721[_tokenId] == msg.sender || ownerOf(_tokenId) == msg.sender, \"NOT_OWNER_NOR_APPROVED\");   //hex\"10\" FISSION.code(FISSION.Category.Permission, FISSION.Status.Disallowed_Stop)\n\n        _transferFrom(_from, _to, _tokenId);\n    }   \n    \n    \n    /**\n     * @notice Internal function to transfer ownership of a given token ID to another address.\n     * As opposed to transferFrom, this imposes no restrictions on msg.sender.\n     * @dev ERC-721\n     * @param _from current owner of the token\n     * @param _to address to receive the ownership of the given token ID\n     * @param _tokenId uint256 ID of the token to be transferred\n     */\n    function _transferFrom(address _from, address _to, uint256 _tokenId) \n        internal \n    {\n        require(ownerOf(_tokenId) == _from, \"UNAUTHORIZED_T\");   //hex\"10\" FISSION.code(FISSION.Category.Permission, FISSION.Status.Disallowed_Stop)\n        require(_to != address(0), \"UNSPECIFIED_ADDRESS\");   //hex\"20\" FISSION.code(FISSION.Category.Find, FISSION.Status.NotFound_Unequal_OutOfRange)\n\n        operator721[_tokenId] = address(0);\n\n        balance721[_from]--;\n        balance721[_to]++;\n        \n        owners721[_tokenId] = _to;\n\n        emit Transfer(_from, _to, _tokenId);\n    }    \n    \n    \n    /**\n     * @notice Approves another address to transfer the given token ID\n     * The zero address indicates there is no approved address.\n     * There can only be one approved address per token at a given time.\n     * Can only be called by the token owner or an approved operator.\n     * @dev ERC-721\n     * @param _to address to be approved for the given token ID\n     * @param _tokenId uint256 ID of the token to be approved\n     */\n    function approve(address _to, uint256 _tokenId) \n        public\n        override\n    {\n        address tokenOwner = ownerOf(_tokenId);\n        require(_to != tokenOwner, \"REDUNDANT_CALL\"); //hex\"18\" FISSION.code(FISSION.Category.Permission, FISSION.Status.NotApplicatableToCurrentState)\n\n        require(msg.sender == tokenOwner || operatorApprovals[tokenOwner][msg.sender],// isApprovedForAll(owner, msg.sender),\n            \"UNAUTHORIZED_A\");   //hex\"10\" FISSION.code(FISSION.Category.Permission, FISSION.Status.Disallowed_Stop)\n            //\"ERC721: approve caller is not owner nor approved for all\"\n\n        operator721[_tokenId] = _to;\n        emit Approval(tokenOwner, _to, _tokenId);\n    }    \n    \n    \n    /**\n     * @notice Gets the approved address for a token ID, or zero if no address set\n     * Reverts if the token ID does not exist.\n     * @dev ERC-721\n     * @param _tokenId uint256 ID of the token to query the approval of\n     * @return address currently approved for the given token ID\n     */\n    function getApproved(uint256 _tokenId) \n        public \n        view\n        override\n        returns (address) \n    {\n        require(owners721[_tokenId] != address(0), \"ERC721: approved query for nonexistent token\");\n\n        return operator721[_tokenId];\n    }    \n    \n    \n    /**\n        @notice Transfers amount of _tokenId from-to addresses with safety call.\n        If _to is a smart contract, will call onERC1155BatchReceived\n        @dev ERC-1155\n        @param _from    Source address\n        @param _to      Destination address\n        @param _tokenIds array of token IDs\n        @param _values   array of transfer amounts\n        @param _data    Additional data forwarded to onERC1155BatchReceived if _to is a contract\n    */\n    function safeBatchTransferFrom(\n        address _from,\n        address _to,\n        uint256[] calldata _tokenIds,\n        uint256[] calldata _values,\n        bytes calldata _data\n    )\n        external\n        override\n    {\n        require(_to != address(0), \"UNSPECIFIED_ADDRESS\");  //hex\"20\" FISSION.code(FISSION.Category.Find, FISSION.Status.NotFound_Unequal_OutOfRange)\n        require(_tokenIds.length == _values.length, \"MISMATCHED_ARRAY_LENGTS\");    //hex\"28\" ISSION.code(FISSION.Category.Find, FISSION.Status.Duplicate_Conflict_Collision)\n        require(_from == msg.sender || operatorApprovals[_from][msg.sender] == true, \"UNAUTHORIZED_SB\");   //hex\"10\" FISSION.code(FISSION.Category.Permission, FISSION.Status.Disallowed_Stop)\n\n        for (uint256 i = 0; i < _tokenIds.length; ++i) {\n            uint256 tokenId = _tokenIds[i];\n            uint256 value = _values[i];\n\n            // SafeMath throws with insuficient funds or if _id is not valid (balance will be 0)\n            balances[tokenId][_from] = balances[tokenId][_from].sub(value);\n            balances[tokenId][_to]   = value.add(balances[tokenId][_to]);\n        }\n\n        emit TransferBatch(msg.sender, _from, _to, _tokenIds, _values);\n\n        //make sure the tx was accepted - in case of a revert below, the event above is reverted, too\n        _doSafeBatchTransferAcceptanceCheck(msg.sender, _from, _to, _tokenIds, _values, _data);\n    }    \n    \n    \n    /**\n     * @notice Check successful transfer if recipient is a contract\n     * @dev ERC-1155\n     * @param _operator The operator of the transfer\n     * @param _from     Address of sender\n     * @param _to       Address of recipient\n     * @param _tokenId  ID of the token\n     * @param _value    Value transferred\n     * @param _data     Optional data\n     */\n    function _doSafeTransferAcceptanceCheck(\n        address _operator,\n        address _from,\n        address _to,\n        uint256 _tokenId,\n        uint256 _value,\n        bytes memory _data\n    )\n        internal\n    {\n        if(_to.isContract()) {\n            require(ERC1155TokenReceiver(_to).onERC1155Received(_operator, _from, _tokenId, _value, _data) ==  \n                        ERC1155TokenReceiver(_to).onERC1155Received.selector, \"NOT_SUPPORTED\");  //hex\"10\" FISSION.code(FISSION.Category.Permission, FISSION.Status.Disallowed_Stop)\n        }\n    }\n\n    \n    /**\n     * @notice Check successful transfer if recipient is a contract\n     * @dev ERC-1155\n     * @param _operator The operator of the transfer\n     * @param _from     Address of sender\n     * @param _to       Address of recipient\n     * @param _tokenIds Array of IDs of tokens\n     * @param _values   Array of values transferred\n     * @param _data     Optional data\n     */    \n    function _doSafeBatchTransferAcceptanceCheck(\n        address _operator,\n        address _from,\n        address _to,\n        uint256[] memory _tokenIds,\n        uint256[] memory _values,\n        bytes memory _data\n    )\n        internal\n    {\n        if(_to.isContract()) {\n            require(ERC1155TokenReceiver(_to).onERC1155BatchReceived(_operator, _from, _tokenIds, _values, _data) ==\n                        ERC1155TokenReceiver(_to).onERC1155BatchReceived.selector, \"NOT_SUPPORTED\"); //hex\"10\" FISSION.code(FISSION.Category.Permission, FISSION.Status.Disallowed_Stop)\n        }\n    }      \n    \n    \n    /**\n        @notice Get the balance of tokens of an account\n        @dev ERC-1155\n        @param _account The address of the token holder\n        @param _tokenId ID of the token\n        @return         balance\n     */\n    function balanceOf(address _account, uint256 _tokenId) \n        external \n        view\n        override\n        returns (uint256) \n    {\n        return balances[_tokenId][_account];\n    }  \n    \n    \n    /// @notice Count all NFTs assigned to an owner\n    /// @dev ERC-721\n    /// @param _owner An address for whom to query the balance\n    /// @return The number of NFTs owned by `_owner`, possibly zero\n    function balanceOf(address _owner) \n        public\n        view \n        override\n        returns (uint256)\n    {\n        require(_owner != address(0), \"UNSPECIFIED_ADDRESS\");  //hex\"20\" FISSION.code(FISSION.Category.Find, FISSION.Status.NotFound_Unequal_OutOfRange)\n\n        return balance721[_owner];\n    }\n    \n\n    /**\n     * @notice Gets the owner of the specified token ID.\n     * @dev ERC-721\n     * @param _tokenId uint256 ID of the token to query the owner of\n     * @return address currently marked as the owner of the given token ID\n     */\n    function ownerOf(uint256 _tokenId) \n        public \n        view \n        override\n        returns (address)\n    {\n        address tokenOwner = owners721[_tokenId];\n        require(tokenOwner != address(0), \"UNDEFINED_OWNER\");  //hex\"20\" FISSION.code(FISSION.Category.Find, FISSION.Status.NotFound_Unequal_OutOfRange)\n\n        return tokenOwner;\n    }    \n    \n    \n    \n    /**\n        @notice Get the balance of account-token pairs.\n        @dev ERC-1155\n        @param _accounts The addresses of the token holders\n        @param _tokenIds IDs of the tokens\n        @return         balances\n     */\n    function balanceOfBatch(\n        address[] calldata _accounts,\n        uint256[] calldata _tokenIds\n    )\n        external\n        view\n        override\n        returns (uint256[] memory)\n    {\n        require(_accounts.length == _tokenIds.length, \"MISMATCHED_ARRAY_LENGTS\");  //hex\"28\" FISSION.code(FISSION.Category.Find, FISSION.Status.Duplicate_Conflict_Collision)\n        uint256[] memory batchBalances = new uint256[](_accounts.length);\n\n        for (uint256 i = 0; i < _accounts.length; ++i) {\n            batchBalances[i] = balances[_tokenIds[i]][_accounts[i]];\n        }\n\n        return batchBalances;\n    }    \n    \n    \n    /**\n     * @notice Approves or unapproves the operator.\n     * will revert if the caller attempts to approve itself as it is redundant\n     * @dev ERC-1155 & ERC-721\n     * @param _operator to (un)approve\n     * @param _approve flag to set or unset\n     */\n    function setApprovalForAll(address _operator, bool _approve) \n        external\n        override(IERC1155, IERC721)\n    {\n        require(msg.sender != _operator, \"REDUNDANT_CALL\"); //hex\"18\" FISSION.code(FISSION.Category.Permission, FISSION.Status.NotApplicatableToCurrentState)\n        operatorApprovals[msg.sender][_operator] = _approve;\n        emit ApprovalForAll(msg.sender, _operator, _approve);\n    }  \n    \n    \n    /**\n        @notice Gets approval status of an operator for a given account.\n        @dev ERC-1155 & ERC-721\n        @param _account   token holder\n        @param _operator  operator to check\n        @return           True if the operator is approved, false if not\n    */\n    function isApprovedForAll(address _account, address _operator) \n        public \n        view \n        override(IERC1155, IERC721)\n        returns (bool) \n    {\n        return operatorApprovals[_account][_operator];\n    }     \n    \n\n    /**\n     * @notice Returns true if this contract implements the interface defined by _interfaceId_.\n     * This function call must use less than 30 000 gas. ATM not enforced.\n     */\n    function supportsInterface(bytes4 _interfaceId) \n        external \n        view \n        override\n        returns (bool)\n    {\n        return  //check matching against ERC-165 identifiers\n            _interfaceId == 0x01ffc9a7 || //ERC-165\n            _interfaceId == 0xd9b67a26 || //ERC-1155\n            _interfaceId == 0x80ac58cd || //ERC-721\n            _interfaceId == 0x5b5e139f || //ERC-721 metadata extension\n            _interfaceId == 0x0e89341c; //ERC-1155 metadata extension\n    }\n\n    // // // // // // // //\n    // STANDARD - UTILS \n    // // // // // // // //  \n    /**\n     * @notice Mint an amount of a desired token\n     * Currently no restrictions as to who is allowd to mint - so, it is public.\n     * @dev ERC-1155\n     * @param _to       owner of the minted token\n     * @param _tokenId  ID of the token to be minted\n     * @param _value    Amount of the token to be minted\n     * @param _data     Additional data forwarded to onERC1155BatchReceived if _to is a contract\n     */\n    function mint(address _to, uint256 _tokenId, uint256 _value, bytes memory _data) \n        public \n        onlyFromVoucherKernel\n    {\n        _mint(_to, _tokenId, _value, _data);\n    }    \n    \n    /**\n     * @notice Internal function to mint an amount of a desired token\n     * @dev ERC-1155\n     * @param _to       owner of the minted token\n     * @param _tokenId  ID of the token to be minted\n     * @param _value    Amount of the token to be minted\n     * @param _data     Additional data forwarded to onERC1155BatchReceived if _to is a contract\n     */\n    function _mint(address _to, uint256 _tokenId, uint256 _value, bytes memory _data) \n        internal \n    {\n        require(_to != address(0), \"UNSPECIFIED_ADDRESS\");   //FISSION.code(FISSION.Category.Find, FISSION.Status.NotFound_Unequal_OutOfRange)\n        \n        balances[_tokenId][_to] = balances[_tokenId][_to].add(_value);\n        emit TransferSingle(msg.sender, address(0), _to, _tokenId, _value);\n\n        _doSafeTransferAcceptanceCheck(msg.sender, address(0), _to, _tokenId, _value, _data);\n    }     \n    \n    \n    /**\n     * @notice Function to mint tokens.\n     * @dev ERC-721\n     * @param to The address that will receive the minted tokens.\n     * @param tokenId The token id to mint.\n     * @return A boolean that indicates if the operation was successful.\n     */\n    function mint(address to, uint256 tokenId) \n        public\n        onlyFromVoucherKernel\n        returns (bool) \n    {\n        _mint(to, tokenId);\n        return true;\n    }\n    \n    \n    /**\n     * @notice Internal function to mint a new token.\n     * Reverts if the given token ID already exists.\n     * @dev ERC-721\n     * @param _to The address that will own the minted token\n     * @param _tokenId uint256 ID of the token to be minted\n     */\n    function _mint(address _to, uint256 _tokenId) \n        internal \n    {\n        require(_to != address(0), \"UNSPECIFIED_ADDRESS\");  //hex\"20\" FISSION.code(FISSION.Category.Find, FISSION.Status.NotFound_Unequal_OutOfRange)\n        require(owners721[_tokenId] == address(0), \"ERC721: token already minted\");\n\n        owners721[_tokenId] = _to;\n        balance721[_to]++;\n\n        emit Transfer(address(0), _to, _tokenId);\n    }\n    \n    \n    /**\n     * @notice Batch minting of tokens\n     * Currently no restrictions as to who is allowd to mint - so, it is public.\n     * @dev ERC-1155\n     * @param _to The address that will own the minted token\n     * @param _tokenIds IDs of the tokens to be minted\n     * @param _values Amounts of the tokens to be minted\n     * @param _data Additional data forwarded to onERC1155BatchReceived if _to is a contract\n     */\n    function mintBatch(address _to, uint256[] memory _tokenIds, uint256[] memory _values, bytes memory _data) \n        public \n        onlyFromVoucherKernel\n    {\n        //require approved minter\n        \n        _mintBatch(_to, _tokenIds, _values, _data);\n    }   \n    \n    /**\n     * @notice Internal function for batch minting of tokens\\\n     * @dev ERC-1155\n     * @param _to The address that will own the minted token\n     * @param _tokenIds IDs of the tokens to be minted\n     * @param _values Amounts of the tokens to be minted\n     * @param _data Additional data forwarded to onERC1155BatchReceived if _to is a contract\n     */\n    function _mintBatch(address _to, uint256[] memory _tokenIds, uint256[] memory _values, bytes memory _data) \n        internal \n    {\n        require(_to != address(0), \"UNSPECIFIED_ADDRESS\");  //hex\"20\" FISSION.code(FISSION.Category.Find, FISSION.Status.NotFound_Unequal_OutOfRange)\n        require(_tokenIds.length == _values.length, \"MISMATCHED_ARRAY_LENGTS\"); //hex\"28\" FISSION.code(FISSION.Category.Find, FISSION.Status.Duplicate_Conflict_Collision)\n\n        for(uint i = 0; i < _tokenIds.length; i++) {\n            balances[_tokenIds[i]][_to] = _values[i].add(balances[_tokenIds[i]][_to]);\n        }\n\n        emit TransferBatch(msg.sender, address(0), _to, _tokenIds, _values);\n\n        _doSafeBatchTransferAcceptanceCheck(msg.sender, address(0), _to, _tokenIds, _values, _data);\n    }       \n    \n    \n    /**\n     * @notice Burn an amount of tokens with the given ID\n     * @dev ERC-1155\n     * @param _account  Account which owns the token\n     * @param _tokenId  ID of the token\n     * @param _value    Amount of the token\n     */\n    function burn(address _account, uint256 _tokenId, uint256 _value) \n        public \n        onlyFromVoucherKernel\n    {\n        _burn(_account, _tokenId, _value);\n    }\n    \n    /**\n     * @notice Burn an amount of tokens with the given ID\n     * @dev ERC-1155\n     * @param _account  Account which owns the token\n     * @param _tokenId  ID of the token\n     * @param _value    Amount of the token\n     */\n    function _burn(address _account, uint256 _tokenId, uint256 _value) internal {\n        require(_account != address(0), \"UNSPECIFIED_ADDRESS\");   //\"UNSPECIFIED_ADDRESS\" FISSION.code(FISSION.Category.Find, FISSION.Status.NotFound_Unequal_OutOfRange)\n\n        balances[_tokenId][_account] = balances[_tokenId][_account].sub(_value);\n        emit TransferSingle(msg.sender, _account, address(0), _tokenId, _value);\n    }\n    \n    \n    /* Burning ERC-721 is not allowed, as a voucher (being an ERC-721 token) has a final state and shouldn't be destructed. */ \n    \n\n    /**\n     * @notice Batch burn an amounts of tokens\n     * @dev ERC-1155\n     * @param _account Account which owns the token\n     * @param _tokenIds IDs of the tokens\n     * @param _values Amounts of the tokens\n     */\n    function burnBatch(address _account, uint256[] memory _tokenIds, uint256[] memory _values) \n        public \n        onlyFromVoucherKernel\n    {\n        _burnBatch(_account, _tokenIds, _values);\n    }  \n    \n    /**\n     * @notice Internal function to batch burn an amounts of tokens\n     * @dev ERC-1155\n     * @param _account Account which owns the token\n     * @param _tokenIds IDs of the tokens\n     * @param _values Amounts of the tokens\n     */\n    function _burnBatch(address _account, uint256[] memory _tokenIds, uint256[] memory _values) \n        internal \n    {\n        require(_account != address(0), \"UNSPECIFIED_ADDRESS\"); //hex\"20\" FISSION.code(FISSION.Category.Find, FISSION.Status.NotFound_Unequal_OutOfRange)\n        require(_tokenIds.length == _values.length, \"MISMATCHED_ARRAY_LENGTS\"); //hex\"28\" FISSION.code(FISSION.Category.Find, FISSION.Status.Duplicate_Conflict_Collision)\n\n        for(uint i = 0; i < _tokenIds.length; i++) {\n            balances[_tokenIds[i]][_account] = balances[_tokenIds[i]][_account].sub(_values[i]);\n        }\n\n        emit TransferBatch(msg.sender, _account, address(0), _tokenIds, _values);\n    }     \n    \n    \n    // // // // // // // //\n    // METADATA EXTENSIONS \n    // // // // // // // //  \n    \n    /**\n     * @notice Setting the URL prefix for tokens metadata\n     * @param _newBase   New prefix to be used\n     */\n    function _setMetadataBase(string memory _newBase) \n        public\n        onlyOwner\n    {\n        metadataBase = _newBase;\n    }\n      \n      \n    /**\n     * @notice A distinct Uniform Resource Identifier (URI) for a given token.\n     * @dev ERC-1155\n     * URIs are defined in RFC 3986. The URI MUST point to a JSON file that conforms to the \"ERC-1155 Metadata URI JSON Schema\".        \n     * @param _tokenId  The ID of the token\n     * @return          Full URI string for metadata of the _tokenId\n    */\n    function uri(uint256 _tokenId)\n        external view \n        returns (string memory)\n    {\n        return string(abi.encodePacked(metadataBase, _uint2str(_tokenId), \".json\"));\n    }\n\n\n    /**\n     * @notice A descriptive name for a collection of NFTs in this contract\n     * @dev ERC-721\n    */\n    function name()\n        external pure \n        returns (string memory _name)\n    {\n        return \"Boson Smart Voucher\";\n    }\n\n    /**\n     * @notice An abbreviated name for NFTs in this contract\n     * @dev ERC-721\n    */\n    function symbol()\n        external pure \n        returns (string memory _symbol)\n    {\n        return \"BSV\";\n    }\n\n    /**\n     * @notice A distinct Uniform Resource Identifier (URI) for a given asset.\n     * @dev ERC-721\n     * Throws if `_tokenId` is not a valid NFT. URIs are defined in RFC 3986. The URI may point to a JSON file that conforms to the \"ERC721 Metadata JSON Schema\".\n     * @param _tokenId  ID of the token\n    */\n    function tokenURI(uint256 _tokenId)\n        external view \n        returns (string memory)\n    {\n        require(owners721[_tokenId] != address(0), \"INVALID_ID\");\n        return string(abi.encodePacked(metadataBase, _uint2str(_tokenId), \".json\"));\n    }\n    \n    \n    // // // // // // // //\n    // UTILS \n    // // // // // // // //  \n    \n    /**\n     * @notice Set the address of the VoucherKernel contract\n     * @param _voucherKernelAddress   The address of the Cashier contract\n     */\n    function setVoucherKernelAddress(address _voucherKernelAddress)\n        external\n        onlyOwner\n    {\n        require(_voucherKernelAddress != address(0), \"UNSPECIFIED_ADDRESS\");  //hex\"20\" FISSION.code(FISSION.Category.Find, FISSION.Status.NotFound_Unequal_OutOfRange)\n        \n        voucherKernelAddress = _voucherKernelAddress;\n        \n        emit LogVoucherKernelSet(_voucherKernelAddress, msg.sender);\n    }\n    \n    \n    /**\n     * @notice Convert UINT to string\n     *  Thank you, Oraclize (aka Provable)!\n     *      https://github.com/provable-things/ethereum-api/blob/master/provableAPI_0.5.sol\n     * @param _i    uint parameter\n     */\n    function _uint2str(uint256 _i) \n        internal pure \n        returns (string memory _uintAsString)\n    {\n        if (_i == 0) {\n            return \"0\";\n        }\n        uint j = _i;\n        uint len;\n        while (j != 0) {\n            len++;\n            j /= 10;\n        }\n        bytes memory bstr = new bytes(len);\n        uint k = len - 1;\n        while (_i != 0) {\n            bstr[k--] = byte(uint8(48 + _i % 10));\n            _i /= 10;\n        }\n        return string(bstr);        \n    }\n    \n}",
  "sourcePath": "/Users/hristiyangeorgiev/Documents/Projects/Redemeum/ERC20/bsn-core-prototype/contracts/ERC1155ERC721.sol",
  "compiler": {
    "name": "solc",
    "version": "0.6.6+commit.6c089d02.Emscripten.clang"
  },
  "schemaVersion": "3.3.2",
  "updatedAt": "2020-12-02T09:38:29.442Z",
  "devdoc": {
    "methods": {
      "_setMetadataBase(string)": {
        "params": {
          "_newBase": "New prefix to be used"
        }
      },
      "approve(address,uint256)": {
        "details": "ERC-721",
        "params": {
          "_to": "address to be approved for the given token ID",
          "_tokenId": "uint256 ID of the token to be approved"
        }
      },
      "balanceOf(address)": {
        "details": "ERC-721",
        "params": {
          "_owner": "An address for whom to query the balance"
        },
        "returns": {
          "_0": "The number of NFTs owned by `_owner`, possibly zero"
        }
      },
      "balanceOf(address,uint256)": {
        "details": "ERC-1155",
        "params": {
          "_account": "The address of the token holder",
          "_tokenId": "ID of the token"
        },
        "returns": {
          "_0": "balance"
        }
      },
      "balanceOfBatch(address[],uint256[])": {
        "details": "ERC-1155",
        "params": {
          "_accounts": "The addresses of the token holders",
          "_tokenIds": "IDs of the tokens"
        },
        "returns": {
          "_0": "balances"
        }
      },
      "burn(address,uint256,uint256)": {
        "details": "ERC-1155",
        "params": {
          "_account": "Account which owns the token",
          "_tokenId": "ID of the token",
          "_value": "Amount of the token"
        }
      },
      "burnBatch(address,uint256[],uint256[])": {
        "details": "ERC-1155",
        "params": {
          "_account": "Account which owns the token",
          "_tokenIds": "IDs of the tokens",
          "_values": "Amounts of the tokens"
        }
      },
      "getApproved(uint256)": {
        "details": "ERC-721",
        "params": {
          "_tokenId": "uint256 ID of the token to query the approval of"
        },
        "returns": {
          "_0": "address currently approved for the given token ID"
        }
      },
      "isApprovedForAll(address,address)": {
        "details": "ERC-1155 & ERC-721",
        "params": {
          "_account": "token holder",
          "_operator": "operator to check"
        },
        "returns": {
          "_0": "True if the operator is approved, false if not"
        }
      },
      "mint(address,uint256)": {
        "details": "ERC-721",
        "params": {
          "to": "The address that will receive the minted tokens.",
          "tokenId": "The token id to mint."
        },
        "returns": {
          "_0": "A boolean that indicates if the operation was successful."
        }
      },
      "mint(address,uint256,uint256,bytes)": {
        "details": "ERC-1155",
        "params": {
          "_data": "Additional data forwarded to onERC1155BatchReceived if _to is a contract",
          "_to": "owner of the minted token",
          "_tokenId": "ID of the token to be minted",
          "_value": "Amount of the token to be minted"
        }
      },
      "mintBatch(address,uint256[],uint256[],bytes)": {
        "details": "ERC-1155",
        "params": {
          "_data": "Additional data forwarded to onERC1155BatchReceived if _to is a contract",
          "_to": "The address that will own the minted token",
          "_tokenIds": "IDs of the tokens to be minted",
          "_values": "Amounts of the tokens to be minted"
        }
      },
      "name()": {
        "details": "ERC-721"
      },
      "ownerOf(uint256)": {
        "details": "ERC-721",
        "params": {
          "_tokenId": "uint256 ID of the token to query the owner of"
        },
        "returns": {
          "_0": "address currently marked as the owner of the given token ID"
        }
      },
      "safeBatchTransferFrom(address,address,uint256[],uint256[],bytes)": {
        "details": "ERC-1155",
        "params": {
          "_data": "Additional data forwarded to onERC1155BatchReceived if _to is a contract",
          "_from": "Source address",
          "_to": "Destination address",
          "_tokenIds": "array of token IDs",
          "_values": "array of transfer amounts"
        }
      },
      "safeTransferFrom(address,address,uint256)": {
        "details": "ERC-721",
        "params": {
          "_from": "current owner of the token",
          "_to": "address to receive the ownership of the given token ID",
          "_tokenId": "uint256 ID of the token to be transferred"
        }
      },
      "safeTransferFrom(address,address,uint256,bytes)": {
        "details": "ERC-721",
        "params": {
          "_data": "bytes data to send along with a safe transfer check",
          "_from": "current owner of the token",
          "_to": "address to receive the ownership of the given token ID",
          "_tokenId": "uint256 ID of the token to be transferred"
        }
      },
      "safeTransferFrom(address,address,uint256,uint256,bytes)": {
        "details": "ERC-1155",
        "params": {
          "_data": "Additional data forwarded to onERC1155Received if _to is a contract",
          "_from": "Source address",
          "_to": "Destination address",
          "_tokenId": "ID of the token",
          "_value": "Transfer amount"
        }
      },
      "setApprovalForAll(address,bool)": {
        "details": "ERC-1155 & ERC-721",
        "params": {
          "_approve": "flag to set or unset",
          "_operator": "to (un)approve"
        }
      },
      "setVoucherKernelAddress(address)": {
        "params": {
          "_voucherKernelAddress": "The address of the Cashier contract"
        }
      },
      "symbol()": {
        "details": "ERC-721"
      },
      "tokenURI(uint256)": {
        "details": "ERC-721 Throws if `_tokenId` is not a valid NFT. URIs are defined in RFC 3986. The URI may point to a JSON file that conforms to the \"ERC721 Metadata JSON Schema\".",
        "params": {
          "_tokenId": "ID of the token"
        }
      },
      "transferFrom(address,address,uint256)": {
        "details": "ERC-721",
        "params": {
          "_from": "current owner of the token",
          "_to": "address to receive the ownership of the given token ID",
          "_tokenId": "uint256 ID of the token to be transferred"
        }
      },
      "uri(uint256)": {
        "details": "ERC-1155 URIs are defined in RFC 3986. The URI MUST point to a JSON file that conforms to the \"ERC-1155 Metadata URI JSON Schema\".        ",
        "params": {
          "_tokenId": "The ID of the token"
        },
        "returns": {
          "_0": "Full URI string for metadata of the _tokenId"
        }
      }
    },
    "title": "Multi-token contract, implementing ERC-1155 and ERC-721 hybrid  Inspired by: https://github.com/pixowl/sandbox-smart-contracts"
  },
  "userdoc": {
    "methods": {
      "_setMetadataBase(string)": {
        "notice": "Setting the URL prefix for tokens metadata"
      },
      "approve(address,uint256)": {
        "notice": "Approves another address to transfer the given token ID The zero address indicates there is no approved address. There can only be one approved address per token at a given time. Can only be called by the token owner or an approved operator."
      },
      "balanceOf(address)": {
        "notice": "Count all NFTs assigned to an owner"
      },
      "balanceOf(address,uint256)": {
        "notice": "Get the balance of tokens of an account"
      },
      "balanceOfBatch(address[],uint256[])": {
        "notice": "Get the balance of account-token pairs."
      },
      "burn(address,uint256,uint256)": {
        "notice": "Burn an amount of tokens with the given ID"
      },
      "burnBatch(address,uint256[],uint256[])": {
        "notice": "Batch burn an amounts of tokens"
      },
      "getApproved(uint256)": {
        "notice": "Gets the approved address for a token ID, or zero if no address set Reverts if the token ID does not exist."
      },
      "isApprovedForAll(address,address)": {
        "notice": "Gets approval status of an operator for a given account."
      },
      "mint(address,uint256)": {
        "notice": "Function to mint tokens."
      },
      "mint(address,uint256,uint256,bytes)": {
        "notice": "Mint an amount of a desired token Currently no restrictions as to who is allowd to mint - so, it is public."
      },
      "mintBatch(address,uint256[],uint256[],bytes)": {
        "notice": "Batch minting of tokens Currently no restrictions as to who is allowd to mint - so, it is public."
      },
      "name()": {
        "notice": "A descriptive name for a collection of NFTs in this contract"
      },
      "ownerOf(uint256)": {
        "notice": "Gets the owner of the specified token ID."
      },
      "safeBatchTransferFrom(address,address,uint256[],uint256[],bytes)": {
        "notice": "Transfers amount of _tokenId from-to addresses with safety call. If _to is a smart contract, will call onERC1155BatchReceived"
      },
      "safeTransferFrom(address,address,uint256)": {
        "notice": "Safely transfers the ownership of a given token ID to another address If the target address is a contract, it must implement `onERC721Received`, which is called upon a safe transfer, and return the magic value `bytes4(keccak256(\"onERC721Received(address,address,uint256,bytes)\"))`; otherwise, the transfer is reverted. Requires the msg.sender to be the owner, approved, or operator"
      },
      "safeTransferFrom(address,address,uint256,bytes)": {
        "notice": "Safely transfers the ownership of a given token ID to another address If the target address is a contract, it must implement `onERC721Received` Requires the msg.sender to be the owner, approved, or operator"
      },
      "safeTransferFrom(address,address,uint256,uint256,bytes)": {
        "notice": "Transfers amount of _tokenId from-to addresses with safety call. If _to is a smart contract, will call onERC1155Received"
      },
      "setApprovalForAll(address,bool)": {
        "notice": "Approves or unapproves the operator. will revert if the caller attempts to approve itself as it is redundant"
      },
      "setVoucherKernelAddress(address)": {
        "notice": "Set the address of the VoucherKernel contract"
      },
      "supportsInterface(bytes4)": {
        "notice": "Returns true if this contract implements the interface defined by _interfaceId_. This function call must use less than 30 000 gas. ATM not enforced."
      },
      "symbol()": {
        "notice": "An abbreviated name for NFTs in this contract"
      },
      "tokenURI(uint256)": {
        "notice": "A distinct Uniform Resource Identifier (URI) for a given asset."
      },
      "transferFrom(address,address,uint256)": {
        "notice": "Transfers the ownership of a given token ID to another address. Usage of this method is discouraged, use `safeTransferFrom` whenever possible. Requires the msg.sender to be the owner, approved, or operator."
      },
      "uri(uint256)": {
        "notice": "A distinct Uniform Resource Identifier (URI) for a given token."
      }
    }
  }
}