{
  "contractName": "VoucherKernel",
  "abi": [
    {
      "inputs": [
        {
          "internalType": "address",
          "name": "_tokensContract",
          "type": "address"
        }
      ],
      "stateMutability": "nonpayable",
      "type": "constructor"
    },
    {
      "anonymous": false,
      "inputs": [
        {
          "indexed": false,
          "internalType": "uint256",
          "name": "_newCancelFaultPeriod",
          "type": "uint256"
        },
        {
          "indexed": false,
          "internalType": "address",
          "name": "_triggeredBy",
          "type": "address"
        }
      ],
      "name": "LogCancelFaultPeriodChanged",
      "type": "event"
    },
    {
      "anonymous": false,
      "inputs": [
        {
          "indexed": false,
          "internalType": "address",
          "name": "_newCashier",
          "type": "address"
        },
        {
          "indexed": false,
          "internalType": "address",
          "name": "_triggeredBy",
          "type": "address"
        }
      ],
      "name": "LogCashierSet",
      "type": "event"
    },
    {
      "anonymous": false,
      "inputs": [
        {
          "indexed": false,
          "internalType": "uint256",
          "name": "_newComplainPeriod",
          "type": "uint256"
        },
        {
          "indexed": false,
          "internalType": "address",
          "name": "_triggeredBy",
          "type": "address"
        }
      ],
      "name": "LogComplainPeriodChanged",
      "type": "event"
    },
    {
      "anonymous": false,
      "inputs": [
        {
          "indexed": false,
          "internalType": "uint256",
          "name": "_tokenIdVoucher",
          "type": "uint256"
        },
        {
          "indexed": false,
          "internalType": "address",
          "name": "_triggeredBy",
          "type": "address"
        }
      ],
      "name": "LogExpirationTriggered",
      "type": "event"
    },
    {
      "anonymous": false,
      "inputs": [
        {
          "indexed": false,
          "internalType": "uint256",
          "name": "_tokenIdVoucher",
          "type": "uint256"
        },
        {
          "indexed": false,
          "internalType": "address",
          "name": "_triggeredBy",
          "type": "address"
        }
      ],
      "name": "LogFinalizeVoucher",
      "type": "event"
    },
    {
      "anonymous": false,
      "inputs": [
        {
          "indexed": false,
          "internalType": "uint256",
          "name": "_tokenIdVoucher",
          "type": "uint256"
        },
        {
          "indexed": false,
          "internalType": "uint8",
          "name": "_type",
          "type": "uint8"
        }
      ],
      "name": "LogFundsReleased",
      "type": "event"
    },
    {
      "anonymous": false,
      "inputs": [
        {
          "indexed": true,
          "internalType": "bytes32",
          "name": "_promiseId",
          "type": "bytes32"
        },
        {
          "indexed": true,
          "internalType": "uint256",
          "name": "_nonce",
          "type": "uint256"
        },
        {
          "indexed": true,
          "internalType": "address",
          "name": "_seller",
          "type": "address"
        },
        {
          "indexed": false,
          "internalType": "uint256",
          "name": "_validFrom",
          "type": "uint256"
        },
        {
          "indexed": false,
          "internalType": "uint256",
          "name": "_validTo",
          "type": "uint256"
        },
        {
          "indexed": false,
          "internalType": "uint256",
          "name": "_idx",
          "type": "uint256"
        }
      ],
      "name": "LogPromiseCreated",
      "type": "event"
    },
    {
      "anonymous": false,
      "inputs": [
        {
          "indexed": false,
          "internalType": "uint256",
          "name": "_tokenIdVoucher",
          "type": "uint256"
        }
      ],
      "name": "LogVoucherComplain",
      "type": "event"
    },
    {
      "anonymous": false,
      "inputs": [
        {
          "indexed": true,
          "internalType": "uint256",
          "name": "_tokenIdSupply",
          "type": "uint256"
        },
        {
          "indexed": false,
          "internalType": "uint256",
          "name": "_tokenIdVoucher",
          "type": "uint256"
        },
        {
          "indexed": false,
          "internalType": "address",
          "name": "_issuer",
          "type": "address"
        },
        {
          "indexed": false,
          "internalType": "address",
          "name": "_holder",
          "type": "address"
        },
        {
          "indexed": false,
          "internalType": "bytes32",
          "name": "_promiseId",
          "type": "bytes32"
        }
      ],
      "name": "LogVoucherDelivered",
      "type": "event"
    },
    {
      "anonymous": false,
      "inputs": [
        {
          "indexed": false,
          "internalType": "uint256",
          "name": "_tokenIdVoucher",
          "type": "uint256"
        }
      ],
      "name": "LogVoucherFaultCancel",
      "type": "event"
    },
    {
      "anonymous": false,
      "inputs": [
        {
          "indexed": false,
          "internalType": "uint256",
          "name": "_tokenIdVoucher",
          "type": "uint256"
        },
        {
          "indexed": false,
          "internalType": "address",
          "name": "_holder",
          "type": "address"
        },
        {
          "indexed": false,
          "internalType": "bytes32",
          "name": "_promiseId",
          "type": "bytes32"
        }
      ],
      "name": "LogVoucherRedeemed",
      "type": "event"
    },
    {
      "anonymous": false,
      "inputs": [
        {
          "indexed": false,
          "internalType": "uint256",
          "name": "_tokenIdVoucher",
          "type": "uint256"
        }
      ],
      "name": "LogVoucherRefunded",
      "type": "event"
    },
    {
      "anonymous": false,
      "inputs": [
        {
          "indexed": true,
          "internalType": "address",
          "name": "previousOwner",
          "type": "address"
        },
        {
          "indexed": true,
          "internalType": "address",
          "name": "newOwner",
          "type": "address"
        }
      ],
      "name": "OwnershipTransferred",
      "type": "event"
    },
    {
      "inputs": [],
      "name": "MASK_NF_INDEX",
      "outputs": [
        {
          "internalType": "uint256",
          "name": "",
          "type": "uint256"
        }
      ],
      "stateMutability": "view",
      "type": "function"
    },
    {
      "inputs": [],
      "name": "MASK_TYPE",
      "outputs": [
        {
          "internalType": "uint256",
          "name": "",
          "type": "uint256"
        }
      ],
      "stateMutability": "view",
      "type": "function"
    },
    {
      "inputs": [],
      "name": "TYPE_NF_BIT",
      "outputs": [
        {
          "internalType": "uint256",
          "name": "",
          "type": "uint256"
        }
      ],
      "stateMutability": "view",
      "type": "function"
    },
    {
      "inputs": [
        {
          "internalType": "address",
          "name": "",
          "type": "address"
        }
      ],
      "name": "accountSupply",
      "outputs": [
        {
          "internalType": "uint256",
          "name": "",
          "type": "uint256"
        }
      ],
      "stateMutability": "view",
      "type": "function"
    },
    {
      "inputs": [],
      "name": "cancelFaultPeriod",
      "outputs": [
        {
          "internalType": "uint256",
          "name": "",
          "type": "uint256"
        }
      ],
      "stateMutability": "view",
      "type": "function"
    },
    {
      "inputs": [],
      "name": "cashierAddress",
      "outputs": [
        {
          "internalType": "address",
          "name": "",
          "type": "address"
        }
      ],
      "stateMutability": "view",
      "type": "function"
    },
    {
      "inputs": [],
      "name": "complainPeriod",
      "outputs": [
        {
          "internalType": "uint256",
          "name": "",
          "type": "uint256"
        }
      ],
      "stateMutability": "view",
      "type": "function"
    },
    {
      "inputs": [
        {
          "internalType": "uint256",
          "name": "",
          "type": "uint256"
        }
      ],
      "name": "ordersPromise",
      "outputs": [
        {
          "internalType": "bytes32",
          "name": "",
          "type": "bytes32"
        }
      ],
      "stateMutability": "view",
      "type": "function"
    },
    {
      "inputs": [],
      "name": "owner",
      "outputs": [
        {
          "internalType": "address",
          "name": "",
          "type": "address"
        }
      ],
      "stateMutability": "view",
      "type": "function"
    },
    {
      "inputs": [
        {
          "internalType": "uint256",
          "name": "",
          "type": "uint256"
        }
      ],
      "name": "paymentDetails",
      "outputs": [
        {
          "internalType": "uint8",
          "name": "paymentMethod",
          "type": "uint8"
        },
        {
          "internalType": "address",
          "name": "addressTokenPrice",
          "type": "address"
        },
        {
          "internalType": "address",
          "name": "addressTokenDeposits",
          "type": "address"
        }
      ],
      "stateMutability": "view",
      "type": "function"
    },
    {
      "inputs": [
        {
          "internalType": "uint256",
          "name": "",
          "type": "uint256"
        }
      ],
      "name": "promiseKeys",
      "outputs": [
        {
          "internalType": "bytes32",
          "name": "",
          "type": "bytes32"
        }
      ],
      "stateMutability": "view",
      "type": "function"
    },
    {
      "inputs": [
        {
          "internalType": "bytes32",
          "name": "",
          "type": "bytes32"
        }
      ],
      "name": "promises",
      "outputs": [
        {
          "internalType": "bytes32",
          "name": "promiseId",
          "type": "bytes32"
        },
        {
          "internalType": "uint256",
          "name": "nonce",
          "type": "uint256"
        },
        {
          "internalType": "address",
          "name": "seller",
          "type": "address"
        },
        {
          "internalType": "uint256",
          "name": "validFrom",
          "type": "uint256"
        },
        {
          "internalType": "uint256",
          "name": "validTo",
          "type": "uint256"
        },
        {
          "internalType": "uint256",
          "name": "price",
          "type": "uint256"
        },
        {
          "internalType": "uint256",
          "name": "depositSe",
          "type": "uint256"
        },
        {
          "internalType": "uint256",
          "name": "depositBu",
          "type": "uint256"
        },
        {
          "internalType": "uint256",
          "name": "idx",
          "type": "uint256"
        }
      ],
      "stateMutability": "view",
      "type": "function"
    },
    {
      "inputs": [],
      "name": "renounceOwnership",
      "outputs": [],
      "stateMutability": "nonpayable",
      "type": "function"
    },
    {
      "inputs": [
        {
          "internalType": "address",
          "name": "",
          "type": "address"
        }
      ],
      "name": "tokenNonces",
      "outputs": [
        {
          "internalType": "uint256",
          "name": "",
          "type": "uint256"
        }
      ],
      "stateMutability": "view",
      "type": "function"
    },
    {
      "inputs": [
        {
          "internalType": "address",
          "name": "newOwner",
          "type": "address"
        }
      ],
      "name": "transferOwnership",
      "outputs": [],
      "stateMutability": "nonpayable",
      "type": "function"
    },
    {
      "inputs": [
        {
          "internalType": "uint256",
          "name": "",
          "type": "uint256"
        }
      ],
      "name": "typeCounters",
      "outputs": [
        {
          "internalType": "uint256",
          "name": "",
          "type": "uint256"
        }
      ],
      "stateMutability": "view",
      "type": "function"
    },
    {
      "inputs": [],
      "name": "typeId",
      "outputs": [
        {
          "internalType": "uint256",
          "name": "",
          "type": "uint256"
        }
      ],
      "stateMutability": "view",
      "type": "function"
    },
    {
      "inputs": [
        {
          "internalType": "uint256",
          "name": "",
          "type": "uint256"
        }
      ],
      "name": "voucherIssuers",
      "outputs": [
        {
          "internalType": "address",
          "name": "",
          "type": "address"
        }
      ],
      "stateMutability": "view",
      "type": "function"
    },
    {
      "inputs": [
        {
          "internalType": "uint256",
          "name": "",
          "type": "uint256"
        }
      ],
      "name": "vouchersStatus",
      "outputs": [
        {
          "internalType": "uint8",
          "name": "status",
          "type": "uint8"
        },
        {
          "internalType": "bool",
          "name": "isPaymentReleased",
          "type": "bool"
        },
        {
          "internalType": "bool",
          "name": "isDepositsReleased",
          "type": "bool"
        },
        {
          "internalType": "uint256",
          "name": "complainPeriodStart",
          "type": "uint256"
        },
        {
          "internalType": "uint256",
          "name": "cancelFaultPeriodStart",
          "type": "uint256"
        }
      ],
      "stateMutability": "view",
      "type": "function"
    },
    {
      "inputs": [
        {
          "internalType": "address",
          "name": "_seller",
          "type": "address"
        },
        {
          "internalType": "uint256",
          "name": "_validFrom",
          "type": "uint256"
        },
        {
          "internalType": "uint256",
          "name": "_validTo",
          "type": "uint256"
        },
        {
          "internalType": "uint256",
          "name": "_price",
          "type": "uint256"
        },
        {
          "internalType": "uint256",
          "name": "_depositSe",
          "type": "uint256"
        },
        {
          "internalType": "uint256",
          "name": "_depositBu",
          "type": "uint256"
        },
        {
          "internalType": "uint256",
          "name": "_quantity",
          "type": "uint256"
        }
      ],
      "name": "createTokenSupplyID",
      "outputs": [
        {
          "internalType": "uint256",
          "name": "",
          "type": "uint256"
        }
      ],
      "stateMutability": "nonpayable",
      "type": "function"
    },
    {
      "inputs": [
        {
          "internalType": "uint256",
          "name": "_tokenIdSupply",
          "type": "uint256"
        },
        {
          "internalType": "uint8",
          "name": "_paymentMethod",
          "type": "uint8"
        },
        {
          "internalType": "address",
          "name": "_tokenPrice",
          "type": "address"
        },
        {
          "internalType": "address",
          "name": "_tokenDeposits",
          "type": "address"
        }
      ],
      "name": "createPaymentMethod",
      "outputs": [],
      "stateMutability": "nonpayable",
      "type": "function"
    },
    {
      "inputs": [
        {
          "internalType": "uint256",
          "name": "_tokenIdSupply",
          "type": "uint256"
        },
        {
          "internalType": "address",
          "name": "_issuer",
          "type": "address"
        },
        {
          "internalType": "address",
          "name": "_holder",
          "type": "address"
        }
      ],
      "name": "fillOrder",
      "outputs": [],
      "stateMutability": "nonpayable",
      "type": "function"
    },
    {
      "inputs": [
        {
          "internalType": "uint256",
          "name": "_tokenIdVoucher",
          "type": "uint256"
        }
      ],
      "name": "redeem",
      "outputs": [],
      "stateMutability": "nonpayable",
      "type": "function"
    },
    {
      "inputs": [
        {
          "internalType": "uint256",
          "name": "_tokenIdVoucher",
          "type": "uint256"
        }
      ],
      "name": "refund",
      "outputs": [],
      "stateMutability": "nonpayable",
      "type": "function"
    },
    {
      "inputs": [
        {
          "internalType": "uint256",
          "name": "_tokenIdVoucher",
          "type": "uint256"
        }
      ],
      "name": "complain",
      "outputs": [],
      "stateMutability": "nonpayable",
      "type": "function"
    },
    {
      "inputs": [
        {
          "internalType": "uint256",
          "name": "_tokenIdVoucher",
          "type": "uint256"
        }
      ],
      "name": "cancelOrFault",
      "outputs": [],
      "stateMutability": "nonpayable",
      "type": "function"
    },
    {
      "inputs": [
        {
          "internalType": "uint256",
          "name": "_tokenIdVoucher",
          "type": "uint256"
        }
      ],
      "name": "setPaymentReleased",
      "outputs": [],
      "stateMutability": "nonpayable",
      "type": "function"
    },
    {
      "inputs": [
        {
          "internalType": "uint256",
          "name": "_tokenIdVoucher",
          "type": "uint256"
        }
      ],
      "name": "setDepositsReleased",
      "outputs": [],
      "stateMutability": "nonpayable",
      "type": "function"
    },
    {
      "inputs": [
        {
          "internalType": "uint256",
          "name": "_tokenIdVoucher",
          "type": "uint256"
        }
      ],
      "name": "triggerExpiration",
      "outputs": [],
      "stateMutability": "nonpayable",
      "type": "function"
    },
    {
      "inputs": [
        {
          "internalType": "uint256",
          "name": "_tokenIdVoucher",
          "type": "uint256"
        }
      ],
      "name": "triggerFinalizeVoucher",
      "outputs": [],
      "stateMutability": "nonpayable",
      "type": "function"
    },
    {
      "inputs": [
        {
          "internalType": "address",
          "name": "_cashierAddress",
          "type": "address"
        }
      ],
      "name": "setCashierAddress",
      "outputs": [],
      "stateMutability": "nonpayable",
      "type": "function"
    },
    {
      "inputs": [
        {
          "internalType": "uint256",
          "name": "_complainPeriod",
          "type": "uint256"
        }
      ],
      "name": "setComplainPeriod",
      "outputs": [],
      "stateMutability": "nonpayable",
      "type": "function"
    },
    {
      "inputs": [
        {
          "internalType": "uint256",
          "name": "_cancelFaultPeriod",
          "type": "uint256"
        }
      ],
      "name": "setCancelFaultPeriod",
      "outputs": [],
      "stateMutability": "nonpayable",
      "type": "function"
    },
    {
      "inputs": [
        {
          "internalType": "uint256",
          "name": "_idx",
          "type": "uint256"
        }
      ],
      "name": "getPromiseKey",
      "outputs": [
        {
          "internalType": "bytes32",
          "name": "",
          "type": "bytes32"
        }
      ],
      "stateMutability": "view",
      "type": "function"
    },
    {
      "inputs": [
        {
          "internalType": "uint256",
          "name": "_tokenIdVoucher",
          "type": "uint256"
        }
      ],
      "name": "getIdSupplyFromVoucher",
      "outputs": [
        {
          "internalType": "uint256",
          "name": "",
          "type": "uint256"
        }
      ],
      "stateMutability": "pure",
      "type": "function"
    },
    {
      "inputs": [
        {
          "internalType": "uint256",
          "name": "_tokenIdVoucher",
          "type": "uint256"
        }
      ],
      "name": "getPromiseIdFromVoucherId",
      "outputs": [
        {
          "internalType": "bytes32",
          "name": "",
          "type": "bytes32"
        }
      ],
      "stateMutability": "view",
      "type": "function"
    },
    {
      "inputs": [
        {
          "internalType": "address",
          "name": "_account",
          "type": "address"
        }
      ],
      "name": "getTotalSupply",
      "outputs": [
        {
          "internalType": "uint256",
          "name": "",
          "type": "uint256"
        }
      ],
      "stateMutability": "view",
      "type": "function"
    },
    {
      "inputs": [
        {
          "internalType": "bytes32",
          "name": "_promiseId",
          "type": "bytes32"
        }
      ],
      "name": "getPromiseDepositSe",
      "outputs": [
        {
          "internalType": "uint256",
          "name": "",
          "type": "uint256"
        }
      ],
      "stateMutability": "view",
      "type": "function"
    },
    {
      "inputs": [
        {
          "internalType": "uint256",
          "name": "_tokenIdSupply",
          "type": "uint256"
        }
      ],
      "name": "getOrderCosts",
      "outputs": [
        {
          "internalType": "uint256",
          "name": "",
          "type": "uint256"
        },
        {
          "internalType": "uint256",
          "name": "",
          "type": "uint256"
        },
        {
          "internalType": "uint256",
          "name": "",
          "type": "uint256"
        }
      ],
      "stateMutability": "view",
      "type": "function"
    },
    {
      "inputs": [
        {
          "internalType": "uint256",
          "name": "_tokenIdSupply",
          "type": "uint256"
        }
      ],
      "name": "getBuyerOrderCosts",
      "outputs": [
        {
          "internalType": "uint256",
          "name": "",
          "type": "uint256"
        },
        {
          "internalType": "uint256",
          "name": "",
          "type": "uint256"
        }
      ],
      "stateMutability": "view",
      "type": "function"
    },
    {
      "inputs": [
        {
          "internalType": "uint256",
          "name": "_tokenIdVoucher",
          "type": "uint256"
        }
      ],
      "name": "getVoucherStatus",
      "outputs": [
        {
          "internalType": "uint8",
          "name": "",
          "type": "uint8"
        },
        {
          "internalType": "bool",
          "name": "",
          "type": "bool"
        },
        {
          "internalType": "bool",
          "name": "",
          "type": "bool"
        }
      ],
      "stateMutability": "view",
      "type": "function"
    },
    {
      "inputs": [
        {
          "internalType": "uint256",
          "name": "_tokenIdVoucher",
          "type": "uint256"
        }
      ],
      "name": "getVoucherIssuer",
      "outputs": [
        {
          "internalType": "address",
          "name": "",
          "type": "address"
        }
      ],
      "stateMutability": "view",
      "type": "function"
    },
    {
      "inputs": [
        {
          "internalType": "uint256",
          "name": "_tokenIdVoucher",
          "type": "uint256"
        }
      ],
      "name": "getVoucherHolder",
      "outputs": [
        {
          "internalType": "address",
          "name": "",
          "type": "address"
        }
      ],
      "stateMutability": "view",
      "type": "function"
    },
    {
      "inputs": [
        {
          "internalType": "uint256",
          "name": "_tokenIdSupply",
          "type": "uint256"
        }
      ],
      "name": "getVoucherPriceToken",
      "outputs": [
        {
          "internalType": "address",
          "name": "",
          "type": "address"
        }
      ],
      "stateMutability": "view",
      "type": "function"
    },
    {
      "inputs": [
        {
          "internalType": "uint256",
          "name": "_tokenIdSupply",
          "type": "uint256"
        }
      ],
      "name": "getVoucherDepositToken",
      "outputs": [
        {
          "internalType": "address",
          "name": "",
          "type": "address"
        }
      ],
      "stateMutability": "view",
      "type": "function"
    },
    {
      "inputs": [
        {
          "internalType": "uint256",
          "name": "_tokenIdSupply",
          "type": "uint256"
        }
      ],
      "name": "getVoucherPaymentMethod",
      "outputs": [
        {
          "internalType": "uint8",
          "name": "",
          "type": "uint8"
        }
      ],
      "stateMutability": "view",
      "type": "function"
    },
    {
      "inputs": [
        {
          "internalType": "uint256",
          "name": "_tokenIdVoucher",
          "type": "uint256"
        }
      ],
      "name": "isInValidityPeriod",
      "outputs": [
        {
          "internalType": "bool",
          "name": "",
          "type": "bool"
        }
      ],
      "stateMutability": "view",
      "type": "function"
    }
  ],
  "bytecode": "0x60806040523480156200001157600080fd5b506040516200358d3803806200358d833981810160405260208110156200003757600080fd5b505160006200004e6001600160e01b03620000ca16565b600080546001600160a01b0319166001600160a01b0383169081178255604051929350917f8be0079c531659141344cd1fd0a4f28419497f9722a3daafe3b4186f6b6457e0908290a350600180546001600160a01b0319166001600160a01b039290921691909117905562093a80600f819055601055620000ce565b3390565b6134af80620000de6000396000f3fe608060405234801561001057600080fd5b50600436106102955760003560e01c80638f940f6311610167578063d905af55116100ce578063ec29c17d11610087578063ec29c17d14610836578063ede8089714610882578063f2fde38b1461089f578063f3223bed146108c5578063f75951ce146108cd578063fad4ee94146108ea57610295565b8063d905af5514610768578063db006a7514610770578063e598d6971461078d578063e5d5f9ac146107b3578063e875a613146107fc578063ebba1b291461081957610295565b8063bc0d753d11610120578063bc0d753d14610624578063c099a7c414610641578063cc2f84cb14610667578063cf5c9008146106d3578063d40ffcf814610710578063d887b4e71461072d57610295565b80638f940f631461056057806399c849b8146105685780639a0271e1146105855780639a751bbd146105b65780639be905a1146105d3578063ae4606fe146105f057610295565b806368da10ae1161020b578063797f2a26116101c4578063797f2a26146104a65780637ed06c44146104f0578063817b3084146104f857806381dc81191461051e5780638990834b1461053b5780638da5cb5b1461055857610295565b806368da10ae14610419578063715018a61461043f578063755495161461044757806375a8310214610464578063765e0fb81461048157806376942aed1461049e57610295565b8063278ecde11161025d578063278ecde11461033e578063284f09231461035d578063325a7a841461037a57806346d07cb5146103bb5780634f755c3e146103f457806365c303bc146103fc57610295565b8063037700461461029a57806316ed9e0e146102c95780631af2a6a8146102e65780631cf7955d1461030357806321d6f3a714610336575b600080fd5b6102b7600480360360208110156102b057600080fd5b5035610920565b60408051918252519081900360200190f35b6102b7600480360360208110156102df57600080fd5b5035610935565b6102b7600480360360208110156102fc57600080fd5b5035610953565b6103206004803603602081101561031957600080fd5b5035610960565b6040805160ff9092168252519081900360200190f35b6102b7610975565b61035b6004803603602081101561035457600080fd5b5035610989565b005b61035b6004803603602081101561037357600080fd5b5035610b3b565b6103976004803603602081101561039057600080fd5b50356110e3565b6040805160ff90941684529115156020840152151582820152519081900360600190f35b6103d8600480360360208110156103d157600080fd5b503561110c565b604080516001600160a01b039092168252519081900360200190f35b6103d8611127565b61035b6004803603602081101561041257600080fd5b5035611136565b6102b76004803603602081101561042f57600080fd5b50356001600160a01b03166113d9565b61035b6113f4565b61035b6004803603602081101561045d57600080fd5b5035611496565b6102b76004803603602081101561047a57600080fd5b50356115d6565b61035b6004803603602081101561049757600080fd5b50356115e8565b6102b76119e0565b6102b7600480360360e08110156104bc57600080fd5b506001600160a01b038135169060208101359060408101359060608101359060808101359060a08101359060c001356119e6565b6102b7611dbf565b6102b76004803603602081101561050e57600080fd5b50356001600160a01b0316611dcb565b6102b76004803603602081101561053457600080fd5b5035611ddd565b61035b6004803603602081101561055157600080fd5b5035611dfe565b6103d8611e98565b6102b7611ea7565b6102b76004803603602081101561057e57600080fd5b5035611ead565b6105a26004803603602081101561059b57600080fd5b5035611ebf565b604080519115158252519081900360200190f35b6103d8600480360360208110156105cc57600080fd5b5035611ffe565b6103d8600480360360208110156105e957600080fd5b503561201c565b61035b6004803603606081101561060657600080fd5b508035906001600160a01b0360208201358116916040013516612037565b6102b76004803603602081101561063a57600080fd5b5035612159565b61035b6004803603602081101561065757600080fd5b50356001600160a01b03166121cc565b6106846004803603602081101561067d57600080fd5b50356122cf565b60408051998a5260208a01989098526001600160a01b03909616888801526060880194909452608087019290925260a086015260c085015260e084015261010083015251908190036101200190f35b61035b600480360360808110156106e957600080fd5b5080359060ff602082013516906001600160a01b0360408201358116916060013516612325565b61035b6004803603602081101561072657600080fd5b503561244f565b61074a6004803603602081101561074357600080fd5b50356125d4565b60408051938452602084019290925282820152519081900360600190f35b6102b7612603565b61035b6004803603602081101561078657600080fd5b503561260b565b6102b7600480360360208110156107a357600080fd5b50356001600160a01b0316612860565b6107d0600480360360208110156107c957600080fd5b5035612872565b6040805160ff90941684526001600160a01b039283166020850152911682820152519081900360600190f35b6103d86004803603602081101561081257600080fd5b50356128a2565b61035b6004803603602081101561082f57600080fd5b50356128c2565b6108536004803603602081101561084c57600080fd5b5035612a07565b6040805160ff909616865293151560208601529115158484015260608401526080830152519081900360a00190f35b61035b6004803603602081101561089857600080fd5b5035612a3d565b61035b600480360360208110156108b557600080fd5b50356001600160a01b0316612ad7565b6102b7612bcf565b6103d8600480360360208110156108e357600080fd5b5035612bd5565b6109076004803603602081101561090057600080fd5b5035612c53565b6040805192835260208301919091528051918290030190f35b60009081526003602052604090206006015490565b6006818154811061094257fe5b600091825260209091200154905081565b6001600160801b03191690565b60009081526005602052604090205460ff1690565b6fffffffffffffffffffffffffffffffff81565b600154604080516331a9108f60e11b8152600481018490529051839233926001600160a01b0390911691636352211e91602480820192602092909190829003018186803b1580156109d957600080fd5b505afa1580156109ed573d6000803e3d6000fd5b505050506040513d6020811015610a0357600080fd5b50516001600160a01b031614610a51576040805162461bcd60e51b815260206004820152600e60248201526d2aa720aaaa2427a924ad22a22fab60911b604482015290519081900360640190fd5b600082815260096020526040902054610a6c9060ff16612c7d565b610ab3576040805162461bcd60e51b8152602060048201526013602482015272494e4150504c494341424c455f53544154555360681b604482015290519081900360640190fd5b610abc82611ebf565b50600082815260096020526040902042600182015554610ae09060ff166005612c9a565b600083815260096020908152604091829020805460ff191660ff9490941693909317909255805184815290517f66d163993c35c8d3a90f3fbce008096384de89ec441c60c9b9f79aaad36616ff929181900390910190a15050565b600154604080516331a9108f60e11b8152600481018490529051839233926001600160a01b0390911691636352211e91602480820192602092909190829003018186803b158015610b8b57600080fd5b505afa158015610b9f573d6000803e3d6000fd5b505050506040513d6020811015610bb557600080fd5b50516001600160a01b031614610c03576040805162461bcd60e51b815260206004820152600e60248201526d2aa720aaaa2427a924ad22a22fab60911b604482015290519081900360640190fd5b600082815260096020526040902054610c209060ff166003612ca7565b15610c67576040805162461bcd60e51b81526020600482015260126024820152711053149150511657d0d3d35413105253915160721b604482015290519081900360640190fd5b600082815260096020526040902054610c849060ff166001612ca7565b15610cca576040805162461bcd60e51b81526020600482015260116024820152701053149150511657d19253905312569151607a1b604482015290519081900360640190fd5b610cd26133db565b60036000610cdf85612159565b8152602080820192909252604090810160009081208251610120810184528154815260018201548186015260028201546001600160a01b0316818501526003820154606082015260048201546080820152600582015460a0820152600682015460c0820152600782015460e082015260089091015461010082015286825260099093522054909150610d739060ff16612cb8565b80610d945750600083815260096020526040902054610d949060ff16612cd0565b15610f0857600083815260096020526040902054610db69060ff166002612ca7565b610e2657601054600f546000858152600960205260409020600101540101421115610e21576040805162461bcd60e51b815260206004820152601660248201527510d3d354131052539411549253d117d156141254915160521b604482015290519081900360640190fd5b610e89565b600f5460008481526009602052604090206001015401421115610e89576040805162461bcd60e51b815260206004820152601660248201527510d3d354131052539411549253d117d156141254915160521b604482015290519081900360640190fd5b600083815260096020526040902042600282015554610eac9060ff166003612c9a565b600084815260096020908152604091829020805460ff191660ff9490941693909317909255805185815290517f0411cc6d1d8430de89b9f9fdd063617e55946cddb8538d3407f516882db59455929181900390910190a16110de565b600083815260096020526040902054610f239060ff16612ce8565b15610ff957600083815260096020526040902054610f459060ff166002612ca7565b610fa357601054600f5482608001510101421115610e21576040805162461bcd60e51b815260206004820152601660248201527510d3d354131052539411549253d117d156141254915160521b604482015290519081900360640190fd5b600f54816080015101421115610e89576040805162461bcd60e51b815260206004820152601660248201527510d3d354131052539411549253d117d156141254915160521b604482015290519081900360640190fd5b6000838152600960205260409020546110169060ff166002612ca7565b1561109b57600f546000848152600960205260409020600101540142111561107e576040805162461bcd60e51b815260206004820152601660248201527510d3d354131052539411549253d117d156141254915160521b604482015290519081900360640190fd5b600083815260096020526040902054610eac9060ff166003612c9a565b6040805162461bcd60e51b8152602060048201526013602482015272494e4150504c494341424c455f53544154555360681b604482015290519081900360640190fd5b505050565b60009081526009602052604090205460ff80821692610100830482169262010000900490911690565b6000908152600a60205260409020546001600160a01b031690565b6002546001600160a01b031681565b80611179576040805162461bcd60e51b815260206004820152600e60248201526d155394d41150d25192515117d25160921b604482015290519081900360640190fd5b60008181526009602052604090205460ff16611196816001612ca7565b156111dc576040805162461bcd60e51b81526020600482015260116024820152701053149150511657d19253905312569151607a1b604482015290519081900360640190fd5b60006111e66133db565b600360006111f386612159565b815260208082019290925260409081016000208151610120810183528154815260018201549381019390935260028101546001600160a01b031691830191909152600380820154606084015260048201546080840152600582015460a0840152600682015460c0840152600782015460e0840152600890910154610100830152909150611281908490612ca7565b156112c557611291836002612ca7565b1561129f57600191506112c0565b6010546000858152600960205260409020600101540142106112c057600191505b611363565b6112d0836002612ca7565b80156112f15750600f54600085815260096020526040902060010154014210155b156112ff5760019150611363565b61130883612cb8565b80611317575061131783612cd0565b1561134157600f546000858152600960205260409020600101540142106112c05760019150611363565b61134a83612ce8565b1561136357600f54816080015101421061136357600191505b81156113d357611374836001612c9a565b600085815260096020908152604091829020805460ff191660ff94909416939093179092558051868152339281019290925280517f28c953c622aa90e006382693080fb83e2add147a386446e0f24572c6b071adfa9281900390910190a15b50505050565b6001600160a01b031660009081526007602052604090205490565b6113fc612d00565b6000546001600160a01b0390811691161461144c576040805162461bcd60e51b8152602060048201819052602482015260008051602061345a833981519152604482015290519081900360640190fd5b600080546040516001600160a01b03909116907f8be0079c531659141344cd1fd0a4f28419497f9722a3daafe3b4186f6b6457e0908390a3600080546001600160a01b0319169055565b6002546001600160a01b03166114e9576040805162461bcd60e51b81526020600482015260136024820152722aa729a822a1a4a324a2a22fa1a0a9a424a2a960691b604482015290519081900360640190fd5b6002546001600160a01b03163314611539576040805162461bcd60e51b815260206004820152600e60248201526d554e415554484f52495a45445f4360901b604482015290519081900360640190fd5b8061157c576040805162461bcd60e51b815260206004820152600e60248201526d155394d41150d25192515117d25160921b604482015290519081900360640190fd5b6000818152600960209081526040808320805461ff00191661010017905580518481529182019290925281517ff570ce8ad3bc67469a0b8e53a32bba1edd0105fc668c1278225660d2291cc554929181900390910190a150565b60086020526000908152604090205481565b336115f28261110c565b6001600160a01b031614611640576040805162461bcd60e51b815260206004820152601060248201526f2aa720aaaa2427a924ad22a22fa1a7a360811b604482015290519081900360640190fd5b60008181526009602052604090205460ff1661165d816002612ca7565b156116a5576040805162461bcd60e51b81526020600482015260136024820152721053149150511657d0d05390d1531190555315606a1b604482015290519081900360640190fd5b6116b0816001612ca7565b156116f6576040805162461bcd60e51b81526020600482015260116024820152701053149150511657d19253905312569151607a1b604482015290519081900360640190fd5b6116fe6133db565b6003600061170b85612159565b815260208082019290925260409081016000208151610120810183528154815260018201549381019390935260028101546001600160a01b0316918301919091526003810154606083015260048101546080830152600581015460a083015260068082015460c0840152600782015460e0840152600890910154610100830152909150611799908390612ca7565b806117aa57506117aa826005612ca7565b1561189d576117ba826003612ca7565b61183a57601054600f546000858152600960205260409020600101540101421115611820576040805162461bcd60e51b815260206004820152601160248201527010d3d19411549253d117d1561412549151607a1b604482015290519081900360640190fd5b600083815260096020526040902042600190910155611898565b60105460008481526009602052604090206002015401421115611898576040805162461bcd60e51b815260206004820152601160248201527010d3d19411549253d117d1561412549151607a1b604482015290519081900360640190fd5b611979565b6118a8826004612ca7565b15611916576118b8826003612ca7565b61183a57601054600f5482608001510101421115611911576040805162461bcd60e51b815260206004820152601160248201527010d3d19411549253d117d1561412549151607a1b604482015290519081900360640190fd5b611898565b61191f82612c7d565b1561109b57601054600f5482608001510101421115611898576040805162461bcd60e51b815260206004820152601160248201527010d3d19411549253d117d1561412549151607a1b604482015290519081900360640190fd5b611984826002612c9a565b600084815260096020908152604091829020805460ff191660ff9490941693909317909255805185815290517f125d1de9ad96c695c95a8de033058d2c00835a1e0cbf24b7fa3de72f603c8709929181900390910190a1505050565b60105481565b6002546000906001600160a01b0316611a3c576040805162461bcd60e51b81526020600482015260136024820152722aa729a822a1a4a324a2a22fa1a0a9a424a2a960691b604482015290519081900360640190fd5b6002546001600160a01b03163314611a8c576040805162461bcd60e51b815260206004820152600e60248201526d554e415554484f52495a45445f4360901b604482015290519081900360640190fd5b85871115611ad9576040805162461bcd60e51b8152602060048201526015602482015274494e56414c49445f56414c49444954595f46524f4d60581b604482015290519081900360640190fd5b42861015611b24576040805162461bcd60e51b8152602060048201526013602482015272494e56414c49445f56414c49444954595f544f60681b604482015290519081900360640190fd5b6001600160a01b0388166000908152600460209081526040918290208054600181019091558251808301919091528083018a905260608082018a9052835180830390910181526080909101909252815191012060065415611bf757600081815260036020526040902060080154600680548392908110611ba057fe5b90600052602060002001541415611bf7576040805162461bcd60e51b815260206004820152601660248201527550524f4d4953455f414c52454144595f45584953545360501b604482015290519081900360640190fd5b604051806101200160405280828152602001600460008c6001600160a01b03166001600160a01b031681526020019081526020016000205481526020018a6001600160a01b0316815260200189815260200188815260200187815260200186815260200185815260200160068054905081525060036000838152602001908152602001600020600082015181600001556020820151816001015560408201518160020160006101000a8154816001600160a01b0302191690836001600160a01b03160217905550606082015181600301556080820151816004015560a0820151816005015560c0820151816006015560e0820151816007015561010082015181600801559050506006819080600181540180825580915050600190039060005260206000200160009091909190915055886001600160a01b0316600460008b6001600160a01b03166001600160a01b0316815260200190815260200160002054827fc05e9e3de4c67624681fddccb848a2f81797e05e1c09faf702ed3c526a6660e08b8b60016006805490500360405180848152602001838152602001828152602001935050505060405180910390a4611db2898285612d04565b9998505050505050505050565b6001600160801b031981565b60046020526000908152604090205481565b600060068281548110611dec57fe5b90600052602060002001549050919050565b611e06612d00565b6000546001600160a01b03908116911614611e56576040805162461bcd60e51b8152602060048201819052602482015260008051602061345a833981519152604482015290519081900360640190fd5b600f8190556040805182815233602082015281517f08bf60d0e489e33912f3ba0f81f21c6f2ad2499a36dfebfb6cfbfefcc49f3cca929181900390910190a150565b6000546001600160a01b031690565b600e5481565b600d6020526000908152604090205481565b6000611ec96133db565b60036000611ed685612159565b815260208082019290925260409081016000208151610120810183528154815260018201549381019390935260028101546001600160a01b03169183019190915260038101546060830181905260048201546080840152600582015460a0840152600682015460c0840152600782015460e0840152600890910154610100830152909150421015611fa6576040805162461bcd60e51b8152602060048201526015602482015274494e56414c49445f56414c49444954595f46524f4d60581b604482015290519081900360640190fd5b4281608001511015611ff5576040805162461bcd60e51b8152602060048201526013602482015272494e56414c49445f56414c49444954595f544f60681b604482015290519081900360640190fd5b50600192915050565b6000908152600560205260409020600101546001600160a01b031690565b600a602052600090815260409020546001600160a01b031681565b6002546001600160a01b031661208a576040805162461bcd60e51b81526020600482015260136024820152722aa729a822a1a4a324a2a22fa1a0a9a424a2a960691b604482015290519081900360640190fd5b6002546001600160a01b031633146120da576040805162461bcd60e51b815260206004820152600e60248201526d554e415554484f52495a45445f4360901b604482015290519081900360640190fd5b6120e5838383612ebe565b60006120f28383866130f5565b9050837f23c1c17d90a2ffcaa72a4491901fe754b355e3a5453fc90eb2e0d03adfb1b27a82858561212286612159565b604080519485526001600160a01b03938416602086015291909216838201526060830191909152519081900360800190a250505050565b60008161219e576040805162461bcd60e51b815260206004820152600e60248201526d155394d41150d25192515117d25160921b604482015290519081900360640190fd5b60006121a983610953565b600090815260086020908152604080832054835260039091529020549392505050565b6121d4612d00565b6000546001600160a01b03908116911614612224576040805162461bcd60e51b8152602060048201819052602482015260008051602061345a833981519152604482015290519081900360640190fd5b6001600160a01b038116612275576040805162461bcd60e51b8152602060048201526013602482015272554e5350454349464945445f4144445245535360681b604482015290519081900360640190fd5b600280546001600160a01b0319166001600160a01b0383169081179091556040805191825233602083015280517fcd124a0a6c3182c7bb77b8052823a4bf7d0a4c90016ffc4d53b969f98d3f8b889281900390910190a150565b6003602081905260009182526040909120805460018201546002830154938301546004840154600585015460068601546007870154600890970154959794966001600160a01b0390951695939492939192909189565b6002546001600160a01b0316612378576040805162461bcd60e51b81526020600482015260136024820152722aa729a822a1a4a324a2a22fa1a0a9a424a2a960691b604482015290519081900360640190fd5b6002546001600160a01b031633146123c8576040805162461bcd60e51b815260206004820152600e60248201526d554e415554484f52495a45445f4360901b604482015290519081900360640190fd5b6040805160608101825260ff94851681526001600160a01b0393841660208083019182529385168284019081526000978852600590945291909520945185549151841661010002610100600160a81b03199190951660ff199092169190911716929092178355905160019092018054929091166001600160a01b0319909216919091179055565b80612492576040805162461bcd60e51b815260206004820152600e60248201526d155394d41150d25192515117d25160921b604482015290519081900360640190fd5b61249a6133db565b600360006124a784612159565b815260208082019290925260409081016000208151610120810183528154815260018201549381019390935260028101546001600160a01b03169183019190915260038101546060830152600481015460808301819052600582015460a0840152600682015460c0840152600782015460e08401526008909101546101008301529091504211801561254f575060008281526009602052604090205461254f9060ff16612c7d565b156125d0576000828152600960205260409020546125719060ff166004612c9a565b600083815260096020908152604091829020805460ff191660ff94909416939093179092558051848152339281019290925280517f0fbb6c447a631ca170fad3c540d76f932db4c444d82bc160f7e3eebc6a5f67409281900390910190a15b5050565b600090815260086020908152604080832054835260039091529020600581015460068201546007909201549092565b600160ff1b81565b600154604080516331a9108f60e11b8152600481018490529051839233926001600160a01b0390911691636352211e91602480820192602092909190829003018186803b15801561265b57600080fd5b505afa15801561266f573d6000803e3d6000fd5b505050506040513d602081101561268557600080fd5b50516001600160a01b0316146126d3576040805162461bcd60e51b815260206004820152600e60248201526d2aa720aaaa2427a924ad22a22fab60911b604482015290519081900360640190fd5b6000828152600960205260409020546126ee9060ff16612c7d565b612733576040805162461bcd60e51b81526020600482015260116024820152701053149150511657d41493d0d154d4d151607a1b604482015290519081900360640190fd5b61273c82611ebf565b506127456133db565b6003600061275285612159565b815260208082019290925260409081016000908120825161012081018452815481526001808301548287015260028301546001600160a01b0316828601526003830154606083015260048301546080830152600583015460a083015260068084015460c0840152600784015460e0840152600890930154610100830152888452600990955292909120429381019390935591549092506127f79160ff90911690612c9a565b600084815260096020908152604091829020805460ff191660ff949094169390931790925582518151868152339381019390935282820152517f43a88bfc6f85aab9491c25f0ce50c4046d7cb7d4dc209b40914a2574d9855a5c916060908290030190a1505050565b60076020526000908152604090205481565b6005602052600090815260409020805460019091015460ff8216916001600160a01b036101009091048116911683565b60009081526005602052604090205461010090046001600160a01b031690565b6002546001600160a01b0316612915576040805162461bcd60e51b81526020600482015260136024820152722aa729a822a1a4a324a2a22fa1a0a9a424a2a960691b604482015290519081900360640190fd5b6002546001600160a01b03163314612965576040805162461bcd60e51b815260206004820152600e60248201526d554e415554484f52495a45445f4360901b604482015290519081900360640190fd5b806129a8576040805162461bcd60e51b815260206004820152600e60248201526d155394d41150d25192515117d25160921b604482015290519081900360640190fd5b600081815260096020908152604091829020805462ff0000191662010000179055815183815260019181019190915281517ff570ce8ad3bc67469a0b8e53a32bba1edd0105fc668c1278225660d2291cc554929181900390910190a150565b60096020526000908152604090208054600182015460029092015460ff8083169361010084048216936201000090049091169185565b612a45612d00565b6000546001600160a01b03908116911614612a95576040805162461bcd60e51b8152602060048201819052602482015260008051602061345a833981519152604482015290519081900360640190fd5b60108190556040805182815233602082015281517fff783d200775c8efda1ff912a95c6b9561e641cc8695e015340f06a5b3024f12929181900390910190a150565b612adf612d00565b6000546001600160a01b03908116911614612b2f576040805162461bcd60e51b8152602060048201819052602482015260008051602061345a833981519152604482015290519081900360640190fd5b6001600160a01b038116612b745760405162461bcd60e51b81526004018080602001828103825260268152602001806134346026913960400191505060405180910390fd5b600080546040516001600160a01b03808516939216917f8be0079c531659141344cd1fd0a4f28419497f9722a3daafe3b4186f6b6457e091a3600080546001600160a01b0319166001600160a01b0392909216919091179055565b600f5481565b600154604080516331a9108f60e11b81526004810184905290516000926001600160a01b031691636352211e916024808301926020929190829003018186803b158015612c2157600080fd5b505afa158015612c35573d6000803e3d6000fd5b505050506040513d6020811015612c4b57600080fd5b505192915050565b60009081526008602090815260408083205483526003909152902060058101546007909101549091565b6000612c8b60006007612c9a565b60ff168260ff16149050919050565b600160ff919091161b1790565b60ff91821691161c60019081161490565b6000612c8b612cc960006007612c9a565b6006612c9a565b6000612c8b612ce160006007612c9a565b6005612c9a565b6000612c8b612cf960006007612c9a565b6004612c9a565b3390565b600082612d4e576040805162461bcd60e51b8152602060048201526013602482015272554e5350454349464945445f50524f4d49534560681b604482015290519081900360640190fd5b6000838152600360205260409020600201546001600160a01b03858116911614612db1576040805162461bcd60e51b815260206004820152600f60248201526e554e415554484f52495a45445f434f60881b604482015290519081900360640190fd5b60008211612df9576040805162461bcd60e51b815260206004820152601060248201526f494e56414c49445f5155414e5449545960801b604482015290519081900360640190fd5b6000612e0560016133a3565b6001546040805163731133e960e01b81526001600160a01b03898116600483015260248201859052604482018890526080606483015260006084830181905292519495509092169263731133e99260c480820193929182900301818387803b158015612e7057600080fd5b505af1158015612e84573d6000803e3d6000fd5b50505060008281526008602090815260408083208890556001600160a01b0389168352600790915290208054850190555090509392505050565b82612f01576040805162461bcd60e51b815260206004820152600e60248201526d155394d41150d25192515117d25160921b604482015290519081900360640190fd5b612f13816001600160a01b03166133d5565b15612fe257604080516301ffc9a760e01b8152630a85bd0160e11b600482015290516001600160a01b038316916301ffc9a7916024808301926020929190829003018186803b158015612f6557600080fd5b505afa158015612f79573d6000803e3d6000fd5b505050506040513d6020811015612f8f57600080fd5b5051612fe2576040805162461bcd60e51b815260206004820152601b60248201527f554e535550504f525445445f4552433732315f52454345495645440000000000604482015290519081900360640190fd5b6001600160a01b038116613033576040805162461bcd60e51b8152602060048201526013602482015272554e5350454349464945445f4144445245535360681b604482015290519081900360640190fd5b60015460408051627eeac760e11b81526001600160a01b038581166004830152602482018790529151600093929092169162fdd58e91604480820192602092909190829003018186803b15801561308957600080fd5b505afa15801561309d573d6000803e3d6000fd5b505050506040513d60208110156130b357600080fd5b5051116110de576040805162461bcd60e51b815260206004820152600b60248201526a4f464645525f454d50545960a81b604482015290519081900360640190fd5b6000613109836001600160a01b03166133d5565b156132015760408051630a85bd0160e11b8082526001600160a01b0387811660048401523360248401526044830186905260806064840152600060848401819052935191939087169263150b7a029260c48083019360209383900390910190829087803b15801561317957600080fd5b505af115801561318d573d6000803e3d6000fd5b505050506040513d60208110156131a357600080fd5b50516001600160e01b03191614613201576040805162461bcd60e51b815260206004820152601b60248201527f554e535550504f525445445f4552433732315f52454345495645440000000000604482015290519081900360640190fd5b6001805460408051637a94c56560e11b81526001600160a01b0388811660048301526024820187905260448201949094529051929091169163f5298aca9160648082019260009290919082900301818387803b15801561326057600080fd5b505af1158015613274573d6000803e3d6000fd5b5050506001600160a01b03851660009081526007602081815260408084208054600019019055868452600d825280842080546001019081905587178085526009909252909220549192506132cb9160ff1690612c9a565b6000828152600960209081526040808320805460ff191660ff959095169490941762ffff00191690935560015483516340c10f1960e01b81526001600160a01b03898116600483015260248201879052945194909116936340c10f1993604480840194938390030190829087803b15801561334557600080fd5b505af1158015613359573d6000803e3d6000fd5b505050506040513d602081101561336f57600080fd5b50506000818152600a6020526040902080546001600160a01b0387166001600160a01b031990911617905590509392505050565b600e80546001019055600081156133c8576080600e54901b600160ff1b1790506133d0565b50600e5460801b5b919050565b3b151590565b604051806101200160405280600080191681526020016000815260200160006001600160a01b03168152602001600081526020016000815260200160008152602001600081526020016000815260200160008152509056fe4f776e61626c653a206e6577206f776e657220697320746865207a65726f20616464726573734f776e61626c653a2063616c6c6572206973206e6f7420746865206f776e6572a264697066735822122082d2295f63888a175187b5f1de557e39b0dc650ad5420177f007e90a22a43b5764736f6c63430006060033",
  "immutableReferences": {},
  "source": "// SPDX-License-Identifier: LGPL-3.0-or-later\n\npragma solidity >=0.6.6 <0.7.0;\n\nimport \"@openzeppelin/contracts/utils/Address.sol\";\nimport \"@openzeppelin/contracts/Access/Ownable.sol\";\nimport \"./ERC1155ERC721.sol\";\nimport \"./usingHelpers.sol\";\n\n//preparing for ERC-1066, ERC-1444, EIP-838\n\n/**\n * @title VoucherKernel contract is controlling the core business logic\n * @dev Notes: \n *  - Since this is a demo app, it is not yet optimized. \n *      In the next phase, the bulk raw data will be packed into a single bytes32 field and/or pushed off-chain.\n *  - The usage of block.timestamp is honored since vouchers are defined with day-precision and the demo app is not covering all edge cases.\n *      See: https://ethereum.stackexchange.com/questions/5924/how-do-ethereum-mining-nodes-maintain-a-time-consistent-with-the-network/5931#5931\n*/\ncontract VoucherKernel is Ownable, usingHelpers {    \n    using Address for address;\n    //using Counters for Counters.Counter;\n    //Counters.Counter private voucherTokenId; //unique IDs for voucher tokens\n    \n    //AssetRegistry assetRegistry;\n    ERC1155ERC721 tokensContract;\n        \n    //promise for an asset could be reusable, but simplified here for brevitbytes32\n    struct Promise {\n        bytes32 promiseId;\n        uint256 nonce;      //the asset that is offered\n        address seller;       //the seller who created the promise        \n        \n        //we simplify the value for the demoapp, otherwise voucher details would be packed in one bytes32 field value\n        uint256 validFrom;\n        uint256 validTo;\n        uint256 price;\n        uint256 depositSe;\n        uint256 depositBu;\n\n        uint idx;\n    }\n\n    struct VoucherPaymentMethod {\n        uint8 paymentMethod;\n        address addressTokenPrice;\n        address addressTokenDeposits;\n    }\n    \n    address public cashierAddress;  //address of the Cashier contract    \n    \n    mapping(bytes32 => Promise) public promises;    //promises to deliver goods or services\n    mapping(address => uint256) public tokenNonces; //mapping between seller address and its own nonces. Every time seller creates supply ID it gets incremented. Used to avoid duplicate ID's\n    mapping (uint256 => VoucherPaymentMethod) public paymentDetails; // tokenSupplyId to VoucherPaymentMethod\n\n    bytes32[] public promiseKeys;\n    \n    mapping(address => uint256) public accountSupply;\n    mapping(uint256 => bytes32) public ordersPromise;   //mapping between an order (supply token) and a promise\n    \n    mapping(uint256 => VoucherStatus) public vouchersStatus;    //recording the vouchers evolution\n    mapping(uint256 => address) public voucherIssuers;  //issuers of vouchers\n    \n    //standard reqs\n    mapping (uint256 => mapping(address => uint256)) private balances; //balance of token ids of an account\n    mapping (address => mapping(address => bool)) private operatorApprovals; //approval of accounts of an operator\n    \n    //ID reqs\n    mapping (uint256 => uint256) public typeCounters;           //counter for ID of a particular type of NFT\n    uint256 public constant MASK_TYPE = uint256(uint128(~0)) << 128;     //the type mask in the upper 128 bits\n//1111111111111111111111111111111111111111111111111111111111111111111111111111111111111111111111111111111111111111111111111111111100000000000000000000000000000000000000000000000000000000000000000000000000000000000000000000000000000000000000000000000000000000\n\n    uint256 public constant MASK_NF_INDEX = uint128(~0);    //the non-fungible index mask in the lower 128\n//0000000000000000000000000000000000000000000000000000000000000000000000000000000000000000000000000000000000000000000000000000000011111111111111111111111111111111111111111111111111111111111111111111111111111111111111111111111111111111111111111111111111111111    \n    \n    uint256 public constant TYPE_NF_BIT = 1 << 255; //the first bit represents an NFT type\n//1000000000000000000000000000000000000000000000000000000000000000000000000000000000000000000000000000000000000000000000000000000000000000000000000000000000000000000000000000000000000000000000000000000000000000000000000000000000000000000000000000000000000000    \n    \n    uint256 public typeId; //base token type ... 127-bits cover 1.701411835*10^38 types (not differentiating between FTs and NFTs)\n    /* Token IDs:\n    Fungibles: 0, followed by 127-bit FT type ID, in the upper 128 bits, followed by 0 in lower 128-bits\n    <0><uint127: base token id><uint128: 0>\n    \n    Non-fungible supply tokens: 1, followed by 127-bit NFT type ID, in the upper 128 bits, followed by 0 in lower 128-bits\n    <1><uint127: base token id><uint128: 0    \n    \n    Non-fungible vouchers: 1, followed by 127-bit NFT type ID, in the upper 128 bits, followed by a 1-based index of an NFT token ID.\n    <1><uint127: base token id><uint128: index of non-fungible>\n    */\n    \n    uint256 public complainPeriod; //for demo purposes, this is fixed/set by owner\n    uint256 public cancelFaultPeriod; //for demo purposes, this is fixed/set by owner\n    \n    \n    event LogPromiseCreated(\n        bytes32 indexed _promiseId,\n        uint256 indexed _nonce,\n        address indexed _seller,\n        uint256 _validFrom,\n        uint256 _validTo,\n        uint256 _idx\n    );\n\n     event LogVoucherDelivered(\n        uint256 indexed _tokenIdSupply,\n        uint256 _tokenIdVoucher,\n        address _issuer,\n        address _holder,\n        bytes32 _promiseId\n    );   \n    \n    event LogVoucherRedeemed(\n        uint256 _tokenIdVoucher,\n        address _holder,\n        bytes32 _promiseId\n    );\n    \n    event LogVoucherRefunded(\n        uint256 _tokenIdVoucher\n    );\n    \n    event LogVoucherComplain(\n        uint256 _tokenIdVoucher\n    );\n    \n    event LogVoucherFaultCancel(\n        uint256 _tokenIdVoucher\n    );\n    \n    event LogExpirationTriggered(\n        uint256 _tokenIdVoucher,\n        address _triggeredBy\n    );\n    \n    event LogFinalizeVoucher(\n        uint256 _tokenIdVoucher,\n        address _triggeredBy\n    );\n    \n    event LogCashierSet(\n        address _newCashier,\n        address _triggeredBy\n    );\n    \n    event LogComplainPeriodChanged(\n        uint256 _newComplainPeriod,\n        address _triggeredBy\n    );\n    \n    event LogCancelFaultPeriodChanged(\n        uint256 _newCancelFaultPeriod,\n        address _triggeredBy\n    );    \n    \n    event LogFundsReleased(\n        uint256 _tokenIdVoucher,\n        uint8 _type     //0 .. payment, 1 .. deposits\n    );\n\n\n    modifier onlyFromCashier() {\n        require(cashierAddress != address(0), \"UNSPECIFIED_CASHIER\");  //hex\"20\" FISSION.code(FISSION.Category.Find, FISSION.Status.NotFound_Unequal_OutOfRange)\n        require(msg.sender == cashierAddress, \"UNAUTHORIZED_C\");   //hex\"10\" FISSION.code(FISSION.Category.Permission, FISSION.Status.Disallowed_Stop)\n        _;\n    }\n    \n    modifier onlyVoucherOwner(uint256 _tokenIdVoucher) {\n        //check authorization\n        require(tokensContract.ownerOf(_tokenIdVoucher) == msg.sender, \"UNAUTHORIZED_V\");   //hex\"10\" FISSION.code(FISSION.Category.Permission, FISSION.Status.Disallowed_Stop)\n        _;\n    }\n    \n    constructor(\n        address _tokensContract\n    )\n        public \n    {\n        tokensContract = ERC1155ERC721(_tokensContract);\n        \n        complainPeriod = 7 * 1 days;\n        cancelFaultPeriod = 7 * 1 days;\n    }\n    \n    \n    /**\n        * @notice Creating a new promise for goods or services.\n        * Can be reused, e.g. for making different batches of these (but not in prototype).\n        * @param _seller      seller of the promise\n        * @param _validFrom   Start of valid period\n        * @param _validTo     End of valid period\n        * @param _price       Price (payment amount)\n        * @param _depositSe   Seller's deposit\n        * @param _depositBu   Buyer's deposit\n    */\n    function createTokenSupplyID(\n        address _seller, \n        uint256 _validFrom,\n        uint256 _validTo,\n        uint256 _price,\n        uint256 _depositSe,\n        uint256 _depositBu,\n        uint256 _quantity\n    ) \n        external \n        onlyFromCashier\n        returns (uint256)\n    {\n        \n        require(_validFrom <= _validTo, \"INVALID_VALIDITY_FROM\");    //hex\"26\" FISSION.code(FISSION.Category.Find, FISSION.Status.Above_Range_Overflow)\n        require(_validTo >= block.timestamp, \"INVALID_VALIDITY_TO\");   //hex\"24\" FISSION.code(FISSION.Category.Find, FISSION.Status.BelowRange_Underflow)\n        \n        bytes32 key;\n        key = keccak256(abi.encodePacked(tokenNonces[_seller]++, _validFrom, _validTo));\n        \n        if (promiseKeys.length > 0) {\n            require(promiseKeys[promises[key].idx] != key, \"PROMISE_ALREADY_EXISTS\");\n        }\n        \n        promises[key] = Promise({\n            promiseId: key,\n            nonce: tokenNonces[_seller],\n            seller: _seller,\n            validFrom: _validFrom,\n            validTo: _validTo,\n            price: _price,\n            depositSe: _depositSe,\n            depositBu: _depositBu,\n            idx: promiseKeys.length\n        });\n        \n        promiseKeys.push(key);\n        \n        emit LogPromiseCreated(key, tokenNonces[_seller], _seller, _validFrom, _validTo, //_price, _depositSe, _depositBu, _complainPeriod, _cancelFaultPeriod, \n                promiseKeys.length - 1);\n\n        return createOrder(_seller, key, _quantity);\n    }\n\n     function createPaymentMethod(\n        uint256 _tokenIdSupply,\n        uint8 _paymentMethod,\n        address _tokenPrice,\n        address _tokenDeposits\n        )\n        external \n        onlyFromCashier\n    {\n\n        paymentDetails[_tokenIdSupply] = VoucherPaymentMethod({\n            paymentMethod: _paymentMethod,\n            addressTokenPrice: _tokenPrice,\n            addressTokenDeposits: _tokenDeposits\n\n        });\n    }\n\n    /**\n     * @notice Create an order for offering a certain quantity of an asset\n     * This creates a listing in a marketplace, technically as an ERC-1155 non-fungible token with supply.\n     * @param _seller     seller of the promise\n     * @param _promiseId  ID of a promise (simplified into asset for demo)\n     * @param _quantity   Quantity of assets on offer\n     */\n    function createOrder(address _seller, bytes32 _promiseId, uint256 _quantity)\n        private \n        returns (uint256)\n    {\n        require(_promiseId != bytes32(0), \"UNSPECIFIED_PROMISE\");   //hex\"20\" FISSION.code(FISSION.Category.Find, FISSION.Status.NotFound_Unequal_OutOfRange)\n        require(promises[_promiseId].seller == _seller, \"UNAUTHORIZED_CO\");    //hex\"10\" FISSION.code(FISSION.Category.Permission, FISSION.Status.Disallowed_Stop)\n        require(_quantity > 0, \"INVALID_QUANTITY\"); //hex\"24\" FISSION.code(FISSION.Category.Find, FISSION.Status.BelowRange_Underflow)\n        \n        uint256 tokenIdSupply = generateTokenType(true); //create & assign a new non-fungible type\n        tokensContract.mint(_seller, tokenIdSupply, _quantity, \"\");\n        \n        ordersPromise[tokenIdSupply] = _promiseId;\n        accountSupply[_seller] += _quantity;\n\n        return tokenIdSupply;\n    }\n    \n    \n     /**\n      * @notice Fill Voucher Order, iff funds paid, then extract & mint NFT to the voucher holder\n      * @param _tokenIdSupply   ID of the supply token (ERC-1155)\n      * @param _issuer          Address of the token's issuer\n      * @param _holder          Address of the recipient of the voucher (ERC-721)\n      */\n    function fillOrder(uint256 _tokenIdSupply, address _issuer, address _holder)\n        external\n        onlyFromCashier\n        \n    {\n        //checks\n        checkOrderFillable(_tokenIdSupply, _issuer, _holder);\n\n        //close order\n        uint256 voucherTokenId = extract721(_issuer, _holder, _tokenIdSupply);\n\n        emit LogVoucherDelivered(_tokenIdSupply, voucherTokenId, _issuer, _holder, getPromiseIdFromVoucherId(voucherTokenId));\n    }\n    \n    \n    /**\n     * @notice Check order is fillable\n     * @dev Will throw if checks don't pass\n     * @param _tokenIdSupply  ID of the supply token\n      * @param _issuer  Address of the token's issuer\n      * @param _holder  Address of the recipient of the voucher (ERC-721)  \n     */\n     function checkOrderFillable(uint256 _tokenIdSupply, address _issuer, address _holder)\n        internal\n        view\n    {\n        require(_tokenIdSupply != 0, \"UNSPECIFIED_ID\"); //hex\"20\" FISSION.code(FISSION.Category.Find, FISSION.Status.NotFound_Unequal_OutOfRange)\n\n        if (_holder.isContract()) {\n            require(IERC165(_holder).supportsInterface(0x150b7a02), \"UNSUPPORTED_ERC721_RECEIVED\");    //hex\"31\"\n            //bytes4(keccak256(\"onERC721Received(address,address,uint256,bytes)\"))\n        }        \n        \n        require(_holder != address(0), \"UNSPECIFIED_ADDRESS\");  //hex\"20\" FISSION.code(FISSION.Category.Find, FISSION.Status.NotFound_Unequal_OutOfRange)\n        require(tokensContract.balanceOf(_issuer, _tokenIdSupply) > 0, \"OFFER_EMPTY\");  //hex\"40\" FISSION.code(FISSION.Category.Availability, FISSION.Status.Unavailable)\n        \n    }\n    \n\n    /**\n     * @notice Extract a standard non-fungible token ERC-721 from a supply stored in ERC-1155\n     * @dev Token ID is derived following the same principles for both ERC-1155 and ERC-721\n     * @param _issuer          The address of the token issuer\n     * @param _to              The address of the token holder\n     * @param _tokenIdSupply   ID of the token type\n     * @return                 ID of the voucher token\n     */\n    function extract721(address _issuer, address _to, uint256 _tokenIdSupply)\n        internal\n        returns (uint256)\n    {\n        if (_to.isContract()) {\n            require(ERC721TokenReceiver(_to).onERC721Received(_issuer, msg.sender, _tokenIdSupply, \"\") == ERC721TokenReceiver(_to).onERC721Received.selector, \"UNSUPPORTED_ERC721_RECEIVED\");  //hex\"10\" FISSION.code(FISSION.Category.Permission, FISSION.Status.Disallowed_Stop)\n            //bytes4(keccak256(\"onERC721Received(address,address,uint256,bytes)\"))\n        } \n\n        tokensContract.burn(_issuer, _tokenIdSupply, 1); // This is hardcoded as 1 on purpose\n        accountSupply[_issuer]--;\n        \n        \n        //calculate tokenId\n        uint256 voucherTokenId = _tokenIdSupply | ++typeCounters[_tokenIdSupply];\n        \n        //set status\n        vouchersStatus[voucherTokenId].status = setChange(vouchersStatus[voucherTokenId].status, idxCommit);\n        vouchersStatus[voucherTokenId].isPaymentReleased = false;\n        vouchersStatus[voucherTokenId].isDepositsReleased = false;\n        \n        //mint voucher NFT as ERC-721\n        tokensContract.mint(_to, voucherTokenId);\n        voucherIssuers[voucherTokenId] = _issuer;\n        \n        return voucherTokenId;\n    }\n    \n    \n    /**\n     * @notice Creating a new token type, serving as the base for tokenID generation for NFTs, and a de facto ID for FTs.\n     * @param _isNonFungible   Flag for generating NFT or FT\n     * @return _tokenType   Returns a newly generated token type\n    */\n    function generateTokenType(bool _isNonFungible)\n        internal\n        returns (uint256 _tokenType)\n    {\n        typeId++;\n        \n        if (_isNonFungible) {\n            _tokenType = TYPE_NF_BIT | typeId << 128; //upper bit is 1, followed by sequence, leaving lower 128-bits as 0\n        } else {\n            _tokenType = typeId << 128; //upper bit is not set, followed by sequence, leaving lower 128-bits as 0\n        }\n        \n        //not needed:\n        //assert(typeId<max_uint127); //used all available space for types\"\n        \n        return _tokenType;\n    }\n    \n    \n    /**\n     * @notice Redemption of the vouchers promise\n     * @param _tokenIdVoucher   ID of the voucher\n     */\n    function redeem(uint256 _tokenIdVoucher)\n        external\n        onlyVoucherOwner(_tokenIdVoucher)\n    {\n        //check status\n        require(isStateCommitted(vouchersStatus[_tokenIdVoucher].status), \"ALREADY_PROCESSED\"); //hex\"48\" FISSION.code(FISSION.Category.Availability, FISSION.Status.AlreadyDone)\n        \n        //check validity period\n        isInValidityPeriod(_tokenIdVoucher);\n        Promise memory tPromise = promises[getPromiseIdFromVoucherId(_tokenIdVoucher)];\n        \n        //check collection code and/or assign collector\n        \n        vouchersStatus[_tokenIdVoucher].complainPeriodStart = block.timestamp;\n        vouchersStatus[_tokenIdVoucher].status = setChange(vouchersStatus[_tokenIdVoucher].status, idxRedeem);\n        \n        emit LogVoucherRedeemed(_tokenIdVoucher, msg.sender, tPromise.promiseId);\n    }\n    \n    \n    // // // // // // // //\n    // UNHAPPY PATH\n    // // // // // // // //  \n    \n    /**\n     * @notice Refunding a voucher\n     * @param _tokenIdVoucher   ID of the voucher\n     */\n    function refund(uint256 _tokenIdVoucher)\n        external\n        onlyVoucherOwner(_tokenIdVoucher)\n    {\n        require(isStateCommitted(vouchersStatus[_tokenIdVoucher].status), \"INAPPLICABLE_STATUS\");  //hex\"18\" FISSION.code(FISSION.Category.Permission, FISSION.Status.NotApplicatableToCurrentState)\n        \n        //check validity period\n        isInValidityPeriod(_tokenIdVoucher);\n        \n        vouchersStatus[_tokenIdVoucher].complainPeriodStart = block.timestamp;\n        vouchersStatus[_tokenIdVoucher].status = setChange(vouchersStatus[_tokenIdVoucher].status, idxRefund);\n        \n        emit LogVoucherRefunded(_tokenIdVoucher);\n    }\n    \n    \n    /**\n     * @notice Issue a complain for a voucher\n     * @param _tokenIdVoucher   ID of the voucher\n     */\n    function complain(uint256 _tokenIdVoucher)\n        external\n        onlyVoucherOwner(_tokenIdVoucher)\n    {\n        require(!isStatus(vouchersStatus[_tokenIdVoucher].status, idxComplain), \"ALREADY_COMPLAINED\"); //hex\"48\" FISSION.code(FISSION.Category.Availability, FISSION.Status.AlreadyDone)\n        require(!isStatus(vouchersStatus[_tokenIdVoucher].status, idxFinal), \"ALREADY_FINALIZED\"); //hex\"48\" FISSION.code(FISSION.Category.Availability, FISSION.Status.AlreadyDone)\n        \n        //check if still in the complain period\n        Promise memory tPromise = promises[getPromiseIdFromVoucherId(_tokenIdVoucher)];\n        \n        //if redeeemed or refunded\n        if (isStateRedemptionSigned(vouchersStatus[_tokenIdVoucher].status) ||\n                    isStateRefunded(vouchersStatus[_tokenIdVoucher].status)) {\n            if (!isStatus(vouchersStatus[_tokenIdVoucher].status, idxCancelFault)) {\n                require(block.timestamp <= vouchersStatus[_tokenIdVoucher].complainPeriodStart + complainPeriod + cancelFaultPeriod, \"COMPLAINPERIOD_EXPIRED\"); //hex\"46\" FISSION.code(FISSION.Category.Availability, FISSION.Status.Expired)\n            } else {\n                require(block.timestamp <= vouchersStatus[_tokenIdVoucher].complainPeriodStart + complainPeriod, \"COMPLAINPERIOD_EXPIRED\"); //hex\"46\" FISSION.code(FISSION.Category.Availability, FISSION.Status.Expired)\n            }\n            \n            vouchersStatus[_tokenIdVoucher].cancelFaultPeriodStart = block.timestamp;\n            vouchersStatus[_tokenIdVoucher].status = setChange(vouchersStatus[_tokenIdVoucher].status, idxComplain);\n            \n            emit LogVoucherComplain(_tokenIdVoucher);\n            \n        //if expired\n        } else if (isStateExpired(vouchersStatus[_tokenIdVoucher].status)) {\n            if (!isStatus(vouchersStatus[_tokenIdVoucher].status, idxCancelFault)) {\n                require(block.timestamp <= tPromise.validTo + complainPeriod + cancelFaultPeriod, \"COMPLAINPERIOD_EXPIRED\"); //hex\"46\" FISSION.code(FISSION.Category.Availability, FISSION.Status.Expired)\n            } else {\n                require(block.timestamp <= tPromise.validTo + complainPeriod, \"COMPLAINPERIOD_EXPIRED\"); //hex\"46\" FISSION.code(FISSION.Category.Availability, FISSION.Status.Expired)\n            }\n            \n            vouchersStatus[_tokenIdVoucher].cancelFaultPeriodStart = block.timestamp;\n            vouchersStatus[_tokenIdVoucher].status = setChange(vouchersStatus[_tokenIdVoucher].status, idxComplain);\n            \n            emit LogVoucherComplain(_tokenIdVoucher);\n        \n        //if cancelOrFault\n        } else if (isStatus(vouchersStatus[_tokenIdVoucher].status, idxCancelFault)) {\n            require(block.timestamp <= vouchersStatus[_tokenIdVoucher].complainPeriodStart + complainPeriod, \"COMPLAINPERIOD_EXPIRED\"); //hex\"46\" FISSION.code(FISSION.Category.Availability, FISSION.Status.Expired));\n            \n            vouchersStatus[_tokenIdVoucher].status = setChange(vouchersStatus[_tokenIdVoucher].status, idxComplain);\n            \n            emit LogVoucherComplain(_tokenIdVoucher);\n            \n        } else {\n            revert(\"INAPPLICABLE_STATUS\");  //hex\"18\" FISSION.code(FISSION.Category.Permission, FISSION.Status.NotApplicatableToCurrentState)\n        }\n        \n    }\n    \n     \n    /**\n     * @notice Cancel/Fault transaction by the Seller, admitting to a fault or backing out of the deal\n     * @param _tokenIdVoucher   ID of the voucher\n     */\n    function cancelOrFault(uint256 _tokenIdVoucher)\n        external\n    {\n        require(getVoucherIssuer(_tokenIdVoucher) == msg.sender,\"UNAUTHORIZED_COF\");   //hex\"10\" FISSION.code(FISSION.Category.Permission, FISSION.Status.Disallowed_Stop)\n        \n        uint8 tStatus = vouchersStatus[_tokenIdVoucher].status;\n        \n        require(!isStatus(tStatus, idxCancelFault), \"ALREADY_CANCELFAULT\"); //hex\"48\" FISSION.code(FISSION.Category.Availability, FISSION.Status.AlreadyDone)\n        require(!isStatus(tStatus, idxFinal), \"ALREADY_FINALIZED\"); //hex\"48\" FISSION.code(FISSION.Category.Availability, FISSION.Status.AlreadyDone)\n        \n        Promise memory tPromise = promises[getPromiseIdFromVoucherId(_tokenIdVoucher)];\n        \n        if (isStatus(tStatus, idxRedeem) || isStatus(tStatus, idxRefund)) {\n            //if redeeemed or refunded\n            if (!isStatus(tStatus, idxComplain)) {\n                require(block.timestamp <= vouchersStatus[_tokenIdVoucher].complainPeriodStart + complainPeriod + cancelFaultPeriod, \"COFPERIOD_EXPIRED\"); //hex\"46\" FISSION.code(FISSION.Category.Availability, FISSION.Status.Expired)            \n                vouchersStatus[_tokenIdVoucher].complainPeriodStart = block.timestamp;  //resetting the complain period\n\n            } else {\n                require(block.timestamp <= vouchersStatus[_tokenIdVoucher].cancelFaultPeriodStart + cancelFaultPeriod, \"COFPERIOD_EXPIRED\"); //hex\"46\" FISSION.code(FISSION.Category.Availability, FISSION.Status.Expired)            \n            }\n            \n        } else if (isStatus(tStatus, idxExpire)) {\n            //if expired\n            if (!isStatus(tStatus, idxComplain)) {\n                require(block.timestamp <= tPromise.validTo + complainPeriod + cancelFaultPeriod, \"COFPERIOD_EXPIRED\"); //hex\"46\" FISSION.code(FISSION.Category.Availability, FISSION.Status.Expired)            \n            } else {\n                require(block.timestamp <= vouchersStatus[_tokenIdVoucher].cancelFaultPeriodStart + cancelFaultPeriod, \"COFPERIOD_EXPIRED\"); //hex\"46\" FISSION.code(FISSION.Category.Availability, FISSION.Status.Expired)            \n            }\n            \n        } else if (isStateCommitted(tStatus)) {\n            //if committed only\n            require(block.timestamp <= tPromise.validTo + complainPeriod + cancelFaultPeriod, \"COFPERIOD_EXPIRED\"); //hex\"46\" FISSION.code(FISSION.Category.Availability, FISSION.Status.Expired)       \n            \n        } else {\n            revert(\"INAPPLICABLE_STATUS\");  //hex\"18\" FISSION.code(FISSION.Category.Permission, FISSION.Status.NotApplicatableToCurrentState)\n        }\n    \n        vouchersStatus[_tokenIdVoucher].status = setChange(tStatus, idxCancelFault);\n        \n        emit LogVoucherFaultCancel(_tokenIdVoucher);\n        \n    }    \n    \n    \n    // // // // // // // //\n    // BACK-END PROCESS\n    // // // // // // // //      \n    \n    \n    /**\n     * @notice Mark voucher token that the payment was released\n     * @param _tokenIdVoucher   ID of the voucher token\n     */\n    function setPaymentReleased(uint256 _tokenIdVoucher)\n        external\n        onlyFromCashier\n    {\n        require(_tokenIdVoucher != 0, \"UNSPECIFIED_ID\");  //hex\"20\" FISSION.code(FISSION.Category.Find, FISSION.Status.NotFound_Unequal_OutOfRange)\n        vouchersStatus[_tokenIdVoucher].isPaymentReleased = true;\n        \n        emit LogFundsReleased(_tokenIdVoucher, 0);\n    }\n    \n\n    /**\n     * @notice Mark voucher token that the deposits were released\n     * @param _tokenIdVoucher   ID of the voucher token\n     */\n    function setDepositsReleased(uint256 _tokenIdVoucher)\n        external\n        onlyFromCashier\n    {\n        require(_tokenIdVoucher != 0, \"UNSPECIFIED_ID\");  //hex\"20\" FISSION.code(FISSION.Category.Find, FISSION.Status.NotFound_Unequal_OutOfRange)\n        vouchersStatus[_tokenIdVoucher].isDepositsReleased = true;\n        \n        emit LogFundsReleased(_tokenIdVoucher, 1);\n    }    \n    \n    \n    /**\n     * @notice Mark voucher token as expired\n     * @param _tokenIdVoucher   ID of the voucher token\n     */\n     //TODO: refactor to support array of inputs\n    function triggerExpiration(uint256 _tokenIdVoucher)\n        external\n    {\n        require(_tokenIdVoucher != 0, \"UNSPECIFIED_ID\");  //hex\"20\" FISSION.code(FISSION.Category.Find, FISSION.Status.NotFound_Unequal_OutOfRange)\n        \n        Promise memory tPromise = promises[getPromiseIdFromVoucherId(_tokenIdVoucher)];\n        \n        if (tPromise.validTo < block.timestamp &&\n            isStateCommitted(vouchersStatus[_tokenIdVoucher].status)\n            ) {\n                vouchersStatus[_tokenIdVoucher].status = setChange(vouchersStatus[_tokenIdVoucher].status, idxExpire);\n                \n                emit LogExpirationTriggered(_tokenIdVoucher, msg.sender);\n        }  \n    }\n    \n\n    /**\n     * @notice Mark voucher token to the final status\n     * @param _tokenIdVoucher   ID of the voucher token\n     */\n    //TODO: refactor to support array of inputs\n    function triggerFinalizeVoucher(uint256 _tokenIdVoucher)\n        external\n    {\n        require(_tokenIdVoucher != 0, \"UNSPECIFIED_ID\");  //hex\"20\" FISSION.code(FISSION.Category.Find, FISSION.Status.NotFound_Unequal_OutOfRange)\n        \n        uint8 tStatus = vouchersStatus[_tokenIdVoucher].status;\n        \n        require(!isStatus(tStatus, idxFinal), \"ALREADY_FINALIZED\"); //hex\"48\" FISSION.code(FISSION.Category.Availability, FISSION.Status.AlreadyDone)\n        \n        \n        bool mark;\n        Promise memory tPromise = promises[getPromiseIdFromVoucherId(_tokenIdVoucher)];\n        \n        if (isStatus(tStatus, idxComplain)) {\n            if (isStatus(tStatus, idxCancelFault)) {\n                //if COMPLAIN && COF: then final\n                mark = true;\n                \n            } else if (block.timestamp >= vouchersStatus[_tokenIdVoucher].complainPeriodStart + cancelFaultPeriod) {\n                //if COMPLAIN: then final after cof period\n                mark = true;\n            }\n            \n        } else if (isStatus(tStatus, idxCancelFault) &&\n                    block.timestamp >= vouchersStatus[_tokenIdVoucher].complainPeriodStart + complainPeriod\n                    ) {\n            //if COF: then final after complain period\n            mark = true;\n            \n        } else if (isStateRedemptionSigned(tStatus) ||\n                    isStateRefunded(tStatus)) {\n            //if RDM/RFND NON_COMPLAIN: then final after complainPeriodStart + complainPeriod\n            if (block.timestamp >= vouchersStatus[_tokenIdVoucher].complainPeriodStart + complainPeriod) {\n                mark = true;\n            }\n            \n        } else if (isStateExpired(tStatus)) {\n            //if EXP NON_COMPLAIN: then final after validTo + complainPeriod\n            if (block.timestamp >= tPromise.validTo + complainPeriod) {\n                mark = true;\n            }             \n        }\n        \n        if (mark) {\n            vouchersStatus[_tokenIdVoucher].status = setChange(tStatus, idxFinal);\n            emit LogFinalizeVoucher(_tokenIdVoucher, msg.sender);            \n        }\n        //\n    }    \n    \n    \n    // // // // // // // //\n    // UTILS \n    // // // // // // // //  \n    \n    /**\n     * @notice Set the address of the Cashier contract\n     * @param _cashierAddress   The address of the Cashier contract\n     */\n    function setCashierAddress(address _cashierAddress)\n        external\n        onlyOwner\n    {\n        require(_cashierAddress != address(0), \"UNSPECIFIED_ADDRESS\");  //hex\"20\" FISSION.code(FISSION.Category.Find, FISSION.Status.NotFound_Unequal_OutOfRange)\n        \n        cashierAddress = _cashierAddress;\n        \n        emit LogCashierSet(_cashierAddress, msg.sender);\n    }\n    \n    \n    /**\n     * @notice Set the general complain period, should be used sparingly as it has significant consequences. Here done simply for demo purposes.\n     * @param _complainPeriod   the new value for complain period (in number of seconds)\n     */\n    function setComplainPeriod(uint256 _complainPeriod)\n        external\n        onlyOwner\n    {\n        complainPeriod = _complainPeriod;\n        \n        emit LogComplainPeriodChanged(_complainPeriod, msg.sender);\n    }\n    \n    \n    /**\n     * @notice Set the general cancelOrFault period, should be used sparingly as it has significant consequences. Here done simply for demo purposes.\n     * @param _cancelFaultPeriod   the new value for cancelOrFault period (in number of seconds)\n     */\n    function setCancelFaultPeriod(uint256 _cancelFaultPeriod)\n        external\n        onlyOwner\n    {\n        cancelFaultPeriod = _cancelFaultPeriod;\n        \n        emit LogCancelFaultPeriodChanged(_cancelFaultPeriod, msg.sender);\n    }    \n    \n    \n    // // // // // // // //\n    // GETTERS \n    // // // // // // // //  \n    \n    /**\n     * @notice Get the promise ID at specific index\n     * @param _idx  Index in the array of promise keys\n     * @return      Promise ID\n     */\n    function getPromiseKey(uint256 _idx)\n        public view\n        returns (bytes32)\n    {\n        return promiseKeys[_idx];\n    }\n    \n    \n    /**\n     * @notice Get the supply token ID from a voucher token\n     * @param _tokenIdVoucher   ID of the voucher token\n     * @return                  ID of the supply token\n     */\n    function getIdSupplyFromVoucher(uint256 _tokenIdVoucher)\n        public pure\n        returns (uint256)\n    {\n        return _tokenIdVoucher & MASK_TYPE;\n    }\n    \n    \n    /**\n     * @notice Get the promise ID from a voucher token\n     * @param _tokenIdVoucher   ID of the voucher token\n     * @return                  ID of the promise\n     */\n    function getPromiseIdFromVoucherId(uint256 _tokenIdVoucher)\n        public view\n        returns (bytes32)\n    {\n        require(_tokenIdVoucher != 0, \"UNSPECIFIED_ID\");  //hex\"20\" FISSION.code(FISSION.Category.Find, FISSION.Status.NotFound_Unequal_OutOfRange)\n        \n        uint256 tokenIdSupply = getIdSupplyFromVoucher(_tokenIdVoucher);\n        return promises[ordersPromise[tokenIdSupply]].promiseId;\n    }\n    \n    \n    /**\n     * @notice Get the current supply of tokens of an account\n     * @param _account  Address to query\n     * @return         Balance\n     */\n    //TODO: might not need it\n    function getTotalSupply(address _account)\n        public view\n        returns (uint256)\n    {\n        return accountSupply[_account];\n    }\n    \n    \n    /**\n     * @notice Get the seller's deposit for a promise\n     * @param _promiseId    ID of the promise\n     * @return              Deposit of the seller\n     */\n    function getPromiseDepositSe(bytes32 _promiseId)\n        public view\n        returns (uint256)\n    {\n        return (promises[_promiseId].depositSe);\n    }\n    \n\n    /**\n     * @notice Get all necessary funds for a supply token\n     * @param _tokenIdSupply   ID of the supply token\n     * @return                  returns a tupple (Payment amount, Seller's deposit, Buyer's deposit)\n     */\n    function getOrderCosts(uint256 _tokenIdSupply)\n        public view\n        returns (uint256, uint256, uint256)\n    {\n        bytes32 promiseKey = ordersPromise[_tokenIdSupply];\n        return (promises[promiseKey].price, promises[promiseKey].depositSe, promises[promiseKey].depositBu);\n    }\n\n\n    /**\n     * @notice Get Buyer costs required to make an order for a supply token\n     * @param _tokenIdSupply   ID of the supply token\n     * @return                  returns a tupple (Payment amount, Buyer's deposit)\n     */\n    function getBuyerOrderCosts(uint256 _tokenIdSupply)\n        public view\n        returns (uint256, uint256)\n    {\n        bytes32 promiseKey = ordersPromise[_tokenIdSupply];\n        return (promises[promiseKey].price, promises[promiseKey].depositBu);\n    }\n    \n    \n    /**\n     * @notice Get the current status of a voucher\n     * @param _tokenIdVoucher   ID of the voucher token\n     * @return                  Status of the voucher (via enum)\n     */\n    function getVoucherStatus(uint256 _tokenIdVoucher)\n        public view\n        returns (uint8, bool, bool)\n    {\n        return (vouchersStatus[_tokenIdVoucher].status, vouchersStatus[_tokenIdVoucher].isPaymentReleased, vouchersStatus[_tokenIdVoucher].isDepositsReleased);\n    }\n    \n    \n    /**\n     * @notice Get the issuer of a voucher\n     * @param _tokenIdVoucher   ID of the voucher token\n     * @return                  Address of the issuer\n     */\n    function getVoucherIssuer(uint256 _tokenIdVoucher)\n        public view\n        returns (address)\n    {\n        return voucherIssuers[_tokenIdVoucher];\n    }\n    \n    \n    /**\n     * @notice Get the holder of a voucher\n     * @param _tokenIdVoucher   ID of the voucher token\n     * @return                  Address of the holder\n     */\n    function getVoucherHolder(uint256 _tokenIdVoucher)\n        public view\n        returns (address)\n    {\n        return tokensContract.ownerOf(_tokenIdVoucher);\n    }\n\n\n    /**\n     * @notice Get the address of the token where the price for the supply is held\n     * @param _tokenIdSupply   ID of the voucher token\n     * @return                  Address of the token\n     */\n    function getVoucherPriceToken(uint256 _tokenIdSupply)\n        public view\n        returns (address)\n    {\n        return paymentDetails[_tokenIdSupply].addressTokenPrice;\n    }\n\n    /**\n     * @notice Get the address of the token where the deposits for the supply are held\n     * @param _tokenIdSupply   ID of the voucher token\n     * @return                  Address of the token\n     */\n    function getVoucherDepositToken(uint256 _tokenIdSupply)\n        public view\n        returns (address)\n    {\n        return paymentDetails[_tokenIdSupply].addressTokenDeposits;\n    }\n\n    function getVoucherPaymentMethod(uint256 _tokenIdSupply)\n        public view\n        returns (uint8)\n    {\n        return paymentDetails[_tokenIdSupply].paymentMethod;\n    }\n    \n    /** \n     * \n     */\n    function isInValidityPeriod(uint256 _tokenIdVoucher)\n        public view\n        returns (bool)\n    {\n        //check validity period\n        Promise memory tPromise = promises[getPromiseIdFromVoucherId(_tokenIdVoucher)];\n        require(tPromise.validFrom <= block.timestamp, \"INVALID_VALIDITY_FROM\"); //hex\"26\" FISSION.code(FISSION.Category.Find, FISSION.Status.Above_Range_Overflow)\n        require(tPromise.validTo >= block.timestamp, \"INVALID_VALIDITY_TO\");    //hex\"24\" FISSION.code(FISSION.Category.Find, FISSION.Status.BelowRange_Underflow)         \n        \n        return true;\n    }\n}",
  "sourcePath": "/Users/hristiyangeorgiev/Documents/Projects/Redemeum/ERC20/bsn-core-prototype/contracts/VoucherKernel.sol",
  "compiler": {
    "name": "solc",
    "version": "0.6.6+commit.6c089d02.Emscripten.clang"
  },
  "schemaVersion": "3.3.2",
  "updatedAt": "2020-12-02T09:38:29.482Z",
  "devdoc": {
    "details": "Notes:  - Since this is a demo app, it is not yet optimized.      In the next phase, the bulk raw data will be packed into a single bytes32 field and/or pushed off-chain. - The usage of block.timestamp is honored since vouchers are defined with day-precision and the demo app is not covering all edge cases.     See: https://ethereum.stackexchange.com/questions/5924/how-do-ethereum-mining-nodes-maintain-a-time-consistent-with-the-network/5931#5931",
    "methods": {
      "cancelOrFault(uint256)": {
        "params": {
          "_tokenIdVoucher": "ID of the voucher"
        }
      },
      "complain(uint256)": {
        "params": {
          "_tokenIdVoucher": "ID of the voucher"
        }
      },
      "createTokenSupplyID(address,uint256,uint256,uint256,uint256,uint256,uint256)": {
        "params": {
          "_depositBu": "Buyer's deposit",
          "_depositSe": "Seller's deposit",
          "_price": "Price (payment amount)",
          "_seller": "seller of the promise",
          "_validFrom": "Start of valid period",
          "_validTo": "End of valid period"
        }
      },
      "fillOrder(uint256,address,address)": {
        "params": {
          "_holder": "Address of the recipient of the voucher (ERC-721)",
          "_issuer": "Address of the token's issuer",
          "_tokenIdSupply": "ID of the supply token (ERC-1155)"
        }
      },
      "getBuyerOrderCosts(uint256)": {
        "params": {
          "_tokenIdSupply": "ID of the supply token"
        },
        "returns": {
          "_0": "returns a tupple (Payment amount, Buyer's deposit)"
        }
      },
      "getIdSupplyFromVoucher(uint256)": {
        "params": {
          "_tokenIdVoucher": "ID of the voucher token"
        },
        "returns": {
          "_0": "ID of the supply token"
        }
      },
      "getOrderCosts(uint256)": {
        "params": {
          "_tokenIdSupply": "ID of the supply token"
        },
        "returns": {
          "_0": "returns a tupple (Payment amount, Seller's deposit, Buyer's deposit)"
        }
      },
      "getPromiseDepositSe(bytes32)": {
        "params": {
          "_promiseId": "ID of the promise"
        },
        "returns": {
          "_0": "Deposit of the seller"
        }
      },
      "getPromiseIdFromVoucherId(uint256)": {
        "params": {
          "_tokenIdVoucher": "ID of the voucher token"
        },
        "returns": {
          "_0": "ID of the promise"
        }
      },
      "getPromiseKey(uint256)": {
        "params": {
          "_idx": "Index in the array of promise keys"
        },
        "returns": {
          "_0": "Promise ID"
        }
      },
      "getTotalSupply(address)": {
        "params": {
          "_account": "Address to query"
        },
        "returns": {
          "_0": "Balance"
        }
      },
      "getVoucherDepositToken(uint256)": {
        "params": {
          "_tokenIdSupply": "ID of the voucher token"
        },
        "returns": {
          "_0": "Address of the token"
        }
      },
      "getVoucherHolder(uint256)": {
        "params": {
          "_tokenIdVoucher": "ID of the voucher token"
        },
        "returns": {
          "_0": "Address of the holder"
        }
      },
      "getVoucherIssuer(uint256)": {
        "params": {
          "_tokenIdVoucher": "ID of the voucher token"
        },
        "returns": {
          "_0": "Address of the issuer"
        }
      },
      "getVoucherPriceToken(uint256)": {
        "params": {
          "_tokenIdSupply": "ID of the voucher token"
        },
        "returns": {
          "_0": "Address of the token"
        }
      },
      "getVoucherStatus(uint256)": {
        "params": {
          "_tokenIdVoucher": "ID of the voucher token"
        },
        "returns": {
          "_0": "Status of the voucher (via enum)"
        }
      },
      "owner()": {
        "details": "Returns the address of the current owner."
      },
      "redeem(uint256)": {
        "params": {
          "_tokenIdVoucher": "ID of the voucher"
        }
      },
      "refund(uint256)": {
        "params": {
          "_tokenIdVoucher": "ID of the voucher"
        }
      },
      "renounceOwnership()": {
        "details": "Leaves the contract without owner. It will not be possible to call `onlyOwner` functions anymore. Can only be called by the current owner.     * NOTE: Renouncing ownership will leave the contract without an owner, thereby removing any functionality that is only available to the owner."
      },
      "setCancelFaultPeriod(uint256)": {
        "params": {
          "_cancelFaultPeriod": "the new value for cancelOrFault period (in number of seconds)"
        }
      },
      "setCashierAddress(address)": {
        "params": {
          "_cashierAddress": "The address of the Cashier contract"
        }
      },
      "setComplainPeriod(uint256)": {
        "params": {
          "_complainPeriod": "the new value for complain period (in number of seconds)"
        }
      },
      "setDepositsReleased(uint256)": {
        "params": {
          "_tokenIdVoucher": "ID of the voucher token"
        }
      },
      "setPaymentReleased(uint256)": {
        "params": {
          "_tokenIdVoucher": "ID of the voucher token"
        }
      },
      "transferOwnership(address)": {
        "details": "Transfers ownership of the contract to a new account (`newOwner`). Can only be called by the current owner."
      },
      "triggerExpiration(uint256)": {
        "params": {
          "_tokenIdVoucher": "ID of the voucher token"
        }
      },
      "triggerFinalizeVoucher(uint256)": {
        "params": {
          "_tokenIdVoucher": "ID of the voucher token"
        }
      }
    },
    "title": "VoucherKernel contract is controlling the core business logic"
  },
  "userdoc": {
    "methods": {
      "cancelOrFault(uint256)": {
        "notice": "Cancel/Fault transaction by the Seller, admitting to a fault or backing out of the deal"
      },
      "complain(uint256)": {
        "notice": "Issue a complain for a voucher"
      },
      "createTokenSupplyID(address,uint256,uint256,uint256,uint256,uint256,uint256)": {
        "notice": "Creating a new promise for goods or services. Can be reused, e.g. for making different batches of these (but not in prototype)."
      },
      "fillOrder(uint256,address,address)": {
        "notice": "Fill Voucher Order, iff funds paid, then extract & mint NFT to the voucher holder"
      },
      "getBuyerOrderCosts(uint256)": {
        "notice": "Get Buyer costs required to make an order for a supply token"
      },
      "getIdSupplyFromVoucher(uint256)": {
        "notice": "Get the supply token ID from a voucher token"
      },
      "getOrderCosts(uint256)": {
        "notice": "Get all necessary funds for a supply token"
      },
      "getPromiseDepositSe(bytes32)": {
        "notice": "Get the seller's deposit for a promise"
      },
      "getPromiseIdFromVoucherId(uint256)": {
        "notice": "Get the promise ID from a voucher token"
      },
      "getPromiseKey(uint256)": {
        "notice": "Get the promise ID at specific index"
      },
      "getTotalSupply(address)": {
        "notice": "Get the current supply of tokens of an account"
      },
      "getVoucherDepositToken(uint256)": {
        "notice": "Get the address of the token where the deposits for the supply are held"
      },
      "getVoucherHolder(uint256)": {
        "notice": "Get the holder of a voucher"
      },
      "getVoucherIssuer(uint256)": {
        "notice": "Get the issuer of a voucher"
      },
      "getVoucherPriceToken(uint256)": {
        "notice": "Get the address of the token where the price for the supply is held"
      },
      "getVoucherStatus(uint256)": {
        "notice": "Get the current status of a voucher"
      },
      "isInValidityPeriod(uint256)": {
        "notice": "     "
      },
      "redeem(uint256)": {
        "notice": "Redemption of the vouchers promise"
      },
      "refund(uint256)": {
        "notice": "Refunding a voucher"
      },
      "setCancelFaultPeriod(uint256)": {
        "notice": "Set the general cancelOrFault period, should be used sparingly as it has significant consequences. Here done simply for demo purposes."
      },
      "setCashierAddress(address)": {
        "notice": "Set the address of the Cashier contract"
      },
      "setComplainPeriod(uint256)": {
        "notice": "Set the general complain period, should be used sparingly as it has significant consequences. Here done simply for demo purposes."
      },
      "setDepositsReleased(uint256)": {
        "notice": "Mark voucher token that the deposits were released"
      },
      "setPaymentReleased(uint256)": {
        "notice": "Mark voucher token that the payment was released"
      },
      "triggerExpiration(uint256)": {
        "notice": "Mark voucher token as expired"
      },
      "triggerFinalizeVoucher(uint256)": {
        "notice": "Mark voucher token to the final status"
      }
    }
  }
}