{
  "contractName": "Cashier",
  "abi": [
    {
      "inputs": [
        {
          "internalType": "address",
          "name": "_voucherKernel",
          "type": "address"
        }
      ],
      "stateMutability": "nonpayable",
      "type": "constructor"
    },
    {
      "anonymous": false,
      "inputs": [
        {
          "indexed": true,
          "internalType": "uint256",
          "name": "_tokenIdSupply",
          "type": "uint256"
        },
        {
          "indexed": false,
          "internalType": "address",
          "name": "_seller",
          "type": "address"
        },
        {
          "indexed": false,
          "internalType": "bytes32",
          "name": "_promiseId",
          "type": "bytes32"
        },
        {
          "indexed": false,
          "internalType": "uint256",
          "name": "_quantity",
          "type": "uint256"
        }
      ],
      "name": "LogOrderCreated",
      "type": "event"
    },
    {
      "anonymous": false,
      "inputs": [
        {
          "indexed": true,
          "internalType": "uint256",
          "name": "_tokenIdSupply",
          "type": "uint256"
        },
        {
          "indexed": false,
          "internalType": "uint256",
          "name": "_tokenIdVoucher",
          "type": "uint256"
        },
        {
          "indexed": false,
          "internalType": "address",
          "name": "_issuer",
          "type": "address"
        },
        {
          "indexed": false,
          "internalType": "address",
          "name": "_holder",
          "type": "address"
        },
        {
          "indexed": false,
          "internalType": "bytes32",
          "name": "_promiseId",
          "type": "bytes32"
        }
      ],
      "name": "LogVoucherDelivered",
      "type": "event"
    },
    {
      "anonymous": false,
      "inputs": [
        {
          "indexed": false,
          "internalType": "address",
          "name": "_caller",
          "type": "address"
        },
        {
          "indexed": false,
          "internalType": "address",
          "name": "_payee",
          "type": "address"
        },
        {
          "indexed": false,
          "internalType": "uint256",
          "name": "_payment",
          "type": "uint256"
        }
      ],
      "name": "LogWithdrawal",
      "type": "event"
    },
    {
      "inputs": [
        {
          "internalType": "address",
          "name": "",
          "type": "address"
        }
      ],
      "name": "escrow",
      "outputs": [
        {
          "internalType": "uint256",
          "name": "",
          "type": "uint256"
        }
      ],
      "stateMutability": "view",
      "type": "function"
    },
    {
      "inputs": [
        {
          "internalType": "string",
          "name": "_assetTitle",
          "type": "string"
        },
        {
          "internalType": "uint256",
          "name": "_validFrom",
          "type": "uint256"
        },
        {
          "internalType": "uint256",
          "name": "_validTo",
          "type": "uint256"
        },
        {
          "internalType": "uint256",
          "name": "_price",
          "type": "uint256"
        },
        {
          "internalType": "uint256",
          "name": "_depositSe",
          "type": "uint256"
        },
        {
          "internalType": "uint256",
          "name": "_depositBu",
          "type": "uint256"
        },
        {
          "internalType": "uint256",
          "name": "_quantity",
          "type": "uint256"
        }
      ],
      "name": "requestCreateOrder",
      "outputs": [],
      "stateMutability": "payable",
      "type": "function"
    },
    {
      "inputs": [
        {
          "internalType": "uint256",
          "name": "_tokenIdSupply",
          "type": "uint256"
        },
        {
          "internalType": "address",
          "name": "_issuer",
          "type": "address"
        }
      ],
      "name": "requestVoucher",
      "outputs": [],
      "stateMutability": "payable",
      "type": "function"
    },
    {
      "inputs": [
        {
          "internalType": "uint256[]",
          "name": "_tokenIdVouchers",
          "type": "uint256[]"
        }
      ],
      "name": "withdraw",
      "outputs": [],
      "stateMutability": "nonpayable",
      "type": "function"
    },
    {
      "inputs": [],
      "name": "withdrawPool",
      "outputs": [],
      "stateMutability": "nonpayable",
      "type": "function"
    },
    {
      "inputs": [
        {
          "internalType": "address",
          "name": "_account",
          "type": "address"
        }
      ],
      "name": "getEscrowAmount",
      "outputs": [
        {
          "internalType": "uint256",
          "name": "",
          "type": "uint256"
        }
      ],
      "stateMutability": "view",
      "type": "function"
    }
  ],
  "bytecode": "0x608060405234801561001057600080fd5b50604051611fe7380380611fe78339818101604052602081101561003357600080fd5b8101908080519060200190929190505050600160008190555080600160006101000a81548173ffffffffffffffffffffffffffffffffffffffff021916908373ffffffffffffffffffffffffffffffffffffffff16021790555033600260006101000a81548173ffffffffffffffffffffffffffffffffffffffff021916908373ffffffffffffffffffffffffffffffffffffffff16021790555050611f09806100de6000396000f3fe6080604052600436106100555760003560e01c806357d3c7c31461005a5780635c42c733146100bf57806386b1c509146100d6578063983d95ce14610124578063d1358365146101aa578063fffa8d6b1461020f575b600080fd5b34801561006657600080fd5b506100a96004803603602081101561007d57600080fd5b81019080803573ffffffffffffffffffffffffffffffffffffffff1690602001909291905050506102c4565b6040518082815260200191505060405180910390f35b3480156100cb57600080fd5b506100d46102dc565b005b610122600480360360408110156100ec57600080fd5b8101908080359060200190929190803573ffffffffffffffffffffffffffffffffffffffff16906020019092919050505061058f565b005b34801561013057600080fd5b506101a86004803603602081101561014757600080fd5b810190808035906020019064010000000081111561016457600080fd5b82018360208201111561017657600080fd5b8035906020019184602083028401116401000000008311171561019857600080fd5b9091929391929390505050610a28565b005b3480156101b657600080fd5b506101f9600480360360208110156101cd57600080fd5b81019080803573ffffffffffffffffffffffffffffffffffffffff16906020019092919050505061167f565b6040518082815260200191505060405180910390f35b6102c2600480360360e081101561022557600080fd5b810190808035906020019064010000000081111561024257600080fd5b82018360208201111561025457600080fd5b8035906020019184600183028401116401000000008311171561027657600080fd5b90919293919293908035906020019092919080359060200190929190803590602001909291908035906020019092919080359060200190929190803590602001909291905050506116c8565b005b60036020528060005260406000206000915090505481565b600260009054906101000a900473ffffffffffffffffffffffffffffffffffffffff1673ffffffffffffffffffffffffffffffffffffffff163373ffffffffffffffffffffffffffffffffffffffff161461039f576040517f08c379a000000000000000000000000000000000000000000000000000000000815260040180806020018281038252600e8152602001807f554e415554484f52495a45445f5000000000000000000000000000000000000081525060200191505060405180910390fd5b60026000541415610418576040517f08c379a000000000000000000000000000000000000000000000000000000000815260040180806020018281038252601f8152602001807f5265656e7472616e637947756172643a207265656e7472616e742063616c6c0081525060200191505060405180910390fd5b6002600081905550600060036000600260009054906101000a900473ffffffffffffffffffffffffffffffffffffffff1673ffffffffffffffffffffffffffffffffffffffff1673ffffffffffffffffffffffffffffffffffffffff16815260200190815260200160002054111561058557600060036000600260009054906101000a900473ffffffffffffffffffffffffffffffffffffffff1673ffffffffffffffffffffffffffffffffffffffff1673ffffffffffffffffffffffffffffffffffffffff168152602001908152602001600020549050600060036000600260009054906101000a900473ffffffffffffffffffffffffffffffffffffffff1673ffffffffffffffffffffffffffffffffffffffff1673ffffffffffffffffffffffffffffffffffffffff16815260200190815260200160002081905550610583600260009054906101000a900473ffffffffffffffffffffffffffffffffffffffff1682611a3d565b505b6001600081905550565b60026000541415610608576040517f08c379a000000000000000000000000000000000000000000000000000000000815260040180806020018281038252601f8152602001807f5265656e7472616e637947756172643a207265656e7472616e742063616c6c0081525060200191505060405180910390fd5b600260008190555060003490506000806000600160009054906101000a900473ffffffffffffffffffffffffffffffffffffffff1673ffffffffffffffffffffffffffffffffffffffff1663d887b4e7876040518263ffffffff1660e01b81526004018082815260200191505060606040518083038186803b15801561068d57600080fd5b505afa1580156106a1573d6000803e3d6000fd5b505050506040513d60608110156106b757600080fd5b810190808051906020019092919080519060200190929190805190602001909291905050509250925092508381840114610759576040517f08c379a000000000000000000000000000000000000000000000000000000000815260040180806020018281038252600f8152602001807f494e434f52524543545f46554e4453000000000000000000000000000000000081525060200191505060405180910390fd5b6000600160009054906101000a900473ffffffffffffffffffffffffffffffffffffffff1673ffffffffffffffffffffffffffffffffffffffff1663ae4606fe8888336040518463ffffffff1660e01b8152600401808481526020018373ffffffffffffffffffffffffffffffffffffffff1673ffffffffffffffffffffffffffffffffffffffff1681526020018273ffffffffffffffffffffffffffffffffffffffff1673ffffffffffffffffffffffffffffffffffffffff1681526020019350505050602060405180830381600087803b15801561083857600080fd5b505af115801561084c573d6000803e3d6000fd5b505050506040513d602081101561086257600080fd5b8101908080519060200190929190505050905084600360003373ffffffffffffffffffffffffffffffffffffffff1673ffffffffffffffffffffffffffffffffffffffff16815260200190815260200160002060008282540192505081905550867f23c1c17d90a2ffcaa72a4491901fe754b355e3a5453fc90eb2e0d03adfb1b27a828833600160009054906101000a900473ffffffffffffffffffffffffffffffffffffffff1673ffffffffffffffffffffffffffffffffffffffff1663bc0d753d876040518263ffffffff1660e01b81526004018082815260200191505060206040518083038186803b15801561095a57600080fd5b505afa15801561096e573d6000803e3d6000fd5b505050506040513d602081101561098457600080fd5b8101908080519060200190929190505050604051808581526020018473ffffffffffffffffffffffffffffffffffffffff1673ffffffffffffffffffffffffffffffffffffffff1681526020018373ffffffffffffffffffffffffffffffffffffffff1673ffffffffffffffffffffffffffffffffffffffff16815260200182815260200194505050505060405180910390a2505050505060016000819055505050565b60026000541415610aa1576040517f08c379a000000000000000000000000000000000000000000000000000000000815260040180806020018281038252601f8152602001807f5265656e7472616e637947756172643a207265656e7472616e742063616c6c0081525060200191505060405180910390fd5b600260008190555060008282905011610b22576040517f08c379a000000000000000000000000000000000000000000000000000000000815260040180806020018281038252600a8152602001807f454d5054595f4c4953540000000000000000000000000000000000000000000081525060200191505060405180910390fd5b600080600080600080600080600080610b39611e63565b60008090505b8d8d90508110156116095760008e8e83818110610b5857fe5b905060200201351415610bd3576040517f08c379a000000000000000000000000000000000000000000000000000000000815260040180806020018281038252600e8152602001807f554e5350454349464945445f494400000000000000000000000000000000000081525060200191505060405180910390fd5b600160009054906101000a900473ffffffffffffffffffffffffffffffffffffffff1673ffffffffffffffffffffffffffffffffffffffff1663325a7a848f8f84818110610c1d57fe5b905060200201356040518263ffffffff1660e01b81526004018082815260200191505060606040518083038186803b158015610c5857600080fd5b505afa158015610c6c573d6000803e3d6000fd5b505050506040513d6060811015610c8257600080fd5b81019080805190602001909291908051906020019092919080519060200190929190505050846000018560200186604001831515151581525083151515158152508360ff1660ff16815250505050600160009054906101000a900473ffffffffffffffffffffffffffffffffffffffff1673ffffffffffffffffffffffffffffffffffffffff16631af2a6a88f8f84818110610d1a57fe5b905060200201356040518263ffffffff1660e01b81526004018082815260200191505060206040518083038186803b158015610d5557600080fd5b505afa158015610d69573d6000803e3d6000fd5b505050506040513d6020811015610d7f57600080fd5b81019080805190602001909291905050509250600160009054906101000a900473ffffffffffffffffffffffffffffffffffffffff1673ffffffffffffffffffffffffffffffffffffffff1663d887b4e7846040518263ffffffff1660e01b81526004018082815260200191505060606040518083038186803b158015610e0557600080fd5b505afa158015610e19573d6000803e3d6000fd5b505050506040513d6060811015610e2f57600080fd5b81019080805190602001909291908051906020019092919080519060200190929190505050809750819850829950505050600160009054906101000a900473ffffffffffffffffffffffffffffffffffffffff1673ffffffffffffffffffffffffffffffffffffffff166346d07cb58f8f84818110610eaa57fe5b905060200201356040518263ffffffff1660e01b81526004018082815260200191505060206040518083038186803b158015610ee557600080fd5b505afa158015610ef9573d6000803e3d6000fd5b505050506040513d6020811015610f0f57600080fd5b81019080805190602001909291905050509850600160009054906101000a900473ffffffffffffffffffffffffffffffffffffffff1673ffffffffffffffffffffffffffffffffffffffff1663f75951ce8f8f84818110610f6c57fe5b905060200201356040518263ffffffff1660e01b81526004018082815260200191505060206040518083038186803b158015610fa757600080fd5b505afa158015610fbb573d6000803e3d6000fd5b505050506040513d6020811015610fd157600080fd5b810190808051906020019092919050505097508160200151158015611001575061100082600001516006611bfd565b5b156110fc5786600360008a73ffffffffffffffffffffffffffffffffffffffff1673ffffffffffffffffffffffffffffffffffffffff16815260200190815260200160002060008282540392505081905550868b019a50600160009054906101000a900473ffffffffffffffffffffffffffffffffffffffff1673ffffffffffffffffffffffffffffffffffffffff1663755495168f8f848181106110a257fe5b905060200201356040518263ffffffff1660e01b815260040180828152602001915050600060405180830381600087803b1580156110df57600080fd5b505af11580156110f3573d6000803e3d6000fd5b50505050611255565b816020015115801561115d575061111882600001516005611bfd565b8061112e575061112d82600001516004611bfd565b5b8061115c575061114382600001516002611bfd565b801561115b575061115982600001516006611bfd565b155b5b5b156112545786600360008a73ffffffffffffffffffffffffffffffffffffffff1673ffffffffffffffffffffffffffffffffffffffff16815260200190815260200160002060008282540392505081905550868a019950600160009054906101000a900473ffffffffffffffffffffffffffffffffffffffff1673ffffffffffffffffffffffffffffffffffffffff1663755495168f8f848181106111fe57fe5b905060200201356040518263ffffffff1660e01b815260040180828152602001915050600060405180830381600087803b15801561123b57600080fd5b505af115801561124f573d6000803e3d6000fd5b505050505b5b8160400151158015611272575061127182600001516001611bfd565b5b156115fc5761128682600001516003611bfd565b1561139c5761129a82600001516002611bfd565b156113445785600360008b73ffffffffffffffffffffffffffffffffffffffff1673ffffffffffffffffffffffffffffffffffffffff16815260200190815260200160002060008282540392505081905550611300600287611c1990919063ffffffff16565b9350838a01995061131b600285611c1990919063ffffffff16565b8b019a50611333600285611c1990919063ffffffff16565b848703038c019b5060009350611397565b85600360008b73ffffffffffffffffffffffffffffffffffffffff1673ffffffffffffffffffffffffffffffffffffffff16815260200190815260200160002060008282540392505081905550858c019b505b611488565b6113ab82600001516002611bfd565b156114345785600360008b73ffffffffffffffffffffffffffffffffffffffff1673ffffffffffffffffffffffffffffffffffffffff16815260200190815260200160002060008282540392505081905550611411600287611c1990919063ffffffff16565b8b019a50611429600287611c1990919063ffffffff16565b86038a019950611487565b85600360008b73ffffffffffffffffffffffffffffffffffffffff1673ffffffffffffffffffffffffffffffffffffffff16815260200190815260200160002060008282540392505081905550858b019a505b5b61149782600001516006611bfd565b806114ad57506114ac82600001516002611bfd565b5b156115095784600360008a73ffffffffffffffffffffffffffffffffffffffff1673ffffffffffffffffffffffffffffffffffffffff16815260200190815260200160002060008282540392505081905550848a01995061155c565b84600360008a73ffffffffffffffffffffffffffffffffffffffff1673ffffffffffffffffffffffffffffffffffffffff16815260200190815260200160002060008282540392505081905550848c019b505b600160009054906101000a900473ffffffffffffffffffffffffffffffffffffffff1673ffffffffffffffffffffffffffffffffffffffff1663ebba1b298f8f848181106115a657fe5b905060200201356040518263ffffffff1660e01b815260040180828152602001915050600060405180830381600087803b1580156115e357600080fd5b505af11580156115f7573d6000803e3d6000fd5b505050505b8080600101915050610b3f565b5060008b11156116405761163f600260009054906101000a900473ffffffffffffffffffffffffffffffffffffffff168c611a3d565b5b60008a111561165457611653888b611a3d565b5b600089111561166857611667878a611a3d565b5b505050505050505050505060016000819055505050565b6000600360008373ffffffffffffffffffffffffffffffffffffffff1673ffffffffffffffffffffffffffffffffffffffff168152602001908152602001600020549050919050565b600080349050600160009054906101000a900473ffffffffffffffffffffffffffffffffffffffff1673ffffffffffffffffffffffffffffffffffffffff16633a2b95b9338c8c8c8c8c8c8c6040518963ffffffff1660e01b8152600401808973ffffffffffffffffffffffffffffffffffffffff1673ffffffffffffffffffffffffffffffffffffffff168152602001806020018781526020018681526020018581526020018481526020018381526020018281038252898982818152602001925080828437600081840152601f19601f8201169050808301925050509950505050505050505050602060405180830381600087803b1580156117cb57600080fd5b505af11580156117df573d6000803e3d6000fd5b505050506040513d60208110156117f557600080fd5b81019080805190602001909291905050509150808386021461187f576040517f08c379a000000000000000000000000000000000000000000000000000000000815260040180806020018281038252600f8152602001807f494e434f52524543545f46554e4453000000000000000000000000000000000081525060200191505060405180910390fd5b6000600160009054906101000a900473ffffffffffffffffffffffffffffffffffffffff1673ffffffffffffffffffffffffffffffffffffffff1663ae0838143385876040518463ffffffff1660e01b8152600401808473ffffffffffffffffffffffffffffffffffffffff1673ffffffffffffffffffffffffffffffffffffffff1681526020018381526020018281526020019350505050602060405180830381600087803b15801561193257600080fd5b505af1158015611946573d6000803e3d6000fd5b505050506040513d602081101561195c57600080fd5b8101908080519060200190929190505050905081600360003373ffffffffffffffffffffffffffffffffffffffff1673ffffffffffffffffffffffffffffffffffffffff16815260200190815260200160002060008282540192505081905550807f6adbfc9311af7d6370f3b8aa1a474aa63cf541fb1136873e212e00aa87a228ab338587604051808473ffffffffffffffffffffffffffffffffffffffff1673ffffffffffffffffffffffffffffffffffffffff168152602001838152602001828152602001935050505060405180910390a25050505050505050505050565b600073ffffffffffffffffffffffffffffffffffffffff168273ffffffffffffffffffffffffffffffffffffffff161415611ae0576040517f08c379a00000000000000000000000000000000000000000000000000000000081526004018080602001828103825260138152602001807f554e5350454349464945445f414444524553530000000000000000000000000081525060200191505060405180910390fd5b60008111611b31576040517f08c379a0000000000000000000000000000000000000000000000000000000008152600401808060200182810382526000815260200160200191505060405180910390fd5b611b5a818373ffffffffffffffffffffffffffffffffffffffff16611c6390919063ffffffff16565b7f0ec497a8ae5b1ba29c60470ef651def995fac3deebbdcc56c47a4e5f51a4c2bd338383604051808473ffffffffffffffffffffffffffffffffffffffff1673ffffffffffffffffffffffffffffffffffffffff1681526020018373ffffffffffffffffffffffffffffffffffffffff1673ffffffffffffffffffffffffffffffffffffffff168152602001828152602001935050505060405180910390a15050565b60006001808360ff168560ff16901c1660ff1614905092915050565b6000611c5b83836040518060400160405280601a81526020017f536166654d6174683a206469766973696f6e206279207a65726f000000000000815250611d9d565b905092915050565b80471015611cd9576040517f08c379a000000000000000000000000000000000000000000000000000000000815260040180806020018281038252601d8152602001807f416464726573733a20696e73756666696369656e742062616c616e636500000081525060200191505060405180910390fd5b60008273ffffffffffffffffffffffffffffffffffffffff168260405180600001905060006040518083038185875af1925050503d8060008114611d39576040519150601f19603f3d011682016040523d82523d6000602084013e611d3e565b606091505b5050905080611d98576040517f08c379a000000000000000000000000000000000000000000000000000000000815260040180806020018281038252603a815260200180611e9a603a913960400191505060405180910390fd5b505050565b60008083118290611e49576040517f08c379a00000000000000000000000000000000000000000000000000000000081526004018080602001828103825283818151815260200191508051906020019080838360005b83811015611e0e578082015181840152602081019050611df3565b50505050905090810190601f168015611e3b5780820380516001836020036101000a031916815260200191505b509250505060405180910390fd5b506000838581611e5557fe5b049050809150509392505050565b6040518060a00160405280600060ff1681526020016000151581526020016000151581526020016000815260200160008152509056fe416464726573733a20756e61626c6520746f2073656e642076616c75652c20726563697069656e74206d61792068617665207265766572746564a26469706673582212203549053e8088281e551fc30aeb8683ef9805000b70089b465508f6a6c2b538be64736f6c63430006080033",
  "source": "// SPDX-License-Identifier: LGPL-3.0-or-later\n\npragma solidity >=0.6.2 <0.7.0;\n\nimport \"@openzeppelin/contracts/utils/ReentrancyGuard.sol\";\n//import \"@openzeppelin/contracts/math/SafeMath.sol\";\nimport \"./VoucherKernel.sol\";\nimport \"./usingHelpers.sol\";\n\n/**\n * @title Contract for managing funds\n * @dev Warning: the contract hasn't been audited yet!\n *  Roughly following OpenZeppelin's Escrow at https://github.com/OpenZeppelin/openzeppelin-solidity/contracts/payment/\n */\ncontract Cashier is usingHelpers, ReentrancyGuard {\n    using Address for address payable;\n    using SafeMath for uint;\n    \n    VoucherKernel voucherKernel;\n    \n    address payable poolAddress;                //the account receiving slashed funds\n        \n    mapping(address => uint256) public escrow;  //both types of deposits AND payments >> can be released token-by-token if checks pass\n    //slashedDepositPool can be obtained through getEscrowAmount(poolAddress)\n    \n    uint256 internal constant CANCELFAULT_SPLIT = 2; //for demo purposes, this is fixed; e.g. each party gets depositSe / 2\n    \n    event LogOrderCreated(\n        uint256 indexed _tokenIdSupply,\n        address _seller,\n        bytes32 _promiseId, \n        uint256 _quantity\n    );\n    \n    event LogVoucherDelivered(\n        uint256 indexed _tokenIdSupply,\n        uint256 _tokenIdVoucher,\n        address _issuer,\n        address _holder,\n        bytes32 _promiseId\n    );   \n    \n    event LogWithdrawal(\n        address _caller,\n        address _payee, \n        uint256 _payment\n    );\n    \n\n    modifier onlyPoolManager() {\n        require(msg.sender == poolAddress, \"UNAUTHORIZED_P\"); //hex\"10\" FISSION.code(FISSION.Category.Permission, FISSION.Status.Disallowed_Stop)\n        _;\n    }\n    \n   \n    constructor(\n        address _voucherKernel\n    ) \n        public \n    {\n        voucherKernel = VoucherKernel(_voucherKernel);\n        poolAddress = msg.sender;   //address(uint160( address(this) ));\n    }\n    \n    \n    /**\n     * @notice Issuer/Seller offers promises as supply tokens and needs to escrow the deposit\n        @param _assetTitle  Name of the asset\n        @param _validFrom   Start of valid period\n        @param _validTo     End of valid period\n        @param _price       Price (payment amount)\n        @param _depositSe   Seller's deposit\n        @param _depositBu   Buyer's deposit\n     * @param _quantity     Quantity on offer\n     */\n    function requestCreateOrder(\n        string calldata _assetTitle,\n        //bytes32 _value,\n        uint256 _validFrom,\n        uint256 _validTo,\n        uint256 _price,\n        uint256 _depositSe,\n        uint256 _depositBu,\n        //uint256 _complainPeriod,\n        //uint256 _cancelFaultPeriod,\n        //bytes32 _promiseId,\n        uint256 _quantity\n        )\n        external\n        payable\n    {\n        bytes32 promiseId;\n        \n        uint256 weiReceived = msg.value;\n        \n        //create a promise for an asset first (simplified for prototype)\n        promiseId = voucherKernel.createAssetPromise(msg.sender, _assetTitle, _validFrom, _validTo, _price, _depositSe, _depositBu);\n        \n        //checks\n        //(i) this is for separate promise allocation, not in prototype\n        //uint256 depositSe = voucherKernel.getPromiseDepositSe(promiseId); \n        //require(depositSe * _quantity == weiReceived, \"INCORRECT_FUNDS\");   //hex\"54\" FISSION.code(FISSION.Category.Finance, FISSION.Status.InsufficientFunds)\n        //(ii) prototype check\n        require(_depositSe * _quantity == weiReceived, \"INCORRECT_FUNDS\");   //hex\"54\" FISSION.code(FISSION.Category.Finance, FISSION.Status.InsufficientFunds)\n        \n        \n        uint256 tokenIdSupply = voucherKernel.createOrder(msg.sender, promiseId, _quantity);\n        \n        //record funds in escrow ...\n        escrow[msg.sender] += weiReceived;     \n        \n        emit LogOrderCreated(tokenIdSupply, msg.sender, promiseId, _quantity);        \n    }\n    \n    \n    /**\n     * @notice Consumer requests/buys a voucher by filling an order and receiving a Voucher Token in return\n     * @param _tokenIdSupply    ID of the supply token\n     * @param _issuer           Address of the issuer of the supply token\n     */\n    function requestVoucher(uint256 _tokenIdSupply, address _issuer)\n        external \n        payable\n        nonReentrant\n    {\n        uint256 weiReceived = msg.value;\n\n        //checks\n        (uint256 price, uint256 depositSe, uint256 depositBu) = voucherKernel.getOrderCosts(_tokenIdSupply); \n        require(price + depositBu == weiReceived, \"INCORRECT_FUNDS\");   //hex\"54\" FISSION.code(FISSION.Category.Finance, FISSION.Status.InsufficientFunds)\n\n        //get voucher token - extract ERC721 from _voucherOrderId to msg.sender\n        uint256 voucherTokenId = voucherKernel.fillOrder(_tokenIdSupply, _issuer, msg.sender);\n\n        //record funds in escrow ...\n        escrow[msg.sender] += weiReceived;\n        \n        emit LogVoucherDelivered(_tokenIdSupply, voucherTokenId, _issuer, msg.sender, voucherKernel.getPromiseIdFromVoucherId(voucherTokenId));\n    }\n\n\n    /**\n     * @notice Trigger withdrawals of what funds are releasable\n     * The caller of this function triggers transfers to all involved entities (pool, issuer, token holder), also paying for gas.\n     * @dev This function would be optimized a lot, here verbose for readability.\n     * @param _tokenIdVouchers  an array of voucher tokens (ERC-721) to try withdraw funds from\n     */\n    function withdraw(uint256[] calldata _tokenIdVouchers)\n        external\n        nonReentrant\n    {\n        //TODO: more checks\n        require(_tokenIdVouchers.length > 0, \"EMPTY_LIST\"); //hex\"20\" FISSION.code(FISSION.Category.Find, FISSION.Status.NotFound_Unequal_OutOfRange)\n        \n        uint256 amount2pool;\n        uint256 amount2issuer;\n        uint256 amount2holder;\n        address payable issuer;\n        address payable holder;\n        \n        uint256 price;\n        uint256 depositSe;\n        uint256 depositBu;\n        uint256 tFraction;\n        \n        uint256 tokenIdSupply;\n        VoucherStatus memory currStatus;\n        //uint256 tPartDepositSe; //Can't use, because of \"Stack Too Deep\" Error ... this in real life needs to be optimized, but kept here for readability.\n        \n        //in the future might want to (i) check the gasleft() (but UNGAS proposal might make it impossible), and/or (ii) set upper loop limit to sth like .length < 2**15\n        for(uint256 i = 0; i < _tokenIdVouchers.length; i++) {\n            require(_tokenIdVouchers[i] != 0, \"UNSPECIFIED_ID\");    //hex\"20\" FISSION.code(FISSION.Category.Find, FISSION.Status.NotFound_Unequal_OutOfRange)\n            \n            (currStatus.status, currStatus.isPaymentReleased, currStatus.isDepositsReleased) = voucherKernel.getVoucherStatus(_tokenIdVouchers[i]);\n            tokenIdSupply = voucherKernel.getIdSupplyFromVoucher(_tokenIdVouchers[i]);\n            (price, depositSe, depositBu) = voucherKernel.getOrderCosts(tokenIdSupply);\n            issuer = address(uint160( voucherKernel.getVoucherIssuer(_tokenIdVouchers[i]) ));\n            holder = address(uint160( voucherKernel.getVoucherHolder(_tokenIdVouchers[i]) ));\n            \n            \n            //process the RELEASE OF PAYMENTS - only depends on the redeemed/not-redeemed, a voucher need not be in the final status\n            if (!currStatus.isPaymentReleased && (\n                    isStatus(currStatus.status, idxRedeem)\n                    )) {\n                //release payment to the Seller, because redemption happened\n                escrow[holder] -= price;\n                amount2issuer += price; \n                voucherKernel.setPaymentReleased(_tokenIdVouchers[i]);\n                \n            } else if (!currStatus.isPaymentReleased && (\n                    isStatus(currStatus.status, idxRefund) ||\n                    isStatus(currStatus.status, idxExpire) ||\n                    (isStatus(currStatus.status, idxCancelFault) && \n                        !isStatus(currStatus.status, idxRedeem))\n                    )) {\n                //release payment back to the Buyer as the redemption didn't happen\n                escrow[holder] -= price;\n                amount2holder += price;\n                voucherKernel.setPaymentReleased(_tokenIdVouchers[i]);\n            }    \n                \n                \n            //process the RELEASE OF DEPOSITS - only when vouchers are in the FINAL status \n            if (!currStatus.isDepositsReleased && \n                isStatus(currStatus.status, idxFinal)) {\n                    \n                    \n                //first, depositSe\n                if (isStatus(currStatus.status, idxComplain)) {\n                    if (isStatus(currStatus.status, idxCancelFault)) {\n                        //appease the conflict three-ways\n                        escrow[issuer] -= depositSe;\n                        tFraction = depositSe.div(CANCELFAULT_SPLIT);\n                        amount2holder += tFraction; //Bu gets, say, a half\n                        amount2issuer += tFraction.div(CANCELFAULT_SPLIT);   //Se gets, say, a quarter\n                        amount2pool += depositSe - tFraction - tFraction.div(CANCELFAULT_SPLIT);    //slashing the rest\n                        tFraction = 0;\n                    } else {\n                        //slash depositSe\n                        escrow[issuer] -= depositSe;\n                        amount2pool += depositSe;\n                    }\n                } else {\n                    if (isStatus(currStatus.status, idxCancelFault)) {\n                        //part depositSe to Bu, part to Se\n                        escrow[issuer] -= depositSe;\n                        amount2issuer += depositSe.div(CANCELFAULT_SPLIT);\n                        amount2holder += depositSe - depositSe.div(CANCELFAULT_SPLIT);\n                        //Can't use the code below, because of \"Stack Too Deep\" Error ... this in real life would be optimized, but kept the code above for readability.\n                        //tPartDepositSe = depositSe.div(CANCELFAULT_SPLIT);\n                        //amount2issuer += tPartDepositSe;\n                        //amount2holder += depositSe.sub(tPartDepositSe);                           \n                    } else {\n                        //release depositSe\n                        escrow[issuer] -= depositSe;\n                        amount2issuer += depositSe;                         \n                    }\n                }\n                \n                \n                //second, depositBu    \n                if (isStatus(currStatus.status, idxRedeem) || \n                    isStatus(currStatus.status, idxCancelFault)\n                    ) {\n                    //release depositBu\n                    escrow[holder] -= depositBu;\n                    amount2holder += depositBu;\n                } else {\n                    //slash depositBu\n                    escrow[holder] -= depositBu;\n                    amount2pool += depositBu;                    \n                }\n                \n                voucherKernel.setDepositsReleased(_tokenIdVouchers[i]);\n            }\n            \n                        \n        } //end-for   \n        \n        if (amount2pool > 0) {\n            _withdraw(poolAddress, amount2pool);\n        }\n        \n        if (amount2issuer > 0) {\n            _withdraw(issuer, amount2issuer);\n        }\n\n        if (amount2holder > 0) {\n            _withdraw(holder, amount2holder);\n        }\n        \n    }\n    \n    \n    /**\n     * @notice Trigger withdrawals of pooled funds\n     */    \n    function withdrawPool()\n        external \n        onlyPoolManager\n        nonReentrant\n    {\n        //TODO: more checks needed?\n        \n        if (escrow[poolAddress] > 0) {\n            uint256 amount = escrow[poolAddress];\n            escrow[poolAddress] = 0;\n            _withdraw(poolAddress,amount);\n        }\n    }    \n    \n    \n    /**\n     * @notice Internal function for withdrawing.\n     * As unbelievable as it is, neither .send() nor .transfer() are now secure to use due to EIP-1884\n     *  So now transfering funds via the last remaining option: .call()\n     *  See https://diligence.consensys.net/posts/2019/09/stop-using-soliditys-transfer-now/ \n     * @param _recipient    address of the account receiving funds from the escrow\n     * @param _amount       amount to be released from escrow\n     */\n    function _withdraw(address payable _recipient, uint256 _amount)\n        internal\n    {\n        require(_recipient != address(0), \"UNSPECIFIED_ADDRESS\");   //hex\"20\" FISSION.code(FISSION.Category.Find, FISSION.Status.NotFound_Unequal_OutOfRange)\n        require(_amount > 0, \"\");\n        \n        _recipient.sendValue(_amount);\n\n        emit LogWithdrawal(msg.sender, _recipient, _amount);\n    }\n        \n        \n    // // // // // // // //\n    // GETTERS \n    // // // // // // // //  \n    \n    /**\n     * @notice Get the amount in escrow of an address\n     * @param _account  The address of an account to query\n     * @return          The balance in escrow\n     */\n    function getEscrowAmount(address _account) \n        public view\n        returns (uint256)\n    {\n        return escrow[_account];\n    }\n    \n}",
  "sourcePath": "/Users/hristiyangeorgiev/Documents/Projects/Redemeum/redemeum-blockchain/bsn-core-prototype/contracts/Cashier.sol",
  "compiler": {
    "name": "solc",
    "version": "0.6.8+commit.0bbfe453.Emscripten.clang",
    "optimizer": false,
    "runs": 200
  },
  "schemaVersion": "2.3.3",
  "updatedAt": "2020-07-08T19:22:27.162Z"
}