{
  "contractName": "ERC1155ERC721",
  "abi": [
    {
      "inputs": [],
      "stateMutability": "nonpayable",
      "type": "constructor"
    },
    {
      "anonymous": false,
      "inputs": [
        {
          "indexed": true,
          "internalType": "address",
          "name": "_owner",
          "type": "address"
        },
        {
          "indexed": true,
          "internalType": "address",
          "name": "_approved",
          "type": "address"
        },
        {
          "indexed": true,
          "internalType": "uint256",
          "name": "_tokenId",
          "type": "uint256"
        }
      ],
      "name": "Approval",
      "type": "event"
    },
    {
      "anonymous": false,
      "inputs": [
        {
          "indexed": true,
          "internalType": "address",
          "name": "_owner",
          "type": "address"
        },
        {
          "indexed": true,
          "internalType": "address",
          "name": "_operator",
          "type": "address"
        },
        {
          "indexed": false,
          "internalType": "bool",
          "name": "_approved",
          "type": "bool"
        }
      ],
      "name": "ApprovalForAll",
      "type": "event"
    },
    {
      "anonymous": false,
      "inputs": [
        {
          "indexed": false,
          "internalType": "address",
          "name": "_newCashier",
          "type": "address"
        },
        {
          "indexed": false,
          "internalType": "address",
          "name": "_triggeredBy",
          "type": "address"
        }
      ],
      "name": "LogCashierSet",
      "type": "event"
    },
    {
      "anonymous": false,
      "inputs": [
        {
          "indexed": false,
          "internalType": "address",
          "name": "_newVoucherKernel",
          "type": "address"
        },
        {
          "indexed": false,
          "internalType": "address",
          "name": "_triggeredBy",
          "type": "address"
        }
      ],
      "name": "LogVoucherKernelSet",
      "type": "event"
    },
    {
      "anonymous": false,
      "inputs": [
        {
          "indexed": true,
          "internalType": "address",
          "name": "_from",
          "type": "address"
        },
        {
          "indexed": true,
          "internalType": "address",
          "name": "_to",
          "type": "address"
        },
        {
          "indexed": true,
          "internalType": "uint256",
          "name": "_tokenId",
          "type": "uint256"
        }
      ],
      "name": "Transfer",
      "type": "event"
    },
    {
      "anonymous": false,
      "inputs": [
        {
          "indexed": true,
          "internalType": "address",
          "name": "_operator",
          "type": "address"
        },
        {
          "indexed": true,
          "internalType": "address",
          "name": "_from",
          "type": "address"
        },
        {
          "indexed": true,
          "internalType": "address",
          "name": "_to",
          "type": "address"
        },
        {
          "indexed": false,
          "internalType": "uint256[]",
          "name": "_ids",
          "type": "uint256[]"
        },
        {
          "indexed": false,
          "internalType": "uint256[]",
          "name": "_values",
          "type": "uint256[]"
        }
      ],
      "name": "TransferBatch",
      "type": "event"
    },
    {
      "anonymous": false,
      "inputs": [
        {
          "indexed": true,
          "internalType": "address",
          "name": "_operator",
          "type": "address"
        },
        {
          "indexed": true,
          "internalType": "address",
          "name": "_from",
          "type": "address"
        },
        {
          "indexed": true,
          "internalType": "address",
          "name": "_to",
          "type": "address"
        },
        {
          "indexed": false,
          "internalType": "uint256",
          "name": "_id",
          "type": "uint256"
        },
        {
          "indexed": false,
          "internalType": "uint256",
          "name": "_value",
          "type": "uint256"
        }
      ],
      "name": "TransferSingle",
      "type": "event"
    },
    {
      "anonymous": false,
      "inputs": [
        {
          "indexed": false,
          "internalType": "string",
          "name": "_value",
          "type": "string"
        },
        {
          "indexed": true,
          "internalType": "uint256",
          "name": "_id",
          "type": "uint256"
        }
      ],
      "name": "URI",
      "type": "event"
    },
    {
      "inputs": [
        {
          "internalType": "address",
          "name": "_from",
          "type": "address"
        },
        {
          "internalType": "address",
          "name": "_to",
          "type": "address"
        },
        {
          "internalType": "uint256",
          "name": "_tokenId",
          "type": "uint256"
        }
      ],
      "name": "safeTransferFrom",
      "outputs": [],
      "stateMutability": "nonpayable",
      "type": "function"
    },
    {
      "inputs": [
        {
          "internalType": "address",
          "name": "_from",
          "type": "address"
        },
        {
          "internalType": "address",
          "name": "_to",
          "type": "address"
        },
        {
          "internalType": "uint256",
          "name": "_tokenId",
          "type": "uint256"
        },
        {
          "internalType": "bytes",
          "name": "_data",
          "type": "bytes"
        }
      ],
      "name": "safeTransferFrom",
      "outputs": [],
      "stateMutability": "nonpayable",
      "type": "function"
    },
    {
      "inputs": [
        {
          "internalType": "address",
          "name": "_from",
          "type": "address"
        },
        {
          "internalType": "address",
          "name": "_to",
          "type": "address"
        },
        {
          "internalType": "uint256",
          "name": "_tokenId",
          "type": "uint256"
        },
        {
          "internalType": "uint256",
          "name": "_value",
          "type": "uint256"
        },
        {
          "internalType": "bytes",
          "name": "_data",
          "type": "bytes"
        }
      ],
      "name": "safeTransferFrom",
      "outputs": [],
      "stateMutability": "nonpayable",
      "type": "function"
    },
    {
      "inputs": [
        {
          "internalType": "address",
          "name": "_from",
          "type": "address"
        },
        {
          "internalType": "address",
          "name": "_to",
          "type": "address"
        },
        {
          "internalType": "uint256",
          "name": "_tokenId",
          "type": "uint256"
        }
      ],
      "name": "transferFrom",
      "outputs": [],
      "stateMutability": "nonpayable",
      "type": "function"
    },
    {
      "inputs": [
        {
          "internalType": "address",
          "name": "_to",
          "type": "address"
        },
        {
          "internalType": "uint256",
          "name": "_tokenId",
          "type": "uint256"
        }
      ],
      "name": "approve",
      "outputs": [],
      "stateMutability": "nonpayable",
      "type": "function"
    },
    {
      "inputs": [
        {
          "internalType": "uint256",
          "name": "_tokenId",
          "type": "uint256"
        }
      ],
      "name": "getApproved",
      "outputs": [
        {
          "internalType": "address",
          "name": "",
          "type": "address"
        }
      ],
      "stateMutability": "view",
      "type": "function"
    },
    {
      "inputs": [
        {
          "internalType": "address",
          "name": "_from",
          "type": "address"
        },
        {
          "internalType": "address",
          "name": "_to",
          "type": "address"
        },
        {
          "internalType": "uint256[]",
          "name": "_tokenIds",
          "type": "uint256[]"
        },
        {
          "internalType": "uint256[]",
          "name": "_values",
          "type": "uint256[]"
        },
        {
          "internalType": "bytes",
          "name": "_data",
          "type": "bytes"
        }
      ],
      "name": "safeBatchTransferFrom",
      "outputs": [],
      "stateMutability": "nonpayable",
      "type": "function"
    },
    {
      "inputs": [
        {
          "internalType": "address",
          "name": "_account",
          "type": "address"
        },
        {
          "internalType": "uint256",
          "name": "_tokenId",
          "type": "uint256"
        }
      ],
      "name": "balanceOf",
      "outputs": [
        {
          "internalType": "uint256",
          "name": "",
          "type": "uint256"
        }
      ],
      "stateMutability": "view",
      "type": "function"
    },
    {
      "inputs": [
        {
          "internalType": "address",
          "name": "_owner",
          "type": "address"
        }
      ],
      "name": "balanceOf",
      "outputs": [
        {
          "internalType": "uint256",
          "name": "",
          "type": "uint256"
        }
      ],
      "stateMutability": "view",
      "type": "function"
    },
    {
      "inputs": [
        {
          "internalType": "uint256",
          "name": "_tokenId",
          "type": "uint256"
        }
      ],
      "name": "ownerOf",
      "outputs": [
        {
          "internalType": "address",
          "name": "",
          "type": "address"
        }
      ],
      "stateMutability": "view",
      "type": "function"
    },
    {
      "inputs": [
        {
          "internalType": "address[]",
          "name": "_accounts",
          "type": "address[]"
        },
        {
          "internalType": "uint256[]",
          "name": "_tokenIds",
          "type": "uint256[]"
        }
      ],
      "name": "balanceOfBatch",
      "outputs": [
        {
          "internalType": "uint256[]",
          "name": "",
          "type": "uint256[]"
        }
      ],
      "stateMutability": "view",
      "type": "function"
    },
    {
      "inputs": [
        {
          "internalType": "address",
          "name": "_operator",
          "type": "address"
        },
        {
          "internalType": "bool",
          "name": "_approve",
          "type": "bool"
        }
      ],
      "name": "setApprovalForAll",
      "outputs": [],
      "stateMutability": "nonpayable",
      "type": "function"
    },
    {
      "inputs": [
        {
          "internalType": "address",
          "name": "_account",
          "type": "address"
        },
        {
          "internalType": "address",
          "name": "_operator",
          "type": "address"
        }
      ],
      "name": "isApprovedForAll",
      "outputs": [
        {
          "internalType": "bool",
          "name": "",
          "type": "bool"
        }
      ],
      "stateMutability": "view",
      "type": "function"
    },
    {
      "inputs": [
        {
          "internalType": "bytes4",
          "name": "_interfaceId",
          "type": "bytes4"
        }
      ],
      "name": "supportsInterface",
      "outputs": [
        {
          "internalType": "bool",
          "name": "",
          "type": "bool"
        }
      ],
      "stateMutability": "pure",
      "type": "function"
    },
    {
      "inputs": [
        {
          "internalType": "address",
          "name": "to",
          "type": "address"
        },
        {
          "internalType": "uint256",
          "name": "tokenId",
          "type": "uint256"
        }
      ],
      "name": "mint",
      "outputs": [
        {
          "internalType": "bool",
          "name": "",
          "type": "bool"
        }
      ],
      "stateMutability": "nonpayable",
      "type": "function"
    },
    {
      "inputs": [
        {
          "internalType": "address",
          "name": "_to",
          "type": "address"
        },
        {
          "internalType": "uint256",
          "name": "_tokenId",
          "type": "uint256"
        },
        {
          "internalType": "uint256",
          "name": "_value",
          "type": "uint256"
        },
        {
          "internalType": "bytes",
          "name": "_data",
          "type": "bytes"
        }
      ],
      "name": "mint",
      "outputs": [],
      "stateMutability": "nonpayable",
      "type": "function"
    },
    {
      "inputs": [
        {
          "internalType": "address",
          "name": "_to",
          "type": "address"
        },
        {
          "internalType": "uint256[]",
          "name": "_tokenIds",
          "type": "uint256[]"
        },
        {
          "internalType": "uint256[]",
          "name": "_values",
          "type": "uint256[]"
        },
        {
          "internalType": "bytes",
          "name": "_data",
          "type": "bytes"
        }
      ],
      "name": "mintBatch",
      "outputs": [],
      "stateMutability": "nonpayable",
      "type": "function"
    },
    {
      "inputs": [
        {
          "internalType": "address",
          "name": "_account",
          "type": "address"
        },
        {
          "internalType": "uint256",
          "name": "_tokenId",
          "type": "uint256"
        },
        {
          "internalType": "uint256",
          "name": "_value",
          "type": "uint256"
        }
      ],
      "name": "burn",
      "outputs": [],
      "stateMutability": "nonpayable",
      "type": "function"
    },
    {
      "inputs": [
        {
          "internalType": "address",
          "name": "_account",
          "type": "address"
        },
        {
          "internalType": "uint256[]",
          "name": "_tokenIds",
          "type": "uint256[]"
        },
        {
          "internalType": "uint256[]",
          "name": "_values",
          "type": "uint256[]"
        }
      ],
      "name": "burnBatch",
      "outputs": [],
      "stateMutability": "nonpayable",
      "type": "function"
    },
    {
      "inputs": [
        {
          "internalType": "string",
          "name": "_newBase",
          "type": "string"
        }
      ],
      "name": "_setMetadataBase",
      "outputs": [],
      "stateMutability": "nonpayable",
      "type": "function"
    },
    {
      "inputs": [
        {
          "internalType": "string",
          "name": "_newRoute",
          "type": "string"
        }
      ],
      "name": "_set1155Route",
      "outputs": [],
      "stateMutability": "nonpayable",
      "type": "function"
    },
    {
      "inputs": [
        {
          "internalType": "string",
          "name": "_newRoute",
          "type": "string"
        }
      ],
      "name": "_set721Route",
      "outputs": [],
      "stateMutability": "nonpayable",
      "type": "function"
    },
    {
      "inputs": [
        {
          "internalType": "uint256",
          "name": "_tokenId",
          "type": "uint256"
        }
      ],
      "name": "uri",
      "outputs": [
        {
          "internalType": "string",
          "name": "",
          "type": "string"
        }
      ],
      "stateMutability": "view",
      "type": "function"
    },
    {
      "inputs": [],
      "name": "name",
      "outputs": [
        {
          "internalType": "string",
          "name": "_name",
          "type": "string"
        }
      ],
      "stateMutability": "pure",
      "type": "function"
    },
    {
      "inputs": [],
      "name": "symbol",
      "outputs": [
        {
          "internalType": "string",
          "name": "_symbol",
          "type": "string"
        }
      ],
      "stateMutability": "pure",
      "type": "function"
    },
    {
      "inputs": [
        {
          "internalType": "uint256",
          "name": "_tokenId",
          "type": "uint256"
        }
      ],
      "name": "tokenURI",
      "outputs": [
        {
          "internalType": "string",
          "name": "",
          "type": "string"
        }
      ],
      "stateMutability": "view",
      "type": "function"
    },
    {
      "inputs": [
        {
          "internalType": "address",
          "name": "_voucherKernelAddress",
          "type": "address"
        }
      ],
      "name": "setVoucherKernelAddress",
      "outputs": [],
      "stateMutability": "nonpayable",
      "type": "function"
    },
    {
      "inputs": [
        {
          "internalType": "address",
          "name": "_cashierAddress",
          "type": "address"
        }
      ],
      "name": "setCashierAddress",
      "outputs": [],
      "stateMutability": "nonpayable",
      "type": "function"
    },
    {
      "inputs": [],
      "name": "getOwner",
      "outputs": [
        {
          "internalType": "address",
          "name": "",
          "type": "address"
        }
      ],
      "stateMutability": "view",
      "type": "function"
    },
    {
      "inputs": [],
      "name": "getVoucherKernelAddress",
      "outputs": [
        {
          "internalType": "address",
          "name": "",
          "type": "address"
        }
      ],
      "stateMutability": "view",
      "type": "function"
    },
    {
      "inputs": [],
      "name": "getCashierAddress",
      "outputs": [
        {
          "internalType": "address",
          "name": "",
          "type": "address"
        }
      ],
      "stateMutability": "view",
      "type": "function"
    }
  ],
  "bytecode": "0x608060405234801561001057600080fd5b50600080546001600160a01b031916331790556134a6806100326000396000f3fe608060405234801561001057600080fd5b50600436106101745760003560e01c8062fdd58e1461017957806301ffc9a7146101b757806306fdde03146101f2578063081812fc1461026f578063095ea7b3146102a85780630e89341c146102d65780631f7fdffa146102f357806323b872dd146104ab5780632eb2c2d6146104e157806338b6db2e1461060857806340c10f19146106ac57806342842e0e146106d85780634e1273f41461070e5780636352211e1461081c5780636b20c4541461083957806370a082311461096c578063731133e9146109925780637d64afde14610a52578063893d20e814610af657806395d89b4114610afe578063a22cb46514610b06578063b88d4fde14610b34578063bb49944014610bf8578063c099a7c414610c9c578063c87b56dd14610cc2578063d95be43a14610cdf578063e3f5d2d514610d05578063e985e9c514610d0d578063f242432a14610d3b578063f5298aca14610dce578063f9d9309914610e00575b600080fd5b6101a56004803603604081101561018f57600080fd5b506001600160a01b038135169060200135610e08565b60408051918252519081900360200190f35b6101de600480360360208110156101cd57600080fd5b50356001600160e01b031916610e2f565b604080519115158252519081900360200190f35b6101fa610eb9565b6040805160208082528351818301528351919283929083019185019080838360005b8381101561023457818101518382015260200161021c565b50505050905090810190601f1680156102615780820380516001836020036101000a031916815260200191505b509250505060405180910390f35b61028c6004803603602081101561028557600080fd5b5035610ee6565b604080516001600160a01b039092168252519081900360200190f35b6102d4600480360360408110156102be57600080fd5b506001600160a01b038135169060200135610f55565b005b6101fa600480360360208110156102ec57600080fd5b5035611092565b6102d46004803603608081101561030957600080fd5b6001600160a01b038235169190810190604081016020820135600160201b81111561033357600080fd5b82018360208201111561034557600080fd5b803590602001918460208302840111600160201b8311171561036657600080fd5b9190808060200260200160405190810160405280939291908181526020018383602002808284376000920191909152509295949360208101935035915050600160201b8111156103b557600080fd5b8201836020820111156103c757600080fd5b803590602001918460208302840111600160201b831117156103e857600080fd5b9190808060200260200160405190810160405280939291908181526020018383602002808284376000920191909152509295949360208101935035915050600160201b81111561043757600080fd5b82018360208201111561044957600080fd5b803590602001918460018302840111600160201b8311171561046a57600080fd5b91908080601f0160208091040260200160405190810160405280939291908181526020018383808284376000920191909152509295506111c1945050505050565b6102d4600480360360608110156104c157600080fd5b506001600160a01b0381358116916020810135909116906040013561126f565b6102d4600480360360a08110156104f757600080fd5b6001600160a01b038235811692602081013590911691810190606081016040820135600160201b81111561052a57600080fd5b82018360208201111561053c57600080fd5b803590602001918460208302840111600160201b8311171561055d57600080fd5b919390929091602081019035600160201b81111561057a57600080fd5b82018360208201111561058c57600080fd5b803590602001918460208302840111600160201b831117156105ad57600080fd5b919390929091602081019035600160201b8111156105ca57600080fd5b8201836020820111156105dc57600080fd5b803590602001918460018302840111600160201b831117156105fd57600080fd5b5090925090506112fe565b6102d46004803603602081101561061e57600080fd5b810190602081018135600160201b81111561063857600080fd5b82018360208201111561064a57600080fd5b803590602001918460018302840111600160201b8311171561066b57600080fd5b91908080601f016020809104026020016040519081016040528093929190818152602001838380828437600092019190915250929550611795945050505050565b6101de600480360360408110156106c257600080fd5b506001600160a01b0381351690602001356117fc565b6102d4600480360360608110156106ee57600080fd5b506001600160a01b038135811691602081013590911690604001356118ae565b6107cc6004803603604081101561072457600080fd5b810190602081018135600160201b81111561073e57600080fd5b82018360208201111561075057600080fd5b803590602001918460208302840111600160201b8311171561077157600080fd5b919390929091602081019035600160201b81111561078e57600080fd5b8201836020820111156107a057600080fd5b803590602001918460208302840111600160201b831117156107c157600080fd5b5090925090506118c9565b60408051602080825283518183015283519192839290830191858101910280838360005b838110156108085781810151838201526020016107f0565b505050509050019250505060405180910390f35b61028c6004803603602081101561083257600080fd5b50356119ea565b6102d46004803603606081101561084f57600080fd5b6001600160a01b038235169190810190604081016020820135600160201b81111561087957600080fd5b82018360208201111561088b57600080fd5b803590602001918460208302840111600160201b831117156108ac57600080fd5b9190808060200260200160405190810160405280939291908181526020018383602002808284376000920191909152509295949360208101935035915050600160201b8111156108fb57600080fd5b82018360208201111561090d57600080fd5b803590602001918460208302840111600160201b8311171561092e57600080fd5b919080806020026020016040519081016040528093929190818152602001838360200280828437600092019190915250929550611a46945050505050565b6101a56004803603602081101561098257600080fd5b50356001600160a01b0316611aed565b6102d4600480360360808110156109a857600080fd5b6001600160a01b038235169160208101359160408201359190810190608081016060820135600160201b8111156109de57600080fd5b8201836020820111156109f057600080fd5b803590602001918460018302840111600160201b83111715610a1157600080fd5b91908080601f016020809104026020016040519081016040528093929190818152602001838380828437600092019190915250929550611b54945050505050565b6102d460048036036020811015610a6857600080fd5b810190602081018135600160201b811115610a8257600080fd5b820183602082011115610a9457600080fd5b803590602001918460018302840111600160201b83111715610ab557600080fd5b91908080601f016020809104026020016040519081016040528093929190818152602001838380828437600092019190915250929550611bfc945050505050565b61028c611c5f565b6101fa611c6e565b6102d460048036036040811015610b1c57600080fd5b506001600160a01b0381351690602001351515611c8b565b6102d460048036036080811015610b4a57600080fd5b6001600160a01b03823581169260208101359091169160408201359190810190608081016060820135600160201b811115610b8457600080fd5b820183602082011115610b9657600080fd5b803590602001918460018302840111600160201b83111715610bb757600080fd5b91908080601f016020809104026020016040519081016040528093929190818152602001838380828437600092019190915250929550611d48945050505050565b6102d460048036036020811015610c0e57600080fd5b810190602081018135600160201b811115610c2857600080fd5b820183602082011115610c3a57600080fd5b803590602001918460018302840111600160201b83111715610c5b57600080fd5b91908080601f016020809104026020016040519081016040528093929190818152602001838380828437600092019190915250929550611ebc945050505050565b6102d460048036036020811015610cb257600080fd5b50356001600160a01b0316611f1f565b6101fa60048036036020811015610cd857600080fd5b5035612015565b6102d460048036036020811015610cf557600080fd5b50356001600160a01b031661207b565b61028c612171565b6101de60048036036040811015610d2357600080fd5b506001600160a01b0381358116916020013516612180565b6102d4600480360360a0811015610d5157600080fd5b6001600160a01b03823581169260208101359091169160408201359160608101359181019060a081016080820135600160201b811115610d9057600080fd5b820183602082011115610da257600080fd5b803590602001918460018302840111600160201b83111715610dc357600080fd5b5090925090506121ae565b6102d460048036036060811015610de457600080fd5b506001600160a01b038135169060208101359060400135612453565b61028c6124fa565b60009081526003602090815260408083206001600160a01b03949094168352929052205490565b60006301ffc9a760e01b6001600160e01b031983161480610e605750636cdb3d1360e11b6001600160e01b03198316145b80610e7b57506380ac58cd60e01b6001600160e01b03198316145b80610e965750635b5e139f60e01b6001600160e01b03198316145b80610eb157506303a24d0760e21b6001600160e01b03198316145b90505b919050565b6040805180820190915260138152722137b9b7b71029b6b0b93a102b37bab1b432b960691b602082015290565b6000818152600560205260408120546001600160a01b0316610f395760405162461bcd60e51b815260040180806020018281038252602c815260200180613405602c913960400191505060405180910390fd5b506000908152600660205260409020546001600160a01b031690565b6000610f60826119ea565b9050806001600160a01b0316836001600160a01b03161415610fba576040805162461bcd60e51b815260206004820152600e60248201526d14915115539110539517d0d0531360921b604482015290519081900360640190fd5b336001600160a01b0382161480610ff457506001600160a01b038116600090815260076020908152604080832033845290915290205460ff165b611036576040805162461bcd60e51b815260206004820152600e60248201526d554e415554484f52495a45445f4160901b604482015290519081900360640190fd5b60008281526006602052604080822080546001600160a01b0319166001600160a01b0387811691821790925591518593918516917f8c5be1e5ebec7d5bd14f71427d1e84f3dd0314c0f7b2291e5b200ac8c7c3b92591a4505050565b6060600860096110a184612509565b60405160200180848054600181600116156101000203166002900480156110ff5780601f106110dd5761010080835404028352918201916110ff565b820191906000526020600020905b8154815290600101906020018083116110eb575b5050838054600181600116156101000203166002900480156111585780601f10611136576101008083540402835291820191611158565b820191906000526020600020905b815481529060010190602001808311611144575b5050825160208401908083835b602083106111845780518252601f199092019160209182019101611165565b6001836020036101000a03801982511681845116808217855250505050505090500193505050506040516020818303038152906040529050919050565b6001546001600160a01b031661120c576040805162461bcd60e51b815260206004820152601960248201526000805160206133e5833981519152604482015290519081900360640190fd5b6001546001600160a01b0316331461125d576040805162461bcd60e51b815260206004820152600f60248201526e554e415554484f52495a45445f564b60881b604482015290519081900360640190fd5b611269848484846125e0565b50505050565b6000818152600660205260409020546001600160a01b03163314806112a4575033611299826119ea565b6001600160a01b0316145b6112ee576040805162461bcd60e51b81526020600482015260166024820152751393d517d3d5d3915497d393d497d054141493d5915160521b604482015290519081900360640190fd5b6112f9838383612809565b505050565b6001600160a01b038716611347576040805162461bcd60e51b815260206004820152601360248201526000805160206133c5833981519152604482015290519081900360640190fd5b848314611389576040805162461bcd60e51b81526020600482015260186024820152600080516020613431833981519152604482015290519081900360640190fd5b6001600160a01b0388163314806113c857506001600160a01b038816600090815260076020908152604080832033845290915290205460ff1615156001145b61140b576040805162461bcd60e51b815260206004820152600f60248201526e2aa720aaaa2427a924ad22a22fa9a160891b604482015290519081900360640190fd5b60005b8581101561164757600087878381811061142457fe5b905060200201359050600086868481811061143b57fe5b905060200201359050806003600084815260200190815260200160002060008d6001600160a01b03166001600160a01b0316815260200190815260200160002054146114b3576040805162461bcd60e51b8152602060048201526002602482015261495160f01b604482015290519081900360640190fd5b60008281526003602090815260408083206001600160a01b038f1684529091529020546114e09082612a6b565b6003600084815260200190815260200160002060008d6001600160a01b03166001600160a01b03168152602001908152602001600020819055506115636003600084815260200190815260200160002060008c6001600160a01b03166001600160a01b031681526020019081526020016000205482612ac890919063ffffffff16565b6003600084815260200190815260200160002060008c6001600160a01b03166001600160a01b0316815260200190815260200160002081905550600260009054906101000a90046001600160a01b03166001600160a01b0316635711fd778c8c85856040518563ffffffff1660e01b815260040180856001600160a01b03168152602001846001600160a01b03168152602001838152602001828152602001945050505050600060405180830381600087803b15801561162257600080fd5b505af1158015611636573d6000803e3d6000fd5b50505050505080600101905061140e565b50866001600160a01b0316886001600160a01b0316336001600160a01b0316600080516020613385833981519152898989896040518080602001806020018381038352878782818152602001925060200280828437600083820152601f01601f19169091018481038352858152602090810191508690860280828437600083820152604051601f909101601f19169092018290039850909650505050505050a461178b33898989898080602002602001604051908101604052809392919081815260200183836020028082843760009201919091525050604080516020808d0282810182019093528c82529093508c92508b91829185019084908082843760009201919091525050604080516020601f8c018190048102820181019092528a815292508a9150899081908401838280828437600092019190915250612b2792505050565b5050505050505050565b6000546001600160a01b031633146117e5576040805162461bcd60e51b815260206004820152600e60248201526d554e415554484f52495a45445f4f60901b604482015290519081900360640190fd5b80516117f89060089060208401906132f1565b5050565b6001546000906001600160a01b031661184a576040805162461bcd60e51b815260206004820152601960248201526000805160206133e5833981519152604482015290519081900360640190fd5b6001546001600160a01b0316331461189b576040805162461bcd60e51b815260206004820152600f60248201526e554e415554484f52495a45445f564b60881b604482015290519081900360640190fd5b6118a58383612d1e565b50600192915050565b6112f983838360405180602001604052806000815250611d48565b606083821461190d576040805162461bcd60e51b81526020600482015260186024820152600080516020613431833981519152604482015290519081900360640190fd5b6060846001600160401b038111801561192557600080fd5b5060405190808252806020026020018201604052801561194f578160200160208202803683370190505b50905060005b858110156119e0576003600086868481811061196d57fe5b905060200201358152602001908152602001600020600088888481811061199057fe5b905060200201356001600160a01b03166001600160a01b03166001600160a01b03168152602001908152602001600020548282815181106119cd57fe5b6020908102919091010152600101611955565b5095945050505050565b6000818152600560205260408120546001600160a01b031680610eb1576040805162461bcd60e51b815260206004820152600f60248201526e2aa72222a324a722a22fa7aba722a960891b604482015290519081900360640190fd5b6001546001600160a01b0316611a91576040805162461bcd60e51b815260206004820152601960248201526000805160206133e5833981519152604482015290519081900360640190fd5b6001546001600160a01b03163314611ae2576040805162461bcd60e51b815260206004820152600f60248201526e554e415554484f52495a45445f564b60881b604482015290519081900360640190fd5b6112f9838383612e2a565b60006001600160a01b038216611b38576040805162461bcd60e51b815260206004820152601360248201526000805160206133c5833981519152604482015290519081900360640190fd5b506001600160a01b031660009081526004602052604090205490565b6001546001600160a01b0316611b9f576040805162461bcd60e51b815260206004820152601960248201526000805160206133e5833981519152604482015290519081900360640190fd5b6001546001600160a01b03163314611bf0576040805162461bcd60e51b815260206004820152600f60248201526e554e415554484f52495a45445f564b60881b604482015290519081900360640190fd5b61126984848484613049565b6000546001600160a01b03163314611c4c576040805162461bcd60e51b815260206004820152600e60248201526d554e415554484f52495a45445f4f60901b604482015290519081900360640190fd5b80516117f890600a9060208401906132f1565b6000546001600160a01b031690565b6040805180820190915260038152622129ab60e91b602082015290565b336001600160a01b0383161415611cda576040805162461bcd60e51b815260206004820152600e60248201526d14915115539110539517d0d0531360921b604482015290519081900360640190fd5b3360008181526007602090815260408083206001600160a01b03871680855290835292819020805460ff1916861515908117909155815190815290519293927f17307eab39ab6107e8899845ad3d59bd9653f200f220920489ca2b5937696c31929181900390910190a35050565b611d5384848461126f565b611d65836001600160a01b031661311c565b1561126957604051630a85bd0160e11b8082526001600160a01b038681166004840190815290861660248401819052604484018690526080606485019081528551608486015285519394919363150b7a02938a938a938a938a939260a40190602085019080838360005b83811015611de7578181015183820152602001611dcf565b50505050905090810190601f168015611e145780820380516001836020036101000a031916815260200191505b5095505050505050602060405180830381600087803b158015611e3657600080fd5b505af1158015611e4a573d6000803e3d6000fd5b505050506040513d6020811015611e6057600080fd5b50516001600160e01b03191614611269576040805162461bcd60e51b815260206004820152601b60248201527a155394d5541413d495115117d15490cdcc8c57d49150d152559151602a1b604482015290519081900360640190fd5b6000546001600160a01b03163314611f0c576040805162461bcd60e51b815260206004820152600e60248201526d554e415554484f52495a45445f4f60901b604482015290519081900360640190fd5b80516117f89060099060208401906132f1565b6000546001600160a01b03163314611f6f576040805162461bcd60e51b815260206004820152600e60248201526d554e415554484f52495a45445f4f60901b604482015290519081900360640190fd5b806001600160a01b038116611fba576040805162461bcd60e51b815260206004820152600c60248201526b5a45524f5f4144445245535360a01b604482015290519081900360640190fd5b600280546001600160a01b0319166001600160a01b0384169081179091556040805191825233602083015280517fcd124a0a6c3182c7bb77b8052823a4bf7d0a4c90016ffc4d53b969f98d3f8b889281900390910190a15050565b6000818152600560205260409020546060906001600160a01b031661206e576040805162461bcd60e51b815260206004820152600a6024820152691253959053125117d25160b21b604482015290519081900360640190fd5b6008600a6110a184612509565b6000546001600160a01b031633146120cb576040805162461bcd60e51b815260206004820152600e60248201526d554e415554484f52495a45445f4f60901b604482015290519081900360640190fd5b806001600160a01b038116612116576040805162461bcd60e51b815260206004820152600c60248201526b5a45524f5f4144445245535360a01b604482015290519081900360640190fd5b600180546001600160a01b0319166001600160a01b0384169081179091556040805191825233602083015280517f94d4208cb05337821fef5da6205084b70818af988524d8a2609a53a1ac1033d19281900390910190a15050565b6001546001600160a01b031690565b6001600160a01b03918216600090815260076020908152604080832093909416825291909152205460ff1690565b6001600160a01b0385166121f7576040805162461bcd60e51b815260206004820152601360248201526000805160206133c5833981519152604482015290519081900360640190fd5b6001600160a01b03861633148061223657506001600160a01b038616600090815260076020908152604080832033845290915290205460ff1615156001145b612279576040805162461bcd60e51b815260206004820152600f60248201526e15539055551213d49256915117d4d5608a1b604482015290519081900360640190fd5b60008481526003602090815260408083206001600160a01b038a16845290915290205483146122d4576040805162461bcd60e51b8152602060048201526002602482015261495160f01b604482015290519081900360640190fd5b60008481526003602090815260408083206001600160a01b038a1684529091529020546123019084612a6b565b60008581526003602090815260408083206001600160a01b038b81168552925280832093909355871681522054612339908490612ac8565b60008581526003602090815260408083206001600160a01b03808b1680865291909352818420949094556002548151635711fd7760e01b81528b84166004820152602481019590955260448501899052606485018890529051911692635711fd7792608480830193919282900301818387803b1580156123b857600080fd5b505af11580156123cc573d6000803e3d6000fd5b5050604080518781526020810187905281516001600160a01b03808b1695508b16935033926000805160206133a5833981519152928290030190a461244b338787878787878080601f01602080910402602001604051908101604052809392919081815260200183838082843760009201919091525061312292505050565b505050505050565b6001546001600160a01b031661249e576040805162461bcd60e51b815260206004820152601960248201526000805160206133e5833981519152604482015290519081900360640190fd5b6001546001600160a01b031633146124ef576040805162461bcd60e51b815260206004820152600f60248201526e554e415554484f52495a45445f564b60881b604482015290519081900360640190fd5b6112f9838383613225565b6002546001600160a01b031690565b60608161252e57506040805180820190915260018152600360fc1b6020820152610eb4565b8160005b811561254657600101600a82049150612532565b6060816001600160401b038111801561255e57600080fd5b506040519080825280601f01601f191660200182016040528015612589576020820181803683370190505b50905060001982015b85156125d757600a860660300160f81b828280600190039350815181106125b557fe5b60200101906001600160f81b031916908160001a905350600a86049550612592565b50949350505050565b6001600160a01b038416612629576040805162461bcd60e51b815260206004820152601360248201526000805160206133c5833981519152604482015290519081900360640190fd5b815183511461266d576040805162461bcd60e51b81526020600482015260186024820152600080516020613431833981519152604482015290519081900360640190fd5b60005b8351811015612731576126e86003600086848151811061268c57fe5b602002602001015181526020019081526020016000206000876001600160a01b03166001600160a01b03168152602001908152602001600020548483815181106126d257fe5b6020026020010151612ac890919063ffffffff16565b600360008684815181106126f857fe5b602090810291909101810151825281810192909252604090810160009081206001600160a01b038a168252909252902055600101612670565b50836001600160a01b031660006001600160a01b0316336001600160a01b03166000805160206133858339815191528686604051808060200180602001838103835285818151815260200191508051906020019060200280838360005b838110156127a657818101518382015260200161278e565b50505050905001838103825284818151815260200191508051906020019060200280838360005b838110156127e55781810151838201526020016127cd565b5050505090500194505050505060405180910390a461126933600086868686612b27565b826001600160a01b031661281c826119ea565b6001600160a01b031614612868576040805162461bcd60e51b815260206004820152600e60248201526d15539055551213d49256915117d560921b604482015290519081900360640190fd5b6001600160a01b0382166128b1576040805162461bcd60e51b815260206004820152601360248201526000805160206133c5833981519152604482015290519081900360640190fd5b600081815260066020908152604080832080546001600160a01b03199081169091556001600160a01b0387811685526004808552838620805460001901905587821680875284872080546001908101909155888852600587529685902080549094161790925593548251632da3ce8d60e11b815291820186905291519190931692635b479d1a926024808301939192829003018186803b15801561295457600080fd5b505afa158015612968573d6000803e3d6000fd5b505050506040513d602081101561297e57600080fd5b50516129c2576040805162461bcd60e51b815260206004820152600e60248201526d1195539114d7d49153115054d15160921b604482015290519081900360640190fd5b6002546040805163a2919f6360e01b81526001600160a01b0386811660048301528581166024830152604482018590529151919092169163a2919f6391606480830192600092919082900301818387803b158015612a1f57600080fd5b505af1158015612a33573d6000803e3d6000fd5b5050505080826001600160a01b0316846001600160a01b031660008051602061345183398151915260405160405180910390a4505050565b600082821115612ac2576040805162461bcd60e51b815260206004820152601e60248201527f536166654d6174683a207375627472616374696f6e206f766572666c6f770000604482015290519081900360640190fd5b50900390565b600082820183811015612b20576040805162461bcd60e51b815260206004820152601b60248201527a536166654d6174683a206164646974696f6e206f766572666c6f7760281b604482015290519081900360640190fd5b9392505050565b612b39846001600160a01b031661311c565b1561244b5763bc197c8160e01b6001600160e01b031916846001600160a01b031663bc197c8188888787876040518663ffffffff1660e01b815260040180866001600160a01b03168152602001856001600160a01b03168152602001806020018060200180602001848103845287818151815260200191508051906020019060200280838360005b83811015612bd9578181015183820152602001612bc1565b50505050905001848103835286818151815260200191508051906020019060200280838360005b83811015612c18578181015183820152602001612c00565b50505050905001848103825285818151815260200191508051906020019080838360005b83811015612c54578181015183820152602001612c3c565b50505050905090810190601f168015612c815780820380516001836020036101000a031916815260200191505b5098505050505050505050602060405180830381600087803b158015612ca657600080fd5b505af1158015612cba573d6000803e3d6000fd5b505050506040513d6020811015612cd057600080fd5b50516001600160e01b0319161461244b576040805162461bcd60e51b815260206004820152600d60248201526c1393d517d4d5541413d4951151609a1b604482015290519081900360640190fd5b6001600160a01b038216612d67576040805162461bcd60e51b815260206004820152601360248201526000805160206133c5833981519152604482015290519081900360640190fd5b6000818152600560205260409020546001600160a01b031615612dd0576040805162461bcd60e51b815260206004820152601c60248201527b115490cdcc8c4e881d1bdad95b88185b1c9958591e481b5a5b9d195960221b604482015290519081900360640190fd5b600081815260056020908152604080832080546001600160a01b0319166001600160a01b03871690811790915580845260049092528083208054600101905551839290600080516020613451833981519152908290a45050565b6001600160a01b038316612e73576040805162461bcd60e51b815260206004820152601360248201526000805160206133c5833981519152604482015290519081900360640190fd5b8051825114612eb7576040805162461bcd60e51b81526020600482015260186024820152600080516020613431833981519152604482015290519081900360640190fd5b60005b8251811015612f7b57612f32828281518110612ed257fe5b602002602001015160036000868581518110612eea57fe5b602002602001015181526020019081526020016000206000876001600160a01b03166001600160a01b0316815260200190815260200160002054612a6b90919063ffffffff16565b60036000858481518110612f4257fe5b602090810291909101810151825281810192909252604090810160009081206001600160a01b0389168252909252902055600101612eba565b5060006001600160a01b0316836001600160a01b0316336001600160a01b03166000805160206133858339815191528585604051808060200180602001838103835285818151815260200191508051906020019060200280838360005b83811015612ff0578181015183820152602001612fd8565b50505050905001838103825284818151815260200191508051906020019060200280838360005b8381101561302f578181015183820152602001613017565b5050505090500194505050505060405180910390a4505050565b6001600160a01b038416613092576040805162461bcd60e51b815260206004820152601360248201526000805160206133c5833981519152604482015290519081900360640190fd5b60008381526003602090815260408083206001600160a01b03881684529091529020546130bf9083612ac8565b60008481526003602090815260408083206001600160a01b038916808552908352818420949094558051878152918201869052805133926000805160206133a583398151915292908290030190a461126933600086868686613122565b3b151590565b613134846001600160a01b031661311c565b1561244b5763f23a6e6160e01b6001600160e01b031916846001600160a01b031663f23a6e6188888787876040518663ffffffff1660e01b815260040180866001600160a01b03168152602001856001600160a01b0316815260200184815260200183815260200180602001828103825283818151815260200191508051906020019080838360005b838110156131d55781810151838201526020016131bd565b50505050905090810190601f1680156132025780820380516001836020036101000a031916815260200191505b509650505050505050602060405180830381600087803b158015612ca657600080fd5b6001600160a01b03831661326e576040805162461bcd60e51b815260206004820152601360248201526000805160206133c5833981519152604482015290519081900360640190fd5b60008281526003602090815260408083206001600160a01b038716845290915290205461329b9082612a6b565b60008381526003602090815260408083206001600160a01b038816808552908352818420949094558051868152918201859052805192939233926000805160206133a583398151915292908290030190a4505050565b828054600181600116156101000203166002900490600052602060002090601f016020900481019282601f1061333257805160ff191683800117855561335f565b8280016001018555821561335f579182015b8281111561335f578251825591602001919060010190613344565b5061336b92915061336f565b5090565b5b8082111561336b576000815560010161337056fe4a39dc06d4c0dbc64b70af90fd698a233a518aa5d07e595d983b8c0526c8f7fbc3d58168c5ae7397731d063d5bbf3d657854427343f4c083240f7aacaa2d0f62554e5350454349464945445f4144445245535300000000000000000000000000554e5350454349464945445f564f55434845524b45524e454c000000000000004552433732313a20617070726f76656420717565727920666f72206e6f6e6578697374656e7420746f6b656e4d49534d4154434845445f41525241595f4c454e475448530000000000000000ddf252ad1be2c89b69c2b068fc378daa952ba7f163c4a11628f55a4df523b3efa2646970667358221220c6fdcb0f8d882280fd00bc91a266c5cde528ac15cfa7c6b7f1ee45494ed6957764736f6c63430007010033",
  "source": "// SPDX-License-Identifier: LGPL-3.0-or-later\r\n\r\npragma solidity 0.7.1;\r\n\r\nimport \"@openzeppelin/contracts/math/SafeMath.sol\";\r\nimport \"@openzeppelin/contracts/utils/Address.sol\";\r\n\r\nimport \"./interfaces/IERC1155.sol\";\r\nimport \"./interfaces/IERC1155TokenReceiver.sol\";\r\nimport \"./interfaces/IERC721.sol\";\r\nimport \"./interfaces/IERC721TokenReceiver.sol\";\r\nimport \"./interfaces/IERC1155ERC721.sol\";\r\nimport \"./interfaces/IVoucherKernel.sol\";\r\nimport \"./interfaces/ICashier.sol\";\r\n\r\n//preparing for ERC-1066, ERC-1444, EIP-838\r\n\r\n/**\r\n * @title Multi-token contract, implementing ERC-1155 and ERC-721 hybrid\r\n *  Inspired by: https://github.com/pixowl/sandbox-smart-contracts\r\n */\r\ncontract ERC1155ERC721 is IERC1155, IERC721, IERC1155ERC721 {\r\n    using SafeMath for uint256;\r\n    using Address for address;\r\n\r\n    //min security\r\n    address private owner; //contract owner\r\n    address private voucherKernelAddress; //address of the VoucherKernel contract\r\n    address private cashierAddress; //address of the Cashier contract\r\n\r\n    //standard reqs\r\n    //ERC-1155\r\n    mapping(uint256 => mapping(address => uint256)) private balances; //balance of token ids of an account\r\n\r\n    //ERC-721\r\n    mapping(address => uint256) private balance721;\r\n    mapping(uint256 => address) private owners721;\r\n    mapping(uint256 => address) private operator721;\r\n\r\n    //shared storage: ERC-1155 & ERC-721\r\n    mapping(address => mapping(address => bool)) private operatorApprovals; //approval of accounts of an operator\r\n    //metadata is shared, too (but ERC-1155 and ERC-721 have different metadata extension reqs)\r\n    string internal metadataBase;\r\n    string internal metadata1155Route;\r\n    string internal metadata721Route;\r\n\r\n    //ERC-1155 metadata event: URIs are defined in RFC 3986. The URI MUST point to a JSON file that conforms to the ERC-1155 Metadata URI JSON Schema.\r\n    //not used ATM\r\n    //event URI(string _value, uint256 indexed _id);\r\n\r\n    event LogVoucherKernelSet(address _newVoucherKernel, address _triggeredBy);\r\n    event LogCashierSet(address _newCashier, address _triggeredBy);\r\n\r\n    modifier onlyOwner() {\r\n        require(msg.sender == owner, \"UNAUTHORIZED_O\"); //hex\"10\" FISSION.code(FISSION.Category.Permission, FISSION.Status.Disallowed_Stop)\r\n        _;\r\n    }\r\n\r\n    modifier onlyFromVoucherKernel() {\r\n        require(\r\n            voucherKernelAddress != address(0),\r\n            \"UNSPECIFIED_VOUCHERKERNEL\"\r\n        ); //hex\"20\" FISSION.code(FISSION.Category.Find, FISSION.Status.NotFound_Unequal_OutOfRange)\r\n        require(msg.sender == voucherKernelAddress, \"UNAUTHORIZED_VK\"); //hex\"10\" FISSION.code(FISSION.Category.Permission, FISSION.Status.Disallowed_Stop)\r\n        _;\r\n    }\r\n\r\n    modifier notZeroAddress(address _address) {\r\n        require(_address != address(0), \"ZERO_ADDRESS\");\r\n        _;\r\n    }\r\n\r\n    constructor() {\r\n        owner = msg.sender;\r\n    }\r\n\r\n    /**\r\n     * @notice Transfers amount of _tokenId from-to addresses with safety call.\r\n     * If _to is a smart contract, will call onERC1155Received\r\n     * @dev ERC-1155\r\n     * @param _from    Source address\r\n     * @param _to      Destination address\r\n     * @param _tokenId ID of the token\r\n     * @param _value   Transfer amount\r\n     * @param _data    Additional data forwarded to onERC1155Received if _to is a contract\r\n     */\r\n    function safeTransferFrom(\r\n        address _from,\r\n        address _to,\r\n        uint256 _tokenId,\r\n        uint256 _value,\r\n        bytes calldata _data\r\n    ) external override {\r\n        require(_to != address(0), \"UNSPECIFIED_ADDRESS\"); //hex\"20\" FISSION.code(FISSION.Category.Find, FISSION.Status.NotFound_Unequal_OutOfRange)\r\n        require(\r\n            _from == msg.sender || operatorApprovals[_from][msg.sender] == true,\r\n            \"UNAUTHORIZED_ST\"\r\n        ); //hex\"10\"FISSION.code(FISSION.Category.Permission, FISSION.Status.Disallowed_Stop)\r\n\r\n        require(balances[_tokenId][_from] == _value, \"IQ\"); //invalid qty\r\n\r\n        // SafeMath throws with insufficient funds or if _id is not valid (balance will be 0)\r\n        balances[_tokenId][_from] = balances[_tokenId][_from].sub(_value);\r\n        balances[_tokenId][_to] = _value.add(balances[_tokenId][_to]);\r\n\r\n        ICashier(cashierAddress).onERC1155Transfer(\r\n            _from,\r\n            _to,\r\n            _tokenId,\r\n            _value\r\n        );\r\n\r\n        emit TransferSingle(msg.sender, _from, _to, _tokenId, _value);\r\n\r\n        //make sure the tx was accepted - in case of a revert below, the event above is reverted, too\r\n        _doSafeTransferAcceptanceCheck(\r\n            msg.sender,\r\n            _from,\r\n            _to,\r\n            _tokenId,\r\n            _value,\r\n            _data\r\n        );\r\n    }\r\n\r\n    /**\r\n     * @notice Safely transfers the ownership of a given token ID to another address\r\n     * If the target address is a contract, it must implement `onERC721Received`,\r\n     * which is called upon a safe transfer, and return the magic value\r\n     * `bytes4(keccak256(\"onERC721Received(address,address,uint256,bytes)\"))`; otherwise,\r\n     * the transfer is reverted.\r\n     * Requires the msg.sender to be the owner, approved, or operator\r\n     * @dev ERC-721\r\n     * @param _from current owner of the token\r\n     * @param _to address to receive the ownership of the given token ID\r\n     * @param _tokenId uint256 ID of the token to be transferred\r\n     */\r\n    function safeTransferFrom(\r\n        address _from,\r\n        address _to,\r\n        uint256 _tokenId\r\n    ) public override {\r\n        safeTransferFrom(_from, _to, _tokenId, \"\");\r\n    }\r\n\r\n    /**\r\n     * @notice Safely transfers the ownership of a given token ID to another address\r\n     * If the target address is a contract, it must implement `onERC721Received`\r\n     * Requires the msg.sender to be the owner, approved, or operator\r\n     * @dev ERC-721\r\n     * @param _from current owner of the token\r\n     * @param _to address to receive the ownership of the given token ID\r\n     * @param _tokenId uint256 ID of the token to be transferred\r\n     * @param _data bytes data to send along with a safe transfer check\r\n     */\r\n    function safeTransferFrom(\r\n        address _from,\r\n        address _to,\r\n        uint256 _tokenId,\r\n        bytes memory _data\r\n    ) public override {\r\n        transferFrom(_from, _to, _tokenId);\r\n\r\n        if (_to.isContract()) {\r\n            require(\r\n                ERC721TokenReceiver(_to).onERC721Received(\r\n                    _from,\r\n                    _to,\r\n                    _tokenId,\r\n                    _data\r\n                ) == ERC721TokenReceiver(_to).onERC721Received.selector,\r\n                \"UNSUPPORTED_ERC721_RECEIVED\"\r\n            ); //hex\"10\" FISSION.code(FISSION.Category.Permission, FISSION.Status.Disallowed_Stop)\r\n        }\r\n    }\r\n\r\n    /**\r\n     * @notice Transfers the ownership of a given token ID to another address.\r\n     * Usage of this method is discouraged, use `safeTransferFrom` whenever possible.\r\n     * Requires the msg.sender to be the owner, approved, or operator.\r\n     * @dev ERC-721\r\n     * @param _from current owner of the token\r\n     * @param _to address to receive the ownership of the given token ID\r\n     * @param _tokenId uint256 ID of the token to be transferred\r\n     */\r\n    function transferFrom(\r\n        address _from,\r\n        address _to,\r\n        uint256 _tokenId\r\n    ) public override {\r\n        require(\r\n            operator721[_tokenId] == msg.sender ||\r\n                ownerOf(_tokenId) == msg.sender,\r\n            \"NOT_OWNER_NOR_APPROVED\"\r\n        ); //hex\"10\" FISSION.code(FISSION.Category.Permission, FISSION.Status.Disallowed_Stop)\r\n\r\n        _transferFrom(_from, _to, _tokenId);\r\n    }\r\n\r\n    /**\r\n     * @notice Internal function to transfer ownership of a given token ID to another address.\r\n     * As opposed to transferFrom, this imposes no restrictions on msg.sender.\r\n     * @dev ERC-721\r\n     * @param _from current owner of the token\r\n     * @param _to address to receive the ownership of the given token ID\r\n     * @param _tokenId uint256 ID of the token to be transferred\r\n     */\r\n    function _transferFrom(\r\n        address _from,\r\n        address _to,\r\n        uint256 _tokenId\r\n    ) internal {\r\n        require(ownerOf(_tokenId) == _from, \"UNAUTHORIZED_T\"); //hex\"10\" FISSION.code(FISSION.Category.Permission, FISSION.Status.Disallowed_Stop)\r\n        require(_to != address(0), \"UNSPECIFIED_ADDRESS\"); //hex\"20\" FISSION.code(FISSION.Category.Find, FISSION.Status.NotFound_Unequal_OutOfRange)\r\n\r\n        operator721[_tokenId] = address(0);\r\n\r\n        balance721[_from]--;\r\n        balance721[_to]++;\r\n\r\n        owners721[_tokenId] = _to;\r\n\r\n        require(IVoucherKernel(voucherKernelAddress).isVoucherTransferable(_tokenId), \"FUNDS_RELEASED\");\r\n\r\n        ICashier(cashierAddress).onERC721Transfer(\r\n            _from,\r\n            _to,\r\n            _tokenId\r\n        );\r\n\r\n        emit Transfer(_from, _to, _tokenId);\r\n    }\r\n\r\n    /**\r\n     * @notice Approves another address to transfer the given token ID\r\n     * The zero address indicates there is no approved address.\r\n     * There can only be one approved address per token at a given time.\r\n     * Can only be called by the token owner or an approved operator.\r\n     * @dev ERC-721\r\n     * @param _to address to be approved for the given token ID\r\n     * @param _tokenId uint256 ID of the token to be approved\r\n     */\r\n    function approve(address _to, uint256 _tokenId) public override {\r\n        address tokenOwner = ownerOf(_tokenId);\r\n        require(_to != tokenOwner, \"REDUNDANT_CALL\"); //hex\"18\" FISSION.code(FISSION.Category.Permission, FISSION.Status.NotApplicatableToCurrentState)\r\n\r\n        require(\r\n            msg.sender == tokenOwner ||\r\n                operatorApprovals[tokenOwner][msg.sender], // isApprovedForAll(owner, msg.sender),\r\n            \"UNAUTHORIZED_A\"\r\n        ); //hex\"10\" FISSION.code(FISSION.Category.Permission, FISSION.Status.Disallowed_Stop)\r\n        //\"ERC721: approve caller is not owner nor approved for all\"\r\n\r\n        operator721[_tokenId] = _to;\r\n        emit Approval(tokenOwner, _to, _tokenId);\r\n    }\r\n\r\n    /**\r\n     * @notice Gets the approved address for a token ID, or zero if no address set\r\n     * Reverts if the token ID does not exist.\r\n     * @dev ERC-721\r\n     * @param _tokenId uint256 ID of the token to query the approval of\r\n     * @return address currently approved for the given token ID\r\n     */\r\n    function getApproved(uint256 _tokenId)\r\n        public\r\n        view\r\n        override\r\n        returns (address)\r\n    {\r\n        require(\r\n            owners721[_tokenId] != address(0),\r\n            \"ERC721: approved query for nonexistent token\"\r\n        );\r\n\r\n        return operator721[_tokenId];\r\n    }\r\n\r\n    /**\r\n        @notice Transfers amount of _tokenId from-to addresses with safety call.\r\n        If _to is a smart contract, will call onERC1155BatchReceived\r\n        @dev ERC-1155\r\n        @param _from    Source address\r\n        @param _to      Destination address\r\n        @param _tokenIds array of token IDs\r\n        @param _values   array of transfer amounts\r\n        @param _data    Additional data forwarded to onERC1155BatchReceived if _to is a contract\r\n    */\r\n    function safeBatchTransferFrom(\r\n        address _from,\r\n        address _to,\r\n        uint256[] calldata _tokenIds,\r\n        uint256[] calldata _values,\r\n        bytes calldata _data\r\n    ) external override {\r\n        require(_to != address(0), \"UNSPECIFIED_ADDRESS\"); //hex\"20\" FISSION.code(FISSION.Category.Find, FISSION.Status.NotFound_Unequal_OutOfRange)\r\n        require(_tokenIds.length == _values.length, \"MISMATCHED_ARRAY_LENGTHS\"); //hex\"28\" FISSION.code(FISSION.Category.Find, FISSION.Status.Duplicate_Conflict_Collision)\r\n        require(\r\n            _from == msg.sender || operatorApprovals[_from][msg.sender] == true,\r\n            \"UNAUTHORIZED_SB\"\r\n        ); //hex\"10\" FISSION.code(FISSION.Category.Permission, FISSION.Status.Disallowed_Stop)\r\n\r\n        for (uint256 i = 0; i < _tokenIds.length; ++i) {\r\n            uint256 tokenId = _tokenIds[i];\r\n            uint256 value = _values[i];\r\n\r\n            require(balances[tokenId][_from] == value, \"IQ\"); //invalid qty\r\n\r\n            // SafeMath throws with insufficient funds or if _id is not valid (balance will be 0)\r\n            balances[tokenId][_from] = balances[tokenId][_from].sub(value);\r\n            balances[tokenId][_to] = value.add(balances[tokenId][_to]);\r\n\r\n            ICashier(cashierAddress).onERC1155Transfer(\r\n                _from,\r\n                _to,\r\n                tokenId,\r\n                value\r\n            );\r\n        }\r\n\r\n        emit TransferBatch(msg.sender, _from, _to, _tokenIds, _values);\r\n\r\n        //make sure the tx was accepted - in case of a revert below, the event above is reverted, too\r\n        _doSafeBatchTransferAcceptanceCheck(\r\n            msg.sender,\r\n            _from,\r\n            _to,\r\n            _tokenIds,\r\n            _values,\r\n            _data\r\n        );\r\n    }\r\n\r\n    /**\r\n     * @notice Check successful transfer if recipient is a contract\r\n     * @dev ERC-1155\r\n     * @param _operator The operator of the transfer\r\n     * @param _from     Address of sender\r\n     * @param _to       Address of recipient\r\n     * @param _tokenId  ID of the token\r\n     * @param _value    Value transferred\r\n     * @param _data     Optional data\r\n     */\r\n    function _doSafeTransferAcceptanceCheck(\r\n        address _operator,\r\n        address _from,\r\n        address _to,\r\n        uint256 _tokenId,\r\n        uint256 _value,\r\n        bytes memory _data\r\n    ) internal {\r\n        if (_to.isContract()) {\r\n            require(\r\n                ERC1155TokenReceiver(_to).onERC1155Received(\r\n                    _operator,\r\n                    _from,\r\n                    _tokenId,\r\n                    _value,\r\n                    _data\r\n                ) == ERC1155TokenReceiver(_to).onERC1155Received.selector,\r\n                \"NOT_SUPPORTED\"\r\n            ); //hex\"10\" FISSION.code(FISSION.Category.Permission, FISSION.Status.Disallowed_Stop)\r\n        }\r\n    }\r\n\r\n    /**\r\n     * @notice Check successful transfer if recipient is a contract\r\n     * @dev ERC-1155\r\n     * @param _operator The operator of the transfer\r\n     * @param _from     Address of sender\r\n     * @param _to       Address of recipient\r\n     * @param _tokenIds Array of IDs of tokens\r\n     * @param _values   Array of values transferred\r\n     * @param _data     Optional data\r\n     */\r\n    function _doSafeBatchTransferAcceptanceCheck(\r\n        address _operator,\r\n        address _from,\r\n        address _to,\r\n        uint256[] memory _tokenIds,\r\n        uint256[] memory _values,\r\n        bytes memory _data\r\n    ) internal {\r\n        if (_to.isContract()) {\r\n            require(\r\n                ERC1155TokenReceiver(_to).onERC1155BatchReceived(\r\n                    _operator,\r\n                    _from,\r\n                    _tokenIds,\r\n                    _values,\r\n                    _data\r\n                ) == ERC1155TokenReceiver(_to).onERC1155BatchReceived.selector,\r\n                \"NOT_SUPPORTED\"\r\n            ); //hex\"10\" FISSION.code(FISSION.Category.Permission, FISSION.Status.Disallowed_Stop)\r\n        }\r\n    }\r\n\r\n    /**\r\n        @notice Get the balance of tokens of an account\r\n        @dev ERC-1155\r\n        @param _account The address of the token holder\r\n        @param _tokenId ID of the token\r\n        @return         balance\r\n     */\r\n    function balanceOf(address _account, uint256 _tokenId)\r\n        external\r\n        view\r\n        override\r\n        returns (uint256)\r\n    {\r\n        return balances[_tokenId][_account];\r\n    }\r\n\r\n    /// @notice Count all NFTs assigned to an owner\r\n    /// @dev ERC-721\r\n    /// @param _owner An address for whom to query the balance\r\n    /// @return The number of NFTs owned by `_owner`, possibly zero\r\n    function balanceOf(address _owner) public view override returns (uint256) {\r\n        require(_owner != address(0), \"UNSPECIFIED_ADDRESS\"); //hex\"20\" FISSION.code(FISSION.Category.Find, FISSION.Status.NotFound_Unequal_OutOfRange)\r\n\r\n        return balance721[_owner];\r\n    }\r\n\r\n    /**\r\n     * @notice Gets the owner of the specified token ID.\r\n     * @dev ERC-721\r\n     * @param _tokenId uint256 ID of the token to query the owner of\r\n     * @return address currently marked as the owner of the given token ID\r\n     */\r\n    function ownerOf(uint256 _tokenId) public view override returns (address) {\r\n        address tokenOwner = owners721[_tokenId];\r\n        require(tokenOwner != address(0), \"UNDEFINED_OWNER\"); //hex\"20\" FISSION.code(FISSION.Category.Find, FISSION.Status.NotFound_Unequal_OutOfRange)\r\n\r\n        return tokenOwner;\r\n    }\r\n\r\n    /**\r\n        @notice Get the balance of account-token pairs.\r\n        @dev ERC-1155\r\n        @param _accounts The addresses of the token holders\r\n        @param _tokenIds IDs of the tokens\r\n        @return         balances\r\n     */\r\n    function balanceOfBatch(\r\n        address[] calldata _accounts,\r\n        uint256[] calldata _tokenIds\r\n    ) external view override returns (uint256[] memory) {\r\n        require(\r\n            _accounts.length == _tokenIds.length,\r\n            \"MISMATCHED_ARRAY_LENGTHS\"\r\n        ); //hex\"28\" FISSION.code(FISSION.Category.Find, FISSION.Status.Duplicate_Conflict_Collision)\r\n        uint256[] memory batchBalances = new uint256[](_accounts.length);\r\n\r\n        for (uint256 i = 0; i < _accounts.length; ++i) {\r\n            batchBalances[i] = balances[_tokenIds[i]][_accounts[i]];\r\n        }\r\n\r\n        return batchBalances;\r\n    }\r\n\r\n    /**\r\n     * @notice Approves or unapproves the operator.\r\n     * will revert if the caller attempts to approve itself as it is redundant\r\n     * @dev ERC-1155 & ERC-721\r\n     * @param _operator to (un)approve\r\n     * @param _approve flag to set or unset\r\n     */\r\n    function setApprovalForAll(address _operator, bool _approve)\r\n        external\r\n        override(IERC1155, IERC721)\r\n    {\r\n        require(msg.sender != _operator, \"REDUNDANT_CALL\"); //hex\"18\" FISSION.code(FISSION.Category.Permission, FISSION.Status.NotApplicatableToCurrentState)\r\n        operatorApprovals[msg.sender][_operator] = _approve;\r\n        emit ApprovalForAll(msg.sender, _operator, _approve);\r\n    }\r\n\r\n    /**\r\n        @notice Gets approval status of an operator for a given account.\r\n        @dev ERC-1155 & ERC-721\r\n        @param _account   token holder\r\n        @param _operator  operator to check\r\n        @return           True if the operator is approved, false if not\r\n    */\r\n    function isApprovedForAll(address _account, address _operator)\r\n        public\r\n        view\r\n        override(IERC1155, IERC721)\r\n        returns (bool)\r\n    {\r\n        return operatorApprovals[_account][_operator];\r\n    }\r\n\r\n    /**\r\n     * @notice Returns true if this contract implements the interface defined by _interfaceId_.\r\n     * This function call must use less than 30 000 gas. ATM not enforced.\r\n     */\r\n    function supportsInterface(bytes4 _interfaceId)\r\n        external\r\n        pure\r\n        override\r\n        returns (bool)\r\n    {\r\n        return\r\n            //check matching against ERC-165 identifiers\r\n            _interfaceId == 0x01ffc9a7 || //ERC-165\r\n            _interfaceId == 0xd9b67a26 || //ERC-1155\r\n            _interfaceId == 0x80ac58cd || //ERC-721\r\n            _interfaceId == 0x5b5e139f || //ERC-721 metadata extension\r\n            _interfaceId == 0x0e89341c; //ERC-1155 metadata extension\r\n    }\r\n\r\n    // // // // // // // //\r\n    // STANDARD - UTILS\r\n    // // // // // // // //\r\n    /**\r\n     * @notice Mint an amount of a desired token\r\n     * Currently no restrictions as to who is allowed to mint - so, it is public.\r\n     * @dev ERC-1155\r\n     * @param _to       owner of the minted token\r\n     * @param _tokenId  ID of the token to be minted\r\n     * @param _value    Amount of the token to be minted\r\n     * @param _data     Additional data forwarded to onERC1155BatchReceived if _to is a contract\r\n     */\r\n    function mint(\r\n        address _to,\r\n        uint256 _tokenId,\r\n        uint256 _value,\r\n        bytes memory _data\r\n    ) public override onlyFromVoucherKernel {\r\n        _mint(_to, _tokenId, _value, _data);\r\n    }\r\n\r\n    /**\r\n     * @notice Internal function to mint an amount of a desired token\r\n     * @dev ERC-1155\r\n     * @param _to       owner of the minted token\r\n     * @param _tokenId  ID of the token to be minted\r\n     * @param _value    Amount of the token to be minted\r\n     * @param _data     Additional data forwarded to onERC1155BatchReceived if _to is a contract\r\n     */\r\n    function _mint(\r\n        address _to,\r\n        uint256 _tokenId,\r\n        uint256 _value,\r\n        bytes memory _data\r\n    ) internal {\r\n        require(_to != address(0), \"UNSPECIFIED_ADDRESS\"); //FISSION.code(FISSION.Category.Find, FISSION.Status.NotFound_Unequal_OutOfRange)\r\n\r\n        balances[_tokenId][_to] = balances[_tokenId][_to].add(_value);\r\n        emit TransferSingle(msg.sender, address(0), _to, _tokenId, _value);\r\n\r\n        _doSafeTransferAcceptanceCheck(\r\n            msg.sender,\r\n            address(0),\r\n            _to,\r\n            _tokenId,\r\n            _value,\r\n            _data\r\n        );\r\n    }\r\n\r\n    /**\r\n     * @notice Function to mint tokens.\r\n     * @dev ERC-721\r\n     * @param to The address that will receive the minted tokens.\r\n     * @param tokenId The token id to mint.\r\n     * @return A boolean that indicates if the operation was successful.\r\n     */\r\n    function mint(address to, uint256 tokenId)\r\n        public\r\n        override\r\n        onlyFromVoucherKernel\r\n        returns (bool)\r\n    {\r\n        _mint(to, tokenId);\r\n        return true;\r\n    }\r\n\r\n    /**\r\n     * @notice Internal function to mint a new token.\r\n     * Reverts if the given token ID already exists.\r\n     * @dev ERC-721\r\n     * @param _to The address that will own the minted token\r\n     * @param _tokenId uint256 ID of the token to be minted\r\n     */\r\n    function _mint(address _to, uint256 _tokenId) internal {\r\n        require(_to != address(0), \"UNSPECIFIED_ADDRESS\"); //hex\"20\" FISSION.code(FISSION.Category.Find, FISSION.Status.NotFound_Unequal_OutOfRange)\r\n        require(\r\n            owners721[_tokenId] == address(0),\r\n            \"ERC721: token already minted\"\r\n        );\r\n\r\n        owners721[_tokenId] = _to;\r\n        balance721[_to]++;\r\n\r\n        emit Transfer(address(0), _to, _tokenId);\r\n    }\r\n\r\n    /**\r\n     * @notice Batch minting of tokens\r\n     * Currently no restrictions as to who is allowed to mint - so, it is public.\r\n     * @dev ERC-1155\r\n     * @param _to The address that will own the minted token\r\n     * @param _tokenIds IDs of the tokens to be minted\r\n     * @param _values Amounts of the tokens to be minted\r\n     * @param _data Additional data forwarded to onERC1155BatchReceived if _to is a contract\r\n     */\r\n    function mintBatch(\r\n        address _to,\r\n        uint256[] memory _tokenIds,\r\n        uint256[] memory _values,\r\n        bytes memory _data\r\n    ) public onlyFromVoucherKernel {\r\n        //require approved minter\r\n\r\n        _mintBatch(_to, _tokenIds, _values, _data);\r\n    }\r\n\r\n    /**\r\n     * @notice Internal function for batch minting of tokens\\\r\n     * @dev ERC-1155\r\n     * @param _to The address that will own the minted token\r\n     * @param _tokenIds IDs of the tokens to be minted\r\n     * @param _values Amounts of the tokens to be minted\r\n     * @param _data Additional data forwarded to onERC1155BatchReceived if _to is a contract\r\n     */\r\n    function _mintBatch(\r\n        address _to,\r\n        uint256[] memory _tokenIds,\r\n        uint256[] memory _values,\r\n        bytes memory _data\r\n    ) internal {\r\n        require(_to != address(0), \"UNSPECIFIED_ADDRESS\"); //hex\"20\" FISSION.code(FISSION.Category.Find, FISSION.Status.NotFound_Unequal_OutOfRange)\r\n        require(_tokenIds.length == _values.length, \"MISMATCHED_ARRAY_LENGTHS\"); //hex\"28\" FISSION.code(FISSION.Category.Find, FISSION.Status.Duplicate_Conflict_Collision)\r\n\r\n        for (uint256 i = 0; i < _tokenIds.length; i++) {\r\n            balances[_tokenIds[i]][_to] = _values[i].add(\r\n                balances[_tokenIds[i]][_to]\r\n            );\r\n        }\r\n\r\n        emit TransferBatch(msg.sender, address(0), _to, _tokenIds, _values);\r\n\r\n        _doSafeBatchTransferAcceptanceCheck(\r\n            msg.sender,\r\n            address(0),\r\n            _to,\r\n            _tokenIds,\r\n            _values,\r\n            _data\r\n        );\r\n    }\r\n\r\n    /**\r\n     * @notice Burn an amount of tokens with the given ID\r\n     * @dev ERC-1155\r\n     * @param _account  Account which owns the token\r\n     * @param _tokenId  ID of the token\r\n     * @param _value    Amount of the token\r\n     */\r\n    function burn(\r\n        address _account,\r\n        uint256 _tokenId,\r\n        uint256 _value\r\n    ) public override onlyFromVoucherKernel {\r\n        _burn(_account, _tokenId, _value);\r\n    }\r\n\r\n    /**\r\n     * @notice Burn an amount of tokens with the given ID\r\n     * @dev ERC-1155\r\n     * @param _account  Account which owns the token\r\n     * @param _tokenId  ID of the token\r\n     * @param _value    Amount of the token\r\n     */\r\n    function _burn(\r\n        address _account,\r\n        uint256 _tokenId,\r\n        uint256 _value\r\n    ) internal {\r\n        require(_account != address(0), \"UNSPECIFIED_ADDRESS\"); //\"UNSPECIFIED_ADDRESS\" FISSION.code(FISSION.Category.Find, FISSION.Status.NotFound_Unequal_OutOfRange)\r\n\r\n        balances[_tokenId][_account] = balances[_tokenId][_account].sub(_value);\r\n        emit TransferSingle(msg.sender, _account, address(0), _tokenId, _value);\r\n    }\r\n\r\n    /* Burning ERC-721 is not allowed, as a voucher (being an ERC-721 token) has a final state and shouldn't be destructed. */\r\n\r\n    /**\r\n     * @notice Batch burn an amounts of tokens\r\n     * @dev ERC-1155\r\n     * @param _account Account which owns the token\r\n     * @param _tokenIds IDs of the tokens\r\n     * @param _values Amounts of the tokens\r\n     */\r\n    function burnBatch(\r\n        address _account,\r\n        uint256[] memory _tokenIds,\r\n        uint256[] memory _values\r\n    ) public onlyFromVoucherKernel {\r\n        _burnBatch(_account, _tokenIds, _values);\r\n    }\r\n\r\n    /**\r\n     * @notice Internal function to batch burn an amounts of tokens\r\n     * @dev ERC-1155\r\n     * @param _account Account which owns the token\r\n     * @param _tokenIds IDs of the tokens\r\n     * @param _values Amounts of the tokens\r\n     */\r\n    function _burnBatch(\r\n        address _account,\r\n        uint256[] memory _tokenIds,\r\n        uint256[] memory _values\r\n    ) internal {\r\n        require(_account != address(0), \"UNSPECIFIED_ADDRESS\"); //hex\"20\" FISSION.code(FISSION.Category.Find, FISSION.Status.NotFound_Unequal_OutOfRange)\r\n        require(_tokenIds.length == _values.length, \"MISMATCHED_ARRAY_LENGTHS\"); //hex\"28\" FISSION.code(FISSION.Category.Find, FISSION.Status.Duplicate_Conflict_Collision)\r\n\r\n        for (uint256 i = 0; i < _tokenIds.length; i++) {\r\n            balances[_tokenIds[i]][_account] = balances[_tokenIds[i]][_account]\r\n                .sub(_values[i]);\r\n        }\r\n\r\n        emit TransferBatch(\r\n            msg.sender,\r\n            _account,\r\n            address(0),\r\n            _tokenIds,\r\n            _values\r\n        );\r\n    }\r\n\r\n    // // // // // // // //\r\n    // METADATA EXTENSIONS\r\n    // // // // // // // //\r\n\r\n    /**\r\n     * @notice Setting the URL prefix for tokens metadata\r\n     * @param _newBase   New prefix to be used\r\n     */\r\n    function _setMetadataBase(string memory _newBase) public onlyOwner {\r\n        metadataBase = _newBase;\r\n    }\r\n\r\n    /**\r\n     * @notice Setting the URL route for ERC1155 tokens metadata\r\n     * @param _newRoute   New route to be used\r\n     */\r\n    function _set1155Route(string memory _newRoute) public onlyOwner {\r\n        metadata1155Route = _newRoute;\r\n    }\r\n\r\n    /**\r\n     * @notice Setting the URL route for ERC721 tokens metadata\r\n     * @param _newRoute   New route to be used\r\n     */\r\n    function _set721Route(string memory _newRoute) public onlyOwner {\r\n        metadata721Route = _newRoute;\r\n    }\r\n\r\n    /**\r\n     * @notice A distinct Uniform Resource Identifier (URI) for a given token.\r\n     * @dev ERC-1155\r\n     * URIs are defined in RFC 3986. The URI MUST point to a JSON file that conforms to the \"ERC-1155 Metadata URI JSON Schema\".\r\n     * @param _tokenId  The ID of the token\r\n     * @return          Full URI string for metadata of the _tokenId\r\n     */\r\n    function uri(uint256 _tokenId) external view returns (string memory) {\r\n        return\r\n            string(\r\n                abi.encodePacked(metadataBase, metadata1155Route, _uint2str(_tokenId))\r\n            );\r\n    }\r\n\r\n    /**\r\n     * @notice A descriptive name for a collection of NFTs in this contract\r\n     * @dev ERC-721\r\n     */\r\n    function name() external pure returns (string memory _name) {\r\n        return \"Boson Smart Voucher\";\r\n    }\r\n\r\n    /**\r\n     * @notice An abbreviated name for NFTs in this contract\r\n     * @dev ERC-721\r\n     */\r\n    function symbol() external pure returns (string memory _symbol) {\r\n        return \"BSV\";\r\n    }\r\n\r\n    /**\r\n     * @notice A distinct Uniform Resource Identifier (URI) for a given asset.\r\n     * @dev ERC-721\r\n     * Throws if `_tokenId` is not a valid NFT. URIs are defined in RFC 3986. The URI may point to a JSON file that conforms to the \"ERC721 Metadata JSON Schema\".\r\n     * @param _tokenId  ID of the token\r\n     */\r\n    function tokenURI(uint256 _tokenId) external view returns (string memory) {\r\n        require(owners721[_tokenId] != address(0), \"INVALID_ID\");\r\n        return\r\n            string(\r\n                abi.encodePacked(metadataBase, metadata721Route, _uint2str(_tokenId))\r\n            );\r\n    }\r\n\r\n    // // // // // // // //\r\n    // UTILS\r\n    // // // // // // // //\r\n\r\n    /**\r\n     * @notice Set the address of the VoucherKernel contract\r\n     * @param _voucherKernelAddress   The address of the Voucher Kernel contract\r\n     */\r\n    function setVoucherKernelAddress(address _voucherKernelAddress)\r\n        external\r\n        onlyOwner\r\n        notZeroAddress(_voucherKernelAddress)\r\n    {\r\n        voucherKernelAddress = _voucherKernelAddress;\r\n\r\n        emit LogVoucherKernelSet(_voucherKernelAddress, msg.sender);\r\n    }\r\n\r\n    /**\r\n     * @notice Set the address of the cashier contract\r\n     * @param _cashierAddress   The Cashier contract\r\n     */\r\n    function setCashierAddress(address _cashierAddress)\r\n        external\r\n        onlyOwner\r\n        notZeroAddress(_cashierAddress)\r\n    {\r\n        cashierAddress = _cashierAddress;\r\n        emit LogCashierSet(_cashierAddress, msg.sender);\r\n    }\r\n\r\n    /**\r\n     * @notice Convert UINT to string\r\n     *  Thank you, Oraclize (aka Provable)!\r\n     *      https://github.com/provable-things/ethereum-api/blob/master/provableAPI_0.5.sol\r\n     * @param _i    uint parameter\r\n     */\r\n    function _uint2str(uint256 _i)\r\n        internal\r\n        pure\r\n        returns (string memory _uintAsString)\r\n    {\r\n        if (_i == 0) {\r\n            return \"0\";\r\n        }\r\n        uint256 j = _i;\r\n        uint256 len;\r\n        while (j != 0) {\r\n            len++;\r\n            j /= 10;\r\n        }\r\n        bytes memory bstr = new bytes(len);\r\n        uint256 k = len - 1;\r\n        while (_i != 0) {\r\n            bstr[k--] = bytes1(uint8(48 + (_i % 10)));\r\n            _i /= 10;\r\n        }\r\n        return string(bstr);\r\n    }\r\n\r\n    /**\r\n     * @notice Get the contract owner\r\n     * @return Address of the owner\r\n     */\r\n    function getOwner() \r\n        external \r\n        view \r\n        override\r\n        returns (address)\r\n    {\r\n        return owner;\r\n    }\r\n\r\n    /**\r\n     * @notice Get the address of Voucher Kernel contract\r\n     * @return Address of Voucher Kernel contract\r\n     */\r\n    function getVoucherKernelAddress() \r\n        external \r\n        view \r\n        override\r\n        returns (address)\r\n    {\r\n        return voucherKernelAddress;\r\n    }\r\n\r\n    /**\r\n     * @notice Get the address of Cashier contract\r\n     * @return Address of Cashier address\r\n     */\r\n    function getCashierAddress() \r\n        external \r\n        view \r\n        override\r\n        returns (address)\r\n    {\r\n        return cashierAddress;\r\n    }\r\n    \r\n}\r\n",
  "sourcePath": "E:/Ludo/Documents/Developpement/BOSON/contracts/contracts/ERC1155ERC721.sol",
  "compiler": {
    "name": "solc",
    "version": "0.7.1+commit.f4a555be.Emscripten.clang"
  },
  "schemaVersion": "3.0.22",
  "updatedAt": "2021-07-07T13:30:32.936Z",
  "devdoc": {
    "kind": "dev",
    "methods": {
      "_set1155Route(string)": {
        "params": {
          "_newRoute": "New route to be used"
        }
      },
      "_set721Route(string)": {
        "params": {
          "_newRoute": "New route to be used"
        }
      },
      "_setMetadataBase(string)": {
        "params": {
          "_newBase": "New prefix to be used"
        }
      },
      "approve(address,uint256)": {
        "details": "ERC-721",
        "params": {
          "_to": "address to be approved for the given token ID",
          "_tokenId": "uint256 ID of the token to be approved"
        }
      },
      "balanceOf(address)": {
        "details": "ERC-721",
        "params": {
          "_owner": "An address for whom to query the balance"
        },
        "returns": {
          "_0": "The number of NFTs owned by `_owner`, possibly zero"
        }
      },
      "balanceOf(address,uint256)": {
        "details": "ERC-1155",
        "params": {
          "_account": "The address of the token holder",
          "_tokenId": "ID of the token"
        },
        "returns": {
          "_0": "balance"
        }
      },
      "balanceOfBatch(address[],uint256[])": {
        "details": "ERC-1155",
        "params": {
          "_accounts": "The addresses of the token holders",
          "_tokenIds": "IDs of the tokens"
        },
        "returns": {
          "_0": "balances"
        }
      },
      "burn(address,uint256,uint256)": {
        "details": "ERC-1155",
        "params": {
          "_account": "Account which owns the token",
          "_tokenId": "ID of the token",
          "_value": "Amount of the token"
        }
      },
      "burnBatch(address,uint256[],uint256[])": {
        "details": "ERC-1155",
        "params": {
          "_account": "Account which owns the token",
          "_tokenIds": "IDs of the tokens",
          "_values": "Amounts of the tokens"
        }
      },
      "getApproved(uint256)": {
        "details": "ERC-721",
        "params": {
          "_tokenId": "uint256 ID of the token to query the approval of"
        },
        "returns": {
          "_0": "address currently approved for the given token ID"
        }
      },
      "getCashierAddress()": {
        "returns": {
          "_0": "Address of Cashier address"
        }
      },
      "getOwner()": {
        "returns": {
          "_0": "Address of the owner"
        }
      },
      "getVoucherKernelAddress()": {
        "returns": {
          "_0": "Address of Voucher Kernel contract"
        }
      },
      "isApprovedForAll(address,address)": {
        "details": "ERC-1155 & ERC-721",
        "params": {
          "_account": "token holder",
          "_operator": "operator to check"
        },
        "returns": {
          "_0": "True if the operator is approved, false if not"
        }
      },
      "mint(address,uint256)": {
        "details": "ERC-721",
        "params": {
          "to": "The address that will receive the minted tokens.",
          "tokenId": "The token id to mint."
        },
        "returns": {
          "_0": "A boolean that indicates if the operation was successful."
        }
      },
      "mint(address,uint256,uint256,bytes)": {
        "details": "ERC-1155",
        "params": {
          "_data": "Additional data forwarded to onERC1155BatchReceived if _to is a contract",
          "_to": "owner of the minted token",
          "_tokenId": "ID of the token to be minted",
          "_value": "Amount of the token to be minted"
        }
      },
      "mintBatch(address,uint256[],uint256[],bytes)": {
        "details": "ERC-1155",
        "params": {
          "_data": "Additional data forwarded to onERC1155BatchReceived if _to is a contract",
          "_to": "The address that will own the minted token",
          "_tokenIds": "IDs of the tokens to be minted",
          "_values": "Amounts of the tokens to be minted"
        }
      },
      "name()": {
        "details": "ERC-721"
      },
      "ownerOf(uint256)": {
        "details": "ERC-721",
        "params": {
          "_tokenId": "uint256 ID of the token to query the owner of"
        },
        "returns": {
          "_0": "address currently marked as the owner of the given token ID"
        }
      },
      "safeBatchTransferFrom(address,address,uint256[],uint256[],bytes)": {
        "details": "ERC-1155",
        "params": {
          "_data": "Additional data forwarded to onERC1155BatchReceived if _to is a contract",
          "_from": "Source address",
          "_to": "Destination address",
          "_tokenIds": "array of token IDs",
          "_values": "array of transfer amounts"
        }
      },
      "safeTransferFrom(address,address,uint256)": {
        "details": "ERC-721",
        "params": {
          "_from": "current owner of the token",
          "_to": "address to receive the ownership of the given token ID",
          "_tokenId": "uint256 ID of the token to be transferred"
        }
      },
      "safeTransferFrom(address,address,uint256,bytes)": {
        "details": "ERC-721",
        "params": {
          "_data": "bytes data to send along with a safe transfer check",
          "_from": "current owner of the token",
          "_to": "address to receive the ownership of the given token ID",
          "_tokenId": "uint256 ID of the token to be transferred"
        }
      },
      "safeTransferFrom(address,address,uint256,uint256,bytes)": {
        "details": "ERC-1155",
        "params": {
          "_data": "Additional data forwarded to onERC1155Received if _to is a contract",
          "_from": "Source address",
          "_to": "Destination address",
          "_tokenId": "ID of the token",
          "_value": "Transfer amount"
        }
      },
      "setApprovalForAll(address,bool)": {
        "details": "ERC-1155 & ERC-721",
        "params": {
          "_approve": "flag to set or unset",
          "_operator": "to (un)approve"
        }
      },
      "setCashierAddress(address)": {
        "params": {
          "_cashierAddress": "The Cashier contract"
        }
      },
      "setVoucherKernelAddress(address)": {
        "params": {
          "_voucherKernelAddress": "The address of the Voucher Kernel contract"
        }
      },
      "symbol()": {
        "details": "ERC-721"
      },
      "tokenURI(uint256)": {
        "details": "ERC-721 Throws if `_tokenId` is not a valid NFT. URIs are defined in RFC 3986. The URI may point to a JSON file that conforms to the \"ERC721 Metadata JSON Schema\".",
        "params": {
          "_tokenId": "ID of the token"
        }
      },
      "transferFrom(address,address,uint256)": {
        "details": "ERC-721",
        "params": {
          "_from": "current owner of the token",
          "_to": "address to receive the ownership of the given token ID",
          "_tokenId": "uint256 ID of the token to be transferred"
        }
      },
      "uri(uint256)": {
        "details": "ERC-1155 URIs are defined in RFC 3986. The URI MUST point to a JSON file that conforms to the \"ERC-1155 Metadata URI JSON Schema\".",
        "params": {
          "_tokenId": "The ID of the token"
        },
        "returns": {
          "_0": "Full URI string for metadata of the _tokenId"
        }
      }
    },
    "title": "Multi-token contract, implementing ERC-1155 and ERC-721 hybrid  Inspired by: https://github.com/pixowl/sandbox-smart-contracts",
    "version": 1
  },
  "userdoc": {
    "kind": "user",
    "methods": {
      "_set1155Route(string)": {
        "notice": "Setting the URL route for ERC1155 tokens metadata"
      },
      "_set721Route(string)": {
        "notice": "Setting the URL route for ERC721 tokens metadata"
      },
      "_setMetadataBase(string)": {
        "notice": "Setting the URL prefix for tokens metadata"
      },
      "approve(address,uint256)": {
        "notice": "Approves another address to transfer the given token ID The zero address indicates there is no approved address. There can only be one approved address per token at a given time. Can only be called by the token owner or an approved operator."
      },
      "balanceOf(address)": {
        "notice": "Count all NFTs assigned to an owner"
      },
      "balanceOf(address,uint256)": {
        "notice": "Get the balance of tokens of an account"
      },
      "balanceOfBatch(address[],uint256[])": {
        "notice": "Get the balance of account-token pairs."
      },
      "burn(address,uint256,uint256)": {
        "notice": "Burn an amount of tokens with the given ID"
      },
      "burnBatch(address,uint256[],uint256[])": {
        "notice": "Batch burn an amounts of tokens"
      },
      "getApproved(uint256)": {
        "notice": "Gets the approved address for a token ID, or zero if no address set Reverts if the token ID does not exist."
      },
      "getCashierAddress()": {
        "notice": "Get the address of Cashier contract"
      },
      "getOwner()": {
        "notice": "Get the contract owner"
      },
      "getVoucherKernelAddress()": {
        "notice": "Get the address of Voucher Kernel contract"
      },
      "isApprovedForAll(address,address)": {
        "notice": "Gets approval status of an operator for a given account."
      },
      "mint(address,uint256)": {
        "notice": "Function to mint tokens."
      },
      "mint(address,uint256,uint256,bytes)": {
        "notice": "Mint an amount of a desired token Currently no restrictions as to who is allowed to mint - so, it is public."
      },
      "mintBatch(address,uint256[],uint256[],bytes)": {
        "notice": "Batch minting of tokens Currently no restrictions as to who is allowed to mint - so, it is public."
      },
      "name()": {
        "notice": "A descriptive name for a collection of NFTs in this contract"
      },
      "ownerOf(uint256)": {
        "notice": "Gets the owner of the specified token ID."
      },
      "safeBatchTransferFrom(address,address,uint256[],uint256[],bytes)": {
        "notice": "Transfers amount of _tokenId from-to addresses with safety call. If _to is a smart contract, will call onERC1155BatchReceived"
      },
      "safeTransferFrom(address,address,uint256)": {
        "notice": "Safely transfers the ownership of a given token ID to another address If the target address is a contract, it must implement `onERC721Received`, which is called upon a safe transfer, and return the magic value `bytes4(keccak256(\"onERC721Received(address,address,uint256,bytes)\"))`; otherwise, the transfer is reverted. Requires the msg.sender to be the owner, approved, or operator"
      },
      "safeTransferFrom(address,address,uint256,bytes)": {
        "notice": "Safely transfers the ownership of a given token ID to another address If the target address is a contract, it must implement `onERC721Received` Requires the msg.sender to be the owner, approved, or operator"
      },
      "safeTransferFrom(address,address,uint256,uint256,bytes)": {
        "notice": "Transfers amount of _tokenId from-to addresses with safety call. If _to is a smart contract, will call onERC1155Received"
      },
      "setApprovalForAll(address,bool)": {
        "notice": "Approves or unapproves the operator. will revert if the caller attempts to approve itself as it is redundant"
      },
      "setCashierAddress(address)": {
        "notice": "Set the address of the cashier contract"
      },
      "setVoucherKernelAddress(address)": {
        "notice": "Set the address of the VoucherKernel contract"
      },
      "supportsInterface(bytes4)": {
        "notice": "Returns true if this contract implements the interface defined by _interfaceId_. This function call must use less than 30 000 gas. ATM not enforced."
      },
      "symbol()": {
        "notice": "An abbreviated name for NFTs in this contract"
      },
      "tokenURI(uint256)": {
        "notice": "A distinct Uniform Resource Identifier (URI) for a given asset."
      },
      "transferFrom(address,address,uint256)": {
        "notice": "Transfers the ownership of a given token ID to another address. Usage of this method is discouraged, use `safeTransferFrom` whenever possible. Requires the msg.sender to be the owner, approved, or operator."
      },
      "uri(uint256)": {
        "notice": "A distinct Uniform Resource Identifier (URI) for a given token."
      }
    },
    "version": 1
  }
}