{
  "contractName": "Cashier",
  "abi": [
    {
      "inputs": [
        {
          "internalType": "address",
          "name": "_voucherKernel",
          "type": "address"
        }
      ],
      "stateMutability": "nonpayable",
      "type": "constructor"
    },
    {
      "anonymous": false,
      "inputs": [
        {
          "indexed": true,
          "internalType": "uint256",
          "name": "_tokenIdVoucher",
          "type": "uint256"
        },
        {
          "indexed": false,
          "internalType": "address",
          "name": "_to",
          "type": "address"
        },
        {
          "indexed": false,
          "internalType": "uint256",
          "name": "_payment",
          "type": "uint256"
        },
        {
          "indexed": false,
          "internalType": "enum Cashier.PaymentType",
          "name": "_type",
          "type": "uint8"
        }
      ],
      "name": "LogAmountDistribution",
      "type": "event"
    },
    {
      "anonymous": false,
      "inputs": [
        {
          "indexed": false,
          "internalType": "address",
          "name": "_newBosonRouter",
          "type": "address"
        },
        {
          "indexed": false,
          "internalType": "address",
          "name": "_triggeredBy",
          "type": "address"
        }
      ],
      "name": "LogBosonRouterSet",
      "type": "event"
    },
    {
      "anonymous": false,
      "inputs": [
        {
          "indexed": false,
          "internalType": "bool",
          "name": "_disasterState",
          "type": "bool"
        },
        {
          "indexed": false,
          "internalType": "address",
          "name": "_triggeredBy",
          "type": "address"
        }
      ],
      "name": "LogDisasterStateSet",
      "type": "event"
    },
    {
      "anonymous": false,
      "inputs": [
        {
          "indexed": false,
          "internalType": "address",
          "name": "_newTokenContract",
          "type": "address"
        },
        {
          "indexed": false,
          "internalType": "address",
          "name": "_triggeredBy",
          "type": "address"
        }
      ],
      "name": "LogTokenContractSet",
      "type": "event"
    },
    {
      "anonymous": false,
      "inputs": [
        {
          "indexed": false,
          "internalType": "uint256",
          "name": "_amount",
          "type": "uint256"
        },
        {
          "indexed": false,
          "internalType": "address",
          "name": "_triggeredBy",
          "type": "address"
        }
      ],
      "name": "LogWithdrawEthOnDisaster",
      "type": "event"
    },
    {
      "anonymous": false,
      "inputs": [
        {
          "indexed": false,
          "internalType": "uint256",
          "name": "_amount",
          "type": "uint256"
        },
        {
          "indexed": false,
          "internalType": "address",
          "name": "_tokenAddress",
          "type": "address"
        },
        {
          "indexed": false,
          "internalType": "address",
          "name": "_triggeredBy",
          "type": "address"
        }
      ],
      "name": "LogWithdrawTokensOnDisaster",
      "type": "event"
    },
    {
      "anonymous": false,
      "inputs": [
        {
          "indexed": false,
          "internalType": "address",
          "name": "_caller",
          "type": "address"
        },
        {
          "indexed": false,
          "internalType": "address",
          "name": "_payee",
          "type": "address"
        },
        {
          "indexed": false,
          "internalType": "uint256",
          "name": "_payment",
          "type": "uint256"
        }
      ],
      "name": "LogWithdrawal",
      "type": "event"
    },
    {
      "anonymous": false,
      "inputs": [
        {
          "indexed": true,
          "internalType": "address",
          "name": "previousOwner",
          "type": "address"
        },
        {
          "indexed": true,
          "internalType": "address",
          "name": "newOwner",
          "type": "address"
        }
      ],
      "name": "OwnershipTransferred",
      "type": "event"
    },
    {
      "anonymous": false,
      "inputs": [
        {
          "indexed": false,
          "internalType": "address",
          "name": "account",
          "type": "address"
        }
      ],
      "name": "Paused",
      "type": "event"
    },
    {
      "anonymous": false,
      "inputs": [
        {
          "indexed": false,
          "internalType": "address",
          "name": "account",
          "type": "address"
        }
      ],
      "name": "Unpaused",
      "type": "event"
    },
    {
      "inputs": [],
      "name": "owner",
      "outputs": [
        {
          "internalType": "address",
          "name": "",
          "type": "address"
        }
      ],
      "stateMutability": "view",
      "type": "function",
      "constant": true
    },
    {
      "inputs": [],
      "name": "paused",
      "outputs": [
        {
          "internalType": "bool",
          "name": "",
          "type": "bool"
        }
      ],
      "stateMutability": "view",
      "type": "function",
      "constant": true
    },
    {
      "inputs": [],
      "name": "renounceOwnership",
      "outputs": [],
      "stateMutability": "nonpayable",
      "type": "function"
    },
    {
      "inputs": [
        {
          "internalType": "address",
          "name": "newOwner",
          "type": "address"
        }
      ],
      "name": "transferOwnership",
      "outputs": [],
      "stateMutability": "nonpayable",
      "type": "function"
    },
    {
      "stateMutability": "payable",
      "type": "receive",
      "payable": true
    },
    {
      "inputs": [],
      "name": "pause",
      "outputs": [],
      "stateMutability": "nonpayable",
      "type": "function"
    },
    {
      "inputs": [],
      "name": "unpause",
      "outputs": [],
      "stateMutability": "nonpayable",
      "type": "function"
    },
    {
      "inputs": [],
      "name": "canUnpause",
      "outputs": [
        {
          "internalType": "bool",
          "name": "",
          "type": "bool"
        }
      ],
      "stateMutability": "view",
      "type": "function",
      "constant": true
    },
    {
      "inputs": [],
      "name": "setDisasterState",
      "outputs": [],
      "stateMutability": "nonpayable",
      "type": "function"
    },
    {
      "inputs": [],
      "name": "withdrawEthOnDisaster",
      "outputs": [],
      "stateMutability": "nonpayable",
      "type": "function"
    },
    {
      "inputs": [
        {
          "internalType": "address",
          "name": "token",
          "type": "address"
        }
      ],
      "name": "withdrawTokensOnDisaster",
      "outputs": [],
      "stateMutability": "nonpayable",
      "type": "function"
    },
    {
      "inputs": [
        {
          "internalType": "uint256",
          "name": "_tokenIdVoucher",
          "type": "uint256"
        }
      ],
      "name": "withdraw",
      "outputs": [],
      "stateMutability": "nonpayable",
      "type": "function"
    },
    {
      "inputs": [
        {
          "internalType": "uint256",
          "name": "_tokenIdSupply",
          "type": "uint256"
        },
        {
          "internalType": "uint256",
          "name": "_burnedQty",
          "type": "uint256"
        },
        {
          "internalType": "address payable",
          "name": "_msgSender",
          "type": "address"
        }
      ],
      "name": "withdrawDepositsSe",
      "outputs": [],
      "stateMutability": "nonpayable",
      "type": "function"
    },
    {
      "inputs": [
        {
          "internalType": "address",
          "name": "_bosonRouterAddress",
          "type": "address"
        }
      ],
      "name": "setBosonRouterAddress",
      "outputs": [],
      "stateMutability": "nonpayable",
      "type": "function"
    },
    {
      "inputs": [
        {
          "internalType": "address",
          "name": "_tokensContractAddress",
          "type": "address"
        }
      ],
      "name": "setTokenContractAddress",
      "outputs": [],
      "stateMutability": "nonpayable",
      "type": "function"
    },
    {
      "inputs": [
        {
          "internalType": "address",
          "name": "_account",
          "type": "address"
        }
      ],
      "name": "addEscrowAmount",
      "outputs": [],
      "stateMutability": "payable",
      "type": "function",
      "payable": true
    },
    {
      "inputs": [
        {
          "internalType": "address",
          "name": "_token",
          "type": "address"
        },
        {
          "internalType": "address",
          "name": "_account",
          "type": "address"
        },
        {
          "internalType": "uint256",
          "name": "_newAmount",
          "type": "uint256"
        }
      ],
      "name": "addEscrowTokensAmount",
      "outputs": [],
      "stateMutability": "nonpayable",
      "type": "function"
    },
    {
      "inputs": [
        {
          "internalType": "address",
          "name": "_from",
          "type": "address"
        },
        {
          "internalType": "address",
          "name": "_to",
          "type": "address"
        },
        {
          "internalType": "uint256",
          "name": "_tokenIdVoucher",
          "type": "uint256"
        }
      ],
      "name": "onERC721Transfer",
      "outputs": [],
      "stateMutability": "nonpayable",
      "type": "function"
    },
    {
      "inputs": [
        {
          "internalType": "address",
          "name": "_from",
          "type": "address"
        },
        {
          "internalType": "address",
          "name": "_to",
          "type": "address"
        },
        {
          "internalType": "uint256",
          "name": "_tokenSupplyId",
          "type": "uint256"
        },
        {
          "internalType": "uint256",
          "name": "_value",
          "type": "uint256"
        }
      ],
      "name": "onERC1155Transfer",
      "outputs": [],
      "stateMutability": "nonpayable",
      "type": "function"
    },
    {
      "inputs": [],
      "name": "getVoucherKernelAddress",
      "outputs": [
        {
          "internalType": "address",
          "name": "",
          "type": "address"
        }
      ],
      "stateMutability": "view",
      "type": "function",
      "constant": true
    },
    {
      "inputs": [],
      "name": "getBosonRouterAddress",
      "outputs": [
        {
          "internalType": "address",
          "name": "",
          "type": "address"
        }
      ],
      "stateMutability": "view",
      "type": "function",
      "constant": true
    },
    {
      "inputs": [],
      "name": "getTokensContractAddress",
      "outputs": [
        {
          "internalType": "address",
          "name": "",
          "type": "address"
        }
      ],
      "stateMutability": "view",
      "type": "function",
      "constant": true
    },
    {
      "inputs": [],
      "name": "isDisasterStateSet",
      "outputs": [
        {
          "internalType": "bool",
          "name": "",
          "type": "bool"
        }
      ],
      "stateMutability": "view",
      "type": "function",
      "constant": true
    },
    {
      "inputs": [
        {
          "internalType": "address",
          "name": "_account",
          "type": "address"
        }
      ],
      "name": "getEscrowAmount",
      "outputs": [
        {
          "internalType": "uint256",
          "name": "",
          "type": "uint256"
        }
      ],
      "stateMutability": "view",
      "type": "function",
      "constant": true
    },
    {
      "inputs": [
        {
          "internalType": "address",
          "name": "_token",
          "type": "address"
        },
        {
          "internalType": "address",
          "name": "_account",
          "type": "address"
        }
      ],
      "name": "getEscrowTokensAmount",
      "outputs": [
        {
          "internalType": "uint256",
          "name": "",
          "type": "uint256"
        }
      ],
      "stateMutability": "view",
      "type": "function",
      "constant": true
    }
  ],
  "bytecode": "0x60806040523480156200001157600080fd5b506040516200470c3803806200470c833981810160405260208110156200003757600080fd5b5051600160009081556200004a620000d8565b600180546001600160a01b0319166001600160a01b038316908117909155604051919250906000907f8be0079c531659141344cd1fd0a4f28419497f9722a3daafe3b4186f6b6457e0908290a3506001805460ff60a01b19908116909155600280546001600160a01b0319166001600160a01b039390931692909217909155600480549091169055620000dc565b3390565b61462080620000ec6000396000f3fe60806040526004361061011f5760003560e01c80631429dae81461017a57806319946845146101bd5780632a950716146101e35780632e1a7d4d1461023057806336a166f61461025a5780633f4ba83a1461026f5780635321847e146102845780635711fd77146102c3578063598e2e0c1461030c5780635c975abb14610335578063715018a61461034a5780637c7270881461035f5780638456cb59146103745780638da5cb5b1461038957806397f9e52a146103ba578063a2919f63146103cf578063ae04884e14610412578063b23d485414610427578063bd17de401461045a578063c98d9b831461048d578063d1358365146104a2578063e13f44bf146104d5578063e3f5d2d514610508578063f2fde38b1461051d57610175565b36610175576003546001600160a01b03163314610173576040805162461bcd60e51b815260206004820152600d60248201526c494e56414c49445f504159454560981b604482015290519081900360640190fd5b005b600080fd5b34801561018657600080fd5b506101736004803603606081101561019d57600080fd5b506001600160a01b03813581169160208101359091169060400135610550565b610173600480360360208110156101d357600080fd5b50356001600160a01b0316610650565b3480156101ef57600080fd5b5061021e6004803603604081101561020657600080fd5b506001600160a01b038135811691602001351661072e565b60408051918252519081900360200190f35b34801561023c57600080fd5b506101736004803603602081101561025357600080fd5b503561075b565b34801561026657600080fd5b50610173610d0d565b34801561027b57600080fd5b50610173610e1a565b34801561029057600080fd5b50610173600480360360608110156102a757600080fd5b50803590602081013590604001356001600160a01b0316610ec3565b3480156102cf57600080fd5b50610173600480360360808110156102e657600080fd5b506001600160a01b03813581169160208101359091169060408101359060600135611272565b34801561031857600080fd5b506103216116ce565b604080519115158252519081900360200190f35b34801561034157600080fd5b506103216116de565b34801561035657600080fd5b506101736116ee565b34801561036b57600080fd5b50610173611788565b34801561038057600080fd5b50610173611918565b34801561039557600080fd5b5061039e6119bf565b604080516001600160a01b039092168252519081900360200190f35b3480156103c657600080fd5b5061039e6119ce565b3480156103db57600080fd5b50610173600480360360608110156103f257600080fd5b506001600160a01b038135811691602081013590911690604001356119dd565b34801561041e57600080fd5b506103216121ac565b34801561043357600080fd5b506101736004803603602081101561044a57600080fd5b50356001600160a01b03166121bd565b34801561046657600080fd5b506101736004803603602081101561047d57600080fd5b50356001600160a01b03166122ca565b34801561049957600080fd5b5061039e6123d7565b3480156104ae57600080fd5b5061021e600480360360208110156104c557600080fd5b50356001600160a01b03166123e6565b3480156104e157600080fd5b50610173600480360360208110156104f857600080fd5b50356001600160a01b0316612401565b34801561051457600080fd5b5061039e612621565b34801561052957600080fd5b506101736004803603602081101561054057600080fd5b50356001600160a01b0316612630565b6003546001600160a01b031661059e576040805162461bcd60e51b815260206004820152600e60248201526d2aa729a822a1a4a324a2a22fa12960911b604482015290519081900360640190fd5b6003546001600160a01b031633146105ef576040805162461bcd60e51b815260206004820152600f60248201526e2aa720aaaa2427a924ad22a22fa12960891b604482015290519081900360640190fd5b6001600160a01b0380841660009081526006602090815260408083209386168352929052205461061f9082612721565b6001600160a01b03938416600090815260066020908152604080832095909616825293909352929091209190915550565b6003546001600160a01b031661069e576040805162461bcd60e51b815260206004820152600e60248201526d2aa729a822a1a4a324a2a22fa12960911b604482015290519081900360640190fd5b6003546001600160a01b031633146106ef576040805162461bcd60e51b815260206004820152600f60248201526e2aa720aaaa2427a924ad22a22fa12960891b604482015290519081900360640190fd5b6001600160a01b0381166000908152600560205260409020546107129034612721565b6001600160a01b03909116600090815260056020526040902055565b6001600160a01b038083166000908152600660209081526040808320938516835292905220545b92915050565b600260005414156107a1576040805162461bcd60e51b815260206004820152601f6024820152600080516020614457833981519152604482015290519081900360640190fd5b60026000556107ae6116de565b156107f3576040805162461bcd60e51b815260206004820152601060248201526f14185d5cd8589b194e881c185d5cd95960821b604482015290519081900360640190fd5b6107fb614398565b8161083e576040805162461bcd60e51b815260206004820152600e60248201526d155394d41150d25192515117d25160921b604482015290519081900360640190fd5b60208082018390526002546040805163035e54d560e31b81526004810186905290516001600160a01b0390921692631af2a6a892602480840193829003018186803b15801561088c57600080fd5b505afa1580156108a0573d6000803e3d6000fd5b505050506040513d60208110156108b657600080fd5b505180825260025460408051631cf7955d60e01b81526004810193909352516001600160a01b0390911691631cf7955d916024808301926020929190829003018186803b15801561090657600080fd5b505afa15801561091a573d6000803e3d6000fd5b505050506040513d602081101561093057600080fd5b505160ff166101a082018190521580159061095457506004816101a0015160ff1611155b61099e576040805162461bcd60e51b8152602060048201526016602482015275125395905312510814105653515395081351551213d160521b604482015290519081900360640190fd5b600254602082015160408051630c969ea160e21b81526004810192909252516001600160a01b039092169163325a7a849160248082019260a092909190829003018186803b1580156109ef57600080fd5b505afa158015610a03573d6000803e3d6000fd5b505050506040513d60a0811015610a1957600080fd5b5080516020808301516040938401516101c0860151901515818601529015159181019190915260ff90911690526002548251825163d887b4e760e01b8152600481019190915291516001600160a01b039091169163d887b4e7916024808301926060929190829003018186803b158015610a9257600080fd5b505afa158015610aa6573d6000803e3d6000fd5b505050506040513d6060811015610abc57600080fd5b50805160208083015160409384015160c086015260a0850152608084019190915260025483518351631f38585f60e01b8152600481019190915292516001600160a01b0390911692631f38585f926024808301939192829003018186803b158015610b2657600080fd5b505afa158015610b3a573d6000803e3d6000fd5b505050506040513d6020811015610b5057600080fd5b50516001600160a01b039081166040808401919091526002546020848101518351637baca8e760e11b815260048101919091529251919093169263f75951ce9260248082019391829003018186803b158015610bab57600080fd5b505afa158015610bbf573d6000803e3d6000fd5b505050506040513d6020811015610bd557600080fd5b50516001600160a01b031660608201526101c081015160200151610bfc57610bfc81612780565b806101c0015160400151158015610c2057506101c081015151610c20906001612813565b15610c2e57610c2e81612824565b61010081015115610c5757610c57610c446119bf565b6101008301516101a08401518451612925565b61012081015115610c8057610c808160400151826101200151836101a001518460000151612aae565b61014081015115610ca957610ca98160400151826101400151836101a001518460000151612925565b61016081015115610cd257610cd28160600151826101600151836101a001518460000151612aae565b61018081015115610cfb57610cfb8160600151826101800151836101a001518460000151612925565b610d03614398565b5050600160005550565b610d15612bf8565b6001600160a01b0316610d266119bf565b6001600160a01b031614610d6f576040805162461bcd60e51b81526020600482018190526024820152600080516020614561833981519152604482015290519081900360640190fd5b610d776116de565b610dbf576040805162461bcd60e51b815260206004820152601460248201527314185d5cd8589b194e881b9bdd081c185d5cd95960621b604482015290519081900360640190fd5b6004805460ff60a01b1916600160a01b90811791829055604080519190920460ff161515815233602082015281517fdf38caf468609827a33cd8703b08fca23e51107a2ad8d4f7587bc0be15a2ee9e929181900390910190a1565b6003546001600160a01b0316610e68576040805162461bcd60e51b815260206004820152600e60248201526d2aa729a822a1a4a324a2a22fa12960911b604482015290519081900360640190fd5b6003546001600160a01b03163314610eb9576040805162461bcd60e51b815260206004820152600f60248201526e2aa720aaaa2427a924ad22a22fa12960891b604482015290519081900360640190fd5b610ec1612bfc565b565b60026000541415610f09576040805162461bcd60e51b815260206004820152601f6024820152600080516020614457833981519152604482015290519081900360640190fd5b60026000556003546001600160a01b0316610f5c576040805162461bcd60e51b815260206004820152600e60248201526d2aa729a822a1a4a324a2a22fa12960911b604482015290519081900360640190fd5b6003546001600160a01b03163314610fad576040805162461bcd60e51b815260206004820152600f60248201526e2aa720aaaa2427a924ad22a22fa12960891b604482015290519081900360640190fd5b60025460408051638810632360e01b81526004810186905290516000926001600160a01b0316916388106323916024808301926020929190829003018186803b158015610ff957600080fd5b505afa15801561100d573d6000803e3d6000fd5b505050506040513d602081101561102357600080fd5b5051905060006110338285612c9f565b60025460408051631cf7955d60e01b81526004810189905290519293506000926001600160a01b0390921691631cf7955d91602480820192602092909190829003018186803b15801561108557600080fd5b505afa158015611099573d6000803e3d6000fd5b505050506040513d60208110156110af57600080fd5b5051905060ff8116158015906110c9575060048160ff1611155b611113576040805162461bcd60e51b8152602060048201526016602482015275125395905312510814105653515395081351551213d160521b604482015290519081900360640190fd5b60ff811660011480611128575060ff81166003145b1561116a576001600160a01b0384166000908152600560205260409020546111509083612cf8565b6001600160a01b0385166000908152600560205260409020555b60ff81166002148061117f575060ff81166004145b156112595760025460408051639a751bbd60e01b81526004810189905290516000926001600160a01b031691639a751bbd916024808301926020929190829003018186803b1580156111d057600080fd5b505afa1580156111e4573d6000803e3d6000fd5b505050506040513d60208110156111fa57600080fd5b50516001600160a01b038082166000908152600660209081526040808320938a168352929052205490915061122f9084612cf8565b6001600160a01b039182166000908152600660209081526040808320948916835293905291909120555b61126584838389612925565b5050600160005550505050565b6004546001600160a01b031633146112b6576040805162461bcd60e51b8152602060048201526002602482015261155560f21b604482015290519081900360640190fd5b60025460408051631cf7955d60e01b81526004810185905290516000926001600160a01b031691631cf7955d916024808301926020929190829003018186803b15801561130257600080fd5b505afa158015611316573d6000803e3d6000fd5b505050506040513d602081101561132c57600080fd5b5051905060008060ff831660011480611348575060ff83166003145b156114405760025460408051638810632360e01b81526004810188905290516001600160a01b0390921691638810632391602480820192602092909190829003018186803b15801561139957600080fd5b505afa1580156113ad573d6000803e3d6000fd5b505050506040513d60208110156113c357600080fd5b505191506113d18285612c9f565b6001600160a01b0388166000908152600560205260409020549091506113f79082612cf8565b6001600160a01b0380891660009081526005602052604080822093909355908816815220546114269082612721565b6001600160a01b0387166000908152600560205260409020555b60ff831660021480611455575060ff83166004145b156115f25760025460408051639a751bbd60e01b81526004810188905290516000926001600160a01b031691639a751bbd916024808301926020929190829003018186803b1580156114a657600080fd5b505afa1580156114ba573d6000803e3d6000fd5b505050506040513d60208110156114d057600080fd5b505160025460408051638810632360e01b8152600481018a905290519293506001600160a01b0390911691638810632391602480820192602092909190829003018186803b15801561152157600080fd5b505afa158015611535573d6000803e3d6000fd5b505050506040513d602081101561154b57600080fd5b505192506115598386612c9f565b6001600160a01b038083166000908152600660209081526040808320938d168352929052205490925061158c9083612cf8565b6001600160a01b0382811660009081526006602090815260408083208d8516845290915280822093909355908916815220546115c89083612721565b6001600160a01b039182166000908152600660209081526040808320948b16835293905291909120555b600254604080516388c2560760e01b8152600481018890526001600160a01b038981166024830152915191909216916388c2560791604480830192600092919082900301818387803b15801561164757600080fd5b505af115801561165b573d6000803e3d6000fd5b505060035460408051637ff97ac160e01b81526001600160a01b038b811660048301529151919092169350637ff97ac19250602480830192600092919082900301818387803b1580156116ad57600080fd5b505af11580156116c1573d6000803e3d6000fd5b5050505050505050505050565b600454600160a01b900460ff1690565b600154600160a01b900460ff1690565b6116f6612bf8565b6001600160a01b03166117076119bf565b6001600160a01b031614611750576040805162461bcd60e51b81526020600482018190526024820152600080516020614561833981519152604482015290519081900360640190fd5b6001546040516000916001600160a01b031690600080516020614581833981519152908390a3600180546001600160a01b0319169055565b6117906116de565b6117d8576040805162461bcd60e51b815260206004820152601460248201527314185d5cd8589b194e881b9bdd081c185d5cd95960621b604482015290519081900360640190fd5b6002600054141561181e576040805162461bcd60e51b815260206004820152601f6024820152600080516020614457833981519152604482015290519081900360640190fd5b6002600055600454600160a01b900460ff1661186b5760405162461bcd60e51b815260040180806020018281038252602381526020018061449d6023913960400191505060405180910390fd5b33600090815260056020526040902054806118bc576040805162461bcd60e51b815260206004820152600c60248201526b455343524f575f454d50545960a01b604482015290519081900360640190fd5b336000818152600560205260408120556118d69082612d55565b6040805182815233602082015281517fb04d37d3296a34ef094bb4da3e1025abae58c3f53fd6b638c1d0174b3a9d509b929181900390910190a1506001600055565b6003546001600160a01b0316611966576040805162461bcd60e51b815260206004820152600e60248201526d2aa729a822a1a4a324a2a22fa12960911b604482015290519081900360640190fd5b6003546001600160a01b031633146119b7576040805162461bcd60e51b815260206004820152600f60248201526e2aa720aaaa2427a924ad22a22fa12960891b604482015290519081900360640190fd5b610ec1612e3f565b6001546001600160a01b031690565b6003546001600160a01b031690565b6004546001600160a01b03163314611a21576040805162461bcd60e51b8152602060048201526002602482015261155560f21b604482015290519081900360640190fd5b6002546040805163035e54d560e31b815260048101849052905160009283926001600160a01b0390911691631af2a6a891602480820192602092909190829003018186803b158015611a7257600080fd5b505afa158015611a86573d6000803e3d6000fd5b505050506040513d6020811015611a9c57600080fd5b505160025460408051631cf7955d60e01b81526004810184905290519293506000926001600160a01b0390921691631cf7955d91602480820192602092909190829003018186803b158015611af057600080fd5b505afa158015611b04573d6000803e3d6000fd5b505050506040513d6020811015611b1a57600080fd5b505160025460408051633eb53ba560e21b815260048101869052815193945060009384936001600160a01b03169263fad4ee949260248082019391829003018186803b158015611b6957600080fd5b505afa158015611b7d573d6000803e3d6000fd5b505050506040513d6040811015611b9357600080fd5b508051602090910151909250905060ff831660011415611c29576000611bb98383612721565b6001600160a01b038a16600090815260056020526040902054909150611bdf9082612cf8565b6001600160a01b03808b1660009081526005602052604080822093909355908a1681522054611c0e9082612721565b6001600160a01b038916600090815260056020526040902055505b60ff831660021415611da5576001600160a01b038816600090815260056020526040902054611c589083612cf8565b6001600160a01b03808a166000908152600560205260408082209390935590891681522054611c879083612721565b6001600160a01b03808916600090815260056020908152604091829020939093556002548151639a751bbd60e01b8152600481018990529151921692639a751bbd92602480840193829003018186803b158015611ce357600080fd5b505afa158015611cf7573d6000803e3d6000fd5b505050506040513d6020811015611d0d57600080fd5b50516001600160a01b038082166000908152600660209081526040808320938d1683529290522054909550611d429082612cf8565b6001600160a01b0386811660009081526006602090815260408083208d851684529091528082209390935590891681522054611d7e9082612721565b6001600160a01b038087166000908152600660209081526040808320938c16835292905220555b60ff831660031415611f21576002546040805163e875a61360e01b81526004810187905290516001600160a01b039092169163e875a61391602480820192602092909190829003018186803b158015611dfd57600080fd5b505afa158015611e11573d6000803e3d6000fd5b505050506040513d6020811015611e2757600080fd5b50516001600160a01b038082166000908152600660209081526040808320938d1683529290522054909550611e5c9083612cf8565b6001600160a01b0386811660009081526006602090815260408083208d851684529091528082209390935590891681522054611e989083612721565b6001600160a01b0380871660009081526006602090815260408083208c85168452825280832094909455918b16815260059091522054611ed89082612cf8565b6001600160a01b03808a166000908152600560205260408082209390935590891681522054611f079082612721565b6001600160a01b0388166000908152600560205260409020555b60ff83166004141561213c576002546040805163e875a61360e01b81526004810187905290516001600160a01b039092169163e875a61391602480820192602092909190829003018186803b158015611f7957600080fd5b505afa158015611f8d573d6000803e3d6000fd5b505050506040513d6020811015611fa357600080fd5b50516001600160a01b038082166000908152600660209081526040808320938d1683529290522054909550611fd89083612cf8565b6001600160a01b0386811660009081526006602090815260408083208d8516845290915280822093909355908916815220546120149083612721565b6001600160a01b0380871660009081526006602090815260408083208c85168452825291829020939093556002548151639a751bbd60e01b8152600481018990529151921692639a751bbd92602480840193829003018186803b15801561207a57600080fd5b505afa15801561208e573d6000803e3d6000fd5b505050506040513d60208110156120a457600080fd5b50516001600160a01b038082166000908152600660209081526040808320938d16835292905220549095506120d99082612cf8565b6001600160a01b0386811660009081526006602090815260408083208d8516845290915280822093909355908916815220546121159082612721565b6001600160a01b038087166000908152600660209081526040808320938c16835292905220555b60035460408051637ff97ac160e01b81526001600160a01b038a8116600483015291519190921691637ff97ac191602480830192600092919082900301818387803b15801561218a57600080fd5b505af115801561219e573d6000803e3d6000fd5b505050505050505050505050565b600454600160a01b900460ff161590565b6121c5612bf8565b6001600160a01b03166121d66119bf565b6001600160a01b03161461221f576040805162461bcd60e51b81526020600482018190526024820152600080516020614561833981519152604482015290519081900360640190fd5b6001600160a01b038116612270576040805162461bcd60e51b8152602060048201526013602482015272554e5350454349464945445f4144445245535360681b604482015290519081900360640190fd5b600480546001600160a01b0319166001600160a01b0383169081179091556040805191825233602083015280517f7b81c5e3a8e5647e11ccd172baaaf534f02cb16cd563be7c3c70c9354215bdb19281900390910190a150565b6122d2612bf8565b6001600160a01b03166122e36119bf565b6001600160a01b03161461232c576040805162461bcd60e51b81526020600482018190526024820152600080516020614561833981519152604482015290519081900360640190fd5b6001600160a01b03811661237d576040805162461bcd60e51b8152602060048201526013602482015272554e5350454349464945445f4144445245535360681b604482015290519081900360640190fd5b600380546001600160a01b0319166001600160a01b0383169081179091556040805191825233602083015280517fac81fe7dd460bb5162a4a7d8fb92a13bd2baf450914fc6b1c4cc3180eba55af09281900390910190a150565b6004546001600160a01b031690565b6001600160a01b031660009081526005602052604090205490565b6124096116de565b612451576040805162461bcd60e51b815260206004820152601460248201527314185d5cd8589b194e881b9bdd081c185d5cd95960621b604482015290519081900360640190fd5b60026000541415612497576040805162461bcd60e51b815260206004820152601f6024820152600080516020614457833981519152604482015290519081900360640190fd5b6002600055806001600160a01b0381166124f0576040805162461bcd60e51b8152602060048201526015602482015274494e56414c49445f544f4b454e5f4144445245535360581b604482015290519081900360640190fd5b600454600160a01b900460ff166125385760405162461bcd60e51b815260040180806020018281038252602381526020018061449d6023913960400191505060405180910390fd5b6001600160a01b03821660009081526006602090815260408083203384529091529020548061259d576040805162461bcd60e51b815260206004820152600c60248201526b455343524f575f454d50545960a01b604482015290519081900360640190fd5b6001600160a01b03831660009081526006602090815260408083203380855292528220919091556125d090849083612ec8565b604080518281526001600160a01b0385166020820152338183015290517f7e5dd3919ea79fc8c93a49edf5656ab20f89df3e419fde48c90a90765f7605a69181900360600190a15050600160005550565b6002546001600160a01b031690565b612638612bf8565b6001600160a01b03166126496119bf565b6001600160a01b031614612692576040805162461bcd60e51b81526020600482018190526024820152600080516020614561833981519152604482015290519081900360640190fd5b6001600160a01b0381166126d75760405162461bcd60e51b81526004018080602001828103825260268152602001806144776026913960400191505060405180910390fd5b6001546040516001600160a01b0380841692169060008051602061458183398151915290600090a3600180546001600160a01b0319166001600160a01b0392909216919091179055565b600082820183811015612779576040805162461bcd60e51b815260206004820152601b60248201527a536166654d6174683a206164646974696f6e206f766572666c6f7760281b604482015290519081900360640190fd5b9392505050565b6101c081015151612792906006612813565b156127a5576127a081612f1a565b612810565b6101c0810151516127b7906005612813565b806127cf57506101c0810151516127cf906004612813565b8061280257506101c0810151516127e7906002612813565b801561280257506101c081015151612800906006612813565b155b15612810576128108161316f565b50565b60ff91821691161c60019081161490565b6101c081015151612836906003612813565b1561284957612844816133af565b612872565b6101c08101515161285b906002612813565b156128695761284481613867565b61287281613ae9565b6101c081015151612884906006612813565b8061289c57506101c08101515161289c906002612813565b156128af576128aa81613cbd565b6128b8565b6128b881613e92565b60025460208201516040805163ebba1b2960e01b81526004810192909252516001600160a01b039092169163ebba1b299160248082019260009290919082900301818387803b15801561290a57600080fd5b505af115801561291e573d6000803e3d6000fd5b5050505050565b6001600160a01b038416612976576040805162461bcd60e51b8152602060048201526013602482015272554e5350454349464945445f4144445245535360681b604482015290519081900360640190fd5b600083116129a5576040805162461bcd60e51b8152602060048201526000602482015290519081900360640190fd5b60ff8216600114806129ba575060ff82166003145b15612a09576129d26001600160a01b03851684612d55565b604080513381526001600160a01b038616602082015280820185905290516000805160206144c08339815191529181900360600190a15b60ff821660021480612a1e575060ff82166004145b15612aa85760025460408051639a751bbd60e01b81526004810184905290516000926001600160a01b031691639a751bbd916024808301926020929190829003018186803b158015612a6f57600080fd5b505afa158015612a83573d6000803e3d6000fd5b505050506040513d6020811015612a9957600080fd5b5051905061291e818686612ec8565b50505050565b6001600160a01b038416612aff576040805162461bcd60e51b8152602060048201526013602482015272554e5350454349464945445f4144445245535360681b604482015290519081900360640190fd5b60008311612b2e576040805162461bcd60e51b8152602060048201526000602482015290519081900360640190fd5b60ff821660011480612b43575060ff82166002145b15612b9257612b5b6001600160a01b03851684612d55565b604080513381526001600160a01b038616602082015280820185905290516000805160206144c08339815191529181900360600190a15b60ff821660031480612ba7575060ff82166004145b15612aa8576002546040805163e875a61360e01b81526004810184905290516000926001600160a01b03169163e875a613916024808301926020929190829003018186803b158015612a6f57600080fd5b3390565b612c046116de565b612c4c576040805162461bcd60e51b815260206004820152601460248201527314185d5cd8589b194e881b9bdd081c185d5cd95960621b604482015290519081900360640190fd5b6001805460ff60a01b191690557f5db9ee0a495bf2e6ff9c91a7834c1ba4fdd244a5e8aa4e537bd38aeae4b073aa612c82612bf8565b604080516001600160a01b039092168252519081900360200190a1565b600082612cae57506000610755565b82820282848281612cbb57fe5b04146127795760405162461bcd60e51b81526004018080602001828103825260218152602001806145406021913960400191505060405180910390fd5b600082821115612d4f576040805162461bcd60e51b815260206004820152601e60248201527f536166654d6174683a207375627472616374696f6e206f766572666c6f770000604482015290519081900360640190fd5b50900390565b80471015612daa576040805162461bcd60e51b815260206004820152601d60248201527f416464726573733a20696e73756666696369656e742062616c616e6365000000604482015290519081900360640190fd5b6040516000906001600160a01b0384169083908381818185875af1925050503d8060008114612df5576040519150601f19603f3d011682016040523d82523d6000602084013e612dfa565b606091505b5050905080612e3a5760405162461bcd60e51b815260040180806020018281038252603a8152602001806144e0603a913960400191505060405180910390fd5b505050565b612e476116de565b15612e8c576040805162461bcd60e51b815260206004820152601060248201526f14185d5cd8589b194e881c185d5cd95960821b604482015290519081900360640190fd5b6001805460ff60a01b1916600160a01b1790557f62e78cea01bee320cd4e420270b5ea74000d11b0c9f74754ebdbfc544b05a258612c82612bf8565b604080516001600160a01b038416602482015260448082018490528251808303909101815260649091019091526020810180516001600160e01b031663a9059cbb60e01b179052612e3a908490614066565b6101a081015160ff1660011480612f3957506101a081015160ff166002145b15612f8757608081015160608201516001600160a01b0316600090815260056020526040902054612f6991612cf8565b60608201516001600160a01b03166000908152600560205260409020555b6101a081015160ff1660031480612fa657506101a081015160ff166004145b156130915760025481516040805163e875a61360e01b81526004810192909252516000926001600160a01b03169163e875a613916024808301926020929190829003018186803b158015612ff957600080fd5b505afa15801561300d573d6000803e3d6000fd5b505050506040513d602081101561302357600080fd5b505160808301516001600160a01b0380831660009081526006602090815260408083206060890151909416835292905220549192506130629190612cf8565b6001600160a01b0391821660009081526006602090815260408083206060870151909516835293905291909120555b60808101516101208201516130a591612721565b610120820152600254602082015160408051633aaa4a8b60e11b81526004810192909252516001600160a01b039092169163755495169160248082019260009290919082900301818387803b1580156130fd57600080fd5b505af1158015613111573d6000803e3d6000fd5b5050505080602001516000805160206145a183398151915282604001518360800151600060405180846001600160a01b0316815260200183815260200182600281111561315a57fe5b8152602001935050505060405180910390a250565b6101a081015160ff166001148061318e57506101a081015160ff166002145b156131dc57608081015160608201516001600160a01b03166000908152600560205260409020546131be91612cf8565b60608201516001600160a01b03166000908152600560205260409020555b6101a081015160ff16600314806131fb57506101a081015160ff166004145b156132e65760025481516040805163e875a61360e01b81526004810192909252516000926001600160a01b03169163e875a613916024808301926020929190829003018186803b15801561324e57600080fd5b505afa158015613262573d6000803e3d6000fd5b505050506040513d602081101561327857600080fd5b505160808301516001600160a01b0380831660009081526006602090815260408083206060890151909416835292905220549192506132b79190612cf8565b6001600160a01b0391821660009081526006602090815260408083206060870151909516835293905291909120555b60808101516101608201516132fa91612721565b610160820152600254602082015160408051633aaa4a8b60e11b81526004810192909252516001600160a01b039092169163755495169160248082019260009290919082900301818387803b15801561335257600080fd5b505af1158015613366573d6000803e3d6000fd5b5050505080602001516000805160206145a183398151915282606001518360800151600060405180846001600160a01b0316815260200183815260200182600281111561315a57fe5b6101c0810151516133c1906002612813565b156136b9576101a081015160ff16600114806133e557506101a081015160ff166003145b1561342f5760a08101516040808301516001600160a01b031660009081526005602052205461341391612cf8565b6040808301516001600160a01b03166000908152600560205220555b6101a081015160ff166002148061344e57506101a081015160ff166004145b1561353757600254815160408051639a751bbd60e01b81526004810192909252516000926001600160a01b031691639a751bbd916024808301926020929190829003018186803b1580156134a157600080fd5b505afa1580156134b5573d6000803e3d6000fd5b505050506040513d60208110156134cb57600080fd5b505160a08301516001600160a01b03808316600090815260066020908152604080832081890151909416835292905220549192506135099190612cf8565b6001600160a01b03918216600090815260066020908152604080832086820151909516835293905291909120555b60a081015160009061354a906002614117565b61018083015190915061355d9082612721565b61018083015261357d613571826002614117565b61014084015190612721565b6101408301526135b56135a9613594836002614117565b60a08501516135a39085612cf8565b90612cf8565b61010084015190612721565b610100830152602080830151606080850151604080516001600160a01b039092168252938101859052600181850152925191926000805160206145a1833981519152929081900390910190a2602082015160408301516000805160206145a183398151915290613626846002614117565b604080516001600160a01b039390931683526020830191909152600182820152519081900360600190a281602001516000805160206145a183398151915261366c6119bf565b61368961367a856002614117565b60a08701516135a39087612cf8565b604080516001600160a01b039390931683526020830191909152600182820152519081900360600190a250612810565b6101a081015160ff16600114806136d857506101a081015160ff166003145b156137265760a08101516040808301516001600160a01b031660009081526005602052205461370691612cf8565b6040808301516001600160a01b031660009081526005602052205561380a565b600254815160408051639a751bbd60e01b81526004810192909252516000926001600160a01b031691639a751bbd916024808301926020929190829003018186803b15801561377457600080fd5b505afa158015613788573d6000803e3d6000fd5b505050506040513d602081101561379e57600080fd5b505160a08301516001600160a01b03808316600090815260066020908152604080832081890151909416835292905220549192506137dc9190612cf8565b6001600160a01b03918216600090815260066020908152604080832086820151909516835293905291909120555b60a081015161010082015161381e91612721565b61010082015260208101516000805160206145a18339815191526138406119bf565b60a0840151604080516001600160a01b03841681526020810183905260019181018261315a565b6101a081015160ff166001148061388657506101a081015160ff166003145b156138d05760a08101516040808301516001600160a01b03166000908152600560205220546138b491612cf8565b6040808301516001600160a01b03166000908152600560205220555b6101a081015160ff16600214806138ef57506101a081015160ff166004145b156139d857600254815160408051639a751bbd60e01b81526004810192909252516000926001600160a01b031691639a751bbd916024808301926020929190829003018186803b15801561394257600080fd5b505afa158015613956573d6000803e3d6000fd5b505050506040513d602081101561396c57600080fd5b505160a08301516001600160a01b03808316600090815260066020908152604080832081890151909416835292905220549192506139aa9190612cf8565b6001600160a01b03918216600090815260066020908152604080832086820151909516835293905291909120555b60a08101516139f8906139ec906002614117565b61014083015190612721565b61014082015260a0810151613a2d90613a2190613a16906002614117565b60a084015190612cf8565b61018083015190612721565b6101808201526020810151604082015160a08301516000805160206145a18339815191529190613a5e906002614117565b604080516001600160a01b039390931683526020830191909152600182820152519081900360600190a280602001516000805160206145a18339815191528260600151613ac7613abc60028660a0015161411790919063ffffffff16565b60a086015190612cf8565b604080516001600160a01b03841681526020810183905260019181018261315a565b6101a081015160ff1660011480613b0857506101a081015160ff166003145b15613b525760a08101516040808301516001600160a01b0316600090815260056020522054613b3691612cf8565b6040808301516001600160a01b03166000908152600560205220555b6101a081015160ff1660021480613b7157506101a081015160ff166004145b15613c5a57600254815160408051639a751bbd60e01b81526004810192909252516000926001600160a01b031691639a751bbd916024808301926020929190829003018186803b158015613bc457600080fd5b505afa158015613bd8573d6000803e3d6000fd5b505050506040513d6020811015613bee57600080fd5b505160a08301516001600160a01b0380831660009081526006602090815260408083208189015190941683529290522054919250613c2c9190612cf8565b6001600160a01b03918216600090815260066020908152604080832086820151909516835293905291909120555b60a0810151610140820151613c6e91612721565b8161014001818152505080602001516000805160206145a183398151915282604001518360a00151600160405180846001600160a01b0316815260200183815260200182600281111561315a57fe5b6101a081015160ff1660011480613cdc57506101a081015160ff166003145b15613d2a5760c081015160608201516001600160a01b0316600090815260056020526040902054613d0c91612cf8565b60608201516001600160a01b03166000908152600560205260409020555b6101a081015160ff1660021480613d4957506101a081015160ff166004145b15613e3457600254815160408051639a751bbd60e01b81526004810192909252516000926001600160a01b031691639a751bbd916024808301926020929190829003018186803b158015613d9c57600080fd5b505afa158015613db0573d6000803e3d6000fd5b505050506040513d6020811015613dc657600080fd5b505160c08301516001600160a01b038083166000908152600660209081526040808320606089015190941683529290522054919250613e059190612cf8565b6001600160a01b0391821660009081526006602090815260408083206060870151909516835293905291909120555b60c0810151610180820151613e4891612721565b610180820152602080820151606083015160c0840151604080516001600160a01b038416815294850182905292936000805160206145a1833981519152936002919081018261315a565b6101a081015160ff1660011480613eb157506101a081015160ff166003145b15613eff5760c081015160608201516001600160a01b0316600090815260056020526040902054613ee191612cf8565b60608201516001600160a01b03166000908152600560205260409020555b6101a081015160ff1660021480613f1e57506101a081015160ff166004145b1561400957600254815160408051639a751bbd60e01b81526004810192909252516000926001600160a01b031691639a751bbd916024808301926020929190829003018186803b158015613f7157600080fd5b505afa158015613f85573d6000803e3d6000fd5b505050506040513d6020811015613f9b57600080fd5b505160c08301516001600160a01b038083166000908152600660209081526040808320606089015190941683529290522054919250613fda9190612cf8565b6001600160a01b0391821660009081526006602090815260408083206060870151909516835293905291909120555b60c081015161010082015161401d91612721565b61010082015260208101516000805160206145a183398151915261403f6119bf565b60c0840151604080516001600160a01b03841681526020810183905260029181018261315a565b60606140bb826040518060400160405280602081526020017f5361666545524332303a206c6f772d6c6576656c2063616c6c206661696c6564815250856001600160a01b031661417b9092919063ffffffff16565b805190915015612e3a578080602001905160208110156140da57600080fd5b5051612e3a5760405162461bcd60e51b815260040180806020018281038252602a8152602001806145c1602a913960400191505060405180910390fd5b600080821161416a576040805162461bcd60e51b815260206004820152601a602482015279536166654d6174683a206469766973696f6e206279207a65726f60301b604482015290519081900360640190fd5b81838161417357fe5b049392505050565b606061418a8484600085614192565b949350505050565b6060824710156141d35760405162461bcd60e51b815260040180806020018281038252602681526020018061451a6026913960400191505060405180910390fd5b6141dc856142ee565b61422d576040805162461bcd60e51b815260206004820152601d60248201527f416464726573733a2063616c6c20746f206e6f6e2d636f6e7472616374000000604482015290519081900360640190fd5b60006060866001600160a01b031685876040518082805190602001908083835b6020831061426c5780518252601f19909201916020918201910161424d565b6001836020036101000a03801982511681845116808217855250505050505090500191505060006040518083038185875af1925050503d80600081146142ce576040519150601f19603f3d011682016040523d82523d6000602084013e6142d3565b606091505b50915091506142e38282866142f4565b979650505050505050565b3b151590565b60608315614303575081612779565b8251156143135782518084602001fd5b8160405162461bcd60e51b81526004018080602001828103825283818151815260200191508051906020019080838360005b8381101561435d578181015183820152602001614345565b50505050905090810190601f16801561438a5780820380516001836020036101000a031916815260200191505b509250505060405180910390fd5b604051806101e00160405280600081526020016000815260200160006001600160a01b0316815260200160006001600160a01b03168152602001600081526020016000815260200160008152602001600081526020016000815260200160008152602001600081526020016000815260200160008152602001600060ff168152602001614423614428565b905290565b6040805160a0810182526000808252602082018190529181018290526060810182905260808101919091529056fe5265656e7472616e637947756172643a207265656e7472616e742063616c6c004f776e61626c653a206e6577206f776e657220697320746865207a65726f20616464726573734f776e657220646964206e6f7420616c6c6f77206d616e75616c2077697468647261770ec497a8ae5b1ba29c60470ef651def995fac3deebbdcc56c47a4e5f51a4c2bd416464726573733a20756e61626c6520746f2073656e642076616c75652c20726563697069656e74206d61792068617665207265766572746564416464726573733a20696e73756666696369656e742062616c616e636520666f722063616c6c536166654d6174683a206d756c7469706c69636174696f6e206f766572666c6f774f776e61626c653a2063616c6c6572206973206e6f7420746865206f776e65728be0079c531659141344cd1fd0a4f28419497f9722a3daafe3b4186f6b6457e0e6e743e535fe193128a1e1839b7c1f313bb203d9cbb58e4c955d5e9a8a8f0fc25361666545524332303a204552433230206f7065726174696f6e20646964206e6f742073756363656564a264697066735822122055374aac872f3dbfe21c18a44aff888d193c3a6a0e03f64c2bb41732b4b99e5d64736f6c63430007010033",
  "source": "// SPDX-License-Identifier: LGPL-3.0-or-later\r\npragma solidity 0.7.1;\r\n\r\nimport \"@openzeppelin/contracts/utils/ReentrancyGuard.sol\";\r\nimport \"@openzeppelin/contracts/token/ERC20/SafeERC20.sol\";\r\nimport \"@openzeppelin/contracts/math/SafeMath.sol\";\r\nimport \"@openzeppelin/contracts/access/Ownable.sol\";\r\nimport \"@openzeppelin/contracts/utils/Pausable.sol\";\r\nimport \"@openzeppelin/contracts/utils/Address.sol\";\r\nimport \"@openzeppelin/contracts/token/ERC20/IERC20.sol\";\r\nimport \"./interfaces/IVoucherKernel.sol\";\r\nimport \"./interfaces/ICashier.sol\";\r\nimport \"./interfaces/IBosonRouter.sol\";\r\nimport \"./UsingHelpers.sol\";\r\n\r\n/**\r\n * @title Contract for managing funds\r\n * Roughly following OpenZeppelin's Escrow at https://github.com/OpenZeppelin/openzeppelin-solidity/contracts/payment/\r\n */\r\ncontract Cashier is ICashier, UsingHelpers, ReentrancyGuard, Ownable, Pausable {\r\n    using SafeERC20 for IERC20;\r\n    using Address for address payable;\r\n    using SafeMath for uint256;\r\n\r\n    address private voucherKernel;\r\n    address private bosonRouterAddress;\r\n    address private tokensContractAddress;\r\n    bool private disasterState;\r\n\r\n    enum PaymentType {PAYMENT, DEPOSIT_SELLER, DEPOSIT_BUYER}\r\n\r\n    mapping(address => uint256) private escrow; // both types of deposits AND payments >> can be released token-by-token if checks pass\r\n    // slashedDepositPool can be obtained through getEscrowAmount(poolAddress)\r\n    mapping(address => mapping(address => uint256)) private escrowTokens; //token address => mgsSender => amount\r\n\r\n    uint256 internal constant CANCELFAULT_SPLIT = 2; //for POC purposes, this is hardcoded; e.g. each party gets depositSe / 2\r\n\r\n    event LogBosonRouterSet(address _newBosonRouter, address _triggeredBy);\r\n\r\n    event LogTokenContractSet(address _newTokenContract, address _triggeredBy);\r\n\r\n    event LogWithdrawal(address _caller, address _payee, uint256 _payment);\r\n\r\n    event LogAmountDistribution(\r\n        uint256 indexed _tokenIdVoucher,\r\n        address _to,\r\n        uint256 _payment,\r\n        PaymentType _type\r\n    );\r\n\r\n    event LogDisasterStateSet(bool _disasterState, address _triggeredBy);\r\n    event LogWithdrawEthOnDisaster(uint256 _amount, address _triggeredBy);\r\n    event LogWithdrawTokensOnDisaster(\r\n        uint256 _amount,\r\n        address _tokenAddress,\r\n        address _triggeredBy\r\n    );\r\n\r\n    modifier onlyFromRouter() {\r\n        require(bosonRouterAddress != address(0), \"UNSPECIFIED_BR\"); // hex\"20\" FISSION.code(FISSION.Category.Find, FISSION.Status.NotFound_Unequal_OutOfRange)\r\n        require(msg.sender == bosonRouterAddress, \"UNAUTHORIZED_BR\"); // hex\"10\" FISSION.code(FISSION.Category.Permission, FISSION.Status.Disallowed_Stop)\r\n        _;\r\n    }\r\n\r\n    modifier notZeroAddress(address tokenAddress) {\r\n        require(tokenAddress != address(0), \"INVALID_TOKEN_ADDRESS\");\r\n        _;\r\n    }\r\n\r\n    /**\r\n     * @notice The only caller must be tokensContractAddress, otherwise reverts.\r\n     */\r\n    modifier onlyTokensContract() {\r\n        require(msg.sender == tokensContractAddress, \"UT\"); // Unauthorized token address\r\n        _;\r\n    }\r\n\r\n    constructor(address _voucherKernel) {\r\n        voucherKernel = _voucherKernel;\r\n        disasterState = false;\r\n    }\r\n\r\n    /**\r\n     * @notice Pause the process of interaction with voucherID's (ERC-721), in case of emergency.\r\n     * Only BR contract is in control of this function.\r\n     */\r\n    function pause() external override onlyFromRouter {\r\n        _pause();\r\n    }\r\n\r\n    /**\r\n     * @notice Unpause the process of interaction with voucherID's (ERC-721).\r\n     * Only BR contract is in control of this function.\r\n     */\r\n    function unpause() external override onlyFromRouter {\r\n        _unpause();\r\n    }\r\n\r\n    /**\r\n     * @notice If once disaster state has been set to true, the contract could never be unpaused.\r\n     */\r\n    function canUnpause() external view override returns (bool) {\r\n        return !disasterState;\r\n    }\r\n\r\n    /**\r\n     * @notice Once this functions is triggered, contracts cannot be unpaused anymore\r\n     * Only BR contract is in control of this function.\r\n     */\r\n    function setDisasterState() external onlyOwner whenPaused {\r\n        disasterState = true;\r\n        LogDisasterStateSet(disasterState, msg.sender);\r\n    }\r\n\r\n    /**\r\n     * @notice In case of a disaster this function allow the caller to withdraw all pooled funds kept in the escrow for the address provided. Funds are sent in ETH\r\n     */\r\n    function withdrawEthOnDisaster() external whenPaused nonReentrant {\r\n        require(disasterState, \"Owner did not allow manual withdraw\");\r\n\r\n        uint256 amount = escrow[msg.sender];\r\n\r\n        require(amount > 0, \"ESCROW_EMPTY\");\r\n        escrow[msg.sender] = 0;\r\n        msg.sender.sendValue(amount);\r\n\r\n        LogWithdrawEthOnDisaster(amount, msg.sender);\r\n    }\r\n\r\n    /**\r\n     * @notice In case of a disaster this function allow the caller to withdraw all pooled funds kept in the escrowTokens for the address provided.\r\n     * @param token address of a token, that the caller sent the funds, while interacting with voucher or voucher-set\r\n     */\r\n    function withdrawTokensOnDisaster(address token)\r\n        external\r\n        whenPaused\r\n        nonReentrant\r\n        notZeroAddress(token)\r\n    {\r\n        require(disasterState, \"Owner did not allow manual withdraw\");\r\n\r\n        uint256 amount = escrowTokens[token][msg.sender];\r\n        require(amount > 0, \"ESCROW_EMPTY\");\r\n        escrowTokens[token][msg.sender] = 0;\r\n\r\n        SafeERC20.safeTransfer(IERC20(token), msg.sender, amount);\r\n        LogWithdrawTokensOnDisaster(amount, token, msg.sender);\r\n    }\r\n\r\n    /**\r\n     * @notice Trigger withdrawals of what funds are releasable\r\n     * The caller of this function triggers transfers to all involved entities (pool, issuer, token holder), also paying for gas.\r\n     * @dev This function would be optimized a lot, here verbose for readability.\r\n     * @param _tokenIdVoucher  ID of a voucher token (ERC-721) to try withdraw funds from\r\n     */\r\n    function withdraw(uint256 _tokenIdVoucher)\r\n        external\r\n        override\r\n        nonReentrant\r\n        whenNotPaused\r\n    {\r\n        VoucherDetails memory voucherDetails;\r\n\r\n        require(_tokenIdVoucher != 0, \"UNSPECIFIED_ID\"); //hex\"20\" FISSION.code(FISSION.Category.Find, FISSION.Status.NotFound_Unequal_OutOfRange)\r\n\r\n        voucherDetails.tokenIdVoucher = _tokenIdVoucher;\r\n        voucherDetails.tokenIdSupply = IVoucherKernel(voucherKernel)\r\n            .getIdSupplyFromVoucher(voucherDetails.tokenIdVoucher);\r\n        voucherDetails.paymentMethod = IVoucherKernel(voucherKernel)\r\n            .getVoucherPaymentMethod(voucherDetails.tokenIdSupply);\r\n\r\n        require(\r\n            voucherDetails.paymentMethod > 0 &&\r\n                voucherDetails.paymentMethod <= 4,\r\n            \"INVALID PAYMENT METHOD\"\r\n        );\r\n\r\n        (\r\n            voucherDetails.currStatus.status,\r\n            voucherDetails.currStatus.isPaymentReleased,\r\n            voucherDetails.currStatus.isDepositsReleased,\r\n            ,\r\n        ) = IVoucherKernel(voucherKernel).getVoucherStatus(\r\n            voucherDetails.tokenIdVoucher\r\n        );\r\n\r\n        (\r\n            voucherDetails.price,\r\n            voucherDetails.depositSe,\r\n            voucherDetails.depositBu\r\n        ) = IVoucherKernel(voucherKernel).getOrderCosts(\r\n            voucherDetails.tokenIdSupply\r\n        );\r\n\r\n        voucherDetails.issuer = payable(\r\n            IVoucherKernel(voucherKernel).getSupplyHolder(\r\n                voucherDetails.tokenIdSupply\r\n            )\r\n        );\r\n        voucherDetails.holder = payable(\r\n            IVoucherKernel(voucherKernel).getVoucherHolder(\r\n                voucherDetails.tokenIdVoucher\r\n            )\r\n        );\r\n\r\n        //process the RELEASE OF PAYMENTS - only depends on the redeemed/not-redeemed, a voucher need not be in the final status\r\n        if (!voucherDetails.currStatus.isPaymentReleased) {\r\n            releasePayments(voucherDetails);\r\n        }\r\n\r\n        //process the RELEASE OF DEPOSITS - only when vouchers are in the FINAL status\r\n        if (\r\n            !voucherDetails.currStatus.isDepositsReleased &&\r\n            isStatus(voucherDetails.currStatus.status, IDX_FINAL)\r\n        ) {\r\n            releaseDeposits(voucherDetails);\r\n        }\r\n\r\n        if (voucherDetails.deposit2pool > 0) {\r\n            _withdrawDeposits(\r\n                owner(),\r\n                voucherDetails.deposit2pool,\r\n                voucherDetails.paymentMethod,\r\n                voucherDetails.tokenIdSupply\r\n            );\r\n        }\r\n\r\n        if (voucherDetails.price2issuer > 0) {\r\n            _withdrawPayments(\r\n                voucherDetails.issuer,\r\n                voucherDetails.price2issuer,\r\n                voucherDetails.paymentMethod,\r\n                voucherDetails.tokenIdSupply\r\n            );\r\n        }\r\n\r\n        if (voucherDetails.deposit2issuer > 0) {\r\n            _withdrawDeposits(\r\n                voucherDetails.issuer,\r\n                voucherDetails.deposit2issuer,\r\n                voucherDetails.paymentMethod,\r\n                voucherDetails.tokenIdSupply\r\n            );\r\n        }\r\n\r\n        if (voucherDetails.price2holder > 0) {\r\n            _withdrawPayments(\r\n                voucherDetails.holder,\r\n                voucherDetails.price2holder,\r\n                voucherDetails.paymentMethod,\r\n                voucherDetails.tokenIdSupply\r\n            );\r\n        }\r\n\r\n        if (voucherDetails.deposit2holder > 0) {\r\n            _withdrawDeposits(\r\n                voucherDetails.holder,\r\n                voucherDetails.deposit2holder,\r\n                voucherDetails.paymentMethod,\r\n                voucherDetails.tokenIdSupply\r\n            );\r\n        }\r\n\r\n        delete voucherDetails;\r\n    }\r\n\r\n    /**\r\n     * @notice Release of payments, for a voucher which payments had not been released already.\r\n     * Based on the voucher status(e.g. redeemed, refunded, etc), the voucher price will be sent to either buyer or seller.\r\n     * @param voucherDetails keeps all required information of the voucher which the payment should be released for.\r\n     */\r\n    function releasePayments(VoucherDetails memory voucherDetails) internal {\r\n        if (isStatus(voucherDetails.currStatus.status, IDX_REDEEM)) {\r\n            releasePaymentToSeller(voucherDetails);\r\n        } else if (\r\n            isStatus(voucherDetails.currStatus.status, IDX_REFUND) ||\r\n            isStatus(voucherDetails.currStatus.status, IDX_EXPIRE) ||\r\n            (isStatus(voucherDetails.currStatus.status, IDX_CANCEL_FAULT) &&\r\n                !isStatus(voucherDetails.currStatus.status, IDX_REDEEM))\r\n        ) {\r\n            releasePaymentToBuyer(voucherDetails);\r\n        }\r\n    }\r\n\r\n    /**\r\n     * @notice Following function `releasePayments`, if certain conditions for the voucher status are met, the voucher price will be sent to the seller\r\n     * @param voucherDetails keeps all required information of the voucher which the payment should be released for.\r\n     */\r\n    function releasePaymentToSeller(VoucherDetails memory voucherDetails)\r\n        internal\r\n    {\r\n        if (\r\n            voucherDetails.paymentMethod == ETHETH ||\r\n            voucherDetails.paymentMethod == ETHTKN\r\n        ) {\r\n            escrow[voucherDetails.holder] = escrow[voucherDetails.holder].sub(\r\n                voucherDetails.price\r\n            );\r\n        }\r\n        if (\r\n            voucherDetails.paymentMethod == TKNETH ||\r\n            voucherDetails.paymentMethod == TKNTKN\r\n        ) {\r\n            address addressTokenPrice =\r\n                IVoucherKernel(voucherKernel).getVoucherPriceToken(\r\n                    voucherDetails.tokenIdSupply\r\n                );\r\n\r\n            escrowTokens[addressTokenPrice][\r\n                voucherDetails.holder\r\n            ] = escrowTokens[addressTokenPrice][voucherDetails.holder].sub(\r\n                voucherDetails.price\r\n            );\r\n        }\r\n\r\n        voucherDetails.price2issuer = voucherDetails.price2issuer.add(\r\n            voucherDetails.price\r\n        );\r\n\r\n        IVoucherKernel(voucherKernel).setPaymentReleased(\r\n            voucherDetails.tokenIdVoucher\r\n        );\r\n\r\n        LogAmountDistribution(\r\n            voucherDetails.tokenIdVoucher,\r\n            voucherDetails.issuer,\r\n            voucherDetails.price,\r\n            PaymentType.PAYMENT\r\n        );\r\n    }\r\n\r\n    /**\r\n     * @notice Following function `releasePayments`, if certain conditions for the voucher status are met, the voucher price will be sent to the buyer\r\n     * @param voucherDetails keeps all required information of the voucher, which the payment should be released for.\r\n     */\r\n    function releasePaymentToBuyer(VoucherDetails memory voucherDetails)\r\n        internal\r\n    {\r\n        if (\r\n            voucherDetails.paymentMethod == ETHETH ||\r\n            voucherDetails.paymentMethod == ETHTKN\r\n        ) {\r\n            escrow[voucherDetails.holder] = escrow[voucherDetails.holder].sub(\r\n                voucherDetails.price\r\n            );\r\n        }\r\n\r\n        if (\r\n            voucherDetails.paymentMethod == TKNETH ||\r\n            voucherDetails.paymentMethod == TKNTKN\r\n        ) {\r\n            address addressTokenPrice =\r\n                IVoucherKernel(voucherKernel).getVoucherPriceToken(\r\n                    voucherDetails.tokenIdSupply\r\n                );\r\n\r\n            escrowTokens[addressTokenPrice][\r\n                voucherDetails.holder\r\n            ] = escrowTokens[addressTokenPrice][voucherDetails.holder].sub(\r\n                voucherDetails.price\r\n            );\r\n        }\r\n\r\n        voucherDetails.price2holder = voucherDetails.price2holder.add(\r\n            voucherDetails.price\r\n        );\r\n\r\n        IVoucherKernel(voucherKernel).setPaymentReleased(\r\n            voucherDetails.tokenIdVoucher\r\n        );\r\n\r\n        LogAmountDistribution(\r\n            voucherDetails.tokenIdVoucher,\r\n            voucherDetails.holder,\r\n            voucherDetails.price,\r\n            PaymentType.PAYMENT\r\n        );\r\n    }\r\n\r\n    /**\r\n     * @notice Release of deposits, for a voucher which deposits had not been released already, and had been marked as `finalized`\r\n     * Based on the voucher status(e.g. complained, redeemed, refunded, etc), the voucher deposits will be sent to either buyer, seller, or pool owner.\r\n     * Depending on the payment type (e.g ETH, or Token) escrow funds will be held in the `escrow` || escrowTokens mappings\r\n     * @param voucherDetails keeps all required information of the voucher which the deposits should be released for.\r\n     */\r\n    function releaseDeposits(VoucherDetails memory voucherDetails) internal {\r\n        //first, depositSe\r\n        if (isStatus(voucherDetails.currStatus.status, IDX_COMPLAIN)) {\r\n            //slash depositSe\r\n            distributeIssuerDepositOnHolderComplain(voucherDetails);\r\n        } else {\r\n            if (isStatus(voucherDetails.currStatus.status, IDX_CANCEL_FAULT)) {\r\n                //slash depositSe\r\n                distributeIssuerDepositOnIssuerCancel(voucherDetails);\r\n            } else {\r\n                //release depositSe\r\n                distributeFullIssuerDeposit(voucherDetails);\r\n            }\r\n        }\r\n\r\n        //second, depositBu\r\n        if (\r\n            isStatus(voucherDetails.currStatus.status, IDX_REDEEM) ||\r\n            isStatus(voucherDetails.currStatus.status, IDX_CANCEL_FAULT)\r\n        ) {\r\n            //release depositBu\r\n            distributeFullHolderDeposit(voucherDetails);\r\n        } else {\r\n            //slash depositBu\r\n            distributeHolderDepositOnNotRedeemedNotCancelled(voucherDetails);\r\n        }\r\n\r\n        IVoucherKernel(voucherKernel).setDepositsReleased(\r\n            voucherDetails.tokenIdVoucher\r\n        );\r\n    }\r\n\r\n    /**\r\n     * @notice Following function `releaseDeposits` this function will be triggered if a voucher had been complained by the buyer.\r\n     * Also checks if the voucher had been cancelled\r\n     * @param voucherDetails keeps all required information of the voucher which the payment should be released for.\r\n     */\r\n    function distributeIssuerDepositOnHolderComplain(\r\n        VoucherDetails memory voucherDetails\r\n    ) internal {\r\n        if (isStatus(voucherDetails.currStatus.status, IDX_CANCEL_FAULT)) {\r\n            //appease the conflict three-ways\r\n            if (\r\n                voucherDetails.paymentMethod == ETHETH ||\r\n                voucherDetails.paymentMethod == TKNETH\r\n            ) {\r\n                escrow[voucherDetails.issuer] = escrow[voucherDetails.issuer]\r\n                    .sub(voucherDetails.depositSe);\r\n            }\r\n\r\n            if (\r\n                voucherDetails.paymentMethod == ETHTKN ||\r\n                voucherDetails.paymentMethod == TKNTKN\r\n            ) {\r\n                address addressTokenDeposits =\r\n                    IVoucherKernel(voucherKernel).getVoucherDepositToken(\r\n                        voucherDetails.tokenIdSupply\r\n                    );\r\n\r\n                escrowTokens[addressTokenDeposits][\r\n                    voucherDetails.issuer\r\n                ] = escrowTokens[addressTokenDeposits][voucherDetails.issuer]\r\n                    .sub(voucherDetails.depositSe);\r\n            }\r\n\r\n            uint256 tFraction = voucherDetails.depositSe.div(CANCELFAULT_SPLIT);\r\n            voucherDetails.deposit2holder = voucherDetails.deposit2holder.add(\r\n                tFraction\r\n            ); //Bu gets, say, a half\r\n            voucherDetails.deposit2issuer = voucherDetails.deposit2issuer.add(\r\n                tFraction.div(CANCELFAULT_SPLIT)\r\n            ); //Se gets, say, a quarter\r\n            voucherDetails.deposit2pool = voucherDetails.deposit2pool.add(\r\n                (voucherDetails.depositSe.sub(tFraction)).sub(\r\n                    tFraction.div(CANCELFAULT_SPLIT)\r\n                )\r\n            ); //slashing the rest\r\n\r\n            LogAmountDistribution(\r\n                voucherDetails.tokenIdVoucher,\r\n                voucherDetails.holder,\r\n                tFraction,\r\n                PaymentType.DEPOSIT_SELLER\r\n            );\r\n            LogAmountDistribution(\r\n                voucherDetails.tokenIdVoucher,\r\n                voucherDetails.issuer,\r\n                tFraction.div(CANCELFAULT_SPLIT),\r\n                PaymentType.DEPOSIT_SELLER\r\n            );\r\n            LogAmountDistribution(\r\n                voucherDetails.tokenIdVoucher,\r\n                owner(),\r\n                (voucherDetails.depositSe.sub(tFraction)).sub(\r\n                    tFraction.div(CANCELFAULT_SPLIT)\r\n                ),\r\n                PaymentType.DEPOSIT_SELLER\r\n            );\r\n\r\n            tFraction = 0;\r\n        } else {\r\n            //slash depositSe\r\n            if (\r\n                voucherDetails.paymentMethod == ETHETH ||\r\n                voucherDetails.paymentMethod == TKNETH\r\n            ) {\r\n                escrow[voucherDetails.issuer] = escrow[voucherDetails.issuer]\r\n                    .sub(voucherDetails.depositSe);\r\n            } else {\r\n                address addressTokenDeposits =\r\n                    IVoucherKernel(voucherKernel).getVoucherDepositToken(\r\n                        voucherDetails.tokenIdSupply\r\n                    );\r\n\r\n                escrowTokens[addressTokenDeposits][\r\n                    voucherDetails.issuer\r\n                ] = escrowTokens[addressTokenDeposits][voucherDetails.issuer]\r\n                    .sub(voucherDetails.depositSe);\r\n            }\r\n\r\n            voucherDetails.deposit2pool = voucherDetails.deposit2pool.add(\r\n                voucherDetails.depositSe\r\n            );\r\n\r\n            LogAmountDistribution(\r\n                voucherDetails.tokenIdVoucher,\r\n                owner(),\r\n                voucherDetails.depositSe,\r\n                PaymentType.DEPOSIT_SELLER\r\n            );\r\n        }\r\n    }\r\n\r\n    /**\r\n     * @notice Following function `releaseDeposits` this function will be triggered if a voucher had been cancelled by the seller.\r\n     * Will be triggered if the voucher had not been complained.\r\n     * @param voucherDetails keeps all required information of the voucher which the deposits should be released for.\r\n     */\r\n    function distributeIssuerDepositOnIssuerCancel(\r\n        VoucherDetails memory voucherDetails\r\n    ) internal {\r\n        if (\r\n            voucherDetails.paymentMethod == ETHETH ||\r\n            voucherDetails.paymentMethod == TKNETH\r\n        ) {\r\n            escrow[voucherDetails.issuer] = escrow[voucherDetails.issuer].sub(\r\n                voucherDetails.depositSe\r\n            );\r\n        }\r\n\r\n        if (\r\n            voucherDetails.paymentMethod == ETHTKN ||\r\n            voucherDetails.paymentMethod == TKNTKN\r\n        ) {\r\n            address addressTokenDeposits =\r\n                IVoucherKernel(voucherKernel).getVoucherDepositToken(\r\n                    voucherDetails.tokenIdSupply\r\n                );\r\n\r\n            escrowTokens[addressTokenDeposits][\r\n                voucherDetails.issuer\r\n            ] = escrowTokens[addressTokenDeposits][voucherDetails.issuer].sub(\r\n                voucherDetails.depositSe\r\n            );\r\n        }\r\n\r\n        voucherDetails.deposit2issuer = voucherDetails.deposit2issuer.add(\r\n            voucherDetails.depositSe.div(CANCELFAULT_SPLIT)\r\n        );\r\n\r\n        voucherDetails.deposit2holder = voucherDetails.deposit2holder.add(\r\n            voucherDetails.depositSe.sub(\r\n                voucherDetails.depositSe.div(CANCELFAULT_SPLIT)\r\n            )\r\n        );\r\n\r\n        LogAmountDistribution(\r\n            voucherDetails.tokenIdVoucher,\r\n            voucherDetails.issuer,\r\n            voucherDetails.depositSe.div(CANCELFAULT_SPLIT),\r\n            PaymentType.DEPOSIT_SELLER\r\n        );\r\n\r\n        LogAmountDistribution(\r\n            voucherDetails.tokenIdVoucher,\r\n            voucherDetails.holder,\r\n            voucherDetails.depositSe.sub(\r\n                voucherDetails.depositSe.div(CANCELFAULT_SPLIT)\r\n            ),\r\n            PaymentType.DEPOSIT_SELLER\r\n        );\r\n    }\r\n\r\n    /**\r\n     * @notice Following function `releaseDeposits` this function will be triggered if no complain, nor cancel had been made.\r\n     * All seller deposit is returned to seller.\r\n     * @param voucherDetails keeps all required information of the voucher which the deposits should be released for.\r\n     */\r\n    function distributeFullIssuerDeposit(VoucherDetails memory voucherDetails)\r\n        internal\r\n    {\r\n        if (\r\n            voucherDetails.paymentMethod == ETHETH ||\r\n            voucherDetails.paymentMethod == TKNETH\r\n        ) {\r\n            escrow[voucherDetails.issuer] = escrow[voucherDetails.issuer].sub(\r\n                voucherDetails.depositSe\r\n            );\r\n        }\r\n\r\n        if (\r\n            voucherDetails.paymentMethod == ETHTKN ||\r\n            voucherDetails.paymentMethod == TKNTKN\r\n        ) {\r\n            address addressTokenDeposits =\r\n                IVoucherKernel(voucherKernel).getVoucherDepositToken(\r\n                    voucherDetails.tokenIdSupply\r\n                );\r\n\r\n            escrowTokens[addressTokenDeposits][\r\n                voucherDetails.issuer\r\n            ] = escrowTokens[addressTokenDeposits][voucherDetails.issuer].sub(\r\n                voucherDetails.depositSe\r\n            );\r\n        }\r\n\r\n        voucherDetails.deposit2issuer = voucherDetails.deposit2issuer.add(\r\n            voucherDetails.depositSe\r\n        );\r\n\r\n        LogAmountDistribution(\r\n            voucherDetails.tokenIdVoucher,\r\n            voucherDetails.issuer,\r\n            voucherDetails.depositSe,\r\n            PaymentType.DEPOSIT_SELLER\r\n        );\r\n    }\r\n\r\n    /**\r\n     * @notice Following function `releaseDeposits` this function will be triggered if voucher had been redeemed, or the seller had cancelled.\r\n     * All buyer deposit is returned to buyer.\r\n     * @param voucherDetails keeps all required information of the voucher which the deposits should be released for.\r\n     */\r\n    function distributeFullHolderDeposit(VoucherDetails memory voucherDetails)\r\n        internal\r\n    {\r\n        if (\r\n            voucherDetails.paymentMethod == ETHETH ||\r\n            voucherDetails.paymentMethod == TKNETH\r\n        ) {\r\n            escrow[voucherDetails.holder] = escrow[voucherDetails.holder].sub(\r\n                voucherDetails.depositBu\r\n            );\r\n        }\r\n\r\n        if (\r\n            voucherDetails.paymentMethod == ETHTKN ||\r\n            voucherDetails.paymentMethod == TKNTKN\r\n        ) {\r\n            address addressTokenDeposits =\r\n                IVoucherKernel(voucherKernel).getVoucherDepositToken(\r\n                    voucherDetails.tokenIdSupply\r\n                );\r\n\r\n            escrowTokens[addressTokenDeposits][\r\n                voucherDetails.holder\r\n            ] = escrowTokens[addressTokenDeposits][voucherDetails.holder].sub(\r\n                voucherDetails.depositBu\r\n            );\r\n        }\r\n\r\n        voucherDetails.deposit2holder = voucherDetails.deposit2holder.add(\r\n            voucherDetails.depositBu\r\n        );\r\n\r\n        LogAmountDistribution(\r\n            voucherDetails.tokenIdVoucher,\r\n            voucherDetails.holder,\r\n            voucherDetails.depositBu,\r\n            PaymentType.DEPOSIT_BUYER\r\n        );\r\n    }\r\n\r\n    /**\r\n     * @notice Following function `releaseDeposits` this function will be triggered if voucher had not been redeemed or cancelled after finalization.\r\n     * @param voucherDetails keeps all required information of the voucher which the deposits should be released for.\r\n     * All buyer deposit goes to Boson.\r\n     */\r\n    function distributeHolderDepositOnNotRedeemedNotCancelled(\r\n        VoucherDetails memory voucherDetails\r\n    ) internal {\r\n        if (\r\n            voucherDetails.paymentMethod == ETHETH ||\r\n            voucherDetails.paymentMethod == TKNETH\r\n        ) {\r\n            escrow[voucherDetails.holder] = escrow[voucherDetails.holder].sub(\r\n                voucherDetails.depositBu\r\n            );\r\n        }\r\n\r\n        if (\r\n            voucherDetails.paymentMethod == ETHTKN ||\r\n            voucherDetails.paymentMethod == TKNTKN\r\n        ) {\r\n            address addressTokenDeposits =\r\n                IVoucherKernel(voucherKernel).getVoucherDepositToken(\r\n                    voucherDetails.tokenIdSupply\r\n                );\r\n\r\n            escrowTokens[addressTokenDeposits][\r\n                voucherDetails.holder\r\n            ] = escrowTokens[addressTokenDeposits][voucherDetails.holder].sub(\r\n                voucherDetails.depositBu\r\n            );\r\n        }\r\n\r\n        voucherDetails.deposit2pool = voucherDetails.deposit2pool.add(\r\n            voucherDetails.depositBu\r\n        );\r\n\r\n        LogAmountDistribution(\r\n            voucherDetails.tokenIdVoucher,\r\n            owner(),\r\n            voucherDetails.depositBu,\r\n            PaymentType.DEPOSIT_BUYER\r\n        );\r\n    }\r\n\r\n    /**\r\n     * @notice External function for withdrawing deposits. Caller must be the seller of the goods, otherwise reverts.\r\n     * @notice Seller triggers withdrawals of remaining deposits for a given supply, in case the voucher set is no longer in exchange.\r\n     * @param _tokenIdSupply an ID of a supply token (ERC-1155) which will be burned and deposits will be returned for\r\n     * @param _burnedQty burned quantity that the deposits should be withdrawn for\r\n     * @param _msgSender owner of the voucher set\r\n     */\r\n    function withdrawDepositsSe(\r\n        uint256 _tokenIdSupply,\r\n        uint256 _burnedQty,\r\n        address payable _msgSender\r\n    ) external override nonReentrant onlyFromRouter {\r\n        uint256 deposit =\r\n            IVoucherKernel(voucherKernel).getSellerDeposit(_tokenIdSupply);\r\n\r\n        uint256 depositAmount = deposit.mul(_burnedQty);\r\n\r\n        uint8 paymentMethod =\r\n            IVoucherKernel(voucherKernel).getVoucherPaymentMethod(\r\n                _tokenIdSupply\r\n            );\r\n\r\n        require(\r\n            paymentMethod > 0 && paymentMethod <= 4,\r\n            \"INVALID PAYMENT METHOD\"\r\n        );\r\n\r\n        if (paymentMethod == ETHETH || paymentMethod == TKNETH) {\r\n            escrow[_msgSender] = escrow[_msgSender].sub(depositAmount);\r\n        }\r\n\r\n        if (paymentMethod == ETHTKN || paymentMethod == TKNTKN) {\r\n            address addressTokenDeposits =\r\n                IVoucherKernel(voucherKernel).getVoucherDepositToken(\r\n                    _tokenIdSupply\r\n                );\r\n\r\n            escrowTokens[addressTokenDeposits][_msgSender] = escrowTokens[\r\n                addressTokenDeposits\r\n            ][_msgSender]\r\n                .sub(depositAmount);\r\n        }\r\n\r\n        _withdrawDeposits(\r\n            _msgSender,\r\n            depositAmount,\r\n            paymentMethod,\r\n            _tokenIdSupply\r\n        );\r\n    }\r\n\r\n    /**\r\n     * @notice Internal function for withdrawing payments.\r\n     * As unbelievable as it is, neither .send() nor .transfer() are now secure to use due to EIP-1884\r\n     *  So now transferring funds via the last remaining option: .call()\r\n     *  See https://diligence.consensys.net/posts/2019/09/stop-using-soliditys-transfer-now/\r\n     * @param _recipient    address of the account receiving funds from the escrow\r\n     * @param _amount       amount to be released from escrow\r\n     * @param _paymentMethod payment method that should be used to determine, how to do the payouts\r\n     * @param _tokenIdSupply       _tokenIdSupply of the voucher set this is related to\r\n     */\r\n    function _withdrawPayments(\r\n        address _recipient,\r\n        uint256 _amount,\r\n        uint8 _paymentMethod,\r\n        uint256 _tokenIdSupply\r\n    ) internal {\r\n        require(_recipient != address(0), \"UNSPECIFIED_ADDRESS\"); //hex\"20\" FISSION.code(FISSION.Category.Find, FISSION.Status.NotFound_Unequal_OutOfRange)\r\n        require(_amount > 0, \"\");\r\n\r\n        if (_paymentMethod == ETHETH || _paymentMethod == ETHTKN) {\r\n            payable(_recipient).sendValue(_amount);\r\n            emit LogWithdrawal(msg.sender, _recipient, _amount);\r\n        }\r\n\r\n        if (_paymentMethod == TKNETH || _paymentMethod == TKNTKN) {\r\n            address addressTokenPrice =\r\n                IVoucherKernel(voucherKernel).getVoucherPriceToken(\r\n                    _tokenIdSupply\r\n                );\r\n\r\n            SafeERC20.safeTransfer(\r\n                IERC20(addressTokenPrice),\r\n                _recipient,\r\n                _amount\r\n            );\r\n        }\r\n    }\r\n\r\n    /**\r\n     * @notice Internal function for withdrawing deposits.\r\n     * @param _recipient    address of the account receiving funds from the escrow\r\n     * @param _amount       amount to be released from escrow\r\n     * @param _paymentMethod       payment method that should be used to determine, how to do the payouts\r\n     * @param _tokenIdSupply       _tokenIdSupply of the voucher set this is related to\r\n     */\r\n    function _withdrawDeposits(\r\n        address _recipient,\r\n        uint256 _amount,\r\n        uint8 _paymentMethod,\r\n        uint256 _tokenIdSupply\r\n    ) internal {\r\n        require(_recipient != address(0), \"UNSPECIFIED_ADDRESS\"); //hex\"20\" FISSION.code(FISSION.Category.Find, FISSION.Status.NotFound_Unequal_OutOfRange)\r\n        require(_amount > 0, \"\");\r\n\r\n        if (_paymentMethod == ETHETH || _paymentMethod == TKNETH) {\r\n            payable(_recipient).sendValue(_amount);\r\n            emit LogWithdrawal(msg.sender, _recipient, _amount);\r\n        }\r\n\r\n        if (_paymentMethod == ETHTKN || _paymentMethod == TKNTKN) {\r\n            address addressTokenDeposits =\r\n                IVoucherKernel(voucherKernel).getVoucherDepositToken(\r\n                    _tokenIdSupply\r\n                );\r\n\r\n            SafeERC20.safeTransfer(\r\n                IERC20(addressTokenDeposits),\r\n                _recipient,\r\n                _amount\r\n            );\r\n        }\r\n    }\r\n\r\n    /**\r\n     * @notice Set the address of the BR contract\r\n     * @param _bosonRouterAddress   The address of the Boson Route contract\r\n     */\r\n    function setBosonRouterAddress(address _bosonRouterAddress)\r\n        external\r\n        override\r\n        onlyOwner\r\n    {\r\n        require(_bosonRouterAddress != address(0), \"UNSPECIFIED_ADDRESS\"); //hex\"20\" FISSION.code(FISSION.Category.Find, FISSION.Status.NotFound_Unequal_OutOfRange)\r\n\r\n        bosonRouterAddress = _bosonRouterAddress;\r\n\r\n        emit LogBosonRouterSet(_bosonRouterAddress, msg.sender);\r\n    }\r\n\r\n    /**\r\n     * @notice Set the address of the ERC1155ERC721 contract\r\n     * @param _tokensContractAddress   The address of the ERC1155ERC721 contract\r\n     */\r\n    function setTokenContractAddress(address _tokensContractAddress)\r\n        external\r\n        override\r\n        onlyOwner\r\n    {\r\n     \r\n        require(_tokensContractAddress != address(0), \"UNSPECIFIED_ADDRESS\"); //hex\"20\" FISSION.code(FISSION.Category.Find, FISSION.Status.NotFound_Unequal_OutOfRange)\r\n        tokensContractAddress = _tokensContractAddress;\r\n        emit LogTokenContractSet(_tokensContractAddress, msg.sender);\r\n    }\r\n\r\n\r\n    /**\r\n     * @notice Update the amount in escrow of an address with the new value, based on VoucherSet/Voucher interaction\r\n     * @param _account  The address of an account to update\r\n     */\r\n    function addEscrowAmount(address _account)\r\n        external\r\n        override\r\n        payable\r\n        onlyFromRouter\r\n    {\r\n        escrow[_account] = escrow[_account].add(msg.value);\r\n    }\r\n\r\n    /**\r\n     * @notice Update the amount in escrowTokens of an address with the new value, based on VoucherSet/Voucher interaction\r\n     * @param _token  The address of a token to query\r\n     * @param _account  The address of an account to query\r\n     * @param _newAmount  New amount to be set\r\n     */\r\n    function addEscrowTokensAmount(\r\n        address _token,\r\n        address _account,\r\n        uint256 _newAmount\r\n    ) external override onlyFromRouter {\r\n        escrowTokens[_token][_account] =  escrowTokens[_token][_account].add(_newAmount);\r\n    }\r\n\r\n    /**\r\n     * @notice Hook which will be triggered when a _tokenIdVoucher will be transferred. Escrow funds should be allocated to the new owner.\r\n     * @param _from prev owner of the _tokenIdVoucher\r\n     * @param _to next owner of the _tokenIdVoucher\r\n     * @param _tokenIdVoucher _tokenIdVoucher that has been transferred\r\n     */\r\n    function onERC721Transfer(\r\n        address _from,\r\n        address _to,\r\n        uint256 _tokenIdVoucher\r\n    ) external override onlyTokensContract {\r\n        address tokenAddress;\r\n\r\n        uint256 tokenSupplyId =\r\n            IVoucherKernel(voucherKernel).getIdSupplyFromVoucher(\r\n                _tokenIdVoucher\r\n            );\r\n\r\n        uint8 paymentType =\r\n            IVoucherKernel(voucherKernel).getVoucherPaymentMethod(\r\n                tokenSupplyId\r\n            );\r\n\r\n        (uint256 price, uint256 depositBu) =\r\n            IVoucherKernel(voucherKernel).getBuyerOrderCosts(tokenSupplyId);\r\n\r\n        if (paymentType == ETHETH) {\r\n            uint256 totalAmount = price.add(depositBu);\r\n\r\n            //Reduce _from escrow amount and increase _to escrow amount\r\n            escrow[_from] = escrow[_from].sub(totalAmount);\r\n            escrow[_to] = escrow[_to].add(totalAmount);\r\n        }\r\n\r\n\r\n        if (paymentType == ETHTKN) {\r\n\r\n            //Reduce _from escrow amount and increase _to escrow amount - price\r\n            escrow[_from] = escrow[_from].sub(price);\r\n            escrow[_to] = escrow[_to].add(price);\r\n\r\n            tokenAddress = IVoucherKernel(voucherKernel).getVoucherDepositToken(\r\n                tokenSupplyId\r\n            );\r\n\r\n            //Reduce _from escrow token amount and increase _to escrow token amount - deposit\r\n            escrowTokens[tokenAddress][_from] = escrowTokens[tokenAddress][_from].sub(depositBu);\r\n            escrowTokens[tokenAddress][_to] = escrowTokens[tokenAddress][_to].add(depositBu);\r\n\r\n        }\r\n\r\n        if (paymentType == TKNETH) {\r\n            tokenAddress = IVoucherKernel(voucherKernel).getVoucherPriceToken(\r\n                tokenSupplyId\r\n            );\r\n        \r\n\r\n            //Reduce _from escrow token amount and increase _to escrow token amount - price \r\n            escrowTokens[tokenAddress][_from] = escrowTokens[tokenAddress][_from].sub(price);\r\n            escrowTokens[tokenAddress][_to] = escrowTokens[tokenAddress][_to].add(price);\r\n\r\n            //Reduce _from escrow amount and increase _to escrow amount - deposit\r\n            escrow[_from] = escrow[_from].sub(depositBu);\r\n            escrow[_to] = escrow[_to].add(depositBu);\r\n        }\r\n\r\n        if (paymentType == TKNTKN) {\r\n            tokenAddress = IVoucherKernel(voucherKernel).getVoucherPriceToken(\r\n                tokenSupplyId\r\n            );\r\n\r\n\r\n            //Reduce _from escrow token amount and increase _to escrow token amount - price \r\n            escrowTokens[tokenAddress][_from] = escrowTokens[tokenAddress][_from].sub(price);\r\n            escrowTokens[tokenAddress][_to] = escrowTokens[tokenAddress][_to].add(price);\r\n\r\n            tokenAddress = IVoucherKernel(voucherKernel).getVoucherDepositToken(\r\n                tokenSupplyId\r\n            );\r\n\r\n            //Reduce _from escrow token amount and increase _to escrow token amount - deposit \r\n            escrowTokens[tokenAddress][_from] = escrowTokens[tokenAddress][_from].sub(depositBu);\r\n            escrowTokens[tokenAddress][_to] = escrowTokens[tokenAddress][_to].add(depositBu);\r\n\r\n        }\r\n   \r\n        IBosonRouter(bosonRouterAddress).incrementCorrelationId(_to);\r\n    }\r\n\r\n    /**\r\n     * @notice After the transfer happens the _tokenSupplyId should be updated in the promise. Escrow funds for the seller's deposits (If in ETH) should be allocated to the new owner as well.\r\n     * @param _from prev owner of the _tokenSupplyId\r\n     * @param _to nex owner of the _tokenSupplyId\r\n     * @param _tokenSupplyId _tokenSupplyId for transfer\r\n     * @param _value qty which has been transferred\r\n     */\r\n    function onERC1155Transfer(\r\n        address _from,\r\n        address _to,\r\n        uint256 _tokenSupplyId,\r\n        uint256 _value\r\n    ) external override onlyTokensContract {\r\n        uint8 paymentType =\r\n            IVoucherKernel(voucherKernel).getVoucherPaymentMethod(\r\n                _tokenSupplyId\r\n            );\r\n\r\n        uint256 depositSe;\r\n        uint256 totalAmount;\r\n\r\n        if (paymentType == ETHETH || paymentType == TKNETH) {\r\n            depositSe = IVoucherKernel(voucherKernel).getSellerDeposit(\r\n                _tokenSupplyId\r\n            );\r\n            totalAmount = depositSe.mul(_value);\r\n\r\n            //Reduce _from escrow amount and increase _to escrow amount\r\n            escrow[_from] = escrow[_from].sub(totalAmount);\r\n            escrow[_to] = escrow[_to].add(totalAmount);\r\n        }\r\n\r\n        if (paymentType == ETHTKN || paymentType == TKNTKN) {\r\n            address tokenDepositAddress =\r\n                IVoucherKernel(voucherKernel).getVoucherDepositToken(\r\n                    _tokenSupplyId\r\n                );\r\n\r\n            depositSe = IVoucherKernel(voucherKernel).getSellerDeposit(\r\n                _tokenSupplyId\r\n            );\r\n            totalAmount = depositSe.mul(_value);\r\n\r\n            //Reduce _from escrow token amount and increase _to escrow token amount - deposit\r\n            escrowTokens[tokenDepositAddress][_from] = escrowTokens[tokenDepositAddress][_from].sub(totalAmount);\r\n            escrowTokens[tokenDepositAddress][_to] = escrowTokens[tokenDepositAddress][_to].add(totalAmount);\r\n        }\r\n\r\n        IVoucherKernel(voucherKernel).setSupplyHolderOnTransfer(\r\n            _tokenSupplyId,\r\n            _to\r\n        );\r\n\r\n        IBosonRouter(bosonRouterAddress).incrementCorrelationId(_to);\r\n    }\r\n\r\n    /**\r\n     * @notice Only accept ETH via fallback from the BR Contract\r\n     */\r\n    receive() external payable {\r\n        require(msg.sender == bosonRouterAddress, \"INVALID_PAYEE\");\r\n    }\r\n\r\n    // // // // // // // //\r\n    // GETTERS\r\n    // // // // // // // //\r\n\r\n    /**\r\n     * @notice Get the address of Voucher Kernel contract\r\n     * @return Address of Voucher Kernel contract\r\n     */\r\n    function getVoucherKernelAddress() \r\n        external \r\n        view \r\n        override\r\n        returns (address)\r\n    {\r\n        return voucherKernel;\r\n    }\r\n\r\n    /**\r\n     * @notice Get the address of Boson Router contract\r\n     * @return Address of Boson Router contract\r\n     */\r\n    function getBosonRouterAddress() \r\n        external \r\n        view \r\n        override\r\n        returns (address)\r\n    {\r\n        return bosonRouterAddress;\r\n    }\r\n\r\n    /**\r\n     * @notice Get the address of ERC1155ERC721 contract\r\n     * @return Address of ERC1155ERC721 contract\r\n     */\r\n    function getTokensContractAddress() \r\n        external \r\n        view \r\n        override\r\n        returns (address)\r\n    {\r\n        return tokensContractAddress;\r\n    }\r\n\r\n    /**\r\n     * @notice Ensure whether or not contract has been set to disaster state \r\n     * @return disasterState\r\n     */\r\n    function isDisasterStateSet() external view override returns(bool) {\r\n        return disasterState;\r\n    }\r\n\r\n    /**\r\n     * @notice Get the amount in escrow of an address\r\n     * @param _account  The address of an account to query\r\n     * @return          The balance in escrow\r\n     */\r\n    function getEscrowAmount(address _account)\r\n        external\r\n        view\r\n        override\r\n        returns (uint256)\r\n    {\r\n        return escrow[_account];\r\n    }\r\n\r\n    /**\r\n     * @notice Get the amount in escrow of an address\r\n     * @param _token  The address of a token to query\r\n     * @param _account  The address of an account to query\r\n     * @return          The balance in escrow\r\n     */\r\n    function getEscrowTokensAmount(address _token, address _account)\r\n        external\r\n        view\r\n        override\r\n        returns (uint256)\r\n    {\r\n        return escrowTokens[_token][_account];\r\n    }\r\n}\r\n",
  "sourcePath": "E:/Ludo/Documents/Developpement/BOSON/contracts/contracts/Cashier.sol",
  "compiler": {
    "name": "solc",
    "version": "0.7.1+commit.f4a555be.Emscripten.clang"
  },
  "schemaVersion": "3.0.22",
  "updatedAt": "2021-07-07T10:31:40.108Z",
  "networkType": "ethereum",
  "devdoc": {
    "kind": "dev",
    "methods": {
      "addEscrowAmount(address)": {
        "params": {
          "_account": "The address of an account to update"
        }
      },
      "addEscrowTokensAmount(address,address,uint256)": {
        "params": {
          "_account": "The address of an account to query",
          "_newAmount": "New amount to be set",
          "_token": "The address of a token to query"
        }
      },
      "getBosonRouterAddress()": {
        "returns": {
          "_0": "Address of Boson Router contract"
        }
      },
      "getEscrowAmount(address)": {
        "params": {
          "_account": "The address of an account to query"
        },
        "returns": {
          "_0": "The balance in escrow"
        }
      },
      "getEscrowTokensAmount(address,address)": {
        "params": {
          "_account": "The address of an account to query",
          "_token": "The address of a token to query"
        },
        "returns": {
          "_0": "The balance in escrow"
        }
      },
      "getTokensContractAddress()": {
        "returns": {
          "_0": "Address of ERC1155ERC721 contract"
        }
      },
      "getVoucherKernelAddress()": {
        "returns": {
          "_0": "Address of Voucher Kernel contract"
        }
      },
      "isDisasterStateSet()": {
        "returns": {
          "_0": "disasterState"
        }
      },
      "onERC1155Transfer(address,address,uint256,uint256)": {
        "params": {
          "_from": "prev owner of the _tokenSupplyId",
          "_to": "nex owner of the _tokenSupplyId",
          "_tokenSupplyId": "_tokenSupplyId for transfer",
          "_value": "qty which has been transferred"
        }
      },
      "onERC721Transfer(address,address,uint256)": {
        "params": {
          "_from": "prev owner of the _tokenIdVoucher",
          "_to": "next owner of the _tokenIdVoucher",
          "_tokenIdVoucher": "_tokenIdVoucher that has been transferred"
        }
      },
      "owner()": {
        "details": "Returns the address of the current owner."
      },
      "paused()": {
        "details": "Returns true if the contract is paused, and false otherwise."
      },
      "renounceOwnership()": {
        "details": "Leaves the contract without owner. It will not be possible to call `onlyOwner` functions anymore. Can only be called by the current owner. NOTE: Renouncing ownership will leave the contract without an owner, thereby removing any functionality that is only available to the owner."
      },
      "setBosonRouterAddress(address)": {
        "params": {
          "_bosonRouterAddress": "The address of the Boson Route contract"
        }
      },
      "setTokenContractAddress(address)": {
        "params": {
          "_tokensContractAddress": "The address of the ERC1155ERC721 contract"
        }
      },
      "transferOwnership(address)": {
        "details": "Transfers ownership of the contract to a new account (`newOwner`). Can only be called by the current owner."
      },
      "withdraw(uint256)": {
        "details": "This function would be optimized a lot, here verbose for readability.",
        "params": {
          "_tokenIdVoucher": "ID of a voucher token (ERC-721) to try withdraw funds from"
        }
      },
      "withdrawDepositsSe(uint256,uint256,address)": {
        "params": {
          "_burnedQty": "burned quantity that the deposits should be withdrawn for",
          "_msgSender": "owner of the voucher set",
          "_tokenIdSupply": "an ID of a supply token (ERC-1155) which will be burned and deposits will be returned for"
        }
      },
      "withdrawTokensOnDisaster(address)": {
        "params": {
          "token": "address of a token, that the caller sent the funds, while interacting with voucher or voucher-set"
        }
      }
    },
    "title": "Contract for managing funds Roughly following OpenZeppelin's Escrow at https://github.com/OpenZeppelin/openzeppelin-solidity/contracts/payment/",
    "version": 1
  },
  "userdoc": {
    "kind": "user",
    "methods": {
      "addEscrowAmount(address)": {
        "notice": "Update the amount in escrow of an address with the new value, based on VoucherSet/Voucher interaction"
      },
      "addEscrowTokensAmount(address,address,uint256)": {
        "notice": "Update the amount in escrowTokens of an address with the new value, based on VoucherSet/Voucher interaction"
      },
      "canUnpause()": {
        "notice": "If once disaster state has been set to true, the contract could never be unpaused."
      },
      "getBosonRouterAddress()": {
        "notice": "Get the address of Boson Router contract"
      },
      "getEscrowAmount(address)": {
        "notice": "Get the amount in escrow of an address"
      },
      "getEscrowTokensAmount(address,address)": {
        "notice": "Get the amount in escrow of an address"
      },
      "getTokensContractAddress()": {
        "notice": "Get the address of ERC1155ERC721 contract"
      },
      "getVoucherKernelAddress()": {
        "notice": "Get the address of Voucher Kernel contract"
      },
      "isDisasterStateSet()": {
        "notice": "Ensure whether or not contract has been set to disaster state "
      },
      "onERC1155Transfer(address,address,uint256,uint256)": {
        "notice": "After the transfer happens the _tokenSupplyId should be updated in the promise. Escrow funds for the seller's deposits (If in ETH) should be allocated to the new owner as well."
      },
      "onERC721Transfer(address,address,uint256)": {
        "notice": "Hook which will be triggered when a _tokenIdVoucher will be transferred. Escrow funds should be allocated to the new owner."
      },
      "pause()": {
        "notice": "Pause the process of interaction with voucherID's (ERC-721), in case of emergency. Only BR contract is in control of this function."
      },
      "setBosonRouterAddress(address)": {
        "notice": "Set the address of the BR contract"
      },
      "setDisasterState()": {
        "notice": "Once this functions is triggered, contracts cannot be unpaused anymore Only BR contract is in control of this function."
      },
      "setTokenContractAddress(address)": {
        "notice": "Set the address of the ERC1155ERC721 contract"
      },
      "unpause()": {
        "notice": "Unpause the process of interaction with voucherID's (ERC-721). Only BR contract is in control of this function."
      },
      "withdraw(uint256)": {
        "notice": "Trigger withdrawals of what funds are releasable The caller of this function triggers transfers to all involved entities (pool, issuer, token holder), also paying for gas."
      },
      "withdrawDepositsSe(uint256,uint256,address)": {
        "notice": "External function for withdrawing deposits. Caller must be the seller of the goods, otherwise reverts.Seller triggers withdrawals of remaining deposits for a given supply, in case the voucher set is no longer in exchange."
      },
      "withdrawEthOnDisaster()": {
        "notice": "In case of a disaster this function allow the caller to withdraw all pooled funds kept in the escrow for the address provided. Funds are sent in ETH"
      },
      "withdrawTokensOnDisaster(address)": {
        "notice": "In case of a disaster this function allow the caller to withdraw all pooled funds kept in the escrowTokens for the address provided."
      }
    },
    "version": 1
  }
}